S01000004669726D776172652E73726563D7
S1130000CEC00000E0C30000EBC00000E9C0000067
S1130010E7C00000E5C00000E3C00000E1C000004C
S1130020DFC00000DDC00000DBC00000D9C000005C
S1130030D7C00000FDC30000D3C00000D1C0000041
S1130040CFC00000CDC00000CBC00000C9C000007C
S1130050C7C000000C94AA08C3C00000C1C00000BF
S11300600C9450180C94EC150C942E16B9C0000086
S1130070B7C00000B5C00000B3C00000B1C00000AC
S1130080AFC00000ADC00000ABC00000A9C00000BC
S11300900C947A160C94BC16A3C00000A1C00000F6
S11300A09FC000009DC000009BC0000099C00000DC
S11300B097C0000095C0000093C0000091C00000EC
S11300C08FC000008DC000008BC000004E124E1285
S11300D04E128612751283124E124E128612751229
S11300E0DC13E413EC13F413FC1300145A145A1421
S11300F05A145A145A1442145A145A145A145A14A4
S11301005A144E145A145A145A145A145A145A1487
S11301105A145A145A145A145A145A145A145A146B
S1130120D813E013E813F013F8130F2EFDEBEF2EA2
S1130130FDE0FF2EF02DC5E9DDE027C00E943D0D56
S113014018810E94080E112301F10FB6F8940F9242
S1130150E0919A0DF0919B0D06811781C8010296DA
S113016046D68091930D81508093930D8091940D88
S113017081508093940D0F900FBEF8018789908D64
S11301800E94DF08C8010E94DF088091940D81114C
S1130190D5CFF70180818230C0F307D7F6CF112481
S11301A01FBECFEFD1E2DEBFCDBF00E00CBF12E037
S11301B0A0E0B2E0E4ECFAE300E00BBF02C0079079
S11301C00D92A23EB107D9F729E1A2EEB2E001C037
S11301D01D92AC30B207E1F70E940F150C94601D1C
S11301E00FCF10924203E0914003F0914103309706
S11301F009F019950895CF93DF931F921F92CDB7FD
S1130200DEB76A8380914203882319F0862F98D43D
S113021013C080913E0390913F03009769F01982C7
S113022020E0AE014F5F5F4FBE016E5F7F4F0E94C3
S1130230980A89818111B9D60F900F90DF91CF91DF
S11302400895DF92EF92FF920F931F93CF93DF9362
S1130250CDB7DEB7D62EEDB6FEB6262F30E02F5F33
S11302603F4F4DB75EB7421B530B0FB6F8945EBFBA
S11302700FBE4DBF0DB71EB70F5F1F4F98018068AB
S1130280EDB7FEB78183662341F081E0F901E80F01
S1130290F11D10828F5FD816C8F78AE793E035D333
S11302A041E04D0DB8018091A7039091A8030E94ED
S11302B0CF170FB6F894FEBE0FBEEDBEDF91CF91FF
S11302C01F910F91FF90EF90DF900895462FBC018E
S11302D08091A5039091A6030C94AD1508951F93E6
S11302E0CF93DF9300D01F92CDB7DEB78091E502A4
S11302F08230C1F128F4882351F08130C9F0F1C073
S1130300833009F43FC0853009F494C0EAC081E029
S11303108093E5028CE18B831C8242E0BE016D5F19
S11303207F4F8091A7039091A8030E94CF17D9C053
S11303308AE793E0E7D2823009F0D3C08093E502E4
S11303408AE793E0E2D28BE18B8388E08C8342E0FE
S1130350BE016D5F7F4F8091A7039091A8030E9417
S1130360CF17BFC08AE793E0CDD2823009F0B9C07D
S113037083E08093E5028AE793E0C7D266E08BE3EB
S113038060DFAFC08AE793E0BDD2873009F0A9C02F
S11303901FB7F894BE016F5F7F4F8AE793E082D264
S11303A0BE016E5F7F4F8AE793E07CD2BE016F5F30
S11303B07F4F8AE793E076D28A8190E0982F88274E
S11303C02981822B90934E0380934D03BE016E5F6F
S11303D07F4F8AE793E066D2BE016F5F7F4F8AE763
S11303E093E060D28A8190E0982F88272981822B1C
S11303F090934C0380934B03BE016E5F7F4F8AE75B
S113040093E050D2BE016F5F7F4F8AE793E04AD2F8
S11304101FBF8A8190E0982F88272981822B90938F
S11304204A038093490385E08093E50266E083E410
S113043008DF57C08AE793E065D2873009F051C0DE
S11304401FB7F894BE016F5F7F4F8AE793E02AD20B
S1130450BE016E5F7F4F8AE793E024D2BE016F5FD7
S11304607F4F8AE793E01ED28A8190E0982F8827F5
S11304702981822B9093480380934703BE016E5FCA
S11304807F4F8AE793E00ED2BE016F5F7F4F8AE70A
S113049093E008D28A8190E0982F88272981822BC3
S11304A09093460380934503BE016E5F7F4F8AE7B6
S11304B093E0F8D1BE016F5F7F4F8AE793E0F2D1FA
S11304C01FBF8A8190E0982F88272981822B9093DF
S11304D044038093430383E08093E50266E08BE367
S11304E0B0DE0F900F900F900F90DF91CF911F917E
S11304F00895882311F0439A089543980895882312
S113050011F0429A089542980895882311F0419A6F
S1130510089541980895853608F084E68823A9F063
S1130520282F30E0AFE7BCE00E94261924E630E033
S113053040E050E00E940419309399002093980001
S113054030939B0020939A00089510929900109282
S1130550980010929B0010929A0008958F929F9297
S1130560AF92BF92CF92DF92EF920F931F933B9A79
S11305703A9A399A389AE0E9F0E08081826080837F
S1130580A1E9B0E08C9188618C938FE79CE0909313
S11305909900809398002081206C20836B9A90931B
S11305A09B0080939A002081206320836C9A90930F
S11305B09700809396008C9181608C9380E0ABDFF0
S11305C0E1E8F0E08081866080836A986D9A75988E
S11305D0089A1098099A11980A9A1298E9E6F0E094
S11305E0808182608083E89A81E193E056D186EE2F
S11305F092E053D10F2EFBEF8F2EF0E09F2EF02DC3
S11306000F2EF6EEAF2EF2E0BF2EF02D0F2EF1E1FD
S1130610CF2EF3E0DF2EF02DE12C00E023E040E8C4
S113062055E260E070E080E00E9436159093A603E6
S11306308093A5038AE793E030D18FE493E02DD132
S11306408FE691E09F938F930F2EFFE48F2EF3E0BC
S11306509F2EF02D0F2EFAE7AF2EF3E0BF2EF02DD4
S1130660C12C05E210E020E043E063E080E10E9459
S113067042179093A8038093A70360E080E090E082
S11306802EDE8BE98093B300E1EBF0E080818260A1
S11306908083A0E7B0E08C9182608C938081856038
S11306A080830F900F901F910F91EF90DF90CF9068
S11306B0BF90AF909F908F900895853608F084E6A0
S11306C08823A9F0282F30E0AFE7BCE00E94261968
S11306D024E630E040E050E00E9404193093990091
S11306E02093980010929B0010929A000895109203
S11306F099001092980010929B0010929A0008950D
S11307002FB7F89480914D0390914E032FBF089515
S11307102FB7F89480914B0390914C032FBF089509
S11307202FB7F89480914703909148032FBF089501
S11307302FB7F89480914503909146032FBF0895F5
S113074020918400309185008091E3029091E4022D
S11307502817390730F4A901481B590BCA0101971E
S113076004C0A901481B590BCA013093E402209329
S1130770E3020895882311F010980895109A0895BB
S1130780462FBC018091A5039091A6030C94AD154E
S1130790089570933F0360933E03909341038093C5
S11307A0400381E08093420341EF50E066E671E04C
S11307B087E092E09DC10895009721F090933D0356
S11307C080933C0308951F920F920FB60F92112449
S11307D00BB60F922F933F934F935F936F937F9337
S11307E08F939F93AF93BF93EF93FF9380913C03B9
S11307F090913D03009749F01092E20262EE72E09C
S1130800C9D68091E2028111D0D3FF91EF91BF91BB
S1130810AF919F918F917F916F915F914F913F9194
S11308202F910F900BBE0F900FBE0F901F90189535
S11308301F920F920FB60F9211240BB60F922F93A3
S11308403F934F935F936F937F938F939F93AF9354
S1130850BF93EF93FF9380914203882359F08091D3
S11308600602815019F08093060204C08AE0809346
S113087006024FD1FF91EF91BF91AF919F918F915C
S11308807F916F915F914F913F912F910F900BBE8C
S11308900F900FBE0F901F901895FC0110A611A683
S11308A012A60895FC0182A58823A1F081A5DF0189
S11308B0A80FB11D8C91DB018C9381A590E001966A
S11308C068E270E00E94CF1881A782A5815082A7B8
S11308D080E0089581E00895FC0122A5283280F487
S11308E080A590E0DF01A80FB91F6C93019668E220
S11308F070E00E94CF1880A72F5F22A780E00895A0
S113090082E00895FC0182A50895FC0110A611A6B9
S113091012A60895E091B603F091B7038081853261
S113092009F085C0CF0101969093B7038093B60375
S11309308181853219F41092AD0308958A32E1F56C
S1130940CF0102969093B7038093B603339620E0C9
S1130950DC010196220F322F330F330F230F205364
S11309603C91230F3191323499F72093B8031296B6
S1130970B093B703A093B6038091BA039091BB03DD
S11309800097B1F0E9EBF3E020812F5F2083332758
S113099027FD3095F901EE0FFF1FE20FF31FE80F5B
S11309A0F91F1282808191819093BD038093BC03CF
S11309B082E08093AD0308958091B6039091B703CC
S11309C0DC01119620E0FC010196220F322F330F37
S11309D0330F230F20533081230F3D91323499F785
S11309E02093B8033296F093B703E093B603809153
S11309F0BA039091BB030097B1F0A9EBB3E0EC917B
S1130A00EF5FEC93FF27E7FDF0959F01220F331F63
S1130A10E20FF31FE80FF91F1282808191819093F6
S1130A20BD038093BC0381E08093AD0308951092CD
S1130A30AD030895CF93DF931092B1038093B00375
S1130A4092E0980F923030F4E091A903F091AA0358
S1130A5019954BC09BE0899FE0011124A091AE033E
S1130A60B091AF03AC0FBD1F12966C911297662321
S1130A7039F0E091AB03F091AC038D919C91199501
S1130A808091AE039091AF03C80FD91F2D8122230B
S1130A9051F18B819C819093B3038093B203909323
S1130AA0B7038093B603E985FA85F093BB03E0931B
S1130AB0BA033FEF3093B903309731F0408151814D
S1130AC05093BD034093BC0330E021503109820FA1
S1130AD0931F9093B5038093B4031CDF8E818F5FC3
S1130AE08093B10302C08F81A5DFDF91CF91089578
S1130AF09093AF038093AE037093AC036093AB0306
S1130B005093AA034093A9031092B00380E092CFBC
S1130B1008958091B103882391F081508093B103AB
S1130B2081110DC08091B003E091AE03F091AF0349
S1130B309BE0899FE00DF11D112480857BCF0895F2
S1130B406F927F928F929F92AF92BF92CF92DF92D9
S1130B50EF92FF920F931F93CF93DF93982E809180
S1130B60AD03813009F442C020F0823009F470C032
S1130B70AFC0812CC6EBD3E00F2EF2EBCF2EF3E007
S1130B80DF2EF02D0F2EF9EBEF2EF3E0FF2EF02DDC
S1130B900AEB13E077247394612C0F2EFCEBAF2E39
S1130BA0F3E0BF2EF02DE881F9819F012F5F3F4FC5
S1130BB03983288380818915A9F0D6018D919C9170
S1130BC099838883F7011082D801ED91FC913097C5
S1130BD029F080819181F50191838083872D811093
S1130BE0862D882E97DE8110DECF72C02091BA0345
S1130BF03091BB032115310511F1ACEBB3E0ED915C
S1130C00FC911197CF0101968D939C939082E09172
S1130C10B903FF27E7FDF095CF01880F991FE80F6F
S1130C20F91FE20FF31F82818F5F8283E8EBF3E009
S1130C3080818150808381114BC06CDE49C0E8EB18
S1130C40F3E0808181508083811142C063DE40C023
S1130C50E091B603F091B7038081891551F1809139
S1130C60BA039091BB03009709F44EC0ACEBB3E018
S1130C70ED91FC9111979F012F5F3F4F2D933C9372
S1130C8090822091B903332727FD3095F901EE0FA7
S1130C90FF1FE20FF31FE80FF91F82818F5F82832A
S1130CA0E8EBF3E0808181508083811111C032DE52
S1130CB00FC0A8EBB3E08C9181508C93811102C0DA
S1130CC029DE06C03196F093B703E093B60322DE23
S1130CD08091AD03811118C02091B6033091B70300
S1130CE08091B4039091B5038217930768F48091BF
S1130CF0B003E091AE03F091AF039BE0899FE00D58
S1130D00F11D1124878196DEDF91CF911F910F9100
S1130D10FF90EF90DF90CF90BF90AF909F908F9017
S1130D207F906F900895FC010396928381832FEF47
S1130D303FEF348323839683858390878783108250
S1130D400895FC01118610860895CF93DF939C01CA
S1130D50FB01DC011196CD91DC911297D383C28300
S1130D608C819D81958384838C819D81DC01139684
S1130D707C936E9312977D836C8331872087F9016E
S1130D8080818F5F8083DF91CF910895CF93DF932C
S1130D90EB01488159814F3F2FEF520721F4FC01A9
S1130DA0A781B0850DC0DC0113961296ED91FC91DC
S1130DB01397208131814217530710F0DF01F5CFDB
S1130DC01296ED91FC911397FB83EA83D583C48338
S1130DD0BD83AC831396DC93CE931297998788874F
S1130DE0FC0120812F5F2083DF91CF910895CF9361
S1130DF0DF93FC01A085B185C281D3818481958173
S1130E009D838C83C481D581828193819B838A83D2
S1130E101196CD91DC911297CE17DF0731F48C81B6
S1130E209D8112969C938E931197118610868C91B6
S1130E3081508C93DF91CF91089531E1FC0130838F
S1130E40319722E220833197A3E3A0833197608313
S1130E50319770833197108231971082319760E80F
S1130E6060833197108231971082319710823197C5
S1130E7062E06083319763E06083319764E060836C
S1130E80319765E06083319766E06083319767E06E
S1130E906083319768E06083319769E060833197BC
S1130EA060E1608331973083319732E13083319749
S1130EB033E13083319734E13083319735E1308346
S1130EC0319736E13083319737E13083319738E118
S1130ED03083319739E13083319730E23083319771
S1130EE031E2308331972083319723E22083319795
S1130EF0408331975083319726E22083319727E24C
S1130F002083319728E22083319729E22083319787
S1130F1020E32083319721E320838997089588EE85
S1130F2093E09093C1038093C0039093BF03809395
S1130F30BE0389EF87BD82E084BD83E085BDEEE614
S1130F40F0E0808182608083A091E10DB091E20D98
S1130F50CD91CDBFDD91DEBFFF91EF91DF91CF91B8
S1130F60BF91AF919F918F917F916F915F914F91BD
S1130F703F912F911F910F91FF90EF90DF90CF90B1
S1130F80BF90AF909F908F907F906F905F904F90A5
S1130F903F902F901F900F900CBE0F900BBE0F90A0
S1130FA00FBE0F90089581E008950F920FB6F89444
S1130FB00F920BB60F920CB60F921F9211242F9220
S1130FC03F924F925F926F927F928F929F92AF92D5
S1130FD0BF92CF92DF92EF92FF920F931F932F93C2
S1130FE03F934F935F936F937F938F939F93AF93AD
S1130FF0BF93CF93DF93EF93FF93A091E10DB09153
S1131000E20D0DB60D920EB60D929BD6A091E10D98
S1131010B091E20DCD91CDBFDD91DEBFFF91EF9197
S1131020DF91CF91BF91AF919F918F917F916F91FC
S11310305F914F913F912F911F910F91FF90EF90EE
S1131040DF90CF90BF90AF909F908F907F906F90E4
S11310505F904F903F902F901F900F900CBE0F9079
S11310600BBE0F900FBE0F9008950F920FB6F89419
S11310700F920BB60F920CB60F921F9211242F925F
S11310803F924F925F926F927F928F929F92AF9214
S1131090BF92CF92DF92EF92FF920F931F932F9301
S11310A03F934F935F936F937F938F939F93AF93EC
S11310B0BF93CF93DF93EF93FF93A091E10DB09192
S11310C0E20D0DB60D920EB60D928091BE03909175
S11310D0BF0301979093BF038093BE03892B41F410
S11310E08091C0039091C1039093BF038093BE038A
S11310F0D4D4811126D6A091E10DB091E20DCD9109
S1131100CDBFDD91DEBFFF91EF91DF91CF91BF9114
S1131110AF919F918F917F916F915F914F913F918B
S11311202F911F910F91FF90EF90DF90CF90BF9080
S1131130AF909F908F907F906F905F904F903F9073
S11311402F901F900F900CBE0F900BBE0F900FBEF0
S11311500F9008958ADF1895CF93DF93EC018DD417
S11311608091C2039091C303892B31F487EC93E0FF
S11311709093C3038093C2034091C4035091C50369
S11311809E01240F351F233C89E0380770F4421771
S1131190530770F4C091C203D091C303C40FD51F89
S11311A03093C5032093C40305C0C0E0D0E002C05F
S11311B0C0E0D0E02DD5CE01DF91CF910895089500
S11311C01F93CF93DF93EC01142F8C8D81110BC0EF
S11311D088819981892B09F046C08A819B8156D7E1
S11311E01B821A8247C0411118C0482F50E08C81DD
S11311F09D810E948D1A2C8D8C819D81820F911D61
S11312009D838C832A813B818217930770F18881A7
S113121099819D838C8380E02DC0482F50E08E817E
S11312209F810E948D1A2C8D30E0319521953109D2
S11312308E819F81820F931F9F838E836881798122
S11312408617970730F48A819B81280F391F3F83C3
S11312502E83123061F48A8D882359F08A8D81504F
S11312608A8F80E007C080E005C080E003C080E092
S113127001C080E09A8D9F5F9A8FDF91CF911F917B
S11312800895FC01CB01448D4423A1F050E0268154
S11312903781240F351F3783268362817381261794
S11312A0370720F020813181378326836681778157
S11312B00C948D1A08950F931F93CF93DF93EC0131
S11312C00FB6F8940F928E8D1816A4F4898988238A
S11312D089F08E010F5E1F4F03C08989882351F066
S11312E0C801DFD5811162D68E8D81508E8F8E8D8F
S11312F018169CF38FEF8E8F0F900FBE0FB6F894D5
S11313000F928D8D1816A4F48885882389F08E0198
S1131310085F1F4F03C08885882351F0C801C1D5D9
S1131320811144D68D8D81508D8F8D8D18169CF32F
S11313308FEF8D8F0F900FBEDF91CF911F910F9183
S11313400895CF93DF93EC010FB6F8940F92888140
S113135099812C8D30E07B8D729FA001739F500D7D
S11313601124FC01E40FF51FFB83EA831A8E9D838D
S11313708C83421B530B840F951F9F838E838FEFA7
S11313808D8F8E8F61110AC08885882369F0CE0104
S1131390089687D5813041F408DE06C0CE01089650
S11313A0C2DCCE014196BFDC0F900FBE81E0DF911D
S11313B0CF9108950F931F93CF93DF93082F162F88
S11313C06623B9F0869FC00111248096C5DEEC0126
S11313D0009721F414C0D983C88305C09C01215E01
S11313E03F4F398328830B8F1C8F61E0CE01A9DF27
S11313F006C08FE190E0B0DEEC01009761F7CE010A
S1131400DF91CF911F910F9108959F92AF92BF9258
S1131410CF92DF92EF92FF920F931F93CF93DF93BC
S113142000D01F921F92CDB7DEB78C016B015D8394
S11314304C83A22EB12C992493947C0188E0E80E6D
S1131440F11C0FB6F8940F92F801928D838D9817C2
S113145018F0F2E0AF1215C04A2DB601C801B0DE93
S1131460F8019189992339F0C80141961AD5813040
S113147021F49BDD02C0811198DD0F900FBE81E045
S113148046C0EC81FD81EF2B21F40F900FBE80E06C
S11314903EC0B11004C0CE0101964BD5B92C0F90BB
S11314A00FBEEBD20FB6F8940F92F801858D8F3FE3
S11314B009F4158EF801868D8F3F09F4168E0F906E
S11314C00FBEBE016C5F7F4FCE0101963DD58111E9
S11314D01AC00FB6F8940F92F801928D0F900FBEB8
S11314E0F801838D98130BC06C817D81C701A1D451
S11314F0C801E1DE8DD38111A4CF57DDA2CFC8018D
S1131500DADE86D39ECFC801D6DE82D380E00F9088
S11315100F900F900F900F90DF91CF911F910F912B
S1131520FF90EF90DF90CF90BF90AF909F90089581
S11315300F931F93CF93DF93EC018A019A8D8B8DC8
S1131540981710F02230D1F4422FCE0139DE8E8D5F
S11315508F3F79F48989882399F0CE014196A1D4EB
S1131560882381F00115110579F081E0F801808369
S11315700CC08E8D8F5F8E8F81E007C080E005C028
S113158081E003C081E001C081E0DF91CF911F9130
S11315900F910895CF93DF93FC01EB01928D838D1E
S11315A09817C0F4828D8F5F828F868D8F3F69F488
S11315B08189882389F0CF01419673D4882371F0FF
S11315C0209771F081E088830CC0868D8F5F868FB1
S11315D081E007C080E005C081E003C081E001C074
S11315E081E0DF91CF9108959F92AF92BF92CF9205
S11315F0DF92EF92FF920F931F93CF93DF9300D06C
S11316001F921F92CDB7DEB78C016B015D834C83B3
S1131610B22EA12C992493947C0181E1E80EF11C53
S11316200FB6F8940F92F801828D882369F1E68051
S1131630F780B601C80125DEB11017C0F801828D0C
S11316408150828F80819181892B21F45ED5F801AC
S113165093838283F8018085882391F0C8010896DA
S113166020D4813069F4A1DC0BC0F801F782E68252
S11316708189882329F0C801419613D4811195DC0E
S11316800F900FBE81E052C04C815D81452B21F447
S11316900F900FBE80E04AC0A11004C0CE01019695
S11316A048D4A92C0F900FBEE8D10FB6F8940F922E
S11316B0F801858D8F3F09F4158EF801868D8F3FD3
S11316C009F4168E0F900FBEBE016C5F7F4FCE01E2
S11316D001963AD4811126C00FB6F8940F92F801FE
S11316E0828D0F900FBE811119C0F8018081918104
S11316F0892B49F40FB6F8940F92F80182819381F3
S113170067D40F900FBE6C817D81C70192D3C8014D
S1131710D2DD7ED2811184CF48DC82CFC801CBDDFB
S113172077D27ECFC801C7DD73D280E00F900F90CF
S11317300F900F900F90DF91CF911F910F91FF9019
S1131740EF90DF90CF90BF90AF909F900895CF938C
S1131750DF93EC010FB6F8940F928D8D8F3F09F44F
S11317601D8E8E8D8F3F09F41E8E0F900FBE8A8DB5
S1131770811103C0CE01419678D3CE019CDDDF9167
S1131780CF910895E091A90DF091AA0D8081811166
S113179007C08FEF9FEF90934A0280934902089508
S11317A0E091A90DF091AA0D0580F681E02D068047
S11317B0F781E02D8281938190934A0280934902BC
S11317C00895CF93DF93EC01E091E10DF091E20DE8
S11317D0938382838091910D9091920DC817D907BC
S11317E060F46091E10D7091E20D8091A70D9091EC
S11317F0A80D6E5F7F4FCADA16C06091E10D70913B
S1131800E20D8091A90D9091AA0D6E5F7F4FBEDA13
S11318108091490290914A02C817D90720F4D093C5
S11318204A02C0934902DF91CF9108954F925F928B
S11318306F927F928F929F92AF92BF92CF92DF92DC
S1131840EF92FF920F931F93CF93DF934C015B01B1
S11318502A013901C114D10431F4CA017DDC6C01BF
S1131860009709F4CCC088E290E076DCEC010097A4
S113187071F0D88ECF8A81E0481A5108C40CD51C67
S1131880D5018C91898F8C91811104C014C0C6013B
S113189096DCB5C0AE01465E5F4FF501319627E098
S11318A0CF013191DA013D93AD01DC018C918823A4
S11318B011F02150A9F718A2102F043008F013E0FA
S11318C01E8B19A31AA25E01B2E0AB0EB11CC501B6
S11318D038DACE010C9635DAD987C88784E090E0EF
S11318E0811B91099D878C87DB8BCA8B1BA21CA251
S11318F01DA21EA21FA2A301B401C6019EDA9983F0
S11319008883E114F10419F0F701D183C0830FB681
S1131910F8940F928091930D8F5F8093930D809133
S1131920E10D9091E20D892B69F5D093E20DC093FE
S1131930E10D8091930D8130A1F58DEB9DE0F3D9FC
S113194086EC9DE0F0D98FEC9DE0EDD988ED9DE02B
S1131950EAD984EB9DE0E7D98BEA9DE0E4D98EE9EE
S11319609DE0E1D985E99DE0DED984EB9DE090938B
S1131970AA0D8093A90D8BEA9DE09093A80D809306
S1131980A70D0FC080918F0D81110BC0E091E10D67
S1131990F091E20D8689081720F0D093E20DC093F0
S11319A0E10D80918B0D8F5F80938B0D8E899091CB
S11319B0900D981710F48093900D90E09C01220FE5
S11319C0331F220F331F220F331F820F931FB501C2
S11319D08354924FBAD90F900FBE80918F0D8823F4
S11319E051F0E091E10DF091E20D8689801728F421
S11319F0DCDA81E005C081E003C081E001C08FEF43
S1131A00DF91CF911F910F91FF90EF90DF90CF90D6
S1131A10BF90AF909F908F907F906F905F904F900A
S1131A200895AF92BF92CF92DF92EF92FF920F93FD
S1131A30A12CB12CC12CD12CE12CF12C00E020E004
S1131A4030E049EB50E066E872E085E990E0EEDED4
S1131A50813059F4C3D3813041F4F89480938F0DCD
S1131A601092920D1092910D5ADA0F91FF90EF900F
S1131A70DF90CF90BF90AF90089580918A0D8F5FD3
S1131A8080938A0D08950FB6F8940F928091910D6A
S1131A909091920D0F900FBE0895CF92DF92EF9226
S1131AA0FF920F931F93CF93DF9380918A0D81113F
S1131AB096C08091910D9091920D01969093920D04
S1131AC08093910DE090910DF090920DE114F1044A
S1131AD0B1F48091A90D9091AA0D2091A70D309198
S1131AE0A80D3093AA0D2093A90D9093A80D80936F
S1131AF0A70D80918C0D8F5F80938C0D43DE8091B8
S1131B00490290914A02E816F90608F451C0D12C12
S1131B10CC24C39401C0DC2CE091A90DF091AA0D52
S1131B208081811107C08FEF9FEF90934A028093C9
S1131B3049023FC0E091A90DF091AA0D0580F681FC
S1131B40E02DC681D7812A813B81E216F30628F471
S1131B5030934A02209349022CC08E010E5F1F4F1E
S1131B60C80145D98C899D89892B19F0CE010C9621
S1131B703ED92E898091900D821710F42093900DF8
S1131B8030E0C901880F991F880F991F880F991F8A
S1131B90820F931FB8018354924FD7D8E091E10D7F
S1131BA0F091E20D9E898689981708F0B4CFB4CFDE
S1131BB0D12CE091E10DF091E20D868990E0FC01D9
S1131BC0EE0FFF1FEE0FFF1FEE0FFF1F8E0F9F1F65
S1131BD0FC01E354F24F8081823040F409C08091CB
S1131BE08E0D8F5F80938E0DD12C02C0DD24D39493
S1131BF080918D0D882311F0DD24D3948D2DDF91F8
S1131C00CF911F910F91FF90EF90DF90CF900895A7
S1131C10DF92EF92FF920F931F93CF93DF930FB650
S1131C20F8940F9280918A0D815080938A0D80914F
S1131C308A0D81115CC08091930D882309F459C0E9
S1131C400F2EFEE9EF2EFDE0FF2EF02DDD24D394C0
S1131C502DC0E091A30DF091A40DC681D781CE01D2
S1131C600C96C5D88E010E5F1F4FC801C0D88E894F
S1131C709091900D981710F48093900D90E09C0132
S1131C80220F331F220F331F220F331F820F931F84
S1131C90B8018354924F59D8E091E10DF091E20DCF
S1131CA09E898689981710F0D0928D0DF701808156
S1131CB08111CFCF80918E0D882391F080918E0D6C
S1131CC0882371F0C1E0E9DE8111C0938D0D80910C
S1131CD08E0D815080938E0D80918E0D8111F3CFE6
S1131CE080918D0D813039F460D981E005C080E0A8
S1131CF003C080E001C080E00F900FBEDF91CF9160
S1131D001F910F91FF90EF90DF900895CF93DF9391
S1131D10EC01009791F0B1DE8091910D9091920DBC
S1131D20C80FD91F8091E10D9091E20D02965FD802
S1131D30CE0147DD6DDF811101C037D9DF91CF912D
S1131D40089580918A0D882321F081E080938D0D80
S1131D50089510928D0DA091E10DB091E20DE091E6
S1131D60E10DF091E20D2D913C918789908D8217C0
S1131D70930758F06091E10D7091E20D8091E10DAF
S1131D809091E20D675E7F4F70D68091900D90E048
S1131D90FC01EE0FFF1FEE0FFF1FEE0FFF1F8E0F54
S1131DA09F1FFC01E354F24F8081811117C0809181
S1131DB0900D81508093900D8091900D90E0FC01E6
S1131DC0EE0FFF1FEE0FFF1FEE0FFF1F8E0F9F1F63
S1131DD0FC01E354F24F8081882349F3E091900D94
S1131DE0F0E0CF01880F991F880F991F880F991F62
S1131DF0E80FF91FE354F24FA181B28112960D90BE
S1131E00BC91A02DB283A183CF010396A817B90773
S1131E1031F412968D919C91139792838183018062
S1131E20F281E02D868197819093E20D8093E10DFC
S1131E300895CF93DF93EB016091E10D7091E20D72
S1131E40645F7F4F0E94C6068091E10D9091E20D80
S1131E5002960E94F7068091910D9091920D8C0F3D
S1131E609D1FAFDCDF91CF910895CF93DF93EB01FA
S1131E706091E10D7091E20D645F7F4F0E94A506B1
S1131E808091E10D9091E20D02960E94F7068091F7
S1131E90910D9091920D8C0F9D1F93DCDF91CF914A
S1131EA008950F931F93CF93DF93DC011596ED9163
S1131EB0FC911697C681D7818E01045F1F4FC8011C
S1131EC00E94F70680918A0D81111CC00A501109E5
S1131ED0C8010E94F7068E899091900D981710F40E
S1131EE08093900D90E09C01220F331F220F331F2B
S1131EF0220F331F820F931FB8018354924F0E9405
S1131F00A50605C0B8018EE99DE00E94A506E091F2
S1131F10E10DF091E20D9E898689891720F481E014
S1131F2080938D0D01C080E0DF91CF911F910F91BF
S1131F30089520918C0DFC0120832091910D309106
S1131F40920D3283218308950FB6F8940F92209155
S1131F50910D3091920D40918C0DDC015C915417E0
S1131F6039F011964D915C91129724173507C0F4FE
S1131F70DC011196ED91FC911297DB014D915C917E
S1131F80D901AE1BBF0BA417B50760F4E21BF30B1A
S1131F904E0F5F1FFB0151834083CBDF80E003C002
S1131FA081E001C081E00F900FBE089581E080932D
S1131FB08D0D089580918F0D882331F080918A0DC5
S1131FC0811104C082E0089581E0089580E00895BD
S1131FD00F931F93CF93DF93EC01009709F451C043
S1131FE08E89E091E10DF091E20D9689891708F050
S1131FF048C02C853D8533235CF0E091E10DF091E0
S1132000E20D968924E030E0291B31093D872C87B5
S113201090E09C01220F331F220F331F220F331F26
S1132020820F931F8354924F2A853B8528173907C3
S113203011F58E010E5F1F4FC8010E94F706E09153
S1132040E10DF091E20D86898E8B9091900D981799
S113205010F48093900D90E09C01220F331F220F07
S1132060331F220F331F820F931FB8018354924FE3
S11320700E94A50606C0E091E10DF091E20D86896B
S11320808E8BDF91CF911F910F9108950F931F9322
S1132090CF93DF93EC01009771F18AA181508AA359
S11320A02E8999A1291749F1811129C08E010E5F4A
S11320B01F4FC8010E94F70689A18E8B24E030E0EF
S11320C0281B31093D872C879091900D981710F4A7
S11320D08093900D90E09C01220F331F220F331F39
S11320E0220F331F820F931FB8018354924F0E9413
S11320F0A50681E005C080E003C080E001C080E067
S1132100DF91CF911F910F9108958091E10D9091EE
S1132110E20D892B39F0E091E10DF091E20D82A1FD
S11321208F5F82A38091E10D9091E20D0895FC01EF
S113213073836283918780874617570790F0421B09
S1132140530B8485958548175907E0F4BF016E5FEA
S11321507F4F8091E70D9091E80D0E94C60680E0C4
S113216008954217530718F46217730768F4BF0100
S11321706E5F7F4F8091E90D9091EA0D0E94C60633
S113218080E0089581E0089581E008950FB6F89401
S11321900F928091E50D9091E60D892BE1F484EF87
S11321A09DE00E9493068BEE9DE00E94930684EFCF
S11321B09DE09093EA0D8093E90D8BEE9DE0909362
S11321C0E80D8093E70D40E065E08AE0F3D8909352
S11321D0E60D8093E50D0F900FBE0895AF92BF9268
S11321E0CF92DF92EF92FF920F93D0DF8091E50DB3
S11321F09091E60D892B89F0A12CB12CC12CD12C06
S1132200E12CF12C05E020E030E049EB50E06BE8F4
S113221072E088EC91E10ADB01C080E00F91FF904D
S1132220EF90DF90CF90BF90AF9008950F931F93DE
S1132230CF93DF9300D01F921F92CDB7DEB7D901A1
S1132240E091E50DF091E60D309749F169835B83E8
S11322504A839D838C836630D4F4ACDE823059F497
S113226020E0A801BE016F5F7F4F8091E50D909142
S1132270E60DCBD815C020E040E050E0BE016F5F12
S11322807F4F8091E50D9091E60DBFD809C020E005
S1132290AD01BE016F5F7F4FCF014AD901C080E01D
S11322A00F900F900F900F900F90DF91CF911F918F
S11322B00F910895AF92BF92CF92DF92EF92FF9267
S11322C00F931F93CF93DF936C01DDDB7C0180912F
S11322D0E30D9091E40DE816F90608F047C02FC00D
S11322E00580F681E02DA080B180C681D7818E0162
S11322F00E5F1F4FC8010E94F706E989FA89CE01D3
S113230019958E858130D9F48C859D858A0D9B1D08
S1132310A816B90660F49B838A83D987C887B80155
S11323208091E90D9091EA0D0E94C60608C000E074
S113233010E020E030E0A50160E0CE0177DFE0911D
S1132340E90DF091EA0D80818111CACF8091E70DEA
S11323509091E80D9093EA0D8093E90DF093E80DC8
S1132360E093E70D81E0F601808302C0F60110825C
S1132370F092E40DE092E30DC701DF91CF911F913C
S11323800F91FF90EF90DF90CF90BF90AF900895A2
S1132390CF93DF9300D000D0CDB7DEB7CE01019646
S11323A06C01812C912C682E7D2CE091E90DF0912B
S11323B0EA0D8081882309F4B6C00580F681E02DFA
S11323C0E080F1805ADBC60175DF8C0189818111BF
S11323D043C00E151F0590F11BDCE091E90DF0914F
S11323E0EA0D0580F681E02DA680B780C50102962E
S11323F00E94F706D5011E968C911E978130A1F498
S11324001C966D917C911D976E0D7F1D9701A801FF
S1132410C5018DDE813041F4082D192D282D392D6B
S1132420A70160E0C50102DFD5015196ED91FC9151
S11324305297C50119956AC0E82CF92CB701601BA5
S1132440710B8091E50D9091E60D81D9E1DB81114D
S11324505DC00E94D5075AC0DBDB58C08981882340
S11324600CF454C0EC80FD80F70182859385892BA0
S113247021F0C70102960E94F706CE0106961ADFE4
S11324800981112707FD1095212F312F0A301105DD
S113249008F03CC0F801EA59FF4FD2C62A813B81BB
S11324A0D7011C966D917C911D97620F731FAC012F
S11324B0C7013DDE813051F5D7015196ED91FC9174
S11324C05297C7011995F70186858130F9F444853F
S11324D055858A819B81480F591F082D192D282D58
S11324E0392D60E0C701A2DE11C06A817B81D7016A
S11324F01D967C936E931C97680F791F9C01AC0109
S1132500C70115DE03C0C7010E94DF0820E0482D83
S1132510592D662D772D8091E50D9091E60D64D8A7
S113252081119CCF42CFA9DAC601C4DE8C01898116
S1132530882309F481CF90CF8F3F19F481E08093F1
S11325407B13089520E04FEF5FEF60E070E080912F
S1132550FA189091FB1848D88823A1F30E94A0038D
S113256081E00E947F020E94A003EC01CC3D85E043
S1132570D80708F045C000E010E0F801EE0FFF1F97
S1132580E258FC4E80819181C817D90780F1780107
S11325908FEFE81AF80AF701EE0FFF1FE258FC4E1E
S11325A0808191818536910560F480E00E948502E6
S11325B0F701EE0FFF1FE258FC4E80810E948B0250
S11325C009C084560E945D0381E00E94850280E078
S11325D00E948B02F701EE0FFF1FE258FC4E808130
S11325E0918190937D1380937C130E5F1F4F0E9403
S11325F0A003C80FD91FCC3D85E0D80708F4BDCF90
S113260080E00E94850280E00E947F0280E00E94B8
S11326108B0298CF20E04FEF5FEF60E070E0809195
S1132620FC189091FD180E94F40A882399F381E024
S11326300E94790282E390E069DB80E00E947902E3
S1132640E9CFCF93DF93CDB7DEB7A8970FB6F89451
S1132650DEBF0FBECDBF0F2EF5E7AF2EF3E1BF2EC9
S1132660F02D0F2EFDEF8F2EFDE09F2EF02D0F2E5F
S1132670F1E26F2E712CF02DCE0101967C010F2E0C
S1132680F3E9CF2EF2E0DF2EF02D20E04FEF5FEFE5
S113269060E070E08091F8189091F9180E94F40AB3
S11326A0882399F38BE20E948B0284010E948803A1
S11326B0F801918380830E94A003F80193838283AD
S11326C082E390E023DB0C5F1F4F0A151B0571F7B3
S11326D080E00E948B027A826982F70101900020D7
S11326E0E9F73197BF016E197F09C7010E94C00342
S11326F08CE291E00BDB81E00E9485028401F80109
S1132700508041803280238080EA90E0FFDA2F926B
S11327103F921F921F921F921F92809107198F93CD
S1132720809106198F934F925F921F921F92DF92AE
S1132730CF92FF92EF9202D7F70101900020E9F7C0
S11327403197BF016E197F09C7010E94C0030C5F56
S11327501F4F0FB6F894DEBF0FBECDBF0A151B0581
S113276071F680E00E94850290CFAF92BF92CF9223
S1132770DF92EF92FF920F931F93CF93DF93CDB726
S1132780DEB7A8970FB6F894DEBF0FBECDBF909109
S11327907B13992309F4B0C0482F50E0FA01E154A7
S11327A0F109E532F10508F085C0E059FF4F48C54D
S11327B080E00E947F02A0C081E00E947F029CC052
S11327C080E00E94850298C081E00E94850294C046
S11327D080E00E94790290C081E00E9479028CC05E
S11327E080E00E948B0288C081E40E948B0284C036
S11327F080E00E945D0380C084E60E945D037CC08B
S11328000E948003182F092F0E948803F82EE92EB6
S11328103AD990930719809306190E949003D82EF1
S1132820C92E0E949803B82EA92E0E94A0039F933C
S11328308F93AF92BF92CF92DF92809107198F93BB
S1132840809106198F93EF92FF920F931F9383E960
S113285092E09F938F938E010F5F1F4F1F930F93EF
S11328606DD6F80101900020E9F73197BF01601B94
S1132870710BC8010E94C0030FB6F894DEBF0FBEEF
S1132880CDBF3AC020E040E050E060E070E08091CD
S1132890F8189091F9180E94050A2EC020E040E033
S11328A050E060E070E08091FA189091FB180E946B
S11328B0050A22C090917A13E92FF0E0EB58FC4E00
S11328C080839F5F90937A138132B1F400917C13DB
S11328D010917D1385E793E103D6F801EE0FFF1FF6
S11328E0E258FC4E918380830F5F1F4F10937D133A
S11328F000937C1310927A13A8960FB6F894DEBF57
S11329000FBECDBFDF91CF911F910F91FF90EF903C
S1132910DF90CF90BF90AF900895CF93DF931F9235
S1132920CDB7DEB743E060E081E00E94DA0990931E
S1132930FD188093FC1843E060E081E00E94DA090E
S11329409093FB188093FA1843E060E081E00E94C2
S1132950DA099093F9188093F81840E061E08EE169
S11329600E94DA099093F7188093F6188091FC1866
S11329709091FD18009711F00E94DC0388EE93E01B
S1132980C5D980E00E94BA0388EE93E0BFD9609174
S1132990F6187091F7188CE992E10E94C903A12CF2
S11329A0B12CC12CD12CE12CF12C02E020E030E040
S11329B049EB50E06CEA72E08AE093E10E94160C65
S11329C001E020E030E049EB50E066EB72E081E2A8
S11329D093E10E94160C20E030E049EB50E061ECFA
S11329E072E082EA92E10E94160C20E048EE53E085
S11329F060E070E08091F8189091F9180E94F40A50
S1132A0020E04FEF5FEFBE016F5F7F4F8091F618BC
S1132A109091F7180E94F40A8981A7DEE6CFAF925D
S1132A20BF92CF92DF92EF92FF920F930E94AE0279
S1132A30A12CB12CC12CD12CE12CF12C00E020E0F4
S1132A4030E049EB50E06EEC72E08DE894E10E94D6
S1132A50160C0E94110D80E090E00F91FF90EF9012
S1132A60DF90CF90BF90AF90089508954F925F92FA
S1132A706F927F928F929F92AF92BF92CF92DF928A
S1132A80FF920F931F93CF93DF93CDB7DEB7F82E4A
S1132A902A013B0188E090E0FCD38C018F2D90E06B
S1132AA0880F991FFC01E250F74E11830083FC014B
S1132AB0E55BFD4F80819181D80111969C938E93A3
S1132AC01396BC92AE9212971596DC92CE921497FE
S1132AD017969C928E921697FFB6F894D801ED91B2
S1132AE0FC9111973697808182608083CD90DC9031
S1132AF0440C551C661C771C440C551C661C771C26
S1132B00A3019201220F331F441F551F60E074E29A
S1132B1084EF90E057D32150F60132972083D801F7
S1132B20ED91FC911197359788E98083ED91FC91A3
S1132B30349786E08083FFBEC801DF91CF911F9157
S1132B400F91FF90DF90CF90BF90AF909F908F90A8
S1132B507F906F905F904F900895EF92FF920F9344
S1132B601F93CF93DF938C01E42EDC011296ED9139
S1132B70FC911397309769F0242F30E042A588E246
S1132B8090E0841B910982179307E4F0E11005C0DB
S1132B9010C0B1E0B417C0F0F9CFC62FD72FF12C75
S1132BA06991F801828193810E946C04F394FE1070
S1132BB0F7CFD801ED91FC913597808180628083B5
S1132BC080E003C082E001C082E0DF91CF911F91D9
S1132BD00F91FF90EF9008951F920F920FB60F92EE
S1132BE011240BB60F922F933F934F935F936F93E0
S1132BF07F938F939F93AF93BF93CF93EF93FF9361
S1132C00E091FE18F091FF183097A1F0C091C60032
S1132C106C2F848195810E946C048091FE189091A0
S1132C20FF18DC011696ED91FC911797309711F07F
S1132C306C2F1995FF91EF91CF91BF91AF919F9117
S1132C408F917F916F915F914F913F912F910F9051
S1132C500BBE0F900FBE0F901F9018951F920F92EE
S1132C600FB60F9211240BB60F922F933F934F93ED
S1132C705F936F937F938F939F93AF93BF93EF93E0
S1132C80FF93CF93DF931F92CDB7DEB7E091FE1889
S1132C90F091FF18309799F0BE016F5F7F4F8281EA
S1132CA093810E945204811104C089818093C600DB
S1132CB00BC0E1ECF0E080818F7D808305C0E1EC06
S1132CC0F0E080818F7D80830F90DF91CF91FF9121
S1132CD0EF91BF91AF919F918F917F916F915F9190
S1132CE04F913F912F910F900BBE0F900FBE0F90FD
S1132CF01F9018951F920F920FB60F9211240BB6C6
S1132D000F922F933F934F935F936F937F938F9380
S1132D109F93AF93BF93CF93EF93FF93E0910019E9
S1132D20F09101193097A1F0C091CE006C2F8481ED
S1132D3095810E946C048091001990910119DC0125
S1132D401696ED91FC911797309711F06C2F199509
S1132D50FF91EF91CF91BF91AF919F918F917F910F
S1132D606F915F914F913F912F910F900BBE0F90F8
S1132D700FBE0F901F9018951F920F920FB60F92CF
S1132D8011240BB60F922F933F934F935F936F933E
S1132D907F938F939F93AF93BF93EF93FF93CF93BF
S1132DA0DF931F92CDB7DEB7E0910019F0910119BE
S1132DB0309799F0BE016F5F7F4F828193810E94AB
S1132DC05204811104C089818093CE000BC0E9ECC8
S1132DD0F0E080818F7D808305C0E9ECF0E08081A4
S1132DE08F7D80830F90DF91CF91FF91EF91BF9101
S1132DF0AF919F918F917F916F915F914F913F918F
S1132E002F910F900BBE0F900FBE0F901F9018952F
S1132E10E0910319F0910419309701F123812130D5
S1132E2079F4A081B1814C9121E030E0028002C0AC
S1132E30220F331F0A94E2F7209524232C930EC00B
S1132E40A081B1816C9141E050E09A01028002C0FE
S1132E50220F331F0A94E2F7262B2C939093041924
S1132E6080930319009769F0109205192CB52F73FC
S1132E702CBDFC0124812CBD85818DBD8CB5806465
S1132E808CBD08956F927F928F929F92AF92BF9262
S1132E90CF92DF92EF92FF920F931F93CF93DF9322
S1132EA0CDB7DEB7D82EF62E642E722E809102197D
S1132EB0811106C084B1876084B981E080930219CE
S1132EC08CE090E0E6D1FC0100831183E282A02F24
S1132ED0B12F4E9121E030E0C90102C0880F991F43
S1132EE0EA94E2F7842B8C93C382660C660C7628F2
S1132EF0AF2DBB27A7FDB095A652BD4F6C90D62829
S1132F00D728D48283E08F1514F481E085839782D7
S1132F108682B186A0868A899B89938782876FB7C8
S1132F20F8948091031990910419F0930419E09393
S1132F3003192381213081F4A081B1817C9141E086
S1132F4050E09A01028002C0220F331F0A94E2F774
S1132F50209527232C930EC0A081B1817C9141E060
S1132F6050E09A01028002C0220F331F0A94E2F754
S1132F70272B2C9390930419809303196FBFCF01CF
S1132F80DF91CF911F910F91FF90EF90DF90CF9041
S1132F90BF90AF909F908F907F906F900895DF9235
S1132FA0EF92FF920F931F93CF93DF93EC018B016A
S1132FB0F42E009709F46BC08091031990910419C1
S1132FC08C179D0711F0CE0123DFEFB6F894EE8144
S1132FD0FF81309761F02F2D30E042A588E290E028
S1132FE0841B9109821793070CF448C004C081E044
S1132FF08F1508F445C080910519811130C081E016
S113300080930519E0910319F091041983818130AB
S113301079F4A081B1814C9121E030E0C9010280B2
S113302002C0880F991F0A94E2F7842B8C930EC078
S1133030A081B1812C9181E090E0028002C0880FD0
S1133040991F0A94E2F7809582238C938CB580684B
S11330508CBDF80180818EBDDD24D39401C0D12CB8
S1133060DF1480F4F801ED0DF11D60818E819F81E4
S11330700E946C04D394DF14A8F306C081E005C059
S113308081E003C080E001C080E0EFBE01C083E0C6
S1133090DF91CF911F910F91FF90EF90DF900895F2
S11330A01F920F920FB60F9211240BB60F922F930B
S11330B03F934F935F936F937F938F939F93AF93BC
S11330C0BF93EF93FF93CF93DF931F92CDB7DEB7F8
S11330D0E0910319F091041980859185009719F006
S11330E06EB50E946C04E0910319F0910419BE01BD
S11330F06F5F7F4F868197810E945204811103C0C4
S113310089818EBD29C08CB58F778CBD109205192D
S1133110E0910319F09104198381813079F4A0813D
S1133120B1812C9181E090E0028002C0880F991F48
S11331300A94E2F7809582238C930EC0A081B1811A
S11331404C9121E030E0C901028002C0880F991F30
S11331500A94E2F7842B8C938091031990910419BB
S1133160DC011A96ED91FC911B97309711F069815F
S113317019950F90DF91CF91FF91EF91BF91AF918E
S11331809F918F917F916F915F914F913F912F917B
S11331900F900BBE0F900FBE0F901F90189597FBCA
S11331A0072E16F4009406D077FD08D05ED007FCF5
S11331B005D03EF4909581959F4F08957095619543
S11331C07F4F0895A1E21A2EAA1BBB1BFD010DC05F
S11331D0AA1FBB1FEE1FFF1FA217B307E407F507C3
S11331E020F0A21BB30BE40BF50B661F771F881F9F
S11331F0991F1A9469F760957095809590959B0135
S1133200AC01BD01CF010895052E97FB16F400947F
S11332100FD057FD05D0D6DF07FC02D046F408C016
S113322050954095309521953F4F4F4F5F4F0895EE
S113323090958095709561957F4F8F4F9F4F08951E
S1133240EE0FFF1F0590F491E02D1994A29FB00199
S1133250B39FC001A39F700D811D1124911DB29FC6
S1133260700D811D1124911D0895AA1BBB1B51E1F2
S113327007C0AA1FBB1FA617B70710F0A61BB70BE2
S1133280881F991F5A95A9F780959095BC01CD0187
S11332900895CF93DF938230910510F482E090E09B
S11332A0E0910A19F0910B1920E030E0A0E0B0E0C1
S11332B0309739F14081518148175907B8F04817C0
S11332C0590771F482819381109729F013969C9386
S11332D08E9312972CC090930B1980930A1927C0D0
S11332E02115310531F04217530718F0A901DB010C
S11332F001C0EF019A01BD01DF010280F381E02DDD
S1133300D7CF21153105F9F0281B390B24303105AD
S113331080F48A819B816115710521F0FB019383FF
S1133320828304C090930B1980930A19FE0132968C
S113333044C0FE01E20FF31F81939193225031099F
S1133340398328833AC02091081930910919232B15
S113335041F4209102023091030230930919209321
S1133360081920910002309101022115310541F420
S11333702DB73EB74091040250910502241B350B32
S1133380E0910819F0910919E217F307A0F42E1B34
S11333903F0B2817390778F0AC014E5F5F4F2417B5
S11333A0350748F04E0F5F1F5093091940930819D1
S11333B08193919302C0E0E0F0E0CF01DF91CF91DF
S11333C00895CF93DF93009709F487C0FC013297E7
S11333D013821282C0910A19D0910B19209781F49B
S11333E020813181280F391F809108199091091982
S11333F08217930779F5F0930919E09308196DC0C2
S1133400DE0120E030E0AE17BF0750F412964D9174
S11334105C9113979D014115510509F1DA01F3CF30
S1133420B383A28340815181840F951F8A179B0720
S113343071F48D919C911197840F951F029691833D
S1133440808312968D919C91139793838283211587
S1133450310529F4F0930B19E0930A193EC0D90100
S11334601396FC93EE9312974D915D91A40FB51FA3
S1133470EA17FB0779F480819181840F951F0296E6
S1133480D90111969C938E938281938113969C9378
S11334908E931297E0E0F0E08A819B81009719F007
S11334A0FE01EC01F9CFCE01029628813981820F09
S11334B0931F20910819309109192817390769F4C5
S11334C0309729F410920B1910920A1902C0138232
S11334D01282D0930919C0930819DF91CF910895EE
S11334E0FC0188279927E89421912032E9F32930B7
S11334F010F02E30C8F32B3239F02D3231F46894A9
S113350003C014D0820F911D219120532A30C8F397
S11335101EF4909581959F4F0895FB01DC0102C034
S113352001900D9241505040D8F708957AE0979F4A
S1133530902D879F802D910D112408950F931F9333
S1133540CF93DF93CDB7DEB72E970FB6F894DEBFD7
S11335500FBECDBF0E891F8986E08C831A83098331
S11335608FEF9FE79E838D83AE01465E5F4F688D2C
S1133570798DCE01019610D0EF81F885E00FF11F0F
S113358010822E960FB6F894DEBF0FBECDBFDF912A
S1133590CF911F910F9108952F923F924F925F9276
S11335A06F927F928F929F92AF92BF92CF92DF924F
S11335B0EF92FF920F931F93CF93DF93CDB7DEB7B4
S11335C02C970FB6F894DEBF0FBECDBF7C016B0104
S11335D08A01FC0117821682838181FFB0C1CE016A
S11335E001964C01F7019381F60193FD859193FFB8
S11335F081916F01882309F49EC1853239F493FDCA
S1133600859193FF81916F01853221F4B70190E098
S1133610C7D1E8CF512C312C20E02032A0F48B32DA
S113362069F030F4803259F0833269F420612CC09F
S11336308D3239F0803339F4216026C02260246051
S113364023C0286021C027FD27C030ED380F3A3051
S113365078F426FF06C0FAE05F9E300D1124532E45
S113366013C08AE0389E300D1124332E20620CC022
S11336708E3221F426FD5FC1206406C08C3611F41D
S1133680206802C0883641F4F60193FD859193FFCA
S113369081916F018111C1CF982F9F7D95549330F3
S11336A028F40C5F1F4FFFE3F9830DC0833631F01C
S11336B0833771F0833509F057C021C0F801808148
S11336C089830E5F1F4F44244394512C540114C02A
S11336D03801F2E06F0E711CF801A080B18026FF62
S11336E003C0652D70E002C06FEF7FEFC5012C872A
S11336F04CD12C0183012C852F77222E16C0380142
S1133700F2E06F0E711CF801A080B18026FF03C0A7
S1133710652D70E002C06FEF7FEFC5012C872AD1C1
S11337202C012C852068222E830123FC19C0832DB3
S113373090E048165906A0F4B70180E290E030D139
S11337403A94F5CFF50127FC859127FE81915F011D
S1133750B70190E025D131103A94F1E04F1A5108A5
S11337604114510479F7DEC0843611F0893631F5FD
S1133770F80127FF07C060817181828193810C5F0A
S11337801F4F08C060817181882777FD8095982F2D
S11337900E5F1F4F2F76B22E97FF09C0909580952C
S11337A0709561957F4F8F4F9F4F2068B22E2AE00E
S11337B030E0A40127D1A82EA81843C0853729F4E6
S11337C02F7EB22E2AE030E025C0F22FF97FBF2EE3
S11337D08F36C1F018F4883579F0ADC0803719F010
S11337E0883721F0A8C02F2F2061B22EB4FE0DC05F
S11337F08B2D8460B82E09C024FF0AC09F2F9660C9
S1133800B92E06C028E030E005C020E130E002C057
S113381020E132E0F801B7FE07C060817181828146
S113382093810C5F1F4F06C06081718180E090E03E
S11338300E5F1F4FA401E6D0A82EA818FB2DFF771A
S1133840BF2EB6FE0BC02B2D2E7FA51450F4B4FE54
S11338500AC0B2FC08C02B2D2E7E05C07A2C2B2D5D
S113386003C07A2C01C0752C24FF0DC0FE01EA0DA3
S1133870F11D8081803311F4297E09C022FF06C026
S11338807394739404C0822F867809F0739423FD93
S113389012C020FF06C05A2C731418F4530C571886
S11338A0732C731460F4B70180E290E02C8778D015
S11338B073942C85F6CF731410F4371801C0312C8F
S11338C024FF11C0B70180E390E02C8769D02C85D8
S11338D022FF16C021FF03C088E590E002C088E7FC
S11338E090E0B7010CC0822F867851F021FD02C010
S11338F080E201C08BE227FD8DE2B70190E050D059
S1133900A51430F4B70180E390E04AD05A94F8CF7C
S1133910AA94F401EA0DF11D8081B70190E040D032
S1133920A110F6CF332009F45DCEB70180E290E018
S113393037D03A94F7CFF7018681978102C08FEF91
S11339409FEF2C960FB6F894DEBF0FBECDBFDF916C
S1133950CF911F910F91FF90EF90DF90CF90BF9088
S1133960AF909F908F907F906F905F904F903F901B
S11339702F900895FC010590615070400110D8F714
S1133980809590958E0F9F1F0895FC0161507040A3
S113399001900110D8F7809590958E0F9F1F089580
S11339A00F931F93CF93DF93182F092FEB018B8174
S11339B081FD03C08FEF9FEF20C082FF10C04E81B6
S11339C05F812C813D81421753077CF4E881F981A2
S11339D09F012F5F3F4F39832883108306C0E885FA
S11339E0F985812F1995892B29F72E813F812F5F26
S11339F03F4F3F832E83812F902FDF91CF911F91D3
S1133A000F910895FA01AA27283051F1203181F14C
S1133A10E8946F936E7F6E5F7F4F8F4F9F4FAF4FD2
S1133A20B1E03ED0B4E03CD0670F781F891F9A1FE5
S1133A30A11D680F791F8A1F911DA11D6A0F711D99
S1133A40811D911DA11D20D009F468943F912AE0A5
S1133A50269F11243019305D3193DEF6CF0108958D
S1133A60462F4770405D4193B3E00FD0C9F7F6CFBE
S1133A70462F4F70405D4A3318F0495D31FD405286
S1133A80419302D0A9F7EACFB4E0A695979587951C
S1133A9077956795BA95C9F70097610571050895FB
S1133AA09B01AC010A2E06945795479537952795A7
S1133AB0BA95C9F7620F731F841F951FA01D08953F
S1073AC0F894FFCFA4
S1133AC400000C1920000A0000004F020501010146
S1133AD400005502035902050A02FE00005F0205B4
S1133AE46502050A03FE00006B020B6502050A0465
S1133AF4FE00007702047C02090A05FE00000000AF
S1133B04004F02050AFFFF0000FFFFC600CE004479
S1133B14554D4D590024242400434D440D0A0053AB
S1133B24412C310D00414F4B0D0A00532D2C5649A5
S1133B34422D4361720D00522C310D005265626FA7
S1133B446F74210D0A0049444C4500546D7220538E
S1133B5476630078253464792534647A2534647270
S1133B642534647125346474253464004A7573748B
S1133B74415461736B004C6561726E547261636B82
S1133B8400506C616E6E6564547261636B005374AF
S1133B9461727475705461736B0000010203000157
S1053BA4020019
S9030000FC
