S01000004669726D776172652E73726563D7
S1130000C5C00000DFC30000E2C00000E0C0000083
S1130010DEC00000DCC00000DAC00000D8C0000070
S1130020D6C00000D4C00000D2C00000D0C0000080
S1130030CEC00000FCC30000CAC00000C8C000005D
S1130040C6C00000C4C00000C2C00000C0C00000A0
S1130050BEC000000C94A908BAC00000B8C00000DB
S11300600C9444140C94E0110C942212B0C00000BF
S1130070AEC00000ACC00000AAC00000A8C00000D0
S1130080A6C00000A4C00000A2C00000A0C00000E0
S11300900C946E120C94B0129AC0000098C0000028
S11300A096C0000094C0000092C0000090C0000000
S11300B08EC000008CC000008AC0000088C0000010
S11300C086C0000084C0000082C00000D00FD80F9A
S11300D0E00FE80FF00FF40F381088108810881024
S11300E08810881088106310881086108810881073
S11300F0881088108810881088108810881088103C
S1130100881088108810881088108810CC0FD40F9D
S1130110DC0FE40FEC0F36100F2EFBECEF2EFDE09E
S1130120FF2EF02DC3EADDE027C00E945E0C18818B
S11301300E94290D112301F10FB6F8940F92E0915A
S1130140A80DF091A90D06811781C80102964ED61B
S11301508091A10D81508093A10D8091A20D8150B9
S11301608093A20D0F900FBEF8018789908D0E9495
S1130170DE08C8010E94DE088091A20D8111D5CF4E
S1130180F70180818230C0F30FD7F6CF11241FBE50
S1130190CFEFD1E2DEBFCDBF00E00CBF12E0A0E0A4
S11301A0B2E0ECEAF2E300E00BBF02C007900D926C
S11301B0A03FB107D9F72EE0A0EFB2E001C01D9235
S11301C0AB30B207E1F70E9405110C94541918CF13
S11301D010925003E0914E03F0914F03309709F0D1
S11301E019950895CF93DF931F921F92CDB7DEB771
S11301F06A8380915003882319F0862FA0D413C0FA
S113020080914C0390914D03009769F0198220E08E
S1130210AE014F5F5F4FBE016E5F7F4F0E94F009DA
S113022089818111C1D60F900F90DF91CF910895EC
S1130230DF92EF92FF920F931F93CF93DF93CDB78B
S1130240DEB7D62EEDB6FEB6262F30E02F5F3F4F39
S11302504DB75EB7421B530B0FB6F8945EBF0FBE8B
S11302604DBF0DB71EB70F5F1F4F98018068EDB7E4
S1130270FEB78183662341F081E0F901E80FF11DA7
S113028010828F5FD816C8F788E893E03DD341E029
S11302904D0DB8018091B5039091B6030E94C3132C
S11302A00FB6F894FEBE0FBEEDBEDF91CF911F9145
S11302B00F91FF90EF90DF900895462FBC0180913D
S11302C0B3039091B4030C94A11108951F93CF9399
S11302D0DF9300D01F92CDB7DEB78091F302823056
S11302E0C1F128F4882351F08130C9F0F1C0833082
S11302F009F43FC0853009F494C0EAC081E08093DA
S1130300F3028CE18B831C8242E0BE016D5F7F4F60
S11303108091B5039091B6030E94C313D9C088E8B5
S113032093E0EFD2823009F0D3C08093F30288E8DF
S113033093E0EAD28BE18B8388E08C8342E0BE01B8
S11303406D5F7F4F8091B5039091B6030E94C313F4
S1130350BFC088E893E0D5D2823009F0B9C083E009
S11303608093F30288E893E0CFD266E08BE360DF0A
S1130370AFC088E893E0C5D2873009F0A9C01FB7A1
S1130380F894BE016F5F7F4F88E893E08AD2BE0184
S11303906E5F7F4F88E893E084D2BE016F5F7F4F2A
S11303A088E893E07ED28A8190E0982F882729817B
S11303B0822B90935C0380935B03BE016E5F7F4F3F
S11303C088E893E06ED2BE016F5F7F4F88E893E0C8
S11303D068D28A8190E0982F88272981822B909374
S11303E05A0380935903BE016E5F7F4F88E893E000
S11303F058D2BE016F5F7F4F88E893E052D21FBF8F
S11304008A8190E0982F88272981822B9093580322
S11304108093570385E08093F30266E083E408DF6A
S113042057C088E893E06DD2873009F051C01FB7F8
S1130430F894BE016F5F7F4F88E893E032D2BE012B
S11304406E5F7F4F88E893E02CD2BE016F5F7F4FD1
S113045088E893E026D28A8190E0982F8827298122
S1130460822B9093560380935503BE016E5F7F4F9A
S113047088E893E016D2BE016F5F7F4F88E893E06F
S113048010D28A8190E0982F88272981822B90931B
S1130490540380935303BE016E5F7F4F88E893E05B
S11304A000D2BE016F5F7F4F88E893E0FAD11FBF8F
S11304B08A8190E0982F88272981822B9093520378
S11304C08093510383E08093F30266E08BE3B0DE14
S11304D00F900F900F900F90DF91CF911F9108957F
S11304E0882311F0439A089543980895882311F0BE
S11304F0429A089542980895882311F0419A0895E4
S113050041980895853608F084E68823A9F0282FB9
S113051030E0AFE7BCE00E941A1524E630E040E08A
S113052050E00E94F814309399002093980030937F
S11305309B0020939A0008951092990010929800BD
S113054010929B0010929A0008958F929F92AF92FE
S1130550BF92CF92DF92EF920F931F933B9A3A9AF6
S1130560399A389AE0E9F0E0808182608083A1E9D9
S1130570B0E08C9188618C938FE79CE09093990014
S1130580809398002081206C20836B9A90939B0029
S113059080939A002081206320836C9A9093970023
S11305A0809396008C9181608C9380E0ABDFE1E8CE
S11305B0F0E08081866080836A986D9A7598089AC5
S11305C01098099A11980A9A1298E9E6F0E0808145
S11305D082608083E89A8FE193E05ED184EF92E0B9
S11305E05BD10F2EF2EF8F2EF0E09F2EF02D0F2E09
S11305F0F4EFAF2EF2E0BF2EF02D0F2EFFE1CF2E41
S1130600F3E0DF2EF02DE12C00E023E040E855E29A
S113061060E070E080E00E942A119093B40380931C
S1130620B30388E893E038D18DE593E035D186E6CD
S113063091E09F938F930F2EFDE58F2EF3E09F2E75
S1130640F02D0F2EF8E8AF2EF3E0BF2EF02DC12CC5
S113065005E210E020E043E063E080E10E9436130D
S11306609093B6038093B50360E080E090E02EDEC3
S11306708BE98093B300E1EBF0E0808182608083BA
S1130680A0E7B0E08C9182608C9380818560808348
S11306900F900F901F910F91EF90DF90CF90BF902C
S11306A0AF909F908F900895853608F084E6882354
S11306B0A9F0282F30E0AFE7BCE00E941A1524E629
S11306C030E040E050E00E94F81430939900209309
S11306D0980010929B0010929A000895109299002D
S11306E01092980010929B0010929A0008952FB7D0
S11306F0F89480915B0390915C032FBF08952FB70A
S1130700F8948091590390915A032FBF08952FB7FD
S1130710F89480915703909158032FBF08952FB7F1
S1130720F89480915503909156032FBF08952FB7E5
S1130730F89480915303909154032FBF089520910E
S11307408400309185008091F1029091F202281783
S1130750390730F4A901481B590BCA01019704C099
S1130760A901481B590BCA013093F2022093F102EC
S11307700895882311F010980895109A0895462F2B
S1130780BC018091B3039091B4030C94A11108951A
S113079070934D0360934C0390934F0380934E03E7
S11307A081E08093500348EE50E06DE571E087E00E
S11307B092E09DC10895009721F090934B0380939C
S11307C04A0308951F920F920FB60F9211240BB68D
S11307D00F922F933F934F935F936F937F938F93D6
S11307E09F93AF93BF93EF93FF9380914A039091AC
S11307F04B03009749F01092F00260EF72E022D6AA
S11308008091F0028111D0D3FF91EF91BF91AF910C
S11308109F918F917F916F915F914F913F912F9114
S11308200F900BBE0F900FBE0F901F9018951F9244
S11308300F920FB60F9211240BB60F922F933F9382
S11308404F935F936F937F938F939F93AF93BF93D4
S1130850EF93FF9380915003882359F0809106020F
S1130860815019F08093060204C08AE08093060246
S11308704FD1FF91EF91BF91AF919F918F917F9154
S11308806F915F914F913F912F910F900BBE0F90FD
S11308900FBE0F901F901895FC0110A611A612A66A
S11308A00895FC0182A58823A1F081A5DF01A80F8A
S11308B0B11D8C91DB018C9381A590E0019668E2D7
S11308C070E00E94C31481A782A5815082A780E0B2
S11308D0089581E00895FC0122A5283280F480A5C2
S11308E090E0DF01A80FB91F6C93019668E270E0F5
S11308F00E94C31480A72F5F22A780E0089582E09E
S11309000895FC0182A50895FC0110A611A612A663
S11309100895E091C403F091C5038081853209F004
S113092085C0CF0101969093C5038093C403818150
S1130930853219F41092BB0308958A32E1F5CF0190
S113094002969093C5038093C403339620E0DC01A0
S11309500196220F322F330F330F230F20533C9174
S1130960230F3191323499F72093C6031296B09332
S1130970C503A093C4038091C8039091C903009751
S1130980B1F0E7ECF3E020812F5F2083332727FDCC
S11309903095F901EE0FFF1FE20FF31FE80FF91F67
S11309A01282808191819093CB038093CA0382E069
S11309B08093BB0308958091C4039091C503DC0127
S11309C0119620E0FC010196220F322F330F330FD2
S11309D0230F20533081230F3D91323499F7209314
S11309E0C6033296F093C503E093C4038091C80311
S11309F09091C9030097B1F0A7ECB3E0EC91EF5FDD
S1130A00EC93FF27E7FDF0959F01220F331FE20FC0
S1130A10F31FE80FF91F1282808191819093CB0319
S1130A208093CA0381E08093BB0308951092BB03B3
S1130A300895CF93DF931092BF038093BE0392E097
S1130A40980F923030F4E091B703F091B803199500
S1130A504BC09BE0899FE0011124A091BC03B0919D
S1130A60BD03AC0FBD1F12966C911297662339F02B
S1130A70E091B903F091BA038D919C9119958091FD
S1130A80BC039091BD03C80FD91F2D81222351F1BE
S1130A908B819C819093C1038093C0039093C50381
S1130AA08093C403E985FA85F093C903E093C803EE
S1130AB03FEF3093C703309731F040815181509319
S1130AC0CB034093CA0330E021503109820F931FB6
S1130AD09093C3038093C2031CDF8E818F5F809346
S1130AE0BF0302C08F81A5DFDF91CF91089590935A
S1130AF0BD038093BC037093BA036093B90350930E
S1130B00B8034093B7031092BE0380E092CF0895D8
S1130B108091BF03882391F081508093BF0381119A
S1130B200DC08091BE03E091BC03F091BD039BE036
S1130B30899FE00DF11D112480857BCF08956F926C
S1130B407F928F929F92AF92BF92CF92DF92EF9259
S1130B50FF920F931F93CF93DF93982E8091BB0343
S1130B60813009F442C020F0823009F470C0AFC073
S1130B70812CC4ECD3E00F2EF0ECCF2EF3E0DF2E6B
S1130B80F02D0F2EF7ECEF2EF3E0FF2EF02D08ECF6
S1130B9013E077247394612C0F2EFAECAF2EF3E05C
S1130BA0BF2EF02DE881F9819F012F5F3F4F3983DC
S1130BB0288380818915A9F0D6018D919C91998310
S1130BC08883F7011082D801ED91FC91309729F0C8
S1130BD080819181F50191838083872D8110862DF9
S1130BE0882E97DE8110DECF72C02091C803309129
S1130BF0C9032115310511F1AAECB3E0ED91FC9183
S1130C001197CF0101968D939C939082E091C70335
S1130C10FF27E7FDF095CF01880F991FE80FF91F13
S1130C20E20FF31F82818F5F8283E6ECF3E0808121
S1130C308150808381114BC06CDE49C0E6ECF3E047
S1130C40808181508083811142C063DE40C0E09185
S1130C50C403F091C5038081891551F18091C803C3
S1130C609091C903009709F44EC0AAECB3E0ED914A
S1130C70FC9111979F012F5F3F4F2D933C939082DE
S1130C802091C703332727FD3095F901EE0FFF1F8D
S1130C90E20FF31FE80FF91F82818F5F8283E6EC76
S1130CA0F3E0808181508083811111C032DE0FC056
S1130CB0A6ECB3E08C9181508C93811102C029DEA3
S1130CC006C03196F093C503E093C40322DE8091FD
S1130CD0BB03811118C02091C4033091C5038091D6
S1130CE0C2039091C3038217930768F48091BE03F3
S1130CF0E091BC03F091BD039BE0899FE00DF11DE1
S1130D001124878196DEDF91CF911F910F91FF907F
S1130D10EF90DF90CF90BF90AF909F908F907F9097
S1130D206F900895FC010396928381832FEF3FEF28
S1130D3034832383968385839087878310820895E1
S1130D40FC01118610860895CF93DF939C01FB016B
S1130D50DC011196CD91DC911297D383C2838C81EF
S1130D609D81958384838C819D81DC0113967C9382
S1130D706E9312977D836C8331872087F90180817C
S1130D808F5F8083DF91CF910895CF93DF93EB0141
S1130D90488159814F3F2FEF520721F4FC01A7816D
S1130DA0B0850DC0DC0113961296ED91FC9113975A
S1130DB0208131814217530710F0DF01F5CF1296DD
S1130DC0ED91FC911397FB83EA83D583C483BD83A0
S1130DD0AC831396DC93CE93129799878887FC0192
S1130DE020812F5F2083DF91CF910895CF93DF93EC
S1130DF0FC01A085B185C281D381848195819D83C5
S1130E008C83C481D581828193819B838A8311964B
S1130E10CD91DC911297CE17DF0731F48C819D813F
S1130E2012969C938E931197118610868C91815003
S1130E308C93DF91CF91089531E1FC013083319798
S1130E4022E220833197A3E3A08331976083319713
S1130E5070833197108231971082319760E86083F4
S1130E60319710823197108231971082319762E066
S1130E706083319763E06083319764E060833197E6
S1130E8065E06083319766E06083319767E0608353
S1130E90319768E06083319769E06083319760E15E
S1130EA0608331973083319732E13083319733E176
S1130EB03083319734E13083319735E13083319792
S1130EC036E13083319737E13083319738E130832D
S1130ED0319739E13083319730E23083319731E211
S1130EE0308331972083319723E2208331974083E5
S1130EF031975083319726E22083319727E220836C
S1130F00319728E22083319729E22083319720E327
S1130F102083319721E320838997089588EE93E015
S1130F209093CF038093CE039093CD038093CC030F
S1130F3089EF87BD82E084BD83E085BDEEE6F0E005
S1130F40808182608083A091EF0DB091F00DCD91EE
S1130F50CDBFDD91DEBFFF91EF91DF91CF91BF91C6
S1130F60AF919F918F917F916F915F914F913F913D
S1130F702F911F910F91FF90EF90DF90CF90BF9032
S1130F80AF909F908F907F906F905F904F903F9025
S1130F902F901F900F900CBE0F900BBE0F900FBEA2
S1130FA00F90089581E008950F920FB6F8940F9270
S1130FB00BB60F920CB60F921F9211242F923F92F0
S1130FC04F925F926F927F928F929F92AF92BF9255
S1130FD0CF92DF92EF92FF920F931F932F933F9341
S1130FE04F935F936F937F938F939F93AF93BF932D
S1130FF0CF93DF93EF93FF93A091EF0DB091F00D9A
S11310000DB60D920EB60D92BDD5A091EF0DB09117
S1131010F00DCD91CDBFDD91DEBFFF91EF91DF915A
S1131020CF91BF91AF919F918F917F916F915F917C
S11310304F913F912F911F910F91FF90EF90DF906F
S1131040CF90BF90AF909F908F907F906F905F9064
S11310504F903F902F901F900F900CBE0F900BBE9F
S11310600F900FBE0F9008950F920FB6F8940F9241
S11310700BB60F920CB60F921F9211242F923F922F
S11310804F925F926F927F928F929F92AF92BF9294
S1131090CF92DF92EF92FF920F931F932F933F9380
S11310A04F935F936F937F938F939F93AF93BF936C
S11310B0CF93DF93EF93FF93A091EF0DB091F00DD9
S11310C00DB60D920EB60D928091CC039091CD0386
S11310D001979093CD038093CC03892B41F48091A5
S11310E0CE039091CF039093CD038093CC03F6D39A
S11310F0811148D5A091EF0DB091F00DCD91CDBFE8
S1131100DD91DEBFFF91EF91DF91CF91BF91AF9160
S11311109F918F917F916F915F914F913F912F910B
S11311201F910F91FF90EF90DF90CF90BF90AF9001
S11311309F908F907F906F905F904F903F902F90F3
S11311401F900F900CBE0F900BBE0F900FBE0F9010
S113115008958ADF1895CF93DF93EC01AFD3809184
S1131160D0039091D103892B31F485ED93E09093D2
S1131170D1038093D0034091D2035091D3039E01B5
S1131180240F351F233C89E0380770F442175307B6
S113119070F4C091D003D091D103C40FD51F309304
S11311A0D3032093D20305C0C0E0D0E002C0C0E066
S11311B0D0E04FD4CE01DF91CF91089508951F93CD
S11311C0CF93DF93EC01142F8C8D8823E9F1411127
S11311D017C0482F50E08C819D810E9481162C8D70
S11311E08C819D81820F911D9D838C832A813B81FB
S11311F08217930748F1888199819D838C8324C049
S1131200482F50E08E819F810E9481162C8D30E002
S11312103195219531098E819F81820F931F9F8380
S11312208E83688179818617970730F48A819B8140
S1131230280F391F3F832E83123031F48A8D88237F
S113124019F08A8D81508A8F8A8D8F5F8A8F80E012
S1131250DF91CF911F910895FC01CB01448D44236C
S1131260A1F050E026813781240F351F3783268370
S1131270628173812617370720F0208131813783FB
S11312802683668177810C94811608950F931F93AA
S1131290CF93DF93EC010FB6F8940F928E8D18164E
S11312A0A4F48989882389F08E010F5E1F4F03C03F
S11312B08989882351F0C801F7D4811176D58E8DA0
S11312C081508E8F8E8D18169CF38FEF8E8F0F901A
S11312D00FBE0FB6F8940F928D8D1816A4F488855E
S11312E0882389F08E01085F1F4F03C088858823F7
S11312F051F0C801D9D4811158D58D8D81508D8F6D
S11313008D8D18169CF38FEF8D8F0F900FBEDF918C
S1131310CF911F910F910895CF93DF93EC010FB6F6
S1131320F8940F92888199812C8D30E07B8D729F87
S1131330A001739F500D1124FC01E40FF51FFB83E2
S1131340EA831A8E9D838C83421B530B840F951F53
S11313509F838E838FEF8D8F8E8F61110AC0888556
S1131360882369F0CE0108969FD4813041F41CDEB5
S113137006C0CE010896D6DCCE014196D3DC0F9090
S11313800FBE81E0DF91CF9108950F931F93CF9308
S1131390DF93082F162F6623B9F0869FC00111240E
S11313A08096D9DEEC01009721F414C0D983C88358
S11313B005C09C01215E3F4F398328830B8F1C8F0E
S11313C061E0CE01A9DF06C08FE190E0C4DEEC014C
S11313D0009761F7CE01DF91CF911F910F9108958E
S11313E00F931F93CF93DF93EC018A019A8D8B8D1A
S11313F0981710F02230D1F4422FCE01E0DE8E8D0A
S11314008F3F79F48989882399F0CE0141964CD491
S1131410882381F00115110579F081E0F8018083BA
S11314200CC08E8D8F5F8E8F81E007C080E005C079
S113143081E003C081E001C081E0DF91CF911F9181
S11314400F910895CF93DF93FC01EB01928D838D6F
S11314509817C0F4828D8F5F828F868D8F3F69F4D9
S11314608189882389F0CF0141961ED4882371F0A5
S1131470209771F081E088830CC0868D8F5F868F02
S113148081E007C080E005C081E003C081E001C0C5
S113149081E0DF91CF9108959F92AF92BF92CF9256
S11314A0DF92EF92FF920F931F93CF93DF9300D0BD
S11314B01F921F92CDB7DEB78C016B015D834C8305
S11314C0B22EA12C992493947C0181E1E80EF11CA5
S11314D00FB6F8940F92F801828D882321F1E680EB
S11314E0F780B601C801B8DEB1100EC0F801828DD4
S11314F08150828F8085882391F0C8010896D4D3C7
S1131500813069F451DD0BC0F801F782E6828189EC
S1131510882329F0C8014196C7D3811145DD0F9076
S11315200FBE81E044C04C815D81452B21F40F90B6
S11315300FBE80E03CC0A11004C0CE010196F8D3D8
S1131540A92C0F900FBEBAD10FB6F8940F92F801E0
S1131550858D8F3F09F4158EF801868D8F3F09F430
S1131560168E0F900FBEBE016C5F7F4FCE010196A9
S1131570EAD3811118C00FB6F8940F92F801828D46
S11315800F900FBE81110BC06C817D81C70172D396
S1131590C8017CDE5ED281119BCF06DD99CFC801E4
S11315A075DE57D295CFC80171DE53D280E00F901B
S11315B00F900F900F900F90DF91CF911F910F918B
S11315C0FF90EF90DF90CF90BF90AF909F900895E1
S11315D0E091B70DF091B80D8081811107C08FEFB4
S11315E09FEF90934A02809349020895E091B70DCA
S11315F0F091B80D0580F681E02D0680F781E02D8D
S11316008281938190934A02809349020895CF93F3
S1131610DF93EC01E091EF0DF091F00D9383828361
S113162080919F0D9091A00DC817D90760F4609127
S1131630EF0D7091F00D8091B50D9091B60D6E5F28
S11316407F4FA3DB16C06091EF0D7091F00D809178
S1131650B70D9091B80D6E5F7F4F97DB8091490273
S113166090914A02C817D90720F4D0934A02C09334
S11316704902DF91CF9108954F925F926F927F92CA
S11316808F929F92AF92BF92CF92DF92EF92FF928E
S11316900F931F93CF93DF934C015B012A01390110
S11316A0C114D10431F4CA0156DD6C01009709F468
S11316B0CAC086E290E04FDDEC01009771F0D88E4D
S11316C0CF8A81E0481A5108C40CD51CD5018C91ED
S11316D0898F8C91811104C014C0C6016FDDB3C021
S11316E0AE01465E5F4FF501319627E0CF0131919F
S11316F0DA013D93AD01DC018C91882311F0215076
S1131700A9F718A2102F043008F013E01E8B5E0115
S1131710B2E0AB0EB11CC50113DBCE010C9610DB9D
S1131720D987C88784E090E0811B91099D878C87C5
S1131730DB8BCA8B19A21AA21BA21CA21DA2A30195
S1131740B401C60179DB99838883E114F10419F0AB
S1131750F701D183C0830FB6F8940F928091A10D45
S11317608F5F8093A10D8091EF0D9091F00D892BE7
S113177069F5D093F00DC093EF0D8091A10D8130E8
S1131780A1F58BEC9DE0CEDA84ED9DE0CBDA8DED16
S11317909DE0C8DA86EE9DE0C5DA82EC9DE0C2DA0F
S11317A089EB9DE0BFDA8CEA9DE0BCDA83EA9DE038
S11317B0B9DA82EC9DE09093B80D8093B70D89EB74
S11317C09DE09093B60D8093B50D0FC080919D0D53
S11317D081110BC0E091EF0DF091F00D868908178F
S11317E020F0D093F00DC093EF0D8091990D8F5F91
S11317F08093990D8E8990919E0D981710F4809383
S11318009E0D90E09C01220F331F220F331F220FE5
S1131810331F820F931FB5018553924F95DA0F90B2
S11318200FBE80919D0D882351F0E091EF0DF09152
S1131830F00D8689801728F4B7DB81E005C081E0CC
S113184003C081E001C08FEFDF91CF911F910F9111
S1131850FF90EF90DF90CF90BF90AF909F908F90CC
S11318607F906F905F904F900895AF92BF92CF9208
S1131870DF92EF92FF920F93A12CB12CC12CD12CAB
S1131880E12CF12C00E020E030E049EB50E066E987
S113189072E08CE890E0F0DE813041F4F8948093BB
S11318A09D0D1092A00D10929F0D38DB0F91FF90AB
S11318B0EF90DF90CF90BF90AF9008958091980DF6
S11318C08F5F8093980D08950FB6F8940F928091CE
S11318D09F0D9091A00D0F900FBE0895CF92DF92AF
S11318E0EF92FF920F931F93CF93DF938091980D04
S11318F0811196C080919F0D9091A00D01969093B7
S1131900A00D80939F0DE0909F0DF090A00DE11429
S1131910F104B1F48091B70D9091B80D2091B50DFB
S11319203091B60D3093B80D2093B70D9093B60D4A
S11319308093B50D80919A0D8F5F80939A0D48DE48
S11319408091490290914A02E816F90608F451C0C0
S1131950D12CCC24C39401C0DC2CE091B70DF091C0
S1131960B80D8081811107C08FEF9FEF90934A02D9
S1131970809349023FC0E091B70DF091B80D058006
S1131980F681E02DC681D7812A813B81E216F306D8
S113199028F430934A02209349022CC08E010E5F32
S11319A01F4FC80123DA8C899D89892B19F0CE0138
S11319B00C961CDA2E8980919E0D821710F42093C8
S11319C09E0D30E0C901880F991F880F991F880F59
S11319D0991F820F931FB8018553924FB5D9E09197
S11319E0EF0DF091F00D9E898689981708F0B4CF19
S11319F0B4CFD12CE091EF0DF091F00D868990E0F9
S1131A00FC01EE0FFF1FEE0FFF1FEE0FFF1F8E0FE7
S1131A109F1FFC01E553F24F8081823040F409C0DE
S1131A2080919C0D8F5F80939C0DD12C02C0DD248E
S1131A30D39480919B0D882311F0DD24D3948D2DB4
S1131A40DF91CF911F910F91FF90EF90DF90CF9096
S1131A500895DF92EF92FF920F931F93CF93DF933A
S1131A600FB6F8940F928091980D81508093980D41
S1131A708091980D81115CC08091A10D882309F497
S1131A8059C00F2EFCEAEF2EFDE0FF2EF02DDD24D1
S1131A90D3942DC0E091B10DF091B20DC681D781E0
S1131AA0CE010C96A3D98E010E5F1F4FC8019ED99B
S1131AB08E8990919E0D981710F480939E0D90E05E
S1131AC09C01220F331F220F331F220F331F820F5B
S1131AD0931FB8018553924F37D9E091EF0DF091E0
S1131AE0F00D9E898689981710F0D0929B0DF7010E
S1131AF080818111CFCF80919C0D882391F08091BA
S1131B009C0D882371F0C1E0E9DE8111C0939B0D27
S1131B1080919C0D815080939C0D80919C0D81112E
S1131B20F3CF80919B0D813039F43EDA81E005C01A
S1131B3080E003C080E001C080E00F900FBEDF9121
S1131B40CF911F910F91FF90EF90DF900895CF9365
S1131B50DF93EC01009791F0B1DE80919F0D90919D
S1131B60A00DC80FD91F8091EF0D9091F00D029632
S1131B703DD9CE014CDD6DDF811101C015DADF9155
S1131B80CF9108958091980D882321F081E080936E
S1131B909B0D089510929B0DA091EF0DB091F00D47
S1131BA0E091EF0DF091F00D2D913C918789908D8E
S1131BB08217930758F06091EF0D7091F00D8091AA
S1131BC0EF0D9091F00D675E7F4F43D380919E0D92
S1131BD090E0FC01EE0FFF1FEE0FFF1FEE0FFF1F43
S1131BE08E0F9F1FFC01E553F24F8081811117C0B6
S1131BF080919E0D815080939E0D80919E0D90E06A
S1131C00FC01EE0FFF1FEE0FFF1FEE0FFF1F8E0FE5
S1131C109F1FFC01E553F24F8081882349F3E09133
S1131C209E0DF0E0CF01880F991F880F991F880F30
S1131C30991FE80FF91FE553F24FA181B281129663
S1131C400D90BC91A02DB283A183CF010396A81758
S1131C50B90731F412968D919C91139792838183E5
S1131C600180F281E02D868197819093F00D80931D
S1131C70EF0D0895CF93DF93EB016091EF0D709119
S1131C80F00D645F7F4F81D88091EF0D9091F00D3E
S1131C900296ACD880919F0D9091A00D8C0F9D1F42
S1131CA0B6DCDF91CF9108950F931F93CF93DF9309
S1131CB0DC011596ED91FC911697C681D7818E01B2
S1131CC0045F1F4FC80192D88091980D81111AC0EA
S1131CD00A501109C8018AD88E8990919E0D9817CF
S1131CE010F480939E0D90E09C01220F331F220F6D
S1131CF0331F220F331F820F931FB8018553924F56
S1131D0023D804C0B8018CEA9DE01ED8E091EF0D01
S1131D10F091F00D9E898689891720F481E08093E3
S1131D209B0D01C080E0DF91CF911F910F91089529
S1131D3020919A0DFC01208320919F0D3091A00DDC
S1131D403283218308950FB6F8940F9220919F0D4A
S1131D503091A00D40919A0DDC015C91541739F03B
S1131D6011964D915C91129724173507C0F4DC014C
S1131D701196ED91FC911297DB014D915C91D90183
S1131D80AE1BBF0BA417B50760F4E21BF30B4E0F99
S1131D905F1FFB0151834083CBDF80E003C081E000
S1131DA001C081E00F900FBE089581E080939B0DE8
S1131DB008958F3F19F481E08093F70D089520E092
S1131DC04FEF5FEF60E070E08091FB0D9091FC0DB0
S1131DD063DBF5CF8F929F92AF92BF92CF92DF9247
S1131DE0EF92FF920F931F93CF93DF93CDB7DEB79C
S1131DF064970FB6F894DEBF0FBECDBF0F2EF4E686
S1131E00EF2EF12CF02D0F2EFBE9CF2EF2E0DF2E7A
S1131E10F02D8E010F5F1F4F0E947703B82EA92E5D
S1131E200E947F03982E892E0E9487039F938F938D
S1131E308F929F92AF92BF92DF92CF921F930F9394
S1131E4071D7F80101900020E9F73197BF01601BB9
S1131E50710BC8010E94BF0384E690E078DE81E044
S1131E60E81AF1080FB6F894DEBF0FBECDBFE11437
S1131E70F10491F664960FB6F894DEBF0FBECDBFA1
S1131E80DF91CF911F910F91FF90EF90DF90CF9052
S1131E90BF90AF909F908F900895EF92FF920F9311
S1131EA01F93CF93DF930E949F03EC01C03283E022
S1131EB0D80708F041C000E010E0F801EE0FFF1F62
S1131EC0E55BFD4F80819181C817D90768F17801DE
S1131ED08FEFE81AF80AF701EE0FFF1FE55BFD4FDD
S1131EE0808191818536910560F480E00E945403DD
S1131EF0F701EE0FFF1FE55BFD4F80810E94820218
S1131F0009C084560E94540381E00E947C0280E050
S1131F100E948202F701EE0FFF1FE55BFD4F8081F7
S1131F208093F80D0E5F1F4F0E949F03C80FD91FA7
S1131F30C03283E0D80708F280E00E947C0280E08F
S1131F400E948202DF91CF911F910F91FF90EF9039
S1131F500895AF92BF92CF92DF92EF92FF920F93C8
S1131F601F93CF93DF93CDB7DEB7A8970FB6F8943E
S1131F70DEBF0FBECDBF9091F70D992309F4E8C0E1
S1131F80482F50E0FA01E154F109E632F10508F076
S1131F90BFC0EA59FF4F48C580E00E947602D8C00E
S1131FA081E00E947602D4C080E00E947C02D0C00E
S1131FB081E00E947C02CCC080E00E947002C8C014
S1131FC081E00E947002C4C080E00E948202C0C00E
S1131FD081E40E948202BCC080E00E945403B8C025
S1131FE084E60E945403B4C00E947703182F092F7B
S1131FF00E947F03F82EE92E67DC9093060E8093EF
S1132000050E0E948F03D82EC92E0E949703B82E66
S1132010A92E0E949F039F938F93AF92BF92CF925A
S1132020DF928091060E8F938091050E8F93EF922D
S1132030FF920F931F9387EA92E09F938F938E01F1
S11320400F5F1F4F1F930F936DD6F801019000206F
S1132050E9F73197BF01601B710BC8010E94BF03F0
S11320600FB6F894DEBF0FBECDBF72C0B3DE70C032
S11320700E948F03182F092F0E949703F82EE92E30
S11320800E9477039F938F93EF92FF920F931F9376
S113209080EC92E09F938F938E010F5F1F4F1F93ED
S11320A00F9340D6F80101900020E9F73197BF0162
S11320B0601B710BC8010E94BF030FB6F894DEBF0A
S11320C00FBECDBF45C000DC8093050E9093060E75
S11320D09F938F938FEC92E09F938F938E010F5F6A
S11320E01F4F1F930F931ED6F80101900020E9F7AC
S11320F03197BF01601B710BC8010E94BF030F9091
S11321000F900F900F900F900F9022C0C6DE20C04A
S11321109091F60DE92FF0E0EF50F24F80839F5F2E
S11321209093F60D8132A1F40091F80D10E081EF47
S11321309DE0CAD5F801EE0FFF1FE55BFD4F9183CB
S113214080838091F80D8F5F8093F80D1092F60DC7
S1132150A8960FB6F894DEBF0FBECDBFDF91CF9126
S11321601F910F91FF90EF90DF90CF90BF90AF90B1
S11321700895CF93DF931F92CDB7DEB743E060E0BD
S113218081E003D99093FC0D8093FB0D40E061E066
S11321908EE1FBD89093FA0D8093F90D8091FB0D9D
S11321A09091FC0D009711F00E94DB0388EE93E000
S11321B0CEDC80E00E94B90388EE93E0C8DC609135
S11321C0F90D7091FA0D89ED9EE00E94C803A12CCF
S11321D0B12CC12CD12CE12CF12C01E020E030E019
S11321E049EB50E062ED72E08FED9EE045DA20E0CD
S11321F04FEF5FEFBE016F5F7F4F8091F90D9091BC
S1132200FA0D4AD98981A5DEF2CFAF92BF92CF925F
S1132210DF92EF92FF920F930E94A502A12CB12CA2
S1132220C12CD12CE12CF12C00E020E030E049EB72
S113223050E06CED72E089EB90E11EDA16DB80E091
S113224090E00F91FF90EF90DF90CF90BF90AF9010
S1132250089508954F925F926F927F928F929F920A
S1132260AF92BF92CF92DF92FF920F931F93CF93BF
S1132270DF93CDB7DEB7F82E2A013B0188E090E06A
S1132280FCD38C018F2D90E0880F991FFC01E35043
S1132290F24F11830083FC01E55AFD4F8081918147
S11322A0D80111969C938E931396BC92AE9212977A
S11322B01596DC92CE92149717969C928E9216974E
S11322C0FFB6F894D801ED91FC911197369780816F
S11322D082608083CD90DC90440C551C661C771C76
S11322E0440C551C661C771CA3019201220F331F5A
S11322F0441F551F60E074E284EF90E057D32150EF
S1132300F60132972083D801ED91FC91119735970E
S113231088E98083ED91FC91349786E08083FFBE49
S1132320C801DF91CF911F910F91FF90DF90CF9063
S1132330BF90AF909F908F907F906F905F904F90E1
S11323400895EF92FF920F931F93CF93DF938C0125
S1132350E42EDC011296ED91FC911397309769F00D
S1132360242F30E042A588E290E0841B9109821773
S11323709307E4F0E11005C010C0B1E0B417C0F059
S1132380F9CFC62FD72FF12C6991F801828193815F
S11323900E946B04F394FE10F7CFD801ED91FC91E9
S11323A0359780818062808380E003C082E001C031
S11323B082E0DF91CF911F910F91FF90EF900895EC
S11323C01F920F920FB60F9211240BB60F922F93F8
S11323D03F934F935F936F937F938F939F93AF93A9
S11323E0BF93CF93EF93FF93E091FD0DF091FE0D1A
S11323F03097A1F0C091C6006C2F848195810E9412
S11324006B048091FD0D9091FE0DDC011696ED910B
S1132410FC911797309711F06C2F1995FF91EF915C
S1132420CF91BF91AF919F918F917F916F915F9168
S11324304F913F912F910F900BBE0F900FBE0F90B5
S11324401F9018951F920F920FB60F9211240BB67E
S11324500F922F933F934F935F936F937F938F9339
S11324609F93AF93BF93EF93FF93CF93DF931F9209
S1132470CDB7DEB7E091FD0DF091FE0D309799F0E8
S1132480BE016F5F7F4F828193810E94510481114D
S113249004C089818093C6000BC0E1ECF0E0808128
S11324A08F7D808305C0E1ECF0E080818F7D8083A7
S11324B00F90DF91CF91FF91EF91BF91AF919F91D9
S11324C08F917F916F915F914F913F912F910F90D9
S11324D00BBE0F900FBE0F901F9018951F920F9276
S11324E00FB60F9211240BB60F922F933F934F9375
S11324F05F936F937F938F939F93AF93BF93CF9388
S1132500EF93FF93E091FF0DF091000E3097A1F04F
S1132510C091CE006C2F848195810E946B048091C0
S1132520FF0D9091000EDC011696ED91FC9117972A
S1132530309711F06C2F1995FF91EF91CF91BF91C6
S1132540AF919F918F917F916F915F914F913F9147
S11325502F910F900BBE0F900FBE0F901F901895E8
S11325601F920F920FB60F9211240BB60F922F9356
S11325703F934F935F936F937F938F939F93AF9307
S1132580BF93EF93FF93CF93DF931F92CDB7DEB743
S1132590E091FF0DF091000E309799F0BE016F5F4E
S11325A07F4F828193810E945104811104C08981EB
S11325B08093CE000BC0E9ECF0E080818F7D8083B6
S11325C005C0E9ECF0E080818F7D80830F90DF917E
S11325D0CF91FF91EF91BF91AF919F918F917F9197
S11325E06F915F914F913F912F910F900BBE0F9080
S11325F00FBE0F901F901895E091020EF091030EFC
S1132600309701F12381213079F4A081B1814C917B
S113261021E030E0028002C0220F331F0A94E2F767
S1132620209524232C930EC0A081B1816C9141E0AC
S113263050E09A01028002C0220F331F0A94E2F78D
S1132640262B2C939093030E8093020E009769F02F
S11326501092040E2CB52F732CBDFC0124812CBDCB
S113266085818DBD8CB580648CBD08956F927F92F9
S11326708F929F92AF92BF92CF92DF92EF92FF928E
S11326800F931F93CF93DF93CDB7DEB7D82EF62EDB
S1132690642E722E8091010E811106C084B1876070
S11326A084B981E08093010E8CE090E0E6D1FC01D6
S11326B000831183E282A02FB12F4E9121E030E0FC
S11326C0C90102C0880F991FEA94E2F7842B8C9306
S11326D0C382660C660C7628AF2DBB27A7FDB09588
S11326E0A851BD4F6C90D628D728D48283E08F158B
S11326F014F481E0858397828682B186A0868A89D4
S11327009B89938782876FB7F8948091020E90918A
S1132710030EF093030EE093020E2381213081F423
S1132720A081B1817C9141E050E09A01028002C015
S1132730220F331F0A94E2F7209527232C930EC00F
S1132740A081B1817C9141E050E09A01028002C0F5
S1132750220F331F0A94E2F7272B2C939093030E36
S11327608093020E6FBFCF01DF91CF911F910F9124
S1132770FF90EF90DF90CF90BF90AF909F908F909D
S11327807F906F900895DF92EF92FF920F931F93C3
S1132790CF93DF93EC018B01F42E009709F46BC007
S11327A08091020E9091030E8C179D0711F0CE01BB
S11327B023DFEFB6F894EE81FF81309761F02F2D7F
S11327C030E042A588E290E0841B910982179307C8
S11327D00CF448C004C081E08F1508F445C0809112
S11327E0040E811130C081E08093040EE091020E4A
S11327F0F091030E8381813079F4A081B1814C91F1
S113280021E030E0C901028002C0880F991F0A94B8
S1132810E2F7842B8C930EC0A081B1812C9181E0CE
S113282090E0028002C0880F991F0A94E2F7809515
S113283082238C938CB580688CBDF80180818EBD19
S1132840DD24D39401C0D12CDF1480F4F801ED0D04
S1132850F11D60818E819F810E946B04D394DF14EB
S1132860A8F306C081E005C081E003C080E001C098
S113287080E0EFBE01C083E0DF91CF911F910F9103
S1132880FF90EF90DF9008951F920F920FB60F9272
S113289011240BB60F922F933F934F935F936F9333
S11328A07F938F939F93AF93BF93EF93FF93CF93B4
S11328B0DF931F92CDB7DEB7E091020EF091030EC5
S11328C080859185009719F06EB50E946B04E091A4
S11328D0020EF091030EBE016F5F7F4F86819781D8
S11328E00E945104811103C089818EBD29C08CB519
S11328F08F778CBD1092040EE091020EF091030EBE
S11329008381813079F4A081B1812C9181E090E0C0
S1132910028002C0880F991F0A94E2F780958223EF
S11329208C930EC0A081B1814C9121E030E0C901AB
S1132930028002C0880F991F0A94E2F7842B8C93BB
S11329408091020E9091030EDC011A96ED91FC9198
S11329501B97309711F0698119950F90DF91CF91F2
S1132960FF91EF91BF91AF919F918F917F916F9163
S11329705F914F913F912F910F900BBE0F900FBE1F
S11329800F901F90189597FB072E16F4009406D00D
S113299077FD08D05ED007FC05D03EF49095819574
S11329A09F4F0895709561957F4F0895A1E21A2E67
S11329B0AA1BBB1BFD010DC0AA1FBB1FEE1FFF1FDF
S11329C0A217B307E407F50720F0A21BB30BE40B2F
S11329D0F50B661F771F881F991F1A9469F7609576
S11329E07095809590959B01AC01BD01CF01089530
S11329F0052E97FB16F400940FD057FD05D0D6DFB3
S1132A0007FC02D046F408C05095409530952195B6
S1132A103F4F4F4F5F4F0895909580957095619506
S1132A207F4F8F4F9F4F0895EE0FFF1F0590F49136
S1132A30E02D1994A29FB001B39FC001A39F700D14
S1132A40811D1124911DB29F700D811D1124911DB2
S1132A500895AA1BBB1B51E107C0AA1FBB1FA617E1
S1132A60B70710F0A61BB70B881F991F5A95A9F733
S1132A7080959095BC01CD010895CF93DF9382306A
S1132A80910510F482E090E0E091090EF0910A0EB5
S1132A9020E030E0A0E0B0E0309739F1408151818E
S1132AA048175907B8F04817590771F48281938180
S1132AB0109729F013969C938E9312972CC09093A1
S1132AC00A0E8093090E27C02115310531F04217F3
S1132AD0530718F0A901DB0101C0EF019A01BD0100
S1132AE0DF010280F381E02DD7CF21153105F9F004
S1132AF0281B390B2430310580F48A819B816115B0
S1132B00710521F0FB019383828304C090930A0E24
S1132B108093090EFE01329644C0FE01E20FF31FBA
S1132B208193919322503109398328833AC02091AB
S1132B30070E3091080E232B41F4209102023091AC
S1132B4003023093080E2093070E20910002309167
S1132B5001022115310541F42DB73EB7409104021D
S1132B6050910502241B350BE091070EF091080EDD
S1132B70E217F307A0F42E1B3F0B2817390778F050
S1132B80AC014E5F5F4F2417350748F04E0F5F1FAF
S1132B905093080E4093070E8193919302C0E0E096
S1132BA0F0E0CF01DF91CF910895CF93DF930097A9
S1132BB009F487C0FC01329713821282C091090E76
S1132BC0D0910A0E209781F420813181280F391F7A
S1132BD08091070E9091080E8217930779F5F09370
S1132BE0080EE093070E6DC0DE0120E030E0AE1762
S1132BF0BF0750F412964D915C9113979D014115B6
S1132C00510509F1DA01F3CFB383A28340815181E5
S1132C10840F951F8A179B0771F48D919C911197CE
S1132C20840F951F02969183808312968D919C91B7
S1132C301397938382832115310529F4F0930A0EA7
S1132C40E093090E3EC0D9011396FC93EE931297BC
S1132C504D915D91A40FB51FEA17FB0779F48081AC
S1132C609181840F951F0296D90111969C938E939E
S1132C708281938113969C938E931297E0E0F0E007
S1132C808A819B81009719F0FE01EC01F9CFCE01F6
S1132C90029628813981820F931F2091070E30916B
S1132CA0080E2817390769F4309729F410920A0E90
S1132CB01092090E02C013821282D093080EC093A0
S1132CC0070EDF91CF910895FC0188279927E89496
S1132CD021912032E9F3293010F02E30C8F32B3241
S1132CE039F02D3231F4689403C014D0820F911D51
S1132CF0219120532A30C8F31EF4909581959F4F5B
S1132D000895FB01DC0102C001900D924150504036
S1132D10D8F708957AE0979F902D879F802D910D85
S1132D20112408950F931F93CF93DF93CDB7DEB78C
S1132D302E970FB6F894DEBF0FBECDBF0E891F8944
S1132D4086E08C831A8309838FEF9FE79E838D83AC
S1132D50AE01465E5F4F688D798DCE01019610D02D
S1132D60EF81F885E00FF11F10822E960FB6F894CC
S1132D70DEBF0FBECDBFDF91CF911F910F9108959C
S1132D802F923F924F925F926F927F928F929F9277
S1132D90AF92BF92CF92DF92EF92FF920F931F9365
S1132DA0CF93DF93CDB7DEB72C970FB6F894DEBF81
S1132DB00FBECDBF7C016B018A01FC011782168214
S1132DC0838181FFB0C1CE0101964C01F70193814B
S1132DD0F60193FD859193FF81916F01882309F496
S1132DE09EC1853239F493FD859193FF81916F01E2
S1132DF0853221F4B70190E0C7D1E8CF512C312CB2
S1132E0020E02032A0F48B3269F030F4803259F0A3
S1132E10833269F420612CC08D3239F0803339F467
S1132E20216026C02260246023C0286021C027FDC1
S1132E3027C030ED380F3A3078F426FF06C0FAE0A8
S1132E405F9E300D1124532E13C08AE0389E300D3E
S1132E501124332E20620CC08E3221F426FD5FC172
S1132E60206406C08C3611F4206802C0883641F410
S1132E70F60193FD859193FF81916F018111C1CF7B
S1132E80982F9F7D9554933028F40C5F1F4FFFE3D8
S1132E90F9830DC0833631F0833771F0833509F03F
S1132EA057C021C0F801808189830E5F1F4F4424DD
S1132EB04394512C540114C03801F2E06F0E711C7C
S1132EC0F801A080B18026FF03C0652D70E002C028
S1132ED06FEF7FEFC5012C874CD12C0183012C852A
S1132EE02F77222E16C03801F2E06F0E711CF80104
S1132EF0A080B18026FF03C0652D70E002C06FEF93
S1132F007FEFC5012C872AD12C012C852068222E25
S1132F10830123FC19C0832D90E048165906A0F4C0
S1132F20B70180E290E030D13A94F5CFF50127FC67
S1132F30859127FE81915F01B70190E025D1311081
S1132F403A94F1E04F1A51084114510479F7DEC064
S1132F50843611F0893631F5F80127FF07C0608106
S1132F607181828193810C5F1F4F08C060817181E0
S1132F70882777FD8095982F0E5F1F4F2F76B22EEE
S1132F8097FF09C090958095709561957F4F8F4FFD
S1132F909F4F2068B22E2AE030E0A40127D1A82E4A
S1132FA0A81843C0853729F42F7EB22E2AE030E0DA
S1132FB025C0F22FF97FBF2E8F36C1F018F4883563
S1132FC079F0ADC0803719F0883721F0A8C02F2FD1
S1132FD02061B22EB4FE0DC08B2D8460B82E09C0C2
S1132FE024FF0AC09F2F9660B92E06C028E030E067
S1132FF005C020E130E002C020E132E0F801B7FE74
S113300007C060817181828193810C5F1F4F06C06C
S11330106081718180E090E00E5F1F4FA401E6D0D3
S1133020A82EA818FB2DFF77BF2EB6FE0BC02B2DA4
S11330302E7FA51450F4B4FE0AC0B2FC08C02B2D98
S11330402E7E05C07A2C2B2D03C07A2C01C0752C42
S113305024FF0DC0FE01EA0DF11D8081803311F4BF
S1133060297E09C022FF06C07394739404C0822F82
S1133070867809F0739423FD12C020FF06C05A2CF1
S1133080731418F4530C5718732C731460F4B701A9
S113309080E290E02C8778D073942C85F6CF73145B
S11330A010F4371801C0312C24FF11C0B70180E39C
S11330B090E02C8769D02C8522FF16C021FF03C025
S11330C088E590E002C088E790E0B7010CC0822F49
S11330D0867851F021FD02C080E201C08BE227FD19
S11330E08DE2B70190E050D0A51430F4B70180E32D
S11330F090E04AD05A94F8CFAA94F401EA0DF11D55
S11331008081B70190E040D0A110F6CF332009F4BC
S11331105DCEB70180E290E037D03A94F7CFF70163
S11331208681978102C08FEF9FEF2C960FB6F8949B
S1133130DEBF0FBECDBFDF91CF911F910F91FF90E6
S1133140EF90DF90CF90BF90AF909F908F907F9043
S11331506F905F904F903F902F900895FC010590E1
S1133160615070400110D8F7809590958E0F9F1F85
S11331700895FC016150704001900110D8F78095CA
S113318090958E0F9F1F08950F931F93CF93DF93F6
S1133190182F092FEB018B8181FD03C08FEF9FEF67
S11331A020C082FF10C04E815F812C813D81421777
S11331B053077CF4E881F9819F012F5F3F4F3983E6
S11331C02883108306C0E885F985812F1995892BFA
S11331D029F72E813F812F5F3F4F3F832E83812F1D
S11331E0902FDF91CF911F910F910895FA01AA2793
S11331F0283051F1203181F1E8946F936E7F6E5F36
S11332007F4F8F4F9F4FAF4FB1E03ED0B4E03CD0E3
S1133210670F781F891F9A1FA11D680F791F8A1FC6
S1133220911DA11D6A0F711D811D911DA11D20D02D
S113323009F468943F912AE0269F11243019305DE7
S11332403193DEF6CF010895462F4770405D4193D8
S1133250B3E00FD0C9F7F6CF462F4F70405D4A3325
S113326018F0495D31FD4052419302D0A9F7EACFED
S1133270B4E0A6959795879577956795BA95C9F71C
S113328000976105710508959B01AC010A2E06940F
S11332905795479537952795BA95C9F7620F731FC8
S10F32A0841F951FA01D0895F894FFCF13
S11332AC00000B0E20000A0000005F020501010162
S11332BC00006502036902050A02FE00006F0205A4
S11332CC7502050A03FE00007B020B7502050A0455
S11332DCFE00008702048C02090A05FE00000000AF
S11332EC005F02050AFFFF0000FFFF00006400649A
S11332FC00C800FA003C0090010000C600CE004457
S113330C554D4D590024242400434D440D0A0053BB
S113331C412C310D00414F4B0D0A00532D2C5649B5
S113332C422D4361720D00522C310D005265626FB7
S113333C6F74210D0A0049444C4500253464202542
S113334C3464202534640078253464792534647A13
S113335C2534647225346471253464742534640012
S113336C7825346420792534642078253464002548
S113337C64004A757374415461736B0053746172C5
S113338C7475705461736B00000102030001020038
S9030000FC
