S01000004669726D776172652E73726563D7
S1130000C3C0000097C30000E0C00000DEC00000D1
S1130010DCC00000DAC00000D8C00000D6C0000078
S1130020D4C00000D2C00000D0C00000CEC0000088
S1130030CCC00000B4C30000C8C00000C6C00000AB
S1130040C4C00000C2C00000C0C00000BEC00000A8
S1130050BCC000000C945E08B8C00000B6C000002C
S11300600C9425130C94C1100C940311AEC0000021
S1130070ACC00000AAC00000A8C00000A6C00000D8
S1130080A4C00000A2C00000A0C000009EC00000E8
S11300900C944F110C94911198C0000096C000006C
S11300A094C0000092C0000090C000008EC0000008
S11300B08CC000008AC0000088C0000086C0000018
S11300C084C0000082C0000080C000001A0F220F0C
S11300D08D0F2A0F320F360F630F8D0F8D0F8D0F7B
S11300E08D0F8D0F8D0F8D0F8D0F8D0F8D0F8D0F2C
S11300F08D0F8D0F8D0F8D0F8D0F8D0F8D0F8D0F1C
S11301008D0F8D0F8D0F8D0F8D0F8D0F160F1E0FF1
S11301108D0F260F2E0F610F0F2EF5E3EF2EFDE04E
S1130120FF2EF02DCDE0DDE025C00E94130C1881D8
S11301300E94D40C1123F1F00FB6F8940F92E091C1
S1130140120DF091130D06811781C801029603D692
S113015080910B0D815080930B0D80910C0D81507B
S113016080930C0D0F900FBEF8018789908DDBD71B
S1130170C801D9D780910C0D8111D7CFF7018081A7
S11301808230C0F3C6D6F6CF11241FBECFEFD1E222
S1130190DEBFCDBF00E00CBF12E0A0E0B2E0E6EDB0
S11301A0FFE200E00BBF02C007900D92AC3BB10729
S11301B0D9F72DE0ACEBB2E001C01D92AC36B2072A
S11301C0E1F70E94E60F0C94E9171ACF1092EA02A5
S11301D0E091E802F091E902309709F01995089549
S11301E0CF93DF931F921F92CDB7DEB76A838091BE
S11301F0EA02882319F0862F57D413C08091E602AF
S11302009091E702009769F0198220E0AE014F5FF8
S11302105F4FBE016E5F7F4F0E94A50989818111E6
S113022078D60F900F90DF91CF910895DF92EF92DF
S1130230FF920F931F93CF93DF93CDB7DEB7D62EE4
S1130240EDB6FEB6262F30E02F5F3F4F4DB75EB7B9
S1130250421B530B0FB6F8945EBF0FBE4DBF0DB7D4
S11302601EB70F5F1F4F98018068EDB7FEB78183FB
S1130270662341F081E0F901E80FF11D10828F5FE0
S1130280D816C8F78AE093E0F4D241E04D0DB801E6
S113029080911F03909120030E94A4120FB6F8943A
S11302A0FEBE0FBEEDBEDF91CF911F910F91FF9067
S11302B0EF90DF900895462FBC0180911D0390912B
S11302C01E030C9482100895CF93DF9300D01F92E5
S11302D0CDB7DEB78091BD028230C1F128F4882306
S11302E051F08130C9F0EBC0833009F43FC0853050
S11302F009F491C0E4C081E08093BD028CE18B835A
S11303001C8242E0BE016D5F7F4F80911F0390917C
S113031020030E94A412D3C08AE093E0A7D28230C3
S113032009F0CDC08093BD028AE093E0A2D28BE1B4
S11303308B8388E08C8342E0BE016D5F7F4F8091A8
S11303401F03909120030E94A412B9C08AE093E095
S11303508DD2823009F0B3C083E08093BD028AE07D
S113036093E087D266E08BE361DFA9C08AE093E083
S11303707DD2873009F0A3C0BE016F5F7F4F8AE052
S113038093E047D2BE016E5F7F4F8AE093E041D293
S1130390BE016F5F7F4F8AE093E03BD28A8190E099
S11303A0982F88272981822B9093F6028093F50257
S11303B0BE016E5F7F4F8AE093E02BD2BE016F5F78
S11303C07F4F8AE093E025D28A8190E0982F882796
S11303D02981822B9093F4028093F302BE016E5F15
S11303E07F4F8AE093E015D2BE016F5F7F4F8AE0B2
S11303F093E00FD28A8190E0982F88272981822B5D
S11304009093F2028093F10285E08093BD0266E04E
S113041083E40CDF54C08AE093E028D2873009F0EB
S11304204EC0BE016F5F7F4F8AE093E0F2D1BE0100
S11304306E5F7F4F8AE093E0ECD1BE016F5F7F4F28
S11304408AE093E0E6D18A8190E0982F8827298179
S1130450822B9093F0028093EF02BE016E5F7F4F78
S11304608AE093E0D6D1BE016F5F7F4F8AE093E0CC
S1130470D0D18A8190E0982F88272981822B90936C
S1130480EE028093ED02BE016E5F7F4F8AE093E03F
S1130490C0D1BE016F5F7F4F8AE093E0BAD18A81F9
S11304A090E0982F88272981822B9093EC028093E7
S11304B0EB0283E08093BD0266E08BE3B7DE0F902E
S11304C00F900F900F90DF91CF910895882311F032
S11304D0429A089542980895882311F0419A089504
S11304E041980895853608F084E68823A9F0282FDA
S11304F030E0AFE7BCE00E94E81324E630E040E0DF
S113050050E00E94C61330939900209398003093D2
S11305109B0020939A0008951092990010929800DD
S113052010929B0010929A0008958F929F92AF921E
S1130530BF92CF92DF92EF920F931F933B9A3A9A16
S1130540399A389AE0E9F0E0808182608083A1E9F9
S1130550B0E08C9188618C938FE79CE09093990034
S1130560809398002081206C20836B9A90939B0049
S113057080939A002081206320836C9A9093970043
S1130580809396008C9181608C9380E0ABDF6A98B5
S11305906D9A7598089A1098099A11980A9A12985F
S11305A0E9E6F0E0808182608083E89A81ED92E060
S11305B02BD18EEB92E028D10F2EF0EF8F2EF0E0AE
S11305C09F2EF02D0F2EFEEBAF2EF2E0BF2EF02D5E
S11305D00F2EF1EDCF2EF2E0DF2EF02DE12C00E016
S11305E023E040E855E260E070E080E00E940B10F8
S11305F090931E0380931D038AE093E005D187EF57
S113060092E002D184E691E09F938F930F2EF7EF4F
S11306108F2EF2E09F2EF02D0F2EFAE0AF2EF3E096
S1130620BF2EF02DC12C05E210E020E043E063E092
S113063080E10E9417129093200380931F0360E0CF
S113064080E090E041DE8BE98093B300E1EBF0E0E1
S1130650808182608083A0E7B0E08C9182608C937B
S11306608081856080830F900F901F910F91EF9090
S1130670DF90CF90BF90AF909F908F900895853674
S113068008F084E68823A9F0282F30E0AFE7BCE027
S11306900E94E81324E630E040E050E00E94C613D4
S11306A0309399002093980010929B0010929A0026
S11306B00895109299001092980010929B00109245
S11306C09A0008958091F5029091F6020895809120
S11306D0F3029091F40208958091F1029091F20254
S11306E00895882311F010980895109A0895462FBC
S11306F0BC0180911D0390911E030C9482100895F7
S11307007093E7026093E6029093E9028093E80213
S113071081E08093EA0246EE50E06BE571E087E009
S113072092E09AC10895009721F09093E502809396
S1130730E40208951F920F920FB60F9211240BB684
S11307400F922F933F934F935F936F937F938F9366
S11307509F93AF93BF93EF93FF938091E4029091A3
S1130760E502009749F01092BC026CEB72E01FD6D0
S11307708091BC028111CDD3FF91EF91BF91AF91D4
S11307809F918F917F916F915F914F913F912F91A5
S11307900F900BBE0F900FBE0F901F9018951F92D5
S11307A00F920FB60F9211240BB60F922F933F9313
S11307B04F935F936F937F938F939F93AF93BF9365
S11307C0EF93FF938091EA02882359F08091060207
S11307D0815019F08093060204C08AE080930602D7
S11307E04CD1FF91EF91BF91AF919F918F917F91E8
S11307F06F915F914F913F912F910F900BBE0F908E
S11308000FBE0F901F901895FC01108A118A128A4E
S11308100895FC018289882391F08189DF01A80F62
S1130820B11D8C91DB018C93818990E001968F70CE
S11308309078818B82898150828B80E0089581E059
S11308400895FC014289403178F4208930E0E20FB8
S1130850F31F60832F5F3F4F2F703078FC01208B94
S11308604F5F428B80E0089582E00895FC01828905
S11308700895FC01108A118A128A0895E0912E03CA
S1130880F0912F038081853209F085C0CF01019654
S113089090932F0380932E038181853219F4109253
S11308A0250308958A32E1F5CF01029690932F0330
S11308B080932E03339620E0DC010196220F322F21
S11308C0330F330F230F20533C91230F31913234D4
S11308D099F7209330031296B0932F03A0932E031D
S11308E080913203909133030097B1F0E1E3F3E098
S11308F020812F5F2083332727FD3095F901EE0FE8
S1130900FF1FE20FF31FE80FF91F1282808191810C
S1130910909335038093340382E0809325030895F4
S113092080912E0390912F03DC01119620E0FC01AD
S11309300196220F322F330F330F230F20533081B0
S1130940230F3D91323499F7209330033296F0937C
S11309502F03E0932E038091320390913303009789
S1130960B1F0A1E3B3E0EC91EF5FEC93FF27E7FD77
S1130970F0959F01220F331FE20FF31FE80FF91FB9
S1130980128280819181909335038093340381E0B6
S1130990809325030895109225030895CF93DF9340
S11309A0109229038093280392E0980F923030F438
S11309B0E0912103F091220319954BC09BE0899F9C
S11309C0E0011124A0912603B0912703AC0FBD1FB1
S11309D012966C911297662339F0E0912303F091FB
S11309E024038D919C91199580912603909127035E
S11309F0C80FD91F2D81222351F18B819C819093A3
S1130A002B0380932A0390932F0380932E03E9856D
S1130A10FA85F0933303E09332033FEF30933103CD
S1130A20309731F040815181509335034093340322
S1130A3030E021503109820F931F90932D0380934E
S1130A402C031CDF8E818F5F8093290302C08F816A
S1130A50A5DFDF91CF910895909327038093260318
S1130A607093240360932303509322034093210340
S1130A701092280380E092CF08958091290388235F
S1130A8091F081508093290381110DC08091280336
S1130A90E0912603F09127039BE0899FE00DF11D6F
S1130AA0112480857BCF08956F927F928F929F92BD
S1130AB0AF92BF92CF92DF92EF92FF920F931F9368
S1130AC0CF93DF93982E80912503813009F442C09F
S1130AD020F0823009F470C0AFC0812CCEE2D3E0A4
S1130AE00F2EFAE2CF2EF3E0DF2EF02D0F2EF1E3DE
S1130AF0EF2EF3E0FF2EF02D02E313E0772473943E
S1130B00612C0F2EF4E3AF2EF3E0BF2EF02DE8811D
S1130B10F9819F012F5F3F4F398328838081891595
S1130B20A9F0D6018D919C9199838883F701108255
S1130B30D801ED91FC91309729F080819181F501E4
S1130B4091838083872D8110862D882E97DE8110D6
S1130B50DECF72C020913203309133032115310569
S1130B6011F1A4E3B3E0ED91FC911197CF0101964B
S1130B708D939C939082E0913103FF27E7FDF095DC
S1130B80CF01880F991FE80FF91FE20FF31F82812D
S1130B908F5F8283E0E3F3E0808181508083811161
S1130BA04BC06CDE49C0E0E3F3E080818150808378
S1130BB0811142C063DE40C0E0912E03F0912F0307
S1130BC08081891551F1809132039091330300970C
S1130BD009F44EC0A4E3B3E0ED91FC9111979F0199
S1130BE02F5F3F4F2D933C93908220913103332705
S1130BF027FD3095F901EE0FFF1FE20FF31FE80FF9
S1130C00F91F82818F5F8283E0E3F3E0808181506A
S1130C108083811111C032DE0FC0A0E3B3E08C9158
S1130C2081508C93811102C029DE06C03196F09365
S1130C302F03E0932E0322DE80912503811118C037
S1130C4020912E0330912F0380912C0390912D033A
S1130C508217930768F480912803E0912603F091AA
S1130C6027039BE0899FE00DF11D1124878196DE07
S1130C70DF91CF911F910F91FF90EF90DF90CF9074
S1130C80BF90AF909F908F907F906F900895FC01DC
S1130C900396928381832FEF3FEF348323839683DC
S1130CA085839087878310820895FC0111861086BE
S1130CB00895CF93DF939C01FB01DC011196CD9144
S1130CC0DC911297D383C2838C819D819583848325
S1130CD08C819D81DC0113967C936E9312977D83A6
S1130CE06C8331872087F90180818F5F8083DF9156
S1130CF0CF910895CF93DF93EB01488159814F3F02
S1130D002FEF520721F4FC01A781B0850DC0DC014F
S1130D1013961296ED91FC9113972081318142171D
S1130D20530710F0DF01F5CF1296ED91FC91139764
S1130D30FB83EA83D583C483BD83AC831396DC939E
S1130D40CE93129799878887FC0120812F5F208397
S1130D50DF91CF910895CF93DF93FC01A085B185F6
S1130D60C281D381848195819D838C83C481D58103
S1130D70828193819B838A831196CD91DC91129712
S1130D80CE17DF0731F48C819D8112969C938E934C
S1130D901197118610868C9181508C93DF91CF919D
S1130DA0089531E1FC013083319722E220833197A9
S1130DB0A3E3A083319760833197708331971082C6
S1130DC031971082319760E86083319710823197B0
S1130DD0108231971082319762E06083319763E02B
S1130DE06083319764E06083319765E06083319775
S1130DF066E06083319767E06083319768E06083E1
S1130E00319769E06083319760E160833197308383
S1130E10319732E13083319733E13083319734E1D4
S1130E203083319735E13083319736E13083319720
S1130E3037E13083319738E13083319739E13083BA
S1130E40319730E23083319731E230833197208318
S1130E50319723E220833197408331975083319730
S1130E6026E22083319727E22083319728E22083EA
S1130E70319729E22083319720E32083319721E3BE
S1130E8020838997089588EE93E0909339038093A3
S1130E903803909337038093360389EF87BD82E04C
S1130EA084BD83E085BDEEE6F0E0808182608083CE
S1130EB0A091590DB0915A0DCD91CDBFDD91DEBFFA
S1130EC0FF91EF91DF91CF91BF91AF919F918F915E
S1130ED07F916F915F914F913F912F911F910F914E
S1130EE0FF90EF90DF90CF90BF90AF909F908F9046
S1130EF07F906F905F904F903F902F901F900F9036
S1130F000CBE0F900BBE0F900FBE0F90089581E0A2
S1130F1008950F920FB6F8940F920BB60F920CB679
S1130F200F921F9211242F923F924F925F926F92D1
S1130F307F928F929F92AF92BF92CF92DF92EF9265
S1130F40FF920F931F932F933F934F935F936F934E
S1130F507F938F939F93AF93BF93CF93DF93EF933D
S1130F60FF93A091590DB0915A0D0DB60D920EB686
S1130F700D92B3D5A091590DB0915A0DCD91CDBF1D
S1130F80DD91DEBFFF91EF91DF91CF91BF91AF91E2
S1130F909F918F917F916F915F914F913F912F918D
S1130FA01F910F91FF90EF90DF90CF90BF90AF9083
S1130FB09F908F907F906F905F904F903F902F9075
S1130FC01F900F900CBE0F900BBE0F900FBE0F9092
S1130FD008950F920FB6F8940F920BB60F920CB6B9
S1130FE00F921F9211242F923F924F925F926F9211
S1130FF07F928F929F92AF92BF92CF92DF92EF92A5
S1131000FF920F931F932F933F934F935F936F938D
S11310107F938F939F93AF93BF93CF93DF93EF937C
S1131020FF93A091590DB0915A0D0DB60D920EB6C5
S11310300D92809136039091370301979093370373
S113104080933603892B41F48091380390913903BE
S11310509093370380933603ECD381113ED5A0914E
S1131060590DB0915A0DCD91CDBFDD91DEBFFF91E9
S1131070EF91DF91CF91BF91AF919F918F917F912C
S11310806F915F914F913F912F911F910F91FF901D
S1131090EF90DF90CF90BF90AF909F908F907F9014
S11310A06F905F904F903F902F901F900F900CBEC9
S11310B00F900BBE0F900FBE0F9008958ADF189506
S11310C0CF93DF93EC01AFD380913A0390913B032C
S11310D0892B31F48FE393E090933B0380933A039D
S11310E040913C0350913D039E01240F351F233C46
S11310F089E0380770F44217530770F4C0913A033B
S1131100D0913B03C40FD51F30933D0320933C0380
S113111005C0C0E0D0E002C0C0E0D0E045D4CE01BC
S1131120DF91CF91089508951F93CF93DF93EC013E
S1131130142F8C8D8823E9F1411117C0482F50E0FA
S11311408C819D810E941E152C8D8C819D81820F26
S1131150911D9D838C832A813B818217930748F1DB
S1131160888199819D838C8324C0482F50E08E818F
S11311709F810E941E152C8D30E0319521953109F7
S11311808E819F81820F931F9F838E8368817981D3
S11311908617970730F48A819B81280F391F3F8374
S11311A02E83123031F48A8D882319F08A8D815070
S11311B08A8F8A8D8F5F8A8F80E0DF91CF911F9114
S11311C00895FC01CB01448D4423A1F050E0268115
S11311D03781240F351F3783268362817381261755
S11311E0370720F020813181378326836681778118
S11311F00C941E1508950F931F93CF93DF93EC0166
S11312000FB6F8940F928E8D1816A4F4898988234A
S113121089F08E010F5E1F4F03C08989882351F026
S1131220C801EDD481116CD58E8D81508E8F8E8D39
S113123018169CF38FEF8E8F0F900FBE0FB6F89495
S11312400F928D8D1816A4F48885882389F08E0159
S1131250085F1F4F03C08885882351F0C801CFD48D
S113126081114ED58D8D81508D8F8D8D18169CF3E7
S11312708FEF8D8F0F900FBEDF91CF911F910F9144
S11312800895CF93DF93EC010FB6F8940F92888101
S113129099812C8D30E07B8D729FA001739F500D3E
S11312A01124FC01E40FF51FFB83EA831A8E9D834E
S11312B08C83421B530B840F951F9F838E838FEF68
S11312C08D8F8E8F61110AC08885882369F0CE01C5
S11312D0089695D4813041F41CDE06C0CE010896F0
S11312E0D6DCCE014196D3DC0F900FBE81E0DF91B6
S11312F0CF9108950F931F93CF93DF93082F162F49
S11313006623B9F0869FC00111248096D9DEEC01D2
S1131310009721F414C0D983C88305C09C01215EC1
S11313203F4F398328830B8F1C8F61E0CE01A9DFE7
S113133006C08FE190E0C4DEEC01009761F7CE01B6
S1131340DF91CF911F910F9108950F931F93CF9326
S1131350DF93EC018A019A8D8B8D981710F022305F
S1131360D1F4422FCE01E0DE8E8D8F3F79F489894E
S1131370882399F0CE01419642D4882381F0011547
S1131380110579F081E0F80180830CC08E8D8F5FA8
S11313908E8F81E007C080E005C081E003C081E05A
S11313A001C081E0DF91CF911F910F910895CF93F8
S11313B0DF93FC01EB01928D838D9817C0F4828D2D
S11313C08F5F828F868D8F3F69F48189882389F0AE
S11313D0CF01419614D4882371F0209771F081E0F5
S11313E088830CC0868D8F5F868F81E007C080E084
S11313F005C081E003C081E001C081E0DF91CF91AD
S113140008959F92AF92BF92CF92DF92EF92FF9294
S11314100F931F93CF93DF9300D01F921F92CDB7EA
S1131420DEB78C016B015D834C83B22EA12C992411
S113143093947C0181E1E80EF11C0FB6F8940F92AD
S1131440F801828D882321F1E680F780B601C80176
S1131450B8DEB1100EC0F801828D8150828F808574
S1131460882391F0C8010896CAD3813069F451DD0C
S11314700BC0F801F782E6828189882329F0C8012C
S11314804196BDD3811145DD0F900FBE81E044C06C
S11314904C815D81452B21F40F900FBE80E03CC050
S11314A0A11004C0CE010196EED3A92C0F900FBE5B
S11314B0BAD10FB6F8940F92F801858D8F3F09F4D5
S11314C0158EF801868D8F3F09F4168E0F900FBE8E
S11314D0BE016C5F7F4FCE010196E0D3811118C02D
S11314E00FB6F8940F92F801828D0F900FBE811100
S11314F00BC06C817D81C70168D3C8017CDE54D2E6
S113150081119BCF06DD99CFC80175DE4DD295CFF1
S1131510C80171DE49D280E00F900F900F900F90B8
S11315200F90DF91CF911F910F91FF90EF90DF907B
S1131530CF90BF90AF909F900895E091210DF091CE
S1131540220D8081811107C08FEF9FEF90934A0293
S1131550809349020895E091210DF091220D0580B8
S1131560F681E02D0680F781E02D828193819093AE
S11315704A02809349020895CF93DF93EC01E091EE
S1131580590DF0915A0D938382838091090D9091A6
S11315900A0DC817D90760F46091590D70915A0D5E
S11315A080911F0D9091200D6E5F7F4FA3DB16C0BD
S11315B06091590D70915A0D8091210D9091220DD9
S11315C06E5F7F4F97DB8091490290914A02C81762
S11315D0D90720F4D0934A02C0934902DF91CF91F6
S11315E008954F925F926F927F928F929F92AF92E3
S11315F0BF92CF92DF92EF92FF920F931F93CF93FC
S1131600DF934C015B012A013901C114D10431F487
S1131610CA0156DD6C01009709F4CAC086E290E065
S11316204FDDEC01009771F0D88ECF8A81E0481A23
S11316305108C40CD51CD5018C91898F8C918111D2
S113164004C014C0C6016FDDB3C0AE01465E5F4F77
S1131650F501319627E0CF013191DA013D93AD01D7
S1131660DC018C91882311F02150A9F718A2102FC6
S1131670043008F013E01E8B5E01B2E0AB0EB11C27
S1131680C50113DBCE010C9610DBD987C88784E033
S113169090E0811B91099D878C87DB8BCA8B19A2F3
S11316A01AA21BA21CA21DA2A301B401C60179DBCC
S11316B099838883E114F10419F0F701D183C0837D
S11316C00FB6F8940F9280910B0D8F5F80930B0DE2
S11316D08091590D90915A0D892B69F5D0935A0D2B
S11316E0C093590D80910B0D8130A1F585E39DE0E8
S11316F0CEDA8EE39DE0CBDA87E49DE0C8DA80E5BC
S11317009DE0C5DA8CE29DE0C2DA83E29DE0BFDAB7
S113171086E19DE0BCDA8DE09DE0B9DA8CE29DE0E3
S11317209093220D8093210D83E29DE09093200DF0
S113173080931F0D0FC08091070D81110BC0E091A4
S1131740590DF0915A0D8689081720F0D0935A0D3F
S1131750C093590D8091030D8F5F8093030D8E8983
S11317609091080D981710F48093080D90E09C0157
S1131770220F331F220F331F220F331F820F931F99
S1131780B5018B5C924F95DA0F900FBE8091070DD7
S1131790882351F0E091590DF0915A0D86898017F4
S11317A028F4B7DB81E005C081E003C081E001C01B
S11317B08FEFDF91CF911F910F91FF90EF90DF900A
S11317C0CF90BF90AF909F908F907F906F905F90DD
S11317D04F900895AF92BF92CF92DF92EF92FF9213
S11317E00F93A12CB12CC12CD12CE12CF12C00E0B5
S11317F020E030E049EB50E066E872E08CE890E0ED
S1131800F0DE813041F4F8948093070D10920A0DB4
S11318101092090D38DB0F91FF90EF90DF90CF907D
S1131820BF90AF9008958091020D8F5F8093020D59
S11318300895CF92DF92EF92FF920F931F93CF936D
S1131840DF938091020D811196C08091090D9091D2
S11318500A0D019690930A0D8093090DE090090DED
S1131860F0900A0DE114F104B1F48091210D9091EE
S1131870220D20911F0D3091200D3093220D2093C5
S1131880210D9093200D80931F0D8091040D8F5F87
S11318908093040D52DE8091490290914A02E81629
S11318A0F90608F451C0D12CCC24C39401C0DC2C1B
S11318B0E091210DF091220D8081811107C08FEFFD
S11318C09FEF90934A02809349023FC0E091210D1B
S11318D0F091220D0580F681E02DC681D7812A8101
S11318E03B81E216F30628F430934A02209349021E
S11318F02CC08E010E5F1F4FC8012DDA8C899D8983
S1131900892B19F0CE010C9626DA2E898091080DC8
S1131910821710F42093080D30E0C901880F991F35
S1131920880F991F880F991F820F931FB8018B5C32
S1131930924FBFD9E091590DF0915A0D9E89868935
S1131940981708F0B4CFB4CFD12CE091590DF09191
S11319505A0D868990E0FC01EE0FFF1FEE0FFF1F6A
S1131960EE0FFF1F8E0F9F1FFC01EB5CF24F808177
S1131970823040F409C08091060D8F5F8093060D7C
S1131980D12C02C0DD24D3948091050D882311F05D
S1131990DD24D3948D2DDF91CF911F910F91FF9072
S11319A0EF90DF90CF900895DF92EF92FF920F9324
S11319B01F93CF93DF930FB6F8940F928091020D8B
S11319C081508093020D8091020D81115CC0809141
S11319D00B0D882309F459C00F2EF6E1EF2EFDE01C
S11319E0FF2EF02DDD24D3942DC0E0911B0DF0913A
S11319F01C0DC681D781CE010C96ADD98E010E5F28
S1131A001F4FC801A8D98E899091080D981710F41A
S1131A108093080D90E09C01220F331F220F331F87
S1131A20220F331F820F931FB8018B5C924F41D951
S1131A30E091590DF0915A0D9E898689981710F0FE
S1131A40D092050DF70180818111CFCF8091060DD1
S1131A50882391F08091060D882371F0C1E0E9DEBE
S1131A608111C093050D8091060D81508093060D60
S1131A708091060D8111F3CF8091050D813039F4E9
S1131A8048DA81E005C080E003C080E001C080E066
S1131A900F900FBEDF91CF911F910F91FF90EF90A8
S1131AA0DF900895CF93DF93EC01009791F0BBDEB4
S1131AB08091090D90910A0DC80FD91F8091590D7D
S1131AC090915A0D029647D9CE0156DD6DDF8111F2
S1131AD001C01FDADF91CF9108958091020D882310
S1131AE021F081E08093050D08951092050DA091D9
S1131AF0590DB0915A0DE091590DF0915A0D2D9157
S1131B003C918789908D8217930758F06091590D05
S1131B1070915A0D8091590D90915A0D675E7F4FC7
S1131B2079D28091080D90E0FC01EE0FFF1FEE0FBB
S1131B30FF1FEE0FFF1F8E0F9F1FFC01EB5CF24F88
S1131B408081811117C08091080D81508093080D08
S1131B508091080D90E0FC01EE0FFF1FEE0FFF1FB8
S1131B60EE0FFF1F8E0F9F1FFC01EB5CF24F808175
S1131B70882349F3E091080DF0E0CF01880F991F05
S1131B80880F991F880F991FE80FF91FEB5CF24F1C
S1131B90A181B28112960D90BC91A02DB283A18334
S1131BA0CF010396A817B90731F412968D919C9131
S1131BB01397928381830180F281E02D868197813E
S1131BC090935A0D8093590D0895CF93DF93EB01B1
S1131BD06091590D70915A0D645F7F4F8BD880913D
S1131BE0590D90915A0D0296B6D88091090D909195
S1131BF00A0D8C0F9D1FC0DCDF91CF9108950F93C8
S1131C001F93CF93DF93DC011596ED91FC9116970A
S1131C10C681D7818E01045F1F4FC8019CD8809173
S1131C20020D81111AC00A501109C80194D88E8975
S1131C309091080D981710F48093080D90E09C0182
S1131C40220F331F220F331F220F331F820F931FC4
S1131C50B8018B5C924F2DD804C0B80186E19DE099
S1131C6028D8E091590DF0915A0D9E8986898917DB
S1131C7020F481E08093050D01C080E0DF91CF91D5
S1131C801F910F9108952091040DFC012083209150
S1131C90090D30910A0D3283218308950FB6F8940B
S1131CA00F922091090D30910A0D4091040DDC0131
S1131CB05C91541739F011964D915C911297241749
S1131CC03507C0F4DC011196ED91FC911297DB010C
S1131CD04D915C91D901AE1BBF0BA417B50760F4FD
S1131CE0E21BF30B4E0F5F1FFB0151834083CBDFDD
S1131CF080E003C081E001C081E00F900FBE089531
S1131D0081E08093050D08958F3F19F481E080935D
S1131D105B0D089520E04FEF5FEF60E070E080918D
S1131D205E0D90915F0D6DDBF5CF8F929F92AF9218
S1131D30BF92CF92DF92EF92FF920F931F93CF93B4
S1131D40DF93CDB7DEB764970FB6F894DEBF0FBE4E
S1131D50CDBF0F2EF4E6EF2EF12CF02D0F2EFBE865
S1131D60CF2EF2E0DF2EF02D8E010F5F1F4F0E9469
S1131D706203B82EA92E0E946703982E892E0E9412
S1131D806C039F938F938F929F92AF92BF92DF9237
S1131D90CF921F930F935BD6F80101900020E9F7CF
S1131DA03197BF01601B710BC8010E94770384E661
S1131DB090E078DE81E0E81AF1080FB6F894DEBF0F
S1131DC00FBECDBFE114F10491F664960FB6F894FA
S1131DD0DEBF0FBECDBFDF91CF911F910F91FF905A
S1131DE0EF90DF90CF90BF90AF909F908F90089529
S1131DF0EF92FF920F931F93CF93DF93CDB7DEB78C
S1131E0064970FB6F894DEBF0FBECDBF90915B0D03
S1131E10992309F482C090E0FC01E154F109E6320F
S1131E20F10508F07AC0EA59FF4FCCC480E00E9463
S1131E30660273C081E00E9466026FC080E00E9467
S1131E406C026BC081E00E946C0267C080E00E945B
S1131E50720263C08BE40E9472025FC080E00E9441
S1131E603F035BC084E60E943F0357C00E946203A5
S1131E70182F092F0E946703F82EE92E0E946C0385
S1131E809F938F93EF92FF920F931F9383E992E0B6
S1131E909F938F938E010F5F1F4F1F930F93D7D57F
S1131EA0F80101900020E9F73197BF01601B710B25
S1131EB0C8010E9477030FB6F894DEBF0FBECDBFF2
S1131EC02CC033DF2AC00E946203182F092F0E94FE
S1131ED06703F82EE92E0E946C039F938F93EF9271
S1131EE0FF920F931F9383E992E09F938F938E0148
S1131EF00F5F1F4F1F930F93AAD5F8010190002085
S1131F00E9F73197BF01601B710BC8010E94770389
S1131F100FB6F894DEBF0FBECDBF64960FB6F8942B
S1131F20DEBF0FBECDBFDF91CF911F910F91FF9008
S1131F30EF900895CF93DF931F92CDB7DEB743E0C0
S1131F4060E081E0D7D990935F0D80935E0D40E00F
S1131F5061E08EE1CFD990935D0D80935C0D80910B
S1131F605E0D90915F0D009711F00E94930388EE2F
S1131F7093E098DD80E00E94710388EE93E092DDA7
S1131F8060915C0D70915D0D84E89EE00E94800379
S1131F90A12CB12CC12CD12CE12CF12C01E020E09E
S1131FA030E049EB50E06FE972E08AE89EE019DB2B
S1131FB020E04FEF5FEFBE016F5F7F4F80915C0DBC
S1131FC090915D0D1EDA898113DFF2CFAF92BF923B
S1131FD0CF92DF92EF92FF920F930E949502A12C71
S1131FE0B12CC12CD12CE12CF12C00E020E030E00C
S1131FF049EB50E069EA72E08AE99FE0F2DAEADB51
S113200080E090E00F91FF90EF90DF90CF90BF9031
S1132010AF90089508954F925F926F927F928F923E
S11320209F92AF92BF92CF92DF92FF920F931F9332
S1132030CF93DF93CDB7DEB7F82E2A013B0188E0BA
S113204090E0D5D38C018F2D90E0880F991FFC016F
S1132050E05AF24F11830083FC01E55BFD4F808160
S11320609181D80111969C938E931396BC92AE9253
S113207012971596DC92CE92149717969C928E9294
S11320801697FFB6F894D801ED91FC911197369705
S1132090808182608083CD90DC90440C551C661C4A
S11320A0771C440C551C661C771CA3019201220F5B
S11320B0331F441F551F60E074E284EF90E044D363
S11320C02150F60132972083D801ED91FC911197AC
S11320D0359788E98083ED91FC91349786E080837D
S11320E0FFBEC801DF91CF911F910F91FF90DF9048
S11320F0CF90BF90AF909F908F907F906F905F90A4
S11321004F900895EF92FF920F931F93CF93DF9315
S11321108C01E42EDC011296ED91FC91139730971B
S113212069F0242F30E0428980E190E0841B91091A
S113213082179307E4F0E11005C010C0B1E0B417B2
S1132140C0F0F9CFC62FD72FF12C6991F801828105
S113215093810E942104F394FE10F7CFD801ED91EE
S1132160FC91359780818062808380E003C082E0A7
S113217001C082E0DF91CF911F910F91FF90EF900A
S113218008951F920F920FB60F9211240BB60F925F
S11321902F933F934F935F936F937F938F939F936B
S11321A0AF93BF93CF93EF93FF93E091600DF091C2
S11321B0610D3097A1F0C091C6006C2F8481958188
S11321C00E9421048091600D9091610DDC011696AE
S11321D0ED91FC911797309711F06C2F1995FF91A1
S11321E0EF91CF91BF91AF919F918F917F916F911B
S11321F05F914F913F912F910F900BBE0F900FBEA7
S11322000F901F9018951F920F920FB60F921124E2
S11322100BB60F922F933F934F935F936F937F93DC
S11322208F939F93AF93BF93EF93FF93CF93DF93DA
S11322301F92CDB7DEB7E091600DF091610D30973C
S113224099F0BE016F5F7F4F828193810E940904E0
S1132250811104C089818093C6000BC0E1ECF0E0D9
S113226080818F7D808305C0E1ECF0E080818F7DEB
S113227080830F90DF91CF91FF91EF91BF91AF9148
S11322809F918F917F916F915F914F913F912F918A
S11322900F900BBE0F900FBE0F901F9018951F92BA
S11322A00F920FB60F9211240BB60F922F933F93F8
S11322B04F935F936F937F938F939F93AF93BF934A
S11322C0CF93EF93FF93E091620DF091630D3097FC
S11322D0A1F0C091CE006C2F848195810E942104CD
S11322E08091620D9091630DDC011696ED91FC9145
S11322F01797309711F06C2F1995FF91EF91CF91AB
S1132300BF91AF919F918F917F916F915F914F9109
S11323103F912F910F900BBE0F900FBE0F901F9007
S113232018951F920F920FB60F9211240BB60F92AD
S11323302F933F934F935F936F937F938F939F93C9
S1132340AF93BF93EF93FF93CF93DF931F92CDB7D8
S1132350DEB7E091620DF091630D309799F0BE0104
S11323606F5F7F4F828193810E940904811104C0B1
S113237089818093CE000BC0E9ECF0E080818F7DF1
S1132380808305C0E9ECF0E080818F7D80830F902D
S1132390DF91CF91FF91EF91BF91AF919F918F9179
S11323A07F916F915F914F913F912F910F900BBE51
S11323B00F900FBE0F901F901895E091650DF0914E
S11323C0660D309701F12381213079F4A081B18128
S11323D04C9121E030E0028002C0220F331F0A94A6
S11323E0E2F7209524232C930EC0A081B1816C9137
S11323F041E050E09A01028002C0220F331F0A9488
S1132400E2F7262B2C939093660D8093650D00972D
S113241069F01092670D2CB52F732CBDFC0124813B
S11324202CBD85818DBD8CB580648CBD08956F9263
S11324307F928F929F92AF92BF92CF92DF92EF9250
S1132440FF920F931F93CF93DF93CDB7DEB7D82EB0
S1132450F62E642E722E8091640D811106C084B113
S1132460876084B981E08093640D8CE090E0BFD1F3
S1132470FC0100831183E282A02FB12F4E9121E051
S113248030E0C90102C0880F991FEA94E2F7842B57
S11324908C93C382660C660C7628AF2DBB27A7FDF0
S11324A0B095AB54BD4F6C90D628D728D48283E026
S11324B08F1514F481E0858397828682B186A08685
S11324C08A899B89938782876FB7F8948091650D79
S11324D09091660DF093660DE093650D2381213094
S11324E081F4A081B1817C9141E050E09A010280A5
S11324F002C0220F331F0A94E2F7209527232C935E
S11325000EC0A081B1817C9141E050E09A0102802B
S113251002C0220F331F0A94E2F7272B2C939093C7
S1132520660D8093650D6FBFCF01DF91CF911F9131
S11325300F91FF90EF90DF90CF90BF90AF909F905E
S11325408F907F906F900895DF92EF92FF920F9398
S11325501F93CF93DF93EC018B01F42E009709F4C2
S11325606BC08091650D9091660D8C179D0711F0DD
S1132570CE0123DFEFB6F894EE81FF81309761F04E
S11325802F2D30E0428980E190E0841B910982176D
S113259093070CF448C004C081E08F1508F445C0CB
S11325A08091670D811130C081E08093670DE091C7
S11325B0650DF091660D8381813079F4A081B1813C
S11325C04C9121E030E0C901028002C0880F991FBC
S11325D00A94E2F7842B8C930EC0A081B1812C91D4
S11325E081E090E0028002C0880F991F0A94E2F70C
S11325F0809582238C938CB580688CBDF801808192
S11326008EBDDD24D39401C0D12CDF1480F4F801F5
S1132610ED0DF11D60818E819F810E942104D39470
S1132620DF14A8F306C081E005C081E003C080E0A8
S113263001C080E0EFBE01C083E0DF91CF911F9124
S11326400F91FF90EF90DF9008951F920F920FB6B5
S11326500F9211240BB60F922F933F934F935F93D6
S11326606F937F938F939F93AF93BF93EF93FF9356
S1132670CF93DF931F92CDB7DEB7E091650DF09154
S1132680660D80859185009719F06EB50E9421042E
S1132690E091650DF091660DBE016F5F7F4F8681FD
S11326A097810E940904811103C089818EBD29C0CC
S11326B08CB58F778CBD1092670DE091650DF0910C
S11326C0660D8381813079F4A081B1812C9181E000
S11326D090E0028002C0880F991F0A94E2F7809567
S11326E082238C930EC0A081B1814C9121E030E013
S11326F0C901028002C0880F991F0A94E2F7842B53
S11327008C938091650D9091660DDC011A96ED9184
S1132710FC911B97309711F0698119950F90DF9107
S1132720CF91FF91EF91BF91AF919F918F917F9145
S11327306F915F914F913F912F910F900BBE0F902E
S11327400FBE0F901F901895A1E21A2EAA1BBB1B57
S1132750FD010DC0AA1FBB1FEE1FFF1FA217B30769
S1132760E407F50720F0A21BB30BE40BF50B661F7F
S1132770771F881F991F1A9469F760957095809543
S113278090959B01AC01BD01CF010895052E97FBE7
S113279016F400940FD057FD05D0D6DF07FC02D005
S11327A046F408C050954095309521953F4F4F4FC2
S11327B05F4F089590958095709561957F4F8F4FE9
S11327C09F4F0895EE0FFF1F0590F491E02D19948B
S11327D0A29FB001B39FC001A39F700D811D11245E
S11327E0911DB29F700D811D1124911D0895CF93E9
S11327F0DF938230910510F482E090E0E0916A0D5D
S1132800F0916B0D20E030E0A0E0B0E0309739F1BA
S11328104081518148175907B8F04817590771F496
S113282082819381109729F013969C938E9312972B
S11328302CC090936B0D80936A0D27C02115310530
S113284031F04217530718F0A901DB0101C0EF0171
S11328509A01BD01DF010280F381E02DD7CF21155C
S11328603105F9F0281B390B2430310580F48A81B5
S11328709B816115710521F0FB019383828304C060
S113288090936B0D80936A0DFE01329644C0FE0155
S1132890E20FF31F819391932250310939832883E6
S11328A03AC02091680D3091690D232B41F4209199
S11328B00202309103023093690D2093680D209138
S11328C00002309101022115310541F42DB73EB7C4
S11328D04091040250910502241B350BE091680DD0
S11328E0F091690DE217F307A0F42E1B3F0B281794
S11328F0390778F0AC014E5F5F4F2417350748F075
S11329004E0F5F1F5093690D4093680D819391930F
S113291002C0E0E0F0E0CF01DF91CF910895CF93C2
S1132920DF93009709F487C0FC0132971382128267
S1132930C0916A0DD0916B0D209781F42081318173
S1132940280F391F8091680D9091690D82179307A4
S113295079F5F093690DE093680D6DC0DE0120E018
S113296030E0AE17BF0750F412964D915C91139767
S11329709D014115510509F1DA01F3CFB383A28317
S113298040815181840F951F8A179B0771F48D91A3
S11329909C911197840F951F0296918380831296C0
S11329A08D919C911397938382832115310529F48A
S11329B0F0936B0DE0936A0D3EC0D9011396FC931E
S11329C0EE9312974D915D91A40FB51FEA17FB0783
S11329D079F480819181840F951F0296D901119613
S11329E09C938E938281938113969C938E931297DA
S11329F0E0E0F0E08A819B81009719F0FE01EC0190
S1132A00F9CFCE01029628813981820F931F20913C
S1132A10680D3091690D2817390769F4309729F446
S1132A2010926B0D10926A0D02C013821282D09321
S1132A30690DC093680DDF91CF910895FB01DC010E
S1132A4002C001900D9241505040D8F708950F9361
S1132A501F93CF93DF93CDB7DEB72E970FB6F894BD
S1132A60DEBF0FBECDBF0E891F8986E08C831A831B
S1132A7009838FEF9FE79E838D83AE01465E5F4F90
S1132A80688D798DCE01019610D0EF81F885E00F25
S1132A90F11F10822E960FB6F894DEBF0FBECDBF85
S1132AA0DF91CF911F910F9108952F923F924F92F2
S1132AB05F926F927F928F929F92AF92BF92CF92CA
S1132AC0DF92EF92FF920F931F93CF93DF93CDB7D3
S1132AD0DEB72C970FB6F894DEBF0FBECDBF7C01D6
S1132AE06B018A01FC0117821682838181FFB0C1C8
S1132AF0CE0101964C01F7019381F60193FD859176
S1132B0093FF81916F01882309F49EC1853239F4C2
S1132B1093FD859193FF81916F01853221F4B70173
S1132B2090E0C7D1E8CF512C312C20E02032A0F422
S1132B308B3269F030F4803259F0833269F42061C9
S1132B402CC08D3239F0803339F4216026C02260E4
S1132B50246023C0286021C027FD27C030ED380F32
S1132B603A3078F426FF06C0FAE05F9E300D112457
S1132B70532E13C08AE0389E300D1124332E206268
S1132B800CC08E3221F426FD5FC1206406C08C3651
S1132B9011F4206802C0883641F4F60193FD859152
S1132BA093FF81916F018111C1CF982F9F7D95541F
S1132BB0933028F40C5F1F4FFFE3F9830DC0833675
S1132BC031F0833771F0833509F057C021C0F80123
S1132BD0808189830E5F1F4F44244394512C5401F8
S1132BE014C03801F2E06F0E711CF801A080B180AE
S1132BF026FF03C0652D70E002C06FEF7FEFC501B3
S1132C002C874CD12C0183012C852F77222E16C0C2
S1132C103801F2E06F0E711CF801A080B18026FF2C
S1132C2003C0652D70E002C06FEF7FEFC5012C87F4
S1132C302AD12C012C852068222E830123FC19C063
S1132C40832D90E048165906A0F4B70180E290E085
S1132C5030D13A94F5CFF50127FC859127FE819177
S1132C605F01B70190E025D131103A94F1E04F1A99
S1132C7051084114510479F7DEC0843611F08936C5
S1132C8031F5F80127FF07C060817181828193814A
S1132C900C5F1F4F08C060817181882777FD809584
S1132CA0982F0E5F1F4F2F76B22E97FF09C0909575
S1132CB08095709561957F4F8F4F9F4F2068B22EFE
S1132CC02AE030E0A40127D1A82EA81843C08537F4
S1132CD029F42F7EB22E2AE030E025C0F22FF97FAE
S1132CE0BF2E8F36C1F018F4883579F0ADC0803727
S1132CF019F0883721F0A8C02F2F2061B22EB4FE1E
S1132D000DC08B2D8460B82E09C024FF0AC09F2FEC
S1132D109660B92E06C028E030E005C020E130E01E
S1132D2002C020E132E0F801B7FE07C06081718182
S1132D30828193810C5F1F4F06C06081718180E0A6
S1132D4090E00E5F1F4FA401E6D0A82EA818FB2D1B
S1132D50FF77BF2EB6FE0BC02B2D2E7FA51450F48B
S1132D60B4FE0AC0B2FC08C02B2D2E7E05C07A2CFE
S1132D702B2D03C07A2C01C0752C24FF0DC0FE013D
S1132D80EA0DF11D8081803311F4297E09C022FFF0
S1132D9006C07394739404C0822F867809F07394E8
S1132DA023FD12C020FF06C05A2C731418F4530CD0
S1132DB05718732C731460F4B70180E290E02C87E9
S1132DC078D073942C85F6CF731410F4371801C09F
S1132DD0312C24FF11C0B70180E390E02C8769D027
S1132DE02C8522FF16C021FF03C088E590E002C0B5
S1132DF088E790E0B7010CC0822F867851F021FD5E
S1132E0002C080E201C08BE227FD8DE2B70190E0B1
S1132E1050D0A51430F4B70180E390E04AD05A941E
S1132E20F8CFAA94F401EA0DF11D8081B70190E076
S1132E3040D0A110F6CF332009F45DCEB70180E273
S1132E4090E037D03A94F7CFF7018681978102C09A
S1132E508FEF9FEF2C960FB6F894DEBF0FBECDBF59
S1132E60DF91CF911F910F91FF90EF90DF90CF9062
S1132E70BF90AF909F908F907F906F905F904F9096
S1132E803F902F900895FC0105906150704001100F
S1132E90D8F7809590958E0F9F1F0895FC0161507F
S1132EA0704001900110D8F7809590958E0F9F1F68
S1132EB008950F931F93CF93DF93182F092FEB01DE
S1132EC08B8181FD03C08FEF9FEF20C082FF10C074
S1132ED04E815F812C813D81421753077CF4E88148
S1132EE0F9819F012F5F3F4F39832883108306C0E8
S1132EF0E885F985812F1995892B29F72E813F8142
S1132F002F5F3F4F3F832E83812F902FDF91CF91EF
S1132F101F910F910895FA01AA27283051F1203109
S1132F2081F1E8946F936E7F6E5F7F4F8F4F9F4F59
S1132F30AF4FB1E03ED0B4E03CD0670F781F891F9B
S1132F409A1FA11D680F791F8A1F911DA11D6A0F69
S1132F50711D811D911DA11D20D009F468943F911C
S1132F602AE0269F11243019305D3193DEF6CF011B
S1132F700895462F4770405D4193B3E00FD0C9F7E1
S1132F80F6CF462F4F70405D4A3318F0495D31FD4E
S1132F904052419302D0A9F7EACFB4E0A6959795A1
S1132FA0879577956795BA95C9F700976105710577
S1132FB008959B01AC010A2E0694579547953795C1
S1132FC02795BA95C9F7620F731F841F951FA01D1B
S1092FD00895F894FFCF00
S1132FD600006C0D20000A0000004F0205010101EB
S1132FE600005502035902050A02FE00005F0205AD
S1132FF66502050A03FE00006B020B6502050A045E
S1133006FE00007702047C02090A05FE00000000A7
S1133016004F02050AFFFF0000FFFFC600CE004472
S1133026554D4D590024242400434D440D0A0053A4
S1133036412C310D00414F4B0D0A00532D2C56499E
S1133046422D4361720D00522C310D005265626FA0
S11330566F74210D0A0049444C450025346420252B
S11330663464202534642025346420253464004ADD
S1133076757374415461736B005374617274757023
S10F30865461736B00000102030001029E
S9030000FC
