:10000000C5C00000DFC30000E2C00000E0C0000087
:10001000DEC00000DCC00000DAC00000D8C0000074
:10002000D6C00000D4C00000D2C00000D0C0000084
:10003000CEC00000FCC30000CAC00000C8C0000061
:10004000C6C00000C4C00000C2C00000C0C00000A4
:10005000BEC000000C94A908BAC00000B8C00000DF
:100060000C9496130C9432110C947411B0C00000CF
:10007000AEC00000ACC00000AAC00000A8C00000D4
:10008000A6C00000A4C00000A2C00000A0C00000E4
:100090000C94C0110C9402129AC0000098C0000089
:1000A00096C0000094C0000092C0000090C0000004
:1000B0008EC000008CC000008AC0000088C0000014
:1000C00086C0000084C0000082C000006B0F730F68
:1000D0007B0F830F8B0F8F0FCE0FF80FF80FF80FDA
:1000E000F80FF80FF80FF80FF80FF80FF80FF80FD8
:1000F000F80FF80FF80FF80FF80FF80FF80FF80FC8
:10010000F80FF80FF80FF80FF80FF80F670F6F0FD1
:10011000770F7F0F870FCC0F0F2EF7EBEF2EFDE041
:10012000FF2EF02DCFE8DDE027C00E945E0C188185
:100130000E941F0D112301F10FB6F8940F92E09168
:10014000940DF091950D06811781C80102964ED647
:1001500080918D0D815080938D0D80918E0D8150F9
:1001600080938E0D0F900FBEF8018789908D0E94AD
:10017000DE08C8010E94DE0880918E0D8111D5CF66
:10018000F70180818230C0F30FD7F6CF11241FBE54
:10019000CFEFD1E2DEBFCDBF00E00CBF12E0A0E0A8
:1001A000B2E0E6E0F1E300E00BBF02C007900D9281
:1001B000AC3DB107D9F72DE0ACEDB2E001C01D9226
:1001C000AE3EB207E1F70E9457100C94811818CF89
:1001D00010923C03E0913A03F0913B03309709F011
:1001E00019950895CF93DF931F921F92CDB7DEB775
:1001F0006A8380913C03882319F0862FA0D413C012
:100200008091380390913903009769F0198220E0BA
:10021000AE014F5F5F4FBE016E5F7F4F0E94F009DE
:1002200089818111C1D60F900F90DF91CF910895F0
:10023000DF92EF92FF920F931F93CF93DF93CDB78F
:10024000DEB7D62EEDB6FEB6262F30E02F5F3F4F3D
:100250004DB75EB7421B530B0FB6F8945EBF0FBE8F
:100260004DBF0DB71EB70F5F1F4F98018068EDB7E8
:10027000FEB78183662341F081E0F901E80FF11DAB
:1002800010828F5FD816C8F784E793E03DD341E032
:100290004D0DB8018091A1039091A2030E94151306
:1002A0000FB6F894FEBE0FBEEDBEDF91CF911F9149
:1002B0000F91FF90EF90DF900895462FBC01809141
:1002C0009F039091A0030C94F31008951F93CF9374
:1002D000DF9300D01F92CDB7DEB78091DF0282306E
:1002E000C1F128F4882351F08130C9F0F1C0833086
:1002F00009F43FC0853009F494C0EAC081E08093DE
:10030000DF028CE18B831C8242E0BE016D5F7F4F78
:100310008091A1039091A2030E941513D9C084E794
:1003200093E0EFD2823009F0D3C08093DF0284E7FC
:1003300093E0EAD28BE18B8388E08C8342E0BE01BC
:100340006D5F7F4F8091A1039091A2030E941513CE
:10035000BFC084E793E0D5D2823009F0B9C083E012
:100360008093DF0284E793E0CFD266E08BE360DF27
:10037000AFC084E793E0C5D2873009F0A9C01FB7AA
:10038000F894BE016F5F7F4F84E793E08AD2BE018D
:100390006E5F7F4F84E793E084D2BE016F5F7F4F33
:1003A00084E793E07ED28A8190E0982F8827298184
:1003B000822B9093480380934703BE016E5F7F4F6B
:1003C00084E793E06ED2BE016F5F7F4F84E793E0D6
:1003D00068D28A8190E0982F88272981822B909378
:1003E000460380934503BE016E5F7F4F84E793E031
:1003F00058D2BE016F5F7F4F84E793E052D21FBF98
:100400008A8190E0982F88272981822B909344033A
:100410008093430385E08093DF0266E083E408DF96
:1004200057C084E793E06DD2873009F051C01FB701
:10043000F894BE016F5F7F4F84E793E032D2BE0134
:100440006E5F7F4F84E793E02CD2BE016F5F7F4FDA
:1004500084E793E026D28A8190E0982F882729812B
:10046000822B9093420380934103BE016E5F7F4FC6
:1004700084E793E016D2BE016F5F7F4F84E793E07D
:1004800010D28A8190E0982F88272981822B90931F
:10049000400380933F03BE016E5F7F4F84E793E08C
:1004A00000D2BE016F5F7F4F84E793E0FAD11FBF98
:1004B0008A8190E0982F88272981822B90933E0390
:1004C00080933D0383E08093DF0266E08BE3B0DE40
:1004D0000F900F900F900F90DF91CF911F91089583
:1004E000882311F0439A089543980895882311F0C2
:1004F000429A089542980895882311F0419A0895E8
:1005000041980895853608F084E68823A9F0282FBD
:1005100030E0AFE7BCE00E946C1424E630E040E03D
:1005200050E00E944A143093990020939800309331
:100530009B0020939A0008951092990010929800C1
:1005400010929B0010929A0008958F929F92AF9202
:10055000BF92CF92DF92EF920F931F933B9A3A9AFA
:10056000399A389AE0E9F0E0808182608083A1E9DD
:10057000B0E08C9188618C938FE79CE09093990018
:10058000809398002081206C20836B9A90939B002D
:1005900080939A002081206320836C9A9093970027
:1005A000809396008C9181608C9380E0ABDFE1E8D2
:1005B000F0E08081866080836A986D9A7598089AC9
:1005C0001098099A11980A9A1298E9E6F0E0808149
:1005D00082608083E89A8BE093E05ED180EE92E0C7
:1005E0005BD10F2EF2EF8F2EF0E09F2EF02D0F2E0D
:1005F000F0EEAF2EF2E0BF2EF02D0F2EFBE0CF2E4F
:10060000F3E0DF2EF02DE12C00E023E040E855E29E
:1006100060E070E080E00E947C109093A0038093E3
:100620009F0384E793E038D189E493E035D186E6EF
:1006300091E09F938F930F2EF9E48F2EF3E09F2E7E
:10064000F02D0F2EF4E7AF2EF3E0BF2EF02DC12CCE
:1006500005E210E020E043E063E080E10E948812C0
:100660009093A2038093A10360E080E090E02EDEEF
:100670008BE98093B300E1EBF0E0808182608083BE
:10068000A0E7B0E08C9182608C938081856080834C
:100690000F900F901F910F91EF90DF90CF90BF9030
:1006A000AF909F908F900895853608F084E6882358
:1006B000A9F0282F30E0AFE7BCE00E946C1424E6DC
:1006C00030E040E050E00E944A14309399002093BB
:1006D000980010929B0010929A0008951092990031
:1006E0001092980010929B0010929A0008952FB7D4
:1006F000F89480914703909148032FBF08952FB736
:10070000F89480914503909146032FBF08952FB729
:10071000F89480914303909144032FBF08952FB71D
:10072000F89480914103909142032FBF08952FB711
:10073000F89480913F03909140032FBF089520913A
:100740008400309185008091DD029091DE022817AF
:10075000390730F4A901481B590BCA01019704C09D
:10076000A901481B590BCA013093DE022093DD0218
:100770000895882311F010980895109A0895462F2F
:10078000BC0180919F039091A0030C94F3100895F5
:10079000709339036093380390933B0380933A033B
:1007A00081E080933C0348EE50E06DE571E087E026
:1007B00092E09DC10895009721F0909337038093B4
:1007C000360308951F920F920FB60F9211240BB6A5
:1007D0000F922F933F934F935F936F937F938F93DA
:1007E0009F93AF93BF93EF93FF93809136039091C4
:1007F0003703009749F01092DC026CED72E022D6CC
:100800008091DC028111D0D3FF91EF91BF91AF9124
:100810009F918F917F916F915F914F913F912F9118
:100820000F900BBE0F900FBE0F901F9018951F9248
:100830000F920FB60F9211240BB60F922F933F9386
:100840004F935F936F937F938F939F93AF93BF93D8
:10085000EF93FF9380913C03882359F08091060227
:10086000815019F08093060204C08AE0809306024A
:100870004FD1FF91EF91BF91AF919F918F917F9158
:100880006F915F914F913F912F910F900BBE0F9001
:100890000FBE0F901F901895FC0110A611A612A66E
:1008A0000895FC0182A58823A1F081A5DF01A80F8E
:1008B000B11D8C91DB018C9381A590E0019668E2DB
:1008C00070E00E94151481A782A5815082A780E064
:1008D000089581E00895FC0122A5283280F480A5C6
:1008E00090E0DF01A80FB91F6C93019668E270E0F9
:1008F0000E94151480A72F5F22A780E0089582E050
:100900000895FC0182A50895FC0110A611A612A667
:100910000895E091B003F091B1038081853209F030
:1009200085C0CF0101969093B1038093B00381817C
:10093000853219F41092A70308958A32E1F5CF01A8
:1009400002969093B1038093B003339620E0DC01CC
:100950000196220F322F330F330F230F20533C9178
:10096000230F3191323499F72093B2031296B0934A
:10097000B103A093B0038091B4039091B5030097A5
:10098000B1F0E3EBF3E020812F5F2083332727FDD5
:100990003095F901EE0FFF1FE20FF31FE80FF91F6B
:1009A0001282808191819093B7038093B60382E095
:1009B0008093A70308958091B0039091B103DC0167
:1009C000119620E0FC010196220F322F330F330FD6
:1009D000230F20533081230F3D91323499F7209318
:1009E000B2033296F093B103E093B0038091B40365
:1009F0009091B5030097B1F0A3EBB3E0EC91EF5FFA
:100A0000EC93FF27E7FDF0959F01220F331FE20FC4
:100A1000F31FE80FF91F1282808191819093B70331
:100A20008093B60381E08093A70308951092A703F3
:100A30000895CF93DF931092AB038093AA0392E0C3
:100A4000980F923030F4E091A303F091A40319952C
:100A50004BC09BE0899FE0011124A091A803B091B5
:100A6000A903AC0FBD1F12966C911297662339F043
:100A7000E091A503F091A6038D919C911995809129
:100A8000A8039091A903C80FD91F2D81222351F1EA
:100A90008B819C819093AD038093AC039093B103C1
:100AA0008093B003E985FA85F093B503E093B4032E
:100AB0003FEF3093B303309731F040815181509331
:100AC000B7034093B60330E021503109820F931FE2
:100AD0009093AF038093AE031CDF8E818F5F809372
:100AE000AB0302C08F81A5DFDF91CF910895909372
:100AF000A9038093A8037093A6036093A503509362
:100B0000A4034093A3031092AA0380E092CF089518
:100B10008091AB03882391F081508093AB038111C6
:100B20000DC08091AA03E091A803F091A9039BE076
:100B3000899FE00DF11D112480857BCF08956F9270
:100B40007F928F929F92AF92BF92CF92DF92EF925D
:100B5000FF920F931F93CF93DF93982E8091A7035B
:100B6000813009F442C020F0823009F470C0AFC077
:100B7000812CC0EBD3E00F2EFCEACF2EF3E0DF2E6A
:100B8000F02D0F2EF3EBEF2EF3E0FF2EF02D04EB04
:100B900013E077247394612C0F2EF6EBAF2EF3E065
:100BA000BF2EF02DE881F9819F012F5F3F4F3983E0
:100BB000288380818915A9F0D6018D919C91998314
:100BC0008883F7011082D801ED91FC91309729F0CC
:100BD00080819181F50191838083872D8110862DFD
:100BE000882E97DE8110DECF72C02091B403309141
:100BF000B5032115310511F1A6EBB3E0ED91FC91A0
:100C00001197CF0101968D939C939082E091B3034D
:100C1000FF27E7FDF095CF01880F991FE80FF91F17
:100C2000E20FF31F82818F5F8283E2EBF3E080812A
:100C30008150808381114BC06CDE49C0E2EBF3E050
:100C4000808181508083811142C063DE40C0E09189
:100C5000B003F091B1038081891551F18091B40303
:100C60009091B503009709F44EC0A6EBB3E0ED9167
:100C7000FC9111979F012F5F3F4F2D933C939082E2
:100C80002091B303332727FD3095F901EE0FFF1FA5
:100C9000E20FF31FE80FF91F82818F5F8283E2EB7F
:100CA000F3E0808181508083811111C032DE0FC05A
:100CB000A2EBB3E08C9181508C93811102C029DEAC
:100CC00006C03196F093B103E093B00322DE809129
:100CD000A703811118C02091B0033091B103809116
:100CE000AE039091AF038217930768F48091AA0333
:100CF000E091A803F091A9039BE0899FE00DF11D0D
:100D00001124878196DEDF91CF911F910F91FF9083
:100D1000EF90DF90CF90BF90AF909F908F907F909B
:100D20006F900895FC010396928381832FEF3FEF2C
:100D300034832383968385839087878310820895E5
:100D4000FC01118610860895CF93DF939C01FB016F
:100D5000DC011196CD91DC911297D383C2838C81F3
:100D60009D81958384838C819D81DC0113967C9386
:100D70006E9312977D836C8331872087F901808180
:100D80008F5F8083DF91CF910895CF93DF93EB0145
:100D9000488159814F3F2FEF520721F4FC01A78171
:100DA000B0850DC0DC0113961296ED91FC9113975E
:100DB000208131814217530710F0DF01F5CF1296E1
:100DC000ED91FC911397FB83EA83D583C483BD83A4
:100DD000AC831396DC93CE93129799878887FC0196
:100DE00020812F5F2083DF91CF910895CF93DF93F0
:100DF000FC01A085B185C281D381848195819D83C9
:100E00008C83C481D581828193819B838A8311964F
:100E1000CD91DC911297CE17DF0731F48C819D8143
:100E200012969C938E931197118610868C91815007
:100E30008C93DF91CF91089531E1FC01308331979C
:100E400022E220833197A3E3A08331976083319717
:100E500070833197108231971082319760E86083F8
:100E6000319710823197108231971082319762E06A
:100E70006083319763E06083319764E060833197EA
:100E800065E06083319766E06083319767E0608357
:100E9000319768E06083319769E06083319760E162
:100EA000608331973083319732E13083319733E17A
:100EB0003083319734E13083319735E13083319796
:100EC00036E13083319737E13083319738E1308331
:100ED000319739E13083319730E23083319731E215
:100EE000308331972083319723E2208331974083E9
:100EF00031975083319726E22083319727E2208370
:100F0000319728E22083319729E22083319720E32B
:100F10002083319721E320838997089588EE93E019
:100F20009093BB038093BA039093B9038093B80363
:100F300089EF87BD82E084BD83E085BDEEE6F0E009
:100F4000808182608083A091DB0DB091DC0DCD911A
:100F5000CDBFDD91DEBFFF91EF91DF91CF91BF91CA
:100F6000AF919F918F917F916F915F914F913F9141
:100F70002F911F910F91FF90EF90DF90CF90BF9036
:100F8000AF909F908F907F906F905F904F903F9029
:100F90002F901F900F900CBE0F900BBE0F900FBEA6
:100FA0000F90089581E008950F920FB6F8940F9274
:100FB0000BB60F920CB60F921F9211242F923F92F4
:100FC0004F925F926F927F928F929F92AF92BF9259
:100FD000CF92DF92EF92FF920F931F932F933F9345
:100FE0004F935F936F937F938F939F93AF93BF9331
:100FF000CF93DF93EF93FF93A091DB0DB091DC0DC6
:101000000DB60D920EB60D92B3D5A091DB0DB09139
:10101000DC0DCD91CDBFDD91DEBFFF91EF91DF9172
:10102000CF91BF91AF919F918F917F916F915F9180
:101030004F913F912F911F910F91FF90EF90DF9073
:10104000CF90BF90AF909F908F907F906F905F9068
:101050004F903F902F901F900F900CBE0F900BBEA3
:101060000F900FBE0F9008950F920FB6F8940F9245
:101070000BB60F920CB60F921F9211242F923F9233
:101080004F925F926F927F928F929F92AF92BF9298
:10109000CF92DF92EF92FF920F931F932F933F9384
:1010A0004F935F936F937F938F939F93AF93BF9370
:1010B000CF93DF93EF93FF93A091DB0DB091DC0D05
:1010C0000DB60D920EB60D928091B8039091B903B2
:1010D00001979093B9038093B803892B41F48091D1
:1010E000BA039091BB039093B9038093B803ECD3F8
:1010F00081113ED5A091DB0DB091DC0DCD91CDBF1E
:10110000DD91DEBFFF91EF91DF91CF91BF91AF9164
:101110009F918F917F916F915F914F913F912F910F
:101120001F910F91FF90EF90DF90CF90BF90AF9005
:101130009F908F907F906F905F904F903F902F90F7
:101140001F900F900CBE0F900BBE0F900FBE0F9014
:1011500008958ADF1895CF93DF93EC01AFD3809188
:10116000BC039091BD03892B31F481EC93E0909303
:10117000BD038093BC034091BE035091BF039E0109
:10118000240F351F233C89E0380770F442175307BA
:1011900070F4C091BC03D091BD03C40FD51F309330
:1011A000BF032093BE0305C0C0E0D0E002C0C0E092
:1011B000D0E045D4CE01DF91CF91089508951F93DB
:1011C000CF93DF93EC01142F8C8D8823E9F141112B
:1011D00017C0482F50E08C819D810E94B6152C8D40
:1011E0008C819D81820F911D9D838C832A813B81FF
:1011F0008217930748F1888199819D838C8324C04D
:10120000482F50E08E819F810E94B6152C8D30E0D2
:101210003195219531098E819F81820F931F9F8384
:101220008E83688179818617970730F48A819B8144
:10123000280F391F3F832E83123031F48A8D882383
:1012400019F08A8D81508A8F8A8D8F5F8A8F80E016
:10125000DF91CF911F910895FC01CB01448D442370
:10126000A1F050E026813781240F351F3783268374
:10127000628173812617370720F0208131813783FF
:101280002683668177810C94B61508950F931F937A
:10129000CF93DF93EC010FB6F8940F928E8D181652
:1012A000A4F48989882389F08E010F5E1F4F03C043
:1012B0008989882351F0C801EDD481116CD58E8DB8
:1012C00081508E8F8E8D18169CF38FEF8E8F0F901E
:1012D0000FBE0FB6F8940F928D8D1816A4F4888562
:1012E000882389F08E01085F1F4F03C088858823FB
:1012F00051F0C801CFD481114ED58D8D81508D8F85
:101300008D8D18169CF38FEF8D8F0F900FBEDF9190
:10131000CF911F910F910895CF93DF93EC010FB6FA
:10132000F8940F92888199812C8D30E07B8D729F8B
:10133000A001739F500D1124FC01E40FF51FFB83E6
:10134000EA831A8E9D838C83421B530B840F951F57
:101350009F838E838FEF8D8F8E8F61110AC088855A
:10136000882369F0CE01089695D4813041F41CDEC3
:1013700006C0CE010896D6DCCE014196D3DC0F9094
:101380000FBE81E0DF91CF9108950F931F93CF930C
:10139000DF93082F162F6623B9F0869FC001112412
:1013A0008096D9DEEC01009721F414C0D983C8835C
:1013B00005C09C01215E3F4F398328830B8F1C8F12
:1013C00061E0CE01A9DF06C08FE190E0C4DEEC0150
:1013D000009761F7CE01DF91CF911F910F91089592
:1013E0000F931F93CF93DF93EC018A019A8D8B8D1E
:1013F000981710F02230D1F4422FCE01E0DE8E8D0E
:101400008F3F79F48989882399F0CE01419642D49F
:10141000882381F00115110579F081E0F8018083BE
:101420000CC08E8D8F5F8E8F81E007C080E005C07D
:1014300081E003C081E001C081E0DF91CF911F9185
:101440000F910895CF93DF93FC01EB01928D838D73
:101450009817C0F4828D8F5F828F868D8F3F69F4DD
:101460008189882389F0CF01419614D4882371F0B3
:10147000209771F081E088830CC0868D8F5F868F06
:1014800081E007C080E005C081E003C081E001C0C9
:1014900081E0DF91CF9108959F92AF92BF92CF925A
:1014A000DF92EF92FF920F931F93CF93DF9300D0C1
:1014B0001F921F92CDB7DEB78C016B015D834C8309
:1014C000B22EA12C992493947C0181E1E80EF11CA9
:1014D0000FB6F8940F92F801828D882321F1E680EF
:1014E000F780B601C801B8DEB1100EC0F801828DD8
:1014F0008150828F8085882391F0C8010896CAD3D5
:10150000813069F451DD0BC0F801F782E6828189F0
:10151000882329F0C8014196BDD3811145DD0F9084
:101520000FBE81E044C04C815D81452B21F40F90BA
:101530000FBE80E03CC0A11004C0CE010196EED3E6
:10154000A92C0F900FBEBAD10FB6F8940F92F801E4
:10155000858D8F3F09F4158EF801868D8F3F09F434
:10156000168E0F900FBEBE016C5F7F4FCE010196AD
:10157000E0D3811118C00FB6F8940F92F801828D54
:101580000F900FBE81110BC06C817D81C70168D3A4
:10159000C8017CDE54D281119BCF06DD99CFC801F2
:1015A00075DE4DD295CFC80171DE49D280E00F9033
:1015B0000F900F900F900F90DF91CF911F910F918F
:1015C000FF90EF90DF90CF90BF90AF909F900895E5
:1015D000E091A30DF091A40D8081811107C08FEFE0
:1015E0009FEF90934A02809349020895E091A30DE2
:1015F000F091A40D0580F681E02D0680F781E02DA5
:101600008281938190934A02809349020895CF93F7
:10161000DF93EC01E091DB0DF091DC0D938382838D
:1016200080918B0D90918C0DC817D90760F4609153
:10163000DB0D7091DC0D8091A10D9091A20D6E5F7C
:101640007F4FA3DB16C06091DB0D7091DC0D8091A4
:10165000A30D9091A40D6E5F7F4F97DB809149029F
:1016600090914A02C817D90720F4D0934A02C09338
:101670004902DF91CF9108954F925F926F927F92CE
:101680008F929F92AF92BF92CF92DF92EF92FF9292
:101690000F931F93CF93DF934C015B012A01390114
:1016A000C114D10431F4CA0156DD6C01009709F46C
:1016B000CAC086E290E04FDDEC01009771F0D88E51
:1016C000CF8A81E0481A5108C40CD51CD5018C91F1
:1016D000898F8C91811104C014C0C6016FDDB3C025
:1016E000AE01465E5F4FF501319627E0CF013191A3
:1016F000DA013D93AD01DC018C91882311F021507A
:10170000A9F718A2102F043008F013E01E8B5E0119
:10171000B2E0AB0EB11CC50113DBCE010C9610DBA1
:10172000D987C88784E090E0811B91099D878C87C9
:10173000DB8BCA8B19A21AA21BA21CA21DA2A30199
:10174000B401C60179DB99838883E114F10419F0AF
:10175000F701D183C0830FB6F8940F9280918D0D5D
:101760008F5F80938D0D8091DB0D9091DC0D892B27
:1017700069F5D093DC0DC093DB0D80918D0D813028
:10178000A1F587EB9DE0CEDA80EC9DE0CBDA89EC29
:101790009DE0C8DA82ED9DE0C5DA8EEA9DE0C2DA0E
:1017A00085EA9DE0BFDA88E99DE0BCDA8FE89DE03C
:1017B000B9DA8EEA9DE09093A40D8093A30D85EA9B
:1017C0009DE09093A20D8093A10D0FC08091890D93
:1017D00081110BC0E091DB0DF091DC0D86890817BB
:1017E00020F0D093DC0DC093DB0D8091850D8F5FD1
:1017F0008093850D8E8990918A0D981710F48093AF
:101800008A0D90E09C01220F331F220F331F220FFD
:10181000331F820F931FB5018954924F95DA0F90B1
:101820000FBE8091890D882351F0E091DB0DF0917E
:10183000DC0D8689801728F4B7DB81E005C081E0E4
:1018400003C081E001C08FEFDF91CF911F910F9115
:10185000FF90EF90DF90CF90BF90AF909F908F90D0
:101860007F906F905F904F900895AF92BF92CF920C
:10187000DF92EF92FF920F93A12CB12CC12CD12CAF
:10188000E12CF12C00E020E030E049EB50E066E88C
:1018900072E08CE890E0F0DE813041F4F8948093BF
:1018A000890D10928C0D10928B0D38DB0F91FF90EB
:1018B000EF90DF90CF90BF90AF9008958091840D0E
:1018C0008F5F8093840D0895CF92DF92EF92FF9205
:1018D0000F931F93CF93DF938091840D811196C056
:1018E00080918B0D90918C0D019690938C0D80932F
:1018F0008B0DE0908B0DF0908C0DE114F104B1F4A0
:101900008091A30D9091A40D2091A10D3091A20D75
:101910003093A40D2093A30D9093A20D8093A10D5D
:101920008091860D8F5F8093860D52DE80914902F3
:1019300090914A02E816F90608F451C0D12CCC2443
:10194000C39401C0DC2CE091A30DF091A40D808123
:10195000811107C08FEF9FEF90934A028093490255
:101960003FC0E091A30DF091A40D0580F681E02D1C
:10197000C681D7812A813B81E216F30628F4309391
:101980004A02209349022CC08E010E5F1F4FC801EE
:101990002DDA8C899D89892B19F0CE010C9626DAD7
:1019A0002E8980918A0D821710F420938A0D30E0E1
:1019B000C901880F991F880F991F880F991F820FDF
:1019C000931FB8018954924FBFD9E091DB0DF0917C
:1019D000DC0D9E898689981708F0B4CFB4CFD12C3E
:1019E000E091DB0DF091DC0D868990E0FC01EE0FBB
:1019F000FF1FEE0FFF1FEE0FFF1F8E0F9F1FFC013B
:101A0000E954F24F8081823040F409C08091880D02
:101A10008F5F8093880DD12C02C0DD24D3948091F8
:101A2000870D882311F0DD24D3948D2DDF91CF9184
:101A30001F910F91FF90EF90DF90CF900895DF926C
:101A4000EF92FF920F931F93CF93DF930FB6F8940B
:101A50000F928091840D81508093840D8091840D2C
:101A600081115CC080918D0D882309F459C00F2E1F
:101A7000F8E9EF2EFDE0FF2EF02DDD24D3942DC0EC
:101A8000E0919D0DF0919E0DC681D781CE010C96FF
:101A9000ADD98E010E5F1F4FC801A8D98E899091D4
:101AA0008A0D981710F480938A0D90E09C01220F04
:101AB000331F220F331F220F331F820F931FB801D2
:101AC0008954924F41D9E091DB0DF091DC0D9E8954
:101AD0008689981710F0D092870DF70180818111C7
:101AE000CFCF8091880D882391F08091880D882335
:101AF00071F0C1E0E9DE8111C093870D8091880DFE
:101B000081508093880D8091880D8111F3CF809151
:101B1000870D813039F448DA81E005C080E003C0E8
:101B200080E001C080E00F900FBEDF91CF911F9148
:101B30000F91FF90EF90DF900895CF93DF93EC012A
:101B4000009791F0BBDE80918B0D90918C0DC80FAA
:101B5000D91F8091DB0D9091DC0D029647D9CE0103
:101B600056DD6DDF811101C01FDADF91CF9108953D
:101B70008091840D882321F081E08093870D089562
:101B80001092870DA091DB0DB091DC0DE091DB0D83
:101B9000F091DC0D2D913C918789908D82179307F0
:101BA00058F06091DB0D7091DC0D8091DB0D909110
:101BB000DC0D675E7F4F9FD280918A0D90E0FC0123
:101BC000EE0FFF1FEE0FFF1FEE0FFF1F8E0F9F1F69
:101BD000FC01E954F24F8081811117C080918A0D78
:101BE000815080938A0D80918A0D90E0FC01EE0F68
:101BF000FF1FEE0FFF1FEE0FFF1F8E0F9F1FFC0139
:101C0000E954F24F8081882349F3E0918A0DF0E096
:101C1000CF01880F991F880F991F880F991FE80F10
:101C2000F91FE954F24FA181B28112960D90BC9137
:101C3000A02DB283A183CF010396A817B90731F471
:101C400012968D919C911397928381830180F281EA
:101C5000E02D868197819093DC0D8093DB0D0895B4
:101C6000CF93DF93EB016091DB0D7091DC0D645F2E
:101C70007F4F8BD88091DB0D9091DC0D0296B6D80A
:101C800080918B0D90918C0D8C0F9D1FC0DCDF918E
:101C9000CF9108950F931F93CF93DF93DC01159697
:101CA000ED91FC911697C681D7818E01045F1F4F7D
:101CB000C8019CD88091840D81111AC00A50110965
:101CC000C80194D88E8990918A0D981710F480934A
:101CD0008A0D90E09C01220F331F220F331F220F29
:101CE000331F820F931FB8018954924F2DD804C01F
:101CF000B80188E99DE028D8E091DB0DF091DC0D7A
:101D00009E898689891720F481E08093870D01C020
:101D100080E0DF91CF911F910F9108952091860D62
:101D2000FC01208320918B0D30918C0D3283218317
:101D300008950FB6F8940F9220918B0D30918C0D71
:101D40004091860DDC015C91541739F011964D914C
:101D50005C91129724173507C0F4DC011196ED91C0
:101D6000FC911297DB014D915C91D901AE1BBF0B29
:101D7000A417B50760F4E21BF30B4E0F5F1FFB01C6
:101D800051834083CBDF80E003C081E001C081E06C
:101D90000F900FBE089581E08093870D08958F3FC7
:101DA00019F481E08093DD0D089520E04FEF5FEF9F
:101DB00060E070E08091E00D9091E10D6DDBF5CF7A
:101DC0008F929F92AF92BF92CF92DF92EF92FF924B
:101DD0000F931F93CF93DF93CDB7DEB764970FB602
:101DE000F894DEBF0FBECDBF0F2EF4E6EF2EF12C20
:101DF000F02D0F2EFBE8CF2EF2E0DF2EF02D8E011E
:101E00000F5F1F4F0E947703B82EA92E0E947F03F9
:101E1000982E892E0E9487039F938F938F929F9273
:101E2000AF92BF92DF92CF921F930F93A8D6F80183
:101E300001900020E9F73197BF01601B710BC801C9
:101E40000E94BF0384E690E078DE81E0E81AF108A2
:101E50000FB6F894DEBF0FBECDBFE114F10491F6CA
:101E600064960FB6F894DEBF0FBECDBFDF91CF9161
:101E70001F910F91FF90EF90DF90CF90BF90AF90A8
:101E80009F908F9008958F929F92AF92BF92CF9222
:101E9000DF92EF92FF920F931F93CF93DF93CDB713
:101EA000DEB7A8970FB6F894DEBF0FBECDBF9091F6
:101EB000DD0D992309F49CC090E0FC01E154F10987
:101EC000E632F10508F094C0EA59FF4FFFC480E004
:101ED0000E9476028DC081E00E94760289C080E077
:101EE0000E947C0285C081E00E947C0281C080E06B
:101EF0000E9470027DC081E00E94700279C080E083
:101F00000E94820275C081E40E94820271C080E05A
:101F10000E9454036DC084E60E94540369C00E946D
:101F20007703182F092F0E947F03F82EE92E0E94B5
:101F30008703D82EC92E0E948F03B82EA92E0E9487
:101F40009703982E892E0E949F039F938F938F92C1
:101F50009F92AF92BF92CF92DF92EF92FF920F9338
:101F60001F9387E992E09F938F938E010F5F1F4F1E
:101F70001F930F9304D6F80101900020E9F73197E1
:101F8000BF01601B710BC8010E94BF030FB6F8941C
:101F9000DEBF0FBECDBF2CC013DF2AC00E948F034F
:101FA000182F092F0E949703F82EE92E0E9477031D
:101FB0009F938F93EF92FF920F931F9380EB92E08A
:101FC0009F938F938E010F5F1F4F1F930F93D7D552
:101FD000F80101900020E9F73197BF01601B710BF8
:101FE000C8010E94BF030FB6F894DEBF0FBECDBF7D
:101FF000A8960FB6F894DEBF0FBECDBFDF91CF918C
:102000001F910F91FF90EF90DF90CF90BF90AF9016
:102010009F908F900895CF93DF931F92CDB7DEB737
:1020200043E060E081E0B1D99093E10D8093E00D51
:1020300040E061E08EE1A9D99093DF0D8093DE0D41
:102040008091E00D9091E10D009711F00E94DB036B
:1020500088EE93E072DD80E00E94B90388EE93E0A1
:102060006CDD6091DE0D7091DF0D8FEC9EE00E94C3
:10207000C803A12CB12CC12CD12CE12CF12C01E0F6
:1020800020E030E049EB50E06FEB72E085ED9EE040
:10209000F3DA20E04FEF5FEFBE016F5F7F4F80917B
:1020A000DE0D9091DF0DF8D98981EDDEF2CFAF9290
:1020B000BF92CF92DF92EF92FF920F930E94A50200
:1020C000A12CB12CC12CD12CE12CF12C00E020E072
:1020D00030E049EB50E069EC72E08BE090E1CCDA63
:1020E000C4DB80E090E00F91FF90EF90DF90CF9005
:1020F000BF90AF90089508954F925F926F927F9234
:102100008F929F92AF92BF92CF92DF92FF920F93E6
:102110001F93CF93DF93CDB7DEB7F82E2A013B0193
:1021200088E090E0FCD38C018F2D90E0880F991F00
:10213000FC01EE51F24F11830083FC01E55BFD4F82
:1021400080819181D80111969C938E931396BC92B5
:10215000AE9212971596DC92CE92149717969C9297
:102160008E921697FFB6F894D801ED91FC911197D5
:102170003697808182608083CD90DC90440C551C22
:10218000661C771C440C551C661C771CA30192012D
:10219000220F331F441F551F60E074E284EF90E06C
:1021A00057D32150F60132972083D801ED91FC914D
:1021B0001197359788E98083ED91FC91349786E0FB
:1021C0008083FFBEC801DF91CF911F910F91FF90D7
:1021D000DF90CF90BF90AF909F908F907F906F9047
:1021E0005F904F900895EF92FF920F931F93CF93BC
:1021F000DF938C01E42EDC011296ED91FC91139794
:10220000309769F0242F30E042A588E290E0841BEB
:10221000910982179307E4F0E11005C010C0B1E006
:10222000B417C0F0F9CFC62FD72FF12C6991F80160
:10223000828193810E946B04F394FE10F7CFD80142
:10224000ED91FC91359780818062808380E003C0AE
:1022500082E001C082E0DF91CF911F910F91FF904A
:10226000EF9008951F920F920FB60F9211240BB6A4
:102270000F922F933F934F935F936F937F938F931F
:102280009F93AF93BF93CF93EF93FF93E091E20DB2
:10229000F091E30D3097A1F0C091C6006C2F8481BE
:1022A00095810E946B048091E20D9091E30DDC0119
:1022B0001696ED91FC911797309711F06C2F1995A8
:1022C000FF91EF91CF91BF91AF919F918F917F91AE
:1022D0006F915F914F913F912F910F900BBE0F9097
:1022E0000FBE0F901F9018951F920F920FB60F926E
:1022F00011240BB60F922F933F934F935F936F93DD
:102300007F938F939F93AF93BF93EF93FF93CF935D
:10231000DF931F92CDB7DEB7E091E20DF091E30DB0
:10232000309799F0BE016F5F7F4F828193810E9449
:102330005104811104C089818093C6000BC0E1EC77
:10234000F0E080818F7D808305C0E1ECF0E080814A
:102350008F7D80830F90DF91CF91FF91EF91BF919F
:10236000AF919F918F917F916F915F914F913F912D
:102370002F910F900BBE0F900FBE0F901F901895CE
:102380001F920F920FB60F9211240BB60F922F933C
:102390003F934F935F936F937F938F939F93AF93ED
:1023A000BF93CF93EF93FF93E091E40DF091E50D90
:1023B0003097A1F0C091CE006C2F848195810E944E
:1023C0006B048091E40D9091E50DDC011696ED9182
:1023D000FC911797309711F06C2F1995FF91EF91A1
:1023E000CF91BF91AF919F918F917F916F915F91AD
:1023F0004F913F912F910F900BBE0F900FBE0F90FA
:102400001F9018951F920F920FB60F9211240BB6C2
:102410000F922F933F934F935F936F937F938F937D
:102420009F93AF93BF93EF93FF93CF93DF931F924D
:10243000CDB7DEB7E091E40DF091E50D309799F05E
:10244000BE016F5F7F4F828193810E945104811191
:1024500004C089818093CE000BC0E9ECF0E080815C
:102460008F7D808305C0E9ECF0E080818F7D8083E3
:102470000F90DF91CF91FF91EF91BF91AF919F911D
:102480008F917F916F915F914F913F912F910F901D
:102490000BBE0F900FBE0F901F901895E091E70DA7
:1024A000F091E80D309701F12381213079F4A0817A
:1024B000B1814C9121E030E0028002C0220F331F35
:1024C0000A94E2F7209524232C930EC0A081B181B9
:1024D0006C9141E050E09A01028002C0220F331F4C
:1024E0000A94E2F7262B2C939093E80D8093E70D46
:1024F000009769F01092E90D2CB52F732CBDFC01EB
:1025000024812CBD85818DBD8CB580648CBD0895E2
:102510006F927F928F929F92AF92BF92CF92DF92F3
:10252000EF92FF920F931F93CF93DF93CDB7DEB758
:10253000D82EF62E642E722E8091E60D811106C0E3
:1025400084B1876084B981E08093E60D8CE090E0EF
:10255000E6D1FC0100831183E282A02FB12F4E91BE
:1025600021E030E0C90102C0880F991FEA94E2F728
:10257000842B8C93C382660C660C7628AF2DBB2708
:10258000A7FDB095AB52BD4F6C90D628D728D4820A
:1025900083E08F1514F481E0858397828682B1866B
:1025A000A0868A899B89938782876FB7F8948091E8
:1025B000E70D9091E80DF093E80DE093E70D23818E
:1025C000213081F4A081B1817C9141E050E09A01F9
:1025D000028002C0220F331F0A94E2F720952723BE
:1025E0002C930EC0A081B1817C9141E050E09A0112
:1025F000028002C0220F331F0A94E2F7272B2C938C
:102600009093E80D8093E70D6FBFCF01DF91CF91DD
:102610001F910F91FF90EF90DF90CF90BF90AF9000
:102620009F908F907F906F900895DF92EF92FF922E
:102630000F931F93CF93DF93EC018B01F42E009740
:1026400009F46BC08091E70D9091E80D8C179D0700
:1026500011F0CE0123DFEFB6F894EE81FF813097C1
:1026600061F02F2D30E042A588E290E0841B9109B3
:10267000821793070CF448C004C081E08F1508F45A
:1026800045C08091E90D811130C081E08093E90D52
:10269000E091E70DF091E80D8381813079F4A0811C
:1026A000B1814C9121E030E0C901028002C0880F65
:1026B000991F0A94E2F7842B8C930EC0A081B181FC
:1026C0002C9181E090E0028002C0880F991F0A944B
:1026D000E2F7809582238C938CB580688CBDF801DD
:1026E00080818EBDDD24D39401C0D12CDF1480F411
:1026F000F801ED0DF11D60818E819F810E946B04B8
:10270000D394DF14A8F306C081E005C081E003C0C4
:1027100080E001C080E0EFBE01C083E0DF91CF9197
:102720001F910F91FF90EF90DF9008951F920F92ED
:102730000FB60F9211240BB60F922F933F934F9326
:102740005F936F937F938F939F93AF93BF93EF9319
:10275000FF93CF93DF931F92CDB7DEB7E091E70DE4
:10276000F091E80D80859185009719F06EB50E9473
:102770006B04E091E70DF091E80DBE016F5F7F4FB4
:10278000868197810E945104811103C089818EBD89
:1027900029C08CB58F778CBD1092E90DE091E70DC3
:1027A000F091E80D8381813079F4A081B1812C9181
:1027B00081E090E0028002C0880F991F0A94E2F73E
:1027C000809582238C930EC0A081B1814C9121E031
:1027D00030E0C901028002C0880F991F0A94E2F715
:1027E000842B8C938091E70D9091E80DDC011A9673
:1027F000ED91FC911B97309711F0698119950F901D
:10280000DF91CF91FF91EF91BF91AF919F918F9108
:102810007F916F915F914F913F912F910F900BBEE0
:102820000F900FBE0F901F90189597FB072E16F470
:10283000009406D077FD08D05ED007FC05D03EF4AA
:10284000909581959F4F0895709561957F4F08955C
:10285000A1E21A2EAA1BBB1BFD010DC0AA1FBB1FA4
:10286000EE1FFF1FA217B307E407F50720F0A21B16
:10287000B30BE40BF50B661F771F881F991F1A9483
:1028800069F760957095809590959B01AC01BD01AD
:10289000CF010895052E97FB16F400940FD057FD35
:1028A00005D0D6DF07FC02D046F408C0509540950D
:1028B000309521953F4F4F4F5F4F089590958095EC
:1028C000709561957F4F8F4F9F4F0895EE0FFF1FBB
:1028D0000590F491E02D1994A29FB001B39FC0011F
:1028E000A39F700D811D1124911DB29F700D811D3C
:1028F0001124911D0895AA1BBB1B51E107C0AA1FFB
:10290000BB1FA617B70710F0A61BB70B881F991F90
:102910005A95A9F780959095BC01CD010895CF9364
:10292000DF938230910510F482E090E0E091EC0DAD
:10293000F091ED0D20E030E0A0E0B0E0309739F10B
:102940004081518148175907B8F04817590771F469
:1029500082819381109729F013969C938E931297FE
:102960002CC09093ED0D8093EC0D27C021153105FF
:1029700031F04217530718F0A901DB0101C0EF0144
:102980009A01BD01DF010280F381E02DD7CF21152F
:102990003105F9F0281B390B2430310580F48A8188
:1029A0009B816115710521F0FB019383828304C033
:1029B0009093ED0D8093EC0DFE01329644C0FE0124
:1029C000E20FF31F819391932250310939832883B9
:1029D0003AC02091EA0D3091EB0D232B41F4209168
:1029E0000202309103023093EB0D2093EA0D209107
:1029F0000002309101022115310541F42DB73EB797
:102A00004091040250910502241B350BE091EA0D20
:102A1000F091EB0DE217F307A0F42E1B3F0B2817E4
:102A2000390778F0AC014E5F5F4F2417350748F047
:102A30004E0F5F1F5093EB0D4093EA0D81939193DE
:102A400002C0E0E0F0E0CF01DF91CF910895CF9395
:102A5000DF93009709F487C0FC013297138212823A
:102A6000C091EC0DD091ED0D209781F42081318142
:102A7000280F391F8091EA0D9091EB0D8217930773
:102A800079F5F093EB0DE093EA0D6DC0DE0120E0E7
:102A900030E0AE17BF0750F412964D915C9113973A
:102AA0009D014115510509F1DA01F3CFB383A283EA
:102AB00040815181840F951F8A179B0771F48D9176
:102AC0009C911197840F951F029691838083129693
:102AD0008D919C911397938382832115310529F45D
:102AE000F093ED0DE093EC0D3EC0D9011396FC93ED
:102AF000EE9312974D915D91A40FB51FEA17FB0756
:102B000079F480819181840F951F0296D9011196E5
:102B10009C938E938281938113969C938E931297AC
:102B2000E0E0F0E08A819B81009719F0FE01EC0162
:102B3000F9CFCE01029628813981820F931F20910F
:102B4000EA0D3091EB0D2817390769F4309729F415
:102B50001092ED0D1092EC0D02C013821282D093F0
:102B6000EB0DC093EA0DDF91CF910895FB01DC01DD
:102B700002C001900D9241505040D8F708950F9334
:102B80001F93CF93DF93CDB7DEB72E970FB6F89490
:102B9000DEBF0FBECDBF0E891F8986E08C831A83EE
:102BA00009838FEF9FE79E838D83AE01465E5F4F63
:102BB000688D798DCE01019610D0EF81F885E00FF8
:102BC000F11F10822E960FB6F894DEBF0FBECDBF58
:102BD000DF91CF911F910F9108952F923F924F92C5
:102BE0005F926F927F928F929F92AF92BF92CF929D
:102BF000DF92EF92FF920F931F93CF93DF93CDB7A6
:102C0000DEB72C970FB6F894DEBF0FBECDBF7C01A8
:102C10006B018A01FC0117821682838181FFB0C19A
:102C2000CE0101964C01F7019381F60193FD859148
:102C300093FF81916F01882309F49EC1853239F495
:102C400093FD859193FF81916F01853221F4B70146
:102C500090E0C7D1E8CF512C312C20E02032A0F4F5
:102C60008B3269F030F4803259F0833269F420619C
:102C70002CC08D3239F0803339F4216026C02260B7
:102C8000246023C0286021C027FD27C030ED380F05
:102C90003A3078F426FF06C0FAE05F9E300D11242A
:102CA000532E13C08AE0389E300D1124332E20623B
:102CB0000CC08E3221F426FD5FC1206406C08C3624
:102CC00011F4206802C0883641F4F60193FD859125
:102CD00093FF81916F018111C1CF982F9F7D9554F2
:102CE000933028F40C5F1F4FFFE3F9830DC0833648
:102CF00031F0833771F0833509F057C021C0F801F6
:102D0000808189830E5F1F4F44244394512C5401CA
:102D100014C03801F2E06F0E711CF801A080B18080
:102D200026FF03C0652D70E002C06FEF7FEFC50185
:102D30002C874CD12C0183012C852F77222E16C095
:102D40003801F2E06F0E711CF801A080B18026FFFF
:102D500003C0652D70E002C06FEF7FEFC5012C87C7
:102D60002AD12C012C852068222E830123FC19C036
:102D7000832D90E048165906A0F4B70180E290E058
:102D800030D13A94F5CFF50127FC859127FE81914A
:102D90005F01B70190E025D131103A94F1E04F1A6C
:102DA00051084114510479F7DEC0843611F0893698
:102DB00031F5F80127FF07C060817181828193811D
:102DC0000C5F1F4F08C060817181882777FD809557
:102DD000982F0E5F1F4F2F76B22E97FF09C0909548
:102DE0008095709561957F4F8F4F9F4F2068B22ED1
:102DF0002AE030E0A40127D1A82EA81843C08537C7
:102E000029F42F7EB22E2AE030E025C0F22FF97F80
:102E1000BF2E8F36C1F018F4883579F0ADC08037F9
:102E200019F0883721F0A8C02F2F2061B22EB4FEF0
:102E30000DC08B2D8460B82E09C024FF0AC09F2FBF
:102E40009660B92E06C028E030E005C020E130E0F1
:102E500002C020E132E0F801B7FE07C06081718155
:102E6000828193810C5F1F4F06C06081718180E079
:102E700090E00E5F1F4FA401E6D0A82EA818FB2DEE
:102E8000FF77BF2EB6FE0BC02B2D2E7FA51450F45E
:102E9000B4FE0AC0B2FC08C02B2D2E7E05C07A2CD1
:102EA0002B2D03C07A2C01C0752C24FF0DC0FE0110
:102EB000EA0DF11D8081803311F4297E09C022FFC3
:102EC00006C07394739404C0822F867809F07394BB
:102ED00023FD12C020FF06C05A2C731418F4530CA3
:102EE0005718732C731460F4B70180E290E02C87BC
:102EF00078D073942C85F6CF731410F4371801C072
:102F0000312C24FF11C0B70180E390E02C8769D0F9
:102F10002C8522FF16C021FF03C088E590E002C087
:102F200088E790E0B7010CC0822F867851F021FD30
:102F300002C080E201C08BE227FD8DE2B70190E084
:102F400050D0A51430F4B70180E390E04AD05A94F1
:102F5000F8CFAA94F401EA0DF11D8081B70190E049
:102F600040D0A110F6CF332009F45DCEB70180E246
:102F700090E037D03A94F7CFF7018681978102C06D
:102F80008FEF9FEF2C960FB6F894DEBF0FBECDBF2C
:102F9000DF91CF911F910F91FF90EF90DF90CF9035
:102FA000BF90AF909F908F907F906F905F904F9069
:102FB0003F902F900895FC010590615070400110E2
:102FC000D8F7809590958E0F9F1F0895FC01615052
:102FD000704001900110D8F7809590958E0F9F1F3B
:102FE00008950F931F93CF93DF93182F092FEB01B1
:102FF0008B8181FD03C08FEF9FEF20C082FF10C047
:103000004E815F812C813D81421753077CF4E8811A
:10301000F9819F012F5F3F4F39832883108306C0BA
:10302000E885F985812F1995892B29F72E813F8114
:103030002F5F3F4F3F832E83812F902FDF91CF91C2
:103040001F910F910895FA01AA27283051F12031DC
:1030500081F1E8946F936E7F6E5F7F4F8F4F9F4F2C
:10306000AF4FB1E03ED0B4E03CD0670F781F891F6E
:103070009A1FA11D680F791F8A1F911DA11D6A0F3C
:10308000711D811D911DA11D20D009F468943F91EF
:103090002AE0269F11243019305D3193DEF6CF01EE
:1030A0000895462F4770405D4193B3E00FD0C9F7B4
:1030B000F6CF462F4F70405D4A3318F0495D31FD21
:1030C0004052419302D0A9F7EACFB4E0A695979574
:1030D000879577956795BA95C9F70097610571054A
:1030E00008959B01AC010A2E069457954795379594
:1030F0002795BA95C9F7620F731F841F951FA01DEE
:063100000895F894FFCFD2
:103106000000EE0D20000A0000004F02050101013B
:1031160000005502035902050A02FE00005F02057F
:103126006502050A03FE00006B020B6502050A0430
:10313600FE00007702047C02090A05FE000000007A
:10314600004F02050AFFFF0000FFFFC600CE004445
:10315600554D4D590024242400434D440D0A005377
:10316600412C310D00414F4B0D0A00532D2C564971
:10317600412D4361720D00522C310D005265626F74
:103186006F74210D0A0049444C45002534642025FE
:103196003464202534640078253464792534647ACF
:1031A60025346472253464712534647425346400CE
:1031B6007825346420792534642078253464004ADF
:1031C600757374415461736B0053746172747570D6
:0C31D6005461736B000001020300010251
:00000001FF
