S01000004669726D776172652E73726563D7
S1130000DAC00000F4C30000F7C00000F5C000002F
S1130010F3C00000F1C00000EFC00000EDC000001C
S1130020EBC00000E9C00000E7C00000E5C000002C
S1130030E3C0000011C40000DFC00000DDC0000008
S1130040DBC00000D9C00000D7C00000D5C000004C
S1130050D3C000000C94BE08CFC00000CDC0000087
S11300600C944D180C94E9150C942B16C5C0000083
S1130070C3C00000C1C00000BFC00000BDC000007C
S1130080BBC00000B9C00000B7C00000B5C000008C
S11300900C9477160C94B916AFC00000ADC00000E4
S11300A0ABC00000A9C00000A7C00000A5C00000AC
S11300B0A3C00000A1C000009FC000009DC00000BC
S11300C09BC0000099C0000097C0000087118711F1
S11300D08711BF11AE11BC1187118711BF11AE1169
S11300E05D1365136D1375137D1381137E147E14D4
S11300F07E147E147E147E147E1457147E147A1497
S1130100C4137E147E147E147E147E147E147E1416
S11301107E147E147E147E147E147E147E147E144B
S11301205913611369137113791355147E147E14D2
S11301307E147E147E147E147E147E147E147C142D
S1130140FB130F2EF3EBEF2EFDE0FF2EF02DCBE88B
S1130150DDE027C00E94240D18810E94EF0D1123B9
S113016001F10FB6F8940F92E091900DF091910D7A
S113017006811781C80102964ED68091890D81505F
S11301808093890D80918A0D815080938A0D0F9000
S11301900FBEF8018789908D0E94F308C8010E9460
S11301A0F30880918A0D8111D5CFF70180818230C7
S11301B0C0F30FD7F6CF11241FBECFEFD1E2DEBFBD
S11301C0CDBF00E00CBF12E0A0E0B2E0E8ECFDE33C
S11301D000E00BBF02C007900D92A83DB107D9F70C
S11301E025E1A8EDB2E001C01D92AE3DB207E1F7F2
S11301F00E940C150C94E21E03CF10923803E09178
S11302003603F0913703309709F019950895CF9389
S1130210DF931F921F92CDB7DEB76A8380913803B4
S1130220882319F0862FA0D413C0809134039091B1
S11302303503009769F0198220E0AE014F5F5F4FEC
S1130240BE016E5F7F4F0E94980A89818111C1D6D9
S11302500F900F90DF91CF910895DF92EF92FF926C
S11302600F931F93CF93DF93CDB7DEB7D62EEDB6A2
S1130270FEB6262F30E02F5F3F4F4DB75EB7421BCF
S1130280530B0FB6F8945EBF0FBE4DBF0DB71EB72C
S11302900F5F1F4F98018068EDB7FEB78183662317
S11302A041F081E0F901E80FF11D10828F5FD8164B
S11302B0C8F780E793E03DD341E04D0DB80180914C
S11302C09D0390919E030E94CC170FB6F894FEBE36
S11302D00FBEEDBEDF91CF911F910F91FF90EF9074
S11302E0DF900895462FBC0180919B0390919C035D
S11302F00C94AA1508951F93CF93DF9300D01F92F7
S1130300CDB7DEB78091DB028230C1F128F48823B7
S113031051F08130C9F0F1C0833009F43FC0853019
S113032009F494C0EAC081E08093DB028CE18B8302
S11303301C8242E0BE016D5F7F4F80919D039091CE
S11303409E030E94CC17D9C080E793E0EFD282309D
S113035009F0D3C08093DB0280E793E0EAD28BE11B
S11303608B8388E08C8342E0BE016D5F7F4F809178
S11303709D0390919E030E94CC17BFC080E793E039
S1130380D5D2823009F0B9C083E08093DB0280E7E4
S113039093E0CFD266E08BE360DFAFC080E793E009
S11303A0C5D2873009F0A9C01FB7F894BE016F5FAA
S11303B07F4F80E793E08AD2BE016E5F7F4F80E774
S11303C093E084D2BE016F5F7F4F80E793E07ED2DB
S11303D08A8190E0982F88272981822B9093440367
S11303E080934303BE016E5F7F4F80E793E06ED23C
S11303F0BE016F5F7F4F80E793E068D28A8190E00F
S1130400982F88272981822B90934203809341035C
S1130410BE016E5F7F4F80E793E058D2BE016F5FED
S11304207F4F80E793E052D21FBF8A8190E0982FDC
S113043088272981822B9093400380933F0385E092
S11304408093DB0266E083E408DF57C080E793E033
S11304506DD2873009F051C01FB7F894BE016F5FA9
S11304607F4F80E793E032D2BE016E5F7F4F80E71B
S113047093E02CD2BE016F5F7F4F80E793E026D2DA
S11304808A8190E0982F88272981822B90933E03BC
S113049080933D03BE016E5F7F4F80E793E016D2E9
S11304A0BE016F5F7F4F80E793E010D28A8190E0B6
S11304B0982F88272981822B90933C0380933B03B8
S11304C0BE016E5F7F4F80E793E000D2BE016F5F95
S11304D07F4F80E793E0FAD11FBF8A8190E0982F85
S11304E088272981822B90933A038093390383E0F0
S11304F08093DB0266E08BE3B0DE0F900F900F90E9
S11305000F90DF91CF911F910895882311F0439AA2
S1130510089543980895882311F0429A08954298C3
S11305200895882311F0419A0895419808958536D5
S113053008F084E68823A9F0282F30E0AFE7BCE078
S11305400E94A81A24E630E040E050E00E94861A97
S1130550309399002093980030939B0020939A0045
S11305600895109299001092980010929B00109296
S11305709A0008958F929F92AF92BF92CF92DF928A
S1130580EF920F931F933B9A3A9A399A389AE0E97B
S1130590F0E0808182608083A1E9B0E08C91886181
S11305A08C938FE79CE0909399008093980020812E
S11305B0206C20836B9A90939B0080939A002081F7
S11305C0206320836C9A90939700809396008C917B
S11305D081608C9380E0ABDFE1E8F0E080818660AD
S11305E080836A986D9A7598089A1098099A119858
S11305F00A9A1298E9E6F0E0808182608083E89AA2
S113060087E093E05ED18CED92E05BD10F2EF7E0B2
S11306108F2EF1E09F2EF02D0F2EFCEDAF2EF2E089
S1130620BF2EF02D0F2EF7E0CF2EF3E0DF2EF02DAE
S1130630E12C00E023E040E855E260E070E080E077
S11306400E94331590939C0380939B0380E793E06F
S113065038D185E493E035D18BE791E09F938F9374
S11306600F2EF5E48F2EF3E09F2EF02D0F2EF0E7E2
S1130670AF2EF3E0BF2EF02DC12C05E210E020E0F8
S113068043E063E080E10E943F1790939E038093D0
S11306909D0360E080E090E02EDE8BE98093B30060
S11306A0E1EBF0E0808182608083A0E7B0E08C9190
S11306B082608C938081856080830F900F901F915E
S11306C00F91EF90DF90CF90BF90AF909F908F905D
S11306D00895853608F084E68823A9F0282F30E0B1
S11306E0AFE7BCE00E94A81A24E630E040E050E006
S11306F00E94861A309399002093980010929B00D0
S113070010929A00089510929900109298001092F5
S11307109B0010929A0008952FB7F8948091430398
S1130720909144032FBF08952FB7F894809141030B
S1130730909142032FBF08952FB7F89480913F03FF
S1130740909140032FBF08952FB7F89480913D03F3
S113075090913E032FBF08952FB7F89480913B03E7
S113076090913C032FBF089520918400309185001F
S11307708091D9029091DA022817390730F4A9013F
S1130780481B590BCA01019704C0A901481B590B06
S1130790CA013093DA022093D9020895882311F014
S11307A010980895109A0895462FBC0180919B03D8
S11307B090919C030C94AA1508957093350360934B
S11307C03403909337038093360381E08093380396
S11307D04DEF50E062E771E087E092E09DC108953B
S11307E0009721F0909333038093320308951F926E
S11307F00F920FB60F9211240BB60F922F933F93C3
S11308004F935F936F937F938F939F93AF93BF9314
S1130810EF93FF938091320390913303009749F053
S11308201092D80268ED72E0B5D68091D802811199
S1130830D0D3FF91EF91BF91AF919F918F917F9111
S11308406F915F914F913F912F910F900BBE0F903D
S11308500FBE0F901F9018951F920F920FB60F9214
S113086011240BB60F922F933F934F935F936F9383
S11308707F938F939F93AF93BF93EF93FF93809155
S11308803803882359F080910602815019F080932F
S1130890060204C08AE0809306024FD1FF91EF91D3
S11308A0BF91AF919F918F917F916F915F914F9184
S11308B03F912F910F900BBE0F900FBE0F901F9082
S11308C01895FC0110A611A612A60895FC0182A594
S11308D08823A1F081A5DF01A80FB11D8C91DB0154
S11308E08C9381A590E0019668E270E00E94511A11
S11308F081A782A5815082A780E0089581E00895B0
S1130900FC0122A5283280F480A590E0DF01A80F25
S1130910B91F6C93019668E270E00E94511A80A797
S11309202F5F22A780E0089582E00895FC0182A54C
S11309300895FC0110A611A612A60895E091AC0337
S1130940F091AD038081853209F085C0CF01019615
S11309509093AD038093AC038181853219F4109296
S1130960A30308958A32E1F5CF0102969093AD0373
S11309708093AC03339620E0DC010196220F322FE2
S1130980330F330F230F20533C91230F3191323413
S113099099F72093AE031296B093AD03A093AC03E2
S11309A08091B0039091B1030097B1F0EFEAF3E0C6
S11309B020812F5F2083332727FD3095F901EE0F27
S11309C0FF1FE20FF31FE80FF91F1282808191814C
S11309D09093B3038093B20382E08093A3030895BA
S11309E08091AC039091AD03DC01119620E0FC01F1
S11309F00196220F322F330F330F230F20533081F0
S1130A00230F3D91323499F72093AE033296F0933D
S1130A10AD03E093AC038091B0039091B1030097D0
S1130A20B1F0AFEAB3E0EC91EF5FEC93FF27E7FDA1
S1130A30F0959F01220F331FE20FF31FE80FF91FF8
S1130A401282808191819093B3038093B20381E0F9
S1130A508093A30308951092A3030895CF93DF9383
S1130A601092A7038093A60392E0980F923030F47B
S1130A70E0919F03F091A00319954BC09BE0899FDF
S1130A80E0011124A091A403B091A503AC0FBD1FF4
S1130A9012966C911297662339F0E091A103F091BC
S1130AA0A2038D919C9119958091A4039091A50323
S1130AB0C80FD91F2D81222351F18B819C819093E2
S1130AC0A9038093A8039093AD038093AC03E985B5
S1130AD0FA85F093B103E093B0033FEF3093AF0393
S1130AE0309731F0408151815093B3034093B20366
S1130AF030E021503109820F931F9093AB03809310
S1130B00AA031CDF8E818F5F8093A70302C08F81AD
S1130B10A5DFDF91CF9108959093A5038093A4035B
S1130B207093A2036093A1035093A00340939F0387
S1130B301092A60380E092CF08958091A7038823A2
S1130B4091F081508093A70381110DC08091A60379
S1130B50E091A403F091A5039BE0899FE00DF11DB2
S1130B60112480857BCF08956F927F928F929F92FC
S1130B70AF92BF92CF92DF92EF92FF920F931F93A7
S1130B80CF93DF93982E8091A303813009F442C060
S1130B9020F0823009F470C0AFC0812CCCEAD3E0DD
S1130BA00F2EF8EACF2EF3E0DF2EF02D0F2EFFEA02
S1130BB0EF2EF3E0FF2EF02D00EB13E07724739477
S1130BC0612C0F2EF2EBAF2EF3E0BF2EF02DE88157
S1130BD0F9819F012F5F3F4F3983288380818915D5
S1130BE0A9F0D6018D919C9199838883F701108295
S1130BF0D801ED91FC91309729F080819181F50124
S1130C0091838083872D8110862D882E97DE811015
S1130C10DECF72C02091B0033091B10321153105AC
S1130C2011F1A2EBB3E0ED91FC911197CF01019684
S1130C308D939C939082E091AF03FF27E7FDF0959D
S1130C40CF01880F991FE80FF91FE20FF31F82816C
S1130C508F5F8283EEEAF3E080818150808381118B
S1130C604BC06CDE49C0EEEAF3E0808181508083A2
S1130C70811142C063DE40C0E091AC03F091AD034A
S1130C808081891551F18091B0039091B10300974F
S1130C9009F44EC0A2EBB3E0ED91FC9111979F01D2
S1130CA02F5F3F4F2D933C9390822091AF033327C6
S1130CB027FD3095F901EE0FFF1FE20FF31FE80F38
S1130CC0F91F82818F5F8283EEEAF3E08081815095
S1130CD08083811111C032DE0FC0AEEAB3E08C9183
S1130CE081508C93811102C029DE06C03196F093A5
S1130CF0AD03E093AC0322DE8091A303811118C0FD
S1130D002091AC033091AD038091AA039091AB0381
S1130D108217930768F48091A603E091A403F091ED
S1130D20A5039BE0899FE00DF11D1124878196DEC8
S1130D30DF91CF911F910F91FF90EF90DF90CF90B3
S1130D40BF90AF909F908F907F906F900895FC011B
S1130D500396928381832FEF3FEF3483238396831B
S1130D6085839087878310820895FC0111861086FD
S1130D700895CF93DF939C01FB01DC011196CD9183
S1130D80DC911297D383C2838C819D819583848364
S1130D908C819D81DC0113967C936E9312977D83E5
S1130DA06C8331872087F90180818F5F8083DF9195
S1130DB0CF910895CF93DF93EB01488159814F3F41
S1130DC02FEF520721F4FC01A781B0850DC0DC018F
S1130DD013961296ED91FC9113972081318142175D
S1130DE0530710F0DF01F5CF1296ED91FC911397A4
S1130DF0FB83EA83D583C483BD83AC831396DC93DE
S1130E00CE93129799878887FC0120812F5F2083D6
S1130E10DF91CF910895CF93DF93FC01A085B18535
S1130E20C281D381848195819D838C83C481D58142
S1130E30828193819B838A831196CD91DC91129751
S1130E40CE17DF0731F48C819D8112969C938E938B
S1130E501197118610868C9181508C93DF91CF91DC
S1130E60089531E1FC013083319722E220833197E8
S1130E70A3E3A08331976083319770833197108205
S1130E8031971082319760E86083319710823197EF
S1130E90108231971082319762E06083319763E06A
S1130EA06083319764E06083319765E060833197B4
S1130EB066E06083319767E06083319768E0608320
S1130EC0319769E06083319760E1608331973083C3
S1130ED0319732E13083319733E13083319734E114
S1130EE03083319735E13083319736E13083319760
S1130EF037E13083319738E13083319739E13083FA
S1130F00319730E23083319731E230833197208357
S1130F10319723E22083319740833197508331976F
S1130F2026E22083319727E22083319728E2208329
S1130F30319729E22083319720E32083319721E3FD
S1130F4020838997089588EE93E09093B703809364
S1130F50B6039093B5038093B40389EF87BD82E011
S1130F6084BD83E085BDEEE6F0E08081826080830D
S1130F70A091D70DB091D80DCD91CDBFDD91DEBF3D
S1130F80FF91EF91DF91CF91BF91AF919F918F919D
S1130F907F916F915F914F913F912F911F910F918D
S1130FA0FF90EF90DF90CF90BF90AF909F908F9085
S1130FB07F906F905F904F903F902F901F900F9075
S1130FC00CBE0F900BBE0F900FBE0F90089581E0E2
S1130FD008950F920FB6F8940F920BB60F920CB6B9
S1130FE00F921F9211242F923F924F925F926F9211
S1130FF07F928F929F92AF92BF92CF92DF92EF92A5
S1131000FF920F931F932F933F934F935F936F938D
S11310107F938F939F93AF93BF93CF93DF93EF937C
S1131020FF93A091D70DB091D80D0DB60D920EB6C9
S11310300D926ED6A091D70DB091D80DCD91CDBFA4
S1131040DD91DEBFFF91EF91DF91CF91BF91AF9121
S11310509F918F917F916F915F914F913F912F91CC
S11310601F910F91FF90EF90DF90CF90BF90AF90C2
S11310709F908F907F906F905F904F903F902F90B4
S11310801F900F900CBE0F900BBE0F900FBE0F90D1
S113109008950F920FB6F8940F920BB60F920CB6F8
S11310A00F921F9211242F923F924F925F926F9250
S11310B07F928F929F92AF92BF92CF92DF92EF92E4
S11310C0FF920F931F932F933F934F935F936F93CD
S11310D07F938F939F93AF93BF93CF93DF93EF93BC
S11310E0FF93A091D70DB091D80D0DB60D920EB609
S11310F00D928091B4039091B50301979093B50339
S11311008093B403892B41F48091B6039091B70383
S11311109093B5038093B403A7D48111F9D5A0911A
S1131120D70DB091D80DCD91CDBFDD91DEBFFF912C
S1131130EF91DF91CF91BF91AF919F918F917F916B
S11311406F915F914F913F912F911F910F91FF905C
S1131150EF90DF90CF90BF90AF909F908F907F9053
S11311606F905F904F903F902F901F900F900CBE08
S11311700F900BBE0F900FBE0F9008958ADF189545
S1131180CF93DF93EC0160D48091B8039091B903BD
S1131190892B31F48DEB93E09093B9038093B803DA
S11311A04091BA035091BB039E01240F351F233C89
S11311B089E0380770F44217530770F4C091B803FC
S11311C0D091B903C40FD51F3093BB032093BA0346
S11311D005C0C0E0D0E002C0C0E0D0E000D5CE0140
S11311E0DF91CF91089508951F93CF93DF93EC017E
S11311F0142F8C8D8823E9F1411117C0482F50E03A
S11312008C819D810E940F1C2C8D8C819D81820F6D
S1131210911D9D838C832A813B818217930748F11A
S1131220888199819D838C8324C0482F50E08E81CE
S11312309F810E940F1C2C8D30E03195219531093E
S11312408E819F81820F931F9F838E836881798112
S11312508617970730F48A819B81280F391F3F83B3
S11312602E83123031F48A8D882319F08A8D8150AF
S11312708A8F8A8D8F5F8A8F80E0DF91CF911F9153
S11312800895FC01CB01448D4423A1F050E0268154
S11312903781240F351F3783268362817381261794
S11312A0370720F020813181378326836681778157
S11312B00C940F1C08950F931F93CF93DF93EC01AD
S11312C00FB6F8940F928E8D1816A4F4898988238A
S11312D089F08E010F5E1F4F03C08989882351F066
S11312E0C801C6D5811149D68E8D81508E8F8E8DC1
S11312F018169CF38FEF8E8F0F900FBE0FB6F894D5
S11313000F928D8D1816A4F48885882389F08E0198
S1131310085F1F4F03C08885882351F0C801A8D5F2
S113132081112BD68D8D81508D8F8D8D18169CF348
S11313308FEF8D8F0F900FBEDF91CF911F910F9183
S11313400895CF93DF93EC010FB6F8940F92888140
S113135099812C8D30E07B8D729FA001739F500D7D
S11313601124FC01E40FF51FFB83EA831A8E9D838D
S11313708C83421B530B840F951F9F838E838FEFA7
S11313808D8F8E8F61110AC08885882369F0CE0104
S113139008966ED5813041F41CDE06C0CE01089655
S11313A0D6DCCE014196D3DC0F900FBE81E0DF91F5
S11313B0CF9108950F931F93CF93DF93082F162F88
S11313C06623B9F0869FC00111248096D9DEEC0112
S11313D0009721F414C0D983C88305C09C01215E01
S11313E03F4F398328830B8F1C8F61E0CE01A9DF27
S11313F006C08FE190E0C4DEEC01009761F7CE01F6
S1131400DF91CF911F910F9108959F92AF92BF9258
S1131410CF92DF92EF92FF920F931F93CF93DF93BC
S113142000D01F921F92CDB7DEB78C016B015D8394
S11314304C83A22EB12C992493947C0188E0E80E6D
S1131440F11C0FB6F8940F92F801928D838D9817C2
S113145018F0F2E0AF1215C04A2DB601C801C4DE7F
S1131460F8019189992339F0C801419601D5813059
S113147021F4AFDD02C08111ACDD0F900FBE81E01D
S113148046C0EC81FD81EF2B21F40F900FBE80E06C
S11314903EC0B11004C0CE01019632D5B92C0F90D4
S11314A00FBED2D20FB6F8940F92F801858D8F3FFC
S11314B009F4158EF801868D8F3F09F4168E0F906E
S11314C00FBEBE016C5F7F4FCE01019624D5811102
S11314D01AC00FB6F8940F92F801928D0F900FBEB8
S11314E0F801838D98130BC06C817D81C70188D46A
S11314F0C801E1DE74D38111A4CF6BDDA2CFC80192
S1131500DADE6DD39ECFC801D6DE69D380E00F90BA
S11315100F900F900F900F90DF91CF911F910F912B
S1131520FF90EF90DF90CF90BF90AF909F90089581
S11315300F931F93CF93DF93EC018A019A8D8B8DC8
S1131540981710F02230D1F4422FCE014DDE8E8D4B
S11315508F3F79F48989882399F0CE01419688D404
S1131560882381F00115110579F081E0F801808369
S11315700CC08E8D8F5F8E8F81E007C080E005C028
S113158081E003C081E001C081E0DF91CF911F9130
S11315900F910895CF93DF93FC01EB01928D838D1E
S11315A09817C0F4828D8F5F828F868D8F3F69F488
S11315B08189882389F0CF0141965AD4882371F018
S11315C0209771F081E088830CC0868D8F5F868FB1
S11315D081E007C080E005C081E003C081E001C074
S11315E081E0DF91CF9108959F92AF92BF92CF9205
S11315F0DF92EF92FF920F931F93CF93DF9300D06C
S11316001F921F92CDB7DEB78C016B015D834C83B3
S1131610B22EA12C992493947C0181E1E80EF11C53
S11316200FB6F8940F92F801828D882321F1E68099
S1131630F780B601C80125DEB1100EC0F801828D15
S11316408150828F8085882391F0C801089610D438
S1131650813069F4BEDC0BC0F801F782E68281892F
S1131660882329F0C801419603D48111B2DC0F907C
S11316700FBE81E044C04C815D81452B21F40F9065
S11316800FBE80E03CC0A11004C0CE01019638D446
S1131690A92C0F900FBED8D10FB6F8940F92F80171
S11316A0858D8F3F09F4158EF801868D8F3F09F4DF
S11316B0168E0F900FBEBE016C5F7F4FCE01019658
S11316C02AD4811118C00FB6F8940F92F801828DB4
S11316D00F900FBE81110BC06C817D81C70190D327
S11316E0C801E9DD7CD281119BCF73DC99CFC8019D
S11316F0E2DD75D295CFC801DEDD71D280E00F90B6
S11317000F900F900F900F90DF91CF911F910F9139
S1131710FF90EF90DF90CF90BF90AF909F9008958F
S1131720CF93DF93EC010FB6F8940F928D8D8F3F1A
S113173009F41D8E8E8D8F3F09F41E8E0F900FBEFF
S11317408A8D811103C0CE01419676D3CE01B3DDDB
S1131750DF91CF910895E0919F0DF091A00D8081CC
S1131760811107C08FEF9FEF90934A028093490243
S11317700895E0919F0DF091A00D0580F681E02D74
S11317800680F781E02D8281938190934A028093B1
S113179049020895CF93DF93EC01E091D70DF091C6
S11317A0D80D938382838091870D9091880DC817FB
S11317B0D90760F46091D70D7091D80D80919D0D7B
S11317C090919E0D6E5F7F4FF5DA16C06091D70D34
S11317D07091D80D80919F0D9091A00D6E5F7F4FF9
S11317E0E9DA8091490290914A02C817D90720F496
S11317F0D0934A02C0934902DF91CF9108954F924A
S11318005F926F927F928F929F92AF92BF92CF928C
S1131810DF92EF92FF920F931F93CF93DF934C01CC
S11318205B012A013901C114D10431F4CA01A8DCD5
S11318306C01009709F4CAC086E290E0A1DCEC01D7
S1131840009771F0D88ECF8A81E0481A5108C40CF1
S1131850D51CD5018C91898F8C91811104C014C041
S1131860C601C1DCB3C0AE01465E5F4FF5013196DF
S113187027E0CF013191DA013D93AD01DC018C9178
S1131880882311F02150A9F718A2102F043008F072
S113189013E01E8B5E01B2E0AB0EB11CC50165DA2C
S11318A0CE010C9662DAD987C88784E090E0811B68
S11318B091099D878C87DB8BCA8B19A21AA21BA264
S11318C01CA21DA2A301B401C601CBDA99838883AB
S11318D0E114F10419F0F701D183C0830FB6F89431
S11318E00F928091890D8F5F8093890D8091D70D20
S11318F09091D80D892B69F5D093D80DC093D70D4D
S11319008091890D8130A1F583EB9DE020DA8CEB89
S11319109DE01DDA85EC9DE01ADA8EEC9DE017DA85
S11319208AEA9DE014DA81EA9DE011DA84E99DE017
S11319300EDA8BE89DE00BDA8AEA9DE09093A00D25
S113194080939F0D81EA9DE090939E0D80939D0D61
S11319500FC08091850D81110BC0E091D70DF091DE
S1131960D80D8689081720F0D093D80DC093D70DD1
S11319708091810D8F5F8093810D8E899091860D6A
S1131980981710F48093860D90E09C01220F331F6A
S1131990220F331F220F331F820F931FB5018D5463
S11319A0924FE7D90F900FBE8091850D882351F097
S11319B0E091D70DF091D80D8689801728F409DBC2
S11319C081E005C081E003C081E001C08FEFDF91B9
S11319D0CF911F910F91FF90EF90DF90CF90BF9028
S11319E0AF909F908F907F906F905F904F900895ED
S11319F0AF92BF92CF92DF92EF92FF920F93A12CFE
S1131A00B12CC12CD12CE12CF12C00E020E030E0F1
S1131A1049EB50E066E872E081EA90E0F0DE813064
S1131A2059F414D3813041F4F8948093850D1092C5
S1131A30880D1092870D87DA0F91FF90EF90DF9059
S1131A40CF90BF90AF9008958091800D8F5F809369
S1131A50800D08950FB6F8940F928091870D9091A0
S1131A60880D0F900FBE0895CF92DF92EF92FF92F0
S1131A700F931F93CF93DF938091800D811196C0B4
S1131A808091870D9091880D01969093880D809395
S1131A90870DE090870DF090880DE114F104B1F406
S1131AA080919F0D9091A00D20919D0D30919E0DE0
S1131AB03093A00D20939F0D90939E0D80939D0DC8
S1131AC08091820D8F5F8093820D45DE8091490263
S1131AD090914A02E816F90608F451C0D12CCC249E
S1131AE0C39401C0DC2CE0919F0DF091A00D808186
S1131AF0811107C08FEF9FEF90934A0280934902B0
S1131B003FC0E0919F0DF091A00D0580F681E02D7E
S1131B10C681D7812A813B81E216F30628F43093EB
S1131B204A02209349022CC08E010E5F1F4FC80148
S1131B3072D98C899D89892B19F0CE010C966BD9A9
S1131B402E898091860D821710F42093860D30E043
S1131B50C901880F991F880F991F880F991F820F39
S1131B60931FB8018D54924F04D9E091D70DF09191
S1131B70D80D9E898689981708F0B4CFB4CFD12C9C
S1131B80E091D70DF091D80D868990E0FC01EE0F1D
S1131B90FF1FEE0FFF1FEE0FFF1F8E0F9F1FFC0195
S1131BA0ED54F24F8081823040F409C08091840D5D
S1131BB08F5F8093840DD12C02C0DD24D394809157
S1131BC0830D882311F0DD24D3948D2DDF91CF91E3
S1131BD01F910F91FF90EF90DF90CF900895DF92C7
S1131BE0EF92FF920F931F93CF93DF930FB6F89466
S1131BF00F928091800D81508093800D8091800D93
S1131C0081115CC08091890D882309F459C00F2E7D
S1131C10F4E9EF2EFDE0FF2EF02DDD24D3942DC04A
S1131C20E091990DF0919A0DC681D781CE010C9661
S1131C30F2D88E010E5F1F4FC801EDD88E899091A6
S1131C40860D981710F48093860D90E09C01220F66
S1131C50331F220F331F220F331F820F931FB8012C
S1131C608D54924F86D8E091D70DF091D80D9E896E
S1131C708689981710F0D092830DF7018081811125
S1131C80CFCF8091840D882391F08091840D882397
S1131C9071F0C1E0E9DE8111C093830D8091840D60
S1131CA081508093840D8091840D8111F3CF8091B4
S1131CB0830D813039F48DD981E005C080E003C003
S1131CC080E001C080E00F900FBEDF91CF911F91A3
S1131CD00F91FF90EF90DF900895CF93DF93EC0185
S1131CE0009791F0B1DE8091870D9091880DC80F17
S1131CF0D91F8091D70D9091D80D02968CD8CE0122
S1131D0049DD6DDF811101C064D9DF91CF91089560
S1131D108091800D882321F081E08093830D0895C4
S1131D201092830DA091D70DB091D80DE091D70DED
S1131D30F091D80D2D913C918789908D821793074E
S1131D4058F06091D70D7091D80D8091D70D909176
S1131D50D80D675E7F4F86D68091860D90E0FC019A
S1131D60EE0FFF1FEE0FFF1FEE0FFF1F8E0F9F1FC3
S1131D70FC01ED54F24F8081811117C08091860DD2
S1131D8081508093860D8091860D90E0FC01EE0FCA
S1131D90FF1FEE0FFF1FEE0FFF1F8E0F9F1FFC0193
S1131DA0ED54F24F8081882349F3E091860DF0E0F1
S1131DB0CF01880F991F880F991F880F991FE80F6B
S1131DC0F91FED54F24FA181B28112960D90BC918E
S1131DD0A02DB283A183CF010396A817B90731F4CC
S1131DE012968D919C911397928381830180F28145
S1131DF0E02D868197819093D80D8093D70D089517
S1131E00CF93DF93EB016091D70D7091D80D645F90
S1131E107F4F0E94DA068091D70D9091D80D0296DB
S1131E200E940B078091870D9091880D8C0F9D1F48
S1131E30B1DCDF91CF910895CF93DF93EB016091F3
S1131E40D70D7091D80D645F7F4F0E94B9068091C1
S1131E50D70D9091D80D02960E940B078091870DA3
S1131E609091880D8C0F9D1F95DCDF91CF91089583
S1131E700F931F93CF93DF93DC011596ED91FC91A3
S1131E801697C681D7818E01045F1F4FC8010E9437
S1131E900B078091800D81111CC00A501109C801E3
S1131EA00E940B078E899091860D981710F48093E9
S1131EB0860D90E09C01220F331F220F331F220F47
S1131EC0331F820F931FB8018D54924F0E94B9069D
S1131ED005C0B80184E99DE00E94B906E091D70DE0
S1131EE0F091D80D9E898689891720F481E080932A
S1131EF0830D01C080E0DF91CF911F910F91089570
S1131F002091820DFC0120832091870D3091880D52
S1131F103283218308950FB6F8940F922091870D90
S1131F203091880D4091820DDC015C91541739F099
S1131F3011964D915C91129724173507C0F4DC017A
S1131F401196ED91FC911297DB014D915C91D901B1
S1131F50AE1BBF0BA417B50760F4E21BF30B4E0FC7
S1131F605F1FFB0151834083CBDF80E003C081E02E
S1131F7001C081E00F900FBE089581E08093830D2E
S1131F8008958091850D882331F08091800D811111
S1131F9004C082E0089581E0089580E00895FC0182
S1131FA073836283918780874617570790F0421B9B
S1131FB0530B8485958548175907E0F4BF016E5F7C
S1131FC07F4F8091DD0D9091DE0D0E94DA0680E056
S1131FD008954217530718F46217730768F4BF0192
S1131FE06E5F7F4F8091DF0D9091E00D0E94DA06C5
S1131FF080E0089581E0089581E008950FB6F89493
S11320000F928091DB0D9091DC0D892BE1F48AEE27
S11320109DE00E94A70681EE9DE00E94A7068AEE3D
S11320209DE09093E00D8093DF0D81EE9DE0909311
S1132030DE0D8093DD0D40E065E08AE0BBD990932E
S1132040DC0D8093DB0D0F900FBE0895AF92BF920D
S1132050CF92DF92EF92FF920F93D0DF8091DB0D4E
S11320609091DC0D892B89F0A12CB12CC12CD12CA1
S1132070E12CF12C05E020E030E049EB50E06BE886
S113208072E080E091E1BBDB01C080E00F91FF9042
S1132090EF90DF90CF90BF90AF9008950F931F9370
S11320A0CF93DF9300D01F921F92CDB7DEB7D90133
S11320B0E091DB0DF091DC0D309749F169835B838E
S11320C04A839D838C836630D4F45BDF823059F479
S11320D020E0A801BE016F5F7F4F8091DB0D9091DE
S11320E0DC0D93D915C020E040E050E0BE016F5FE5
S11320F07F4F8091DB0D9091DC0D87D909C020E0E2
S1132100AD01BE016F5F7F4FCF0112DA01C080E0E5
S11321100F900F900F900F900F90DF91CF911F9120
S11321200F910895AF92BF92CF92DF92EF92FF92F8
S11321300F931F93CF93DF936C018CDC7C01809110
S1132140D90D9091DA0DE816F90608F047C02FC0B2
S11321500580F681E02DA080B180C681D7818E01F3
S11321600E5F1F4FC8010E940B07E989FA89CE014F
S113217019958E858130D9F48C859D858A0D9B1D9A
S1132180A816B90660F49B838A83D987C887B801E7
S11321908091DF0D9091E00D0E94DA0608C000E006
S11321A010E020E030E0A50160E0CE0177DFE091AF
S11321B0DF0DF091E00D80818111CACF8091DD0D9A
S11321C09091DE0D9093E00D8093DF0DF093DE0D82
S11321D0E093DD0D81E0F601808302C0F6011082F8
S11321E0F092DA0DE092D90DC701DF91CF911F91E2
S11321F00F91FF90EF90DF90CF90BF90AF90089534
S1132200CF93DF9300D000D0CDB7DEB7CE010196D7
S11322106C01812C912C682E7D2CE091DF0DF091C6
S1132220E00D8081882309F4B7C00580F681E02D94
S1132230E080F18009DCC60175DF8C0189818111A0
S113224043C00E151F0590F1CADCE091DF0DF0913B
S1132250E00D0580F681E02DA680B780C5010296C9
S11322600E940B07D5011E968C911E978130A1F414
S11322701C966D917C911D976E0D7F1D9701A80191
S1132280C5018DDE813041F4082D192D282D392DFD
S1132290A70160E0C50102DFD5015196ED91FC91E3
S11322A05297C50119956BC0E82CF92CB701601B36
S11322B0710B8091DB0D9091DC0D32DA90DC811191
S11322C05EC00E94E9075BC08ADC59C0898188230B
S11322D00CF455C0EC80FD80F70182859385892B31
S11322E021F0C70102960E940B07CE0106961ADF61
S11322F00981112707FD1095212F312F0A3011056F
S113230008F03DC0F801EA59FF4F0C94A21A2A8143
S11323103B81D7011C966D917C911D97620F731FB1
S1132320AC01C7013CDE813051F5D7015196ED91E6
S1132330FC915297C7011995F70186858130F9F40C
S1132340448555858A819B81480F591F082D192D75
S1132350282D392D60E0C701A1DE11C06A817B817F
S1132360D7011D967C936E931C97680F791F9C016F
S1132370AC01C70114DE03C0C7010E94F30820E0CA
S1132380482D592D662D772D8091DB0D9091DC0D14
S11323902BD981119BCF41CF57DBC601C3DE8C0102
S11323A08981882309F480CF8FCF8F3F19F481E08E
S11323B080935110089520E04FEF5FEF60E070E0EC
S11323C08091CE159091CF150FD9F5CF8F929F9212
S11323D0AF92BF92CF92DF92EF92FF920F931F932F
S11323E0CF93DF93CDB7DEB764970FB6F894DEBF13
S11323F00FBECDBF0F2EF4E6EF2EF12CF02D0F2ED5
S1132400F3E9CF2EF2E0DF2EF02D8E010F5F1F4F88
S11324100E948C03B82EA92E0E949403982E892E14
S11324200E949C039F938F938F929F92AF92BF922F
S1132430DF92CF921F930F930E94201CF80101900A
S11324400020E9F73197BF01601B710BC8010E949E
S1132450D40384E690E041DC81E0E81AF1080FB689
S1132460F894DEBF0FBECDBFE114F10489F6649683
S11324700FB6F894DEBF0FBECDBFDF91CF911F9191
S11324800F91FF90EF90DF90CF90BF90AF909F900F
S11324908F9008958F929F92AF92BF92CF92DF92C6
S11324A0EF92FF920F931F93CF93DF930E94B40395
S11324B081E00E948B020E94B403EC01CBDAC431A8
S11324C085E0D80708F049C0C12CD12CE12CF12CAF
S11324D084E190E002DC0E94B4038C01C80FD91F90
S11324E0BC0180E090E0ECD620E030E040EA51E42A
S11324F053D620E030E048EC52E470D7B5D64B0117
S11325005C01C616D70620F484E60E94690303C062
S113251084E60E949702F701EE0FFF1FEC5AFF4E6C
S113252080819181C817D90798F0F701EE0FFF1F3A
S1132530EA5AFF4EC080D180D701AA0FBB1FAC5A04
S1132540BF4E0D931C939182808282E0E80EF11CB1
S1132550C43185E0D80708F4BBCF80E00E948B0229
S113256080E00E94910280E00E94970280E00E9435
S11325708B02DF91CF911F910F91FF90EF90DF902D
S1132580CF90BF90AF909F908F900895EF92FF925D
S11325900F931F93CF93DF930E94B40381E00E94B3
S11325A08B020E94B403EC01CC3D85E0D80708F00F
S11325B045C000E010E0F801EE0FFF1FEC5AFF4E9B
S11325C080819181C817D90780F178018FEFE81ACB
S11325D0F80AF701EE0FFF1FEC5AFF4E808191813C
S11325E08536910560F480E00E949102F701EE0FB8
S11325F0FF1FEC5AFF4E80810E94970209C0845647
S11326000E94690381E00E94910280E00E94970287
S1132610F701EE0FFF1FEC5AFF4E808191819093DA
S11326205310809352100E5F1F4F0E94B403C80FC3
S1132630D91FCC3D85E0D80708F4BDCF80E00E94C7
S1132640910280E00E948B0280E00E949702DF9159
S1132650CF911F910F91FF90EF9008952F923F9289
S11326604F925F926F927F928F929F92AF92BF929E
S1132670CF92DF92EF92FF920F931F93CF93DF934A
S1132680CDB7DEB7AA970FB6F894DEBF0FBECDBFA5
S113269090915110992309F456C1482F50E0FA0142
S11326A0E154F109E133F10508F028C1E059FF4F85
S11326B049C780E00E948B0246C181E00E948B02E0
S11326C042C180E00E9491023EC181E00E949102D9
S11326D03AC180E00E94850236C181E00E948502F1
S11326E032C180E00E9497022EC181E40E949702C9
S11326F02AC180E00E94690326C184E60E9469031E
S113270022C10E948C03182F092F0E949403F82ED3
S1132710E92EA0D99093D9158093D8150E94A403CB
S1132720D82EC92E0E94AC03B82EA92E0E94B40341
S11327309F938F93AF92BF92CF92DF928091D915DE
S11327408F938091D8158F93EF92FF920F931F93DD
S11327508FE992E09F938F938E010F5F1F4F1F931A
S11327600F930E94201CF80101900020E9F7319793
S1132770BF01601B710BC8010E94D4030FB6F8940B
S1132780DEBF0FBECDBFDFC081E40E94970203EF1E
S11327901DE00F2EFBE5EF2EFEE1FF2EF02D0E9433
S11327A08C03F801918380830E949403F80193833E
S11327B0828350D9F801958384830E94A403F8018D
S11327C0978386830E94AC03F801918780870E94D7
S11327D0B403F8019387828782E390E07EDA045F92
S11327E01F4F0E151F05D9F681E00E94910280E06B
S11327F00E949702A8C003EF1DE00F2EFBE5AF2E49
S1132800FEE1BF2EF02D0F2EFFE9CF2EF2E0DF2EDA
S1132810F02DCE0101967C01F801F081F9A7F801B1
S1132820F181FAA7F8019280838084819581909345
S1132830D9158093D815768067805084418432847A
S1132840238486E990E049DA2F923F924F925F9277
S11328506F927F928091D9158F938091D8158F9321
S11328608F929F92FAA5FF9389A58F93DF92CF92BF
S1132870FF92EF92E5D7F70101900020E9F7319735
S1132880BF016E197F09C7010E94D403045F1F4F63
S11328900FB6F894DEBF0FBECDBF0A151B0509F0B5
S11328A0BBCF80E00E9491024EC090DD4CC0D2D8D4
S11328B08093D8159093D9159F938F9388EB92E0CA
S11328C09F938F938E010F5F1F4F1F930F93B8D762
S11328D0F80101900020E9F73197BF01601B710BEB
S11328E0C8010E94D4030F900F900F900F900F9087
S11328F00F9029C04BDE27C0CDDD25C0909150102C
S1132900E92FF0E0E55BFF4E80839F5F90935010CA
S11329108132C9F400915210109153108BE490E16C
S113292061D7F801EE0FFF1FEC5AFF4E91838083AD
S1132930809152109091531001969093531080936C
S1132940521010925010AA960FB6F894DEBF0FBE24
S1132950CDBFDF91CF911F910F91FF90EF90DF904A
S1132960CF90BF90AF909F908F907F906F905F902B
S11329704F903F902F900895CF93DF931F92CDB740
S1132980DEB743E060E081E00E94DA099093CF155E
S11329908093CE1540E061E08EE10E94DA099093C5
S11329A0CD158093CC158091CE159091CF150097BD
S11329B011F00E94F00388EE93E08FD980E00E942A
S11329C0CE0388EE93E089D96091CC157091CD1532
S11329D085ED91E10E94DD03A12CB12CC12CD12CF9
S11329E0E12CF12C01E020E030E049EB50E06BEB0E
S11329F072E08BED91E10E94FF0B20E04FEF5FEF5F
S1132A00BE016F5F7F4F8091CC159091CD150E94D0
S1132A10F40A898123DEF1CFAF92BF92CF92DF9285
S1132A20EF92FF920F930E94BA02A12CB12CC12CF9
S1132A30D12CE12CF12C00E020E030E049EB50E017
S1132A4065EC72E08CEB94E10E94FF0B0E94F80CA1
S1132A5080E090E00F91FF90EF90DF90CF90BF90D7
S1132A60AF90089508954F925F926F927F928F92E4
S1132A709F92AF92BF92CF92DF92FF920F931F93D8
S1132A80CF93DF93CDB7DEB7F82E2A013B0188E060
S1132A9090E081D58C018F2D90E0880F991FFC0167
S1132AA0E053FA4E11830083FC01E55BFD4F808106
S1132AB09181D80111969C938E931396BC92AE92F9
S1132AC012971596DC92CE92149717969C928E923A
S1132AD01697FFB6F894D801ED91FC9111973697AB
S1132AE0808182608083CD90DC90440C551C661CF0
S1132AF0771C440C551C661C771CA3019201220F01
S1132B00331F441F551F60E074E284EF90E0DCD46F
S1132B102150F60132972083D801ED91FC91119751
S1132B20359788E98083ED91FC91349786E0808322
S1132B30FFBEC801DF91CF911F910F91FF90DF90ED
S1132B40CF90BF90AF909F908F907F906F905F9049
S1132B504F900895EF92FF920F931F93CF93DF93BB
S1132B608C01E42EDC011296ED91FC9113973097C1
S1132B7069F0242F30E042A588E290E0841B91099B
S1132B8082179307E4F0E11005C010C0B1E0B41758
S1132B90C0F0F9CFC62FD72FF12C6991F8018281AB
S1132BA093810E948004F394FE10F7CFD801ED9135
S1132BB0FC91359780818062808380E003C082E04D
S1132BC001C082E0DF91CF911F910F91FF90EF90B0
S1132BD008951F920F920FB60F9211240BB60F9205
S1132BE02F933F934F935F936F937F938F939F9311
S1132BF0AF93BF93CF93EF93FF93E091D015F091F0
S1132C00D1153097A1F0C091C6006C2F84819581B5
S1132C100E9480048091D0159091D115DC01169604
S1132C20ED91FC911797309711F06C2F1995FF9146
S1132C30EF91CF91BF91AF919F918F917F916F91C0
S1132C405F914F913F912F910F900BBE0F900FBE4C
S1132C500F901F9018951F920F920FB60F92112488
S1132C600BB60F922F933F934F935F936F937F9382
S1132C708F939F93AF93BF93EF93FF93CF93DF9380
S1132C801F92CDB7DEB7E091D015F091D1153097F2
S1132C9099F0BE016F5F7F4F828193810E94660429
S1132CA0811104C089818093C6000BC0E1ECF0E07F
S1132CB080818F7D808305C0E1ECF0E080818F7D91
S1132CC080830F90DF91CF91FF91EF91BF91AF91EE
S1132CD09F918F917F916F915F914F913F912F9130
S1132CE00F900BBE0F900FBE0F901F9018951F9260
S1132CF00F920FB60F9211240BB60F922F933F939E
S1132D004F935F936F937F938F939F93AF93BF93EF
S1132D10CF93EF93FF93E091D215F091D3153097B1
S1132D20A1F0C091CE006C2F848195810E94800413
S1132D308091D2159091D315DC011696ED91FC91FA
S1132D401797309711F06C2F1995FF91EF91CF9150
S1132D50BF91AF919F918F917F916F915F914F91AF
S1132D603F912F910F900BBE0F900FBE0F901F90AD
S1132D7018951F920F920FB60F9211240BB60F9253
S1132D802F933F934F935F936F937F938F939F936F
S1132D90AF93BF93EF93FF93CF93DF931F92CDB77E
S1132DA0DEB7E091D215F091D315309799F0BE01BA
S1132DB06F5F7F4F828193810E946604811104C0FA
S1132DC089818093CE000BC0E9ECF0E080818F7D97
S1132DD0808305C0E9ECF0E080818F7D80830F90D3
S1132DE0DF91CF91FF91EF91BF91AF919F918F911F
S1132DF07F916F915F914F913F912F910F900BBEF7
S1132E000F900FBE0F901F901895E091D515F0917B
S1132E10D615309701F12381213079F4A081B18155
S1132E204C9121E030E0028002C0220F331F0A944B
S1132E30E2F7209524232C930EC0A081B1816C91DC
S1132E4041E050E09A01028002C0220F331F0A942D
S1132E50E2F7262B2C939093D6158093D5150097E3
S1132E6069F01092D7152CB52F732CBDFC01248169
S1132E702CBD85818DBD8CB580648CBD08956F9209
S1132E807F928F929F92AF92BF92CF92DF92EF92F6
S1132E90FF920F931F93CF93DF93CDB7DEB7D82E56
S1132EA0F62E642E722E8091D415811106C084B141
S1132EB0876084B981E08093D4158CE090E06BD373
S1132EC0FC0100831183E282A02FB12F4E9121E0F7
S1132ED030E0C90102C0880F991FEA94E2F7842BFD
S1132EE08C93C382660C660C7628AF2DBB27A7FD96
S1132EF0B095AF52BD4F6C90D628D728D48283E0CA
S1132F008F1514F481E0858397828682B186A0862A
S1132F108A899B89938782876FB7F8948091D515A6
S1132F209091D615F093D615E093D51523812130D1
S1132F3081F4A081B1817C9141E050E09A0102804A
S1132F4002C0220F331F0A94E2F7209527232C9303
S1132F500EC0A081B1817C9141E050E09A010280D1
S1132F6002C0220F331F0A94E2F7272B2C9390936D
S1132F70D6158093D5156FBFCF01DF91CF911F91E7
S1132F800F91FF90EF90DF90CF90BF90AF909F9004
S1132F908F907F906F900895DF92EF92FF920F933E
S1132FA01F93CF93DF93EC018B01F42E009709F468
S1132FB06BC08091D5159091D6158C179D0711F093
S1132FC0CE0123DFEFB6F894EE81FF81309761F0F4
S1132FD02F2D30E042A588E290E0841B91098217EE
S1132FE093070CF448C004C081E08F1508F445C071
S1132FF08091D715811130C081E08093D715E0917D
S1133000D515F091D6158381813079F4A081B181F1
S11330104C9121E030E0C901028002C0880F991F61
S11330200A94E2F7842B8C930EC0A081B1812C9179
S113303081E090E0028002C0880F991F0A94E2F7B1
S1133040809582238C938CB580688CBDF801808137
S11330508EBDDD24D39401C0D12CDF1480F4F8019B
S1133060ED0DF11D60818E819F810E948004D394B7
S1133070DF14A8F306C081E005C081E003C080E04E
S113308001C080E0EFBE01C083E0DF91CF911F91CA
S11330900F91FF90EF90DF9008951F920F920FB65B
S11330A00F9211240BB60F922F933F934F935F937C
S11330B06F937F938F939F93AF93BF93EF93FF93FC
S11330C0CF93DF931F92CDB7DEB7E091D515F09182
S11330D0D61580859185009719F06EB50E948004FD
S11330E0E091D515F091D615BE016F5F7F4F8681B3
S11330F097810E946604811103C089818EBD29C015
S11331008CB58F778CBD1092D715E091D515F091C1
S1133110D6158381813079F4A081B1812C9181E02D
S113312090E0028002C0880F991F0A94E2F780950C
S113313082238C930EC0A081B1814C9121E030E0B8
S1133140C901028002C0880F991F0A94E2F7842BF8
S11331508C938091D5159091D615DC011A96ED913A
S1133160FC911B97309711F0698119950F90DF91AD
S1133170CF91FF91EF91BF91AF919F918F917F91EB
S11331806F915F914F913F912F910F900BBE0F90D4
S11331900FBE0F901F9018950CD0E6C0DED040F003
S11331A0D5D030F021F45F3F19F0C7C0511110C1E0
S11331B0CAC0EBD098F39923C9F35523B1F3951BF7
S11331C0550BBB27AA2762177307840738F09F5F44
S11331D05F4F220F331F441FAA1FA9F333D00E2EB3
S11331E03AF0E0E830D091505040E695001CCAF720
S11331F029D0FE2F27D0660F771F881FBB1F2617E5
S113320037074807AB07B0E809F0BB0B802DBF01B7
S1133210FF2793585F4F2AF09E3F510568F08DC0F9
S1133220D7C05F3FECF3983EDCF3869577956795BE
S1133230B795F7959F5FC9F7880F911D9695879568
S113324097F90895E1E0660F771F881FBB1F621787
S113325073078407BA0720F0621B730B840BBA0B45
S1133260EE1F88F7E095089598D088F09F5790F066
S1133270B92F9927B751A0F0D1F0660F771F881F97
S1133280991F1AF0BA95C9F712C0B13081F09FD0D6
S1133290B1E008959CC0672F782F8827B85F39F074
S11332A0B93FCCF3869577956795B395D9F73EF4F6
S11332B090958095709561957F4F8F4F9F4F08959E
S11332C0E89409C097FB3EF49095809570956195BC
S11332D07F4F8F4F9F4F9923A9F0F92F96E9BB2772
S11332E09395F695879577956795B795F111F8CFEE
S11332F0FAF4BB0F11F460FF1BC06F5F7F4F8F4F59
S11333009F4F16C0882311F096E911C0772321F04E
S11333109EE8872F762F05C0662371F096E8862FE6
S113332070E060E02AF09A95660F771F881FDAF73D
S1133330880F9695879597F9089597F99F6780E880
S113334070E060E008959FEF80EC089500240A94F3
S11333501616170618060906089500240A9412166C
S11333601306140605060895092E0394000C11F49F
S1133370882352F0BB0F40F4BF2B11F460FF04C04C
S11333806F5F7F4F8F4F9F4F089557FD9058440FA5
S1133390551F59F05F3F71F04795880F97FB991FB0
S11333A061F09F3F79F0879508951216130614066D
S11333B0551FF2CF4695F1DF08C0161617061806FA
S11333C0991FF1CF86957105610508940895E894D5
S11333D0BB2766277727CB0197F908950BD0C4CF75
S11333E0B5DF28F0BADF18F0952309F0A6CFABCFEC
S11333F01124EECFCADFA0F3959FD1F3950F50E0CF
S1133400551F629FF001729FBB27F00DB11D639F92
S1133410AA27F00DB11DAA1F649F6627B00DA11D38
S1133420661F829F2227B00DA11D621F739FB00DDE
S1133430A11D621F839FA00D611D221F749F33274E
S1133440A00D611D231F849F600D211D822F762FE7
S11334506A2F11249F5750408AF0E1F088234AF0E4
S1133460EE0FFF1FBB1F661F771F881F9150504030
S1133470A9F79E3F510570F060CFAACF5F3FECF3F0
S1133480983EDCF3869577956795B795F795E7951C
S11334909F5FC1F7FE2B880F911D9695879597F92D
S11334A0089597FB072E16F4009406D077FD08D0F4
S11334B05ED007FC05D03EF4909581959F4F08950A
S11334C0709561957F4F0895A1E21A2EAA1BBB1B2C
S11334D0FD010DC0AA1FBB1FEE1FFF1FA217B307DC
S11334E0E407F50720F0A21BB30BE40BF50B661FF2
S11334F0771F881F991F1A9469F7609570958095B6
S113350090959B01AC01BD01CF010895052E97FB59
S113351016F400940FD057FD05D0D6DF07FC02D077
S113352046F408C050954095309521953F4F4F4F34
S11335305F4F089590958095709561957F4F8F4F5B
S11335409F4F0895EE0FFF1F0590F491E02D1994FD
S1133550A29FB001B39FC001A39F700D811D1124D0
S1133560911DB29F700D811D1124911D0895AA1BF8
S1133570BB1B51E107C0AA1FBB1FA617B70710F05A
S1133580A61BB70B881F991F5A95A9F7809590958C
S1133590BC01CD010895CF93DF938230910510F4DF
S11335A082E090E0E091DC15F091DD1520E030E060
S11335B0A0E0B0E0309739F14081518148175907B4
S11335C0B8F04817590771F482819381109729F054
S11335D013969C938E9312972CC09093DD15809331
S11335E0DC1527C02115310531F04217530718F0B7
S11335F0A901DB0101C0EF019A01BD01DF010280D5
S1133600F381E02DD7CF21153105F9F0281B390BB3
S11336102430310580F48A819B816115710521F084
S1133620FB019383828304C09093DD158093DC15A2
S1133630FE01329644C0FE01E20FF31F8193919381
S113364022503109398328833AC02091DA15309108
S1133650DB15232B41F420910202309103023093B5
S1133660DB152093DA152091000230910102211517
S1133670310541F42DB73EB7409104025091050243
S1133680241B350BE091DA15F091DB15E217F307F3
S1133690A0F42E1B3F0B2817390778F0AC014E5FBE
S11336A05F4F2417350748F04E0F5F1F5093DB150B
S11336B04093DA158193919302C0E0E0F0E0CF01EA
S11336C0DF91CF910895CF93DF93009709F487C0DA
S11336D0FC01329713821282C091DC15D091DD1562
S11336E0209781F420813181280F391F8091DA15C8
S11336F09091DB158217930779F5F093DB15E0932E
S1133700DA156DC0DE0120E030E0AE17BF0750F4DB
S113371012964D915C9113979D014115510509F144
S1133720DA01F3CFB383A28340815181840F951FC3
S11337308A179B0771F48D919C911197840F951FA3
S113374002969183808312968D919C911397938313
S113375082832115310529F4F093DD15E093DC15FE
S11337603EC0D9011396FC93EE9312974D915D914F
S1133770A40FB51FEA17FB0779F480819181840FA8
S1133780951F0296D90111969C938E938281938101
S113379013969C938E931297E0E0F0E08A819B81CC
S11337A0009719F0FE01EC01F9CFCE0102962881B1
S11337B03981820F931F2091DA153091DB15281778
S11337C0390769F4309729F41092DD151092DC154D
S11337D002C013821282D093DB15C093DA15DF91F5
S11337E0CF910895FC0188279927E89421912032EC
S11337F0E9F3293010F02E30C8F32B3239F02D3292
S113380031F4689403C014D0820F911D2191205388
S11338102A30C8F31EF4909581959F4F0895FB01BB
S1133820DC0102C001900D9241505040D8F7089538
S11338307AE0979F902D879F802D910D11240895F4
S11338400F931F93CF93DF93CDB7DEB72E970FB6A9
S1133850F894DEBF0FBECDBF0E891F8986E08C832E
S11338601A8309838FEF9FE79E838D83AE01465EA3
S11338705F4F688D798DCE01019610D0EF81F88568
S1133880E00FF11F10822E960FB6F894DEBF0FBE24
S1133890CDBFDF91CF911F910F9108952F923F9249
S11338A04F925F926F927F928F929F92AF92BF924C
S11338B0CF92DF92EF92FF920F931F93CF93DF93F8
S11338C0CDB7DEB72C970FB6F894DEBF0FBECDBFD1
S11338D07C016B018A01FC0117821682838181FFBE
S11338E0B0C1CE0101964C01F7019381F60193FD1D
S11338F0859193FF81916F01882309F49EC18532DC
S113390039F493FD859193FF81916F01853221F400
S1133910B70190E0C7D1E8CF512C312C20E0203200
S1133920A0F48B3269F030F4803259F0833269F4B8
S113393020612CC08D3239F0803339F4216026C0E7
S11339402260246023C0286021C027FD27C030EDF9
S1133950380F3A3078F426FF06C0FAE05F9E300D47
S11339601124532E13C08AE0389E300D1124332EB7
S113397020620CC08E3221F426FD5FC1206406C093
S11339808C3611F4206802C0883641F4F60193FDA8
S1133990859193FF81916F018111C1CF982F9F7DF4
S11339A09554933028F40C5F1F4FFFE3F9830DC047
S11339B0833631F0833771F0833509F057C021C065
S11339C0F801808189830E5F1F4F44244394512C56
S11339D0540114C03801F2E06F0E711CF801A0808C
S11339E0B18026FF03C0652D70E002C06FEF7FEF4A
S11339F0C5012C874CD12C0183012C852F77222ED5
S1133A0016C03801F2E06F0E711CF801A080B1807D
S1133A1026FF03C0652D70E002C06FEF7FEFC50184
S1133A202C872AD12C012C852068222E830123FC8B
S1133A3019C0832D90E048165906A0F4B70180E21E
S1133A4090E030D13A94F5CFF50127FC859127FE1B
S1133A5081915F01B70190E025D131103A94F1E0F2
S1133A604F1A51084114510479F7DEC0843611F01D
S1133A70893631F5F80127FF07C0608171818281A1
S1133A8093810C5F1F4F08C060817181882777FD87
S1133A908095982F0E5F1F4F2F76B22E97FF09C087
S1133AA090958095709561957F4F8F4F9F4F2068BB
S1133AB0B22E2AE030E0A40127D1A82EA81843C0D2
S1133AC0853729F42F7EB22E2AE030E025C0F22F6C
S1133AD0F97FBF2E8F36C1F018F4883579F0ADC068
S1133AE0803719F0883721F0A8C02F2F2061B22E1B
S1133AF0B4FE0DC08B2D8460B82E09C024FF0AC00B
S1133B009F2F9660B92E06C028E030E005C020E162
S1133B1030E002C020E132E0F801B7FE07C0608166
S1133B207181828193810C5F1F4F06C06081718116
S1133B3080E090E00E5F1F4FA401E6D0A82EA818E5
S1133B40FB2DFF77BF2EB6FE0BC02B2D2E7FA514A9
S1133B5050F4B4FE0AC0B2FC08C02B2D2E7E05C062
S1133B607A2C2B2D03C07A2C01C0752C24FF0DC098
S1133B70FE01EA0DF11D8081803311F4297E09C014
S1133B8022FF06C07394739404C0822F867809F0D0
S1133B90739423FD12C020FF06C05A2C731418F42A
S1133BA0530C5718732C731460F4B70180E290E03F
S1133BB02C8778D073942C85F6CF731410F43718AF
S1133BC001C0312C24FF11C0B70180E390E02C87A1
S1133BD069D02C8522FF16C021FF03C088E590E040
S1133BE002C088E790E0B7010CC0822F867851F0BC
S1133BF021FD02C080E201C08BE227FD8DE2B70106
S1133C0090E050D0A51430F4B70180E390E04AD09E
S1133C105A94F8CFAA94F401EA0DF11D8081B701FA
S1133C2090E040D0A110F6CF332009F45DCEB70167
S1133C3080E290E037D03A94F7CFF70186819781FC
S1133C4002C08FEF9FEF2C960FB6F894DEBF0FBE25
S1133C50CDBFDF91CF911F910F91FF90EF90DF9037
S1133C60CF90BF90AF909F908F907F906F905F9018
S1133C704F903F902F900895FC0105906150704043
S1133C800110D8F7809590958E0F9F1F0895FC0121
S1133C906150704001900110D8F7809590958E0F77
S1133CA09F1F08950F931F93CF93DF93182F092F0E
S1133CB0EB018B8181FD03C08FEF9FEF20C082FF5A
S1133CC010C04E815F812C813D81421753077CF4E3
S1133CD0E881F9819F012F5F3F4F39832883108347
S1133CE006C0E885F985812F1995892B29F72E813E
S1133CF03F812F5F3F4F3F832E83812F902FDF9192
S1133D00CF911F910F910895FA01AA27283051F1FC
S1133D10203181F1E8946F936E7F6E5F7F4F8F4FF8
S1133D209F4FAF4FB1E03ED0B4E03CD0670F781F57
S1133D30891F9A1FA11D680F791F8A1F911DA11D3C
S1133D406A0F711D811D911DA11D20D009F4689475
S1133D503F912AE0269F11243019305D3193DEF61D
S1133D60CF010895462F4770405D4193B3E00FD0D3
S1133D70C9F7F6CF462F4F70405D4A3318F0495DBE
S1133D8031FD4052419302D0A9F7EACFB4E0A695A1
S1133D909795879577956795BA95C9F700976105C3
S1133DA0710508959B01AC010A2E06945795479519
S1133DB037952795BA95C9F7620F731F841F951F0E
S10B3DC0A01D0895F894FFCF43
S1133DC80000DE1520000A0000004F020501010171
S1133DD800005502035902050A02FE00005F0205AD
S1133DE86502050A03FE00006B020B6502050A045E
S1133DF8FE00007702047C02090A05FE00000000A8
S1133E08004F02050AFFFF0000FFFFC600CE004472
S1133E18554D4D590024242400434D440D0A0053A4
S1133E28412C310D00414F4B0D0A00532D2C56499E
S1133E38422D4361720D00522C310D005265626FA0
S1133E486F74210D0A0049444C4500546D72205387
S1133E58766300253464202534642025346400788E
S1133E68253464792534647A25346472253464717C
S1133E7825346474253464002564004A75737441D8
S1133E885461736B00537461727475705461736B0D
S10B3E98000001020300010215
S9030000FC
