S01000004669726D776172652E73726563D7
S1130000DCC00000F6C30000F9C00000F7C0000027
S1130010F5C00000F3C00000F1C00000EFC0000014
S1130020EDC00000EBC00000E9C00000E7C0000024
S1130030E5C0000013C40000E1C00000DFC0000000
S1130040DDC00000DBC00000D9C00000D7C0000044
S1130050D5C000000C94C008D1C00000CFC000007F
S11300600C946A190C9406170C944817C7C0000026
S1130070C5C00000C3C00000C1C00000BFC0000074
S1130080BDC00000BBC00000B9C00000B7C0000084
S11300900C9494170C94D617B1C00000AFC00000A4
S11300A0ADC00000ABC00000A9C00000A7C00000A4
S11300B0A5C00000A3C00000A1C000009FC00000B4
S11300C09DC000009BC0000099C00000A612A612AB
S11300D0A612DE12CD12DB12A612A612DE12CD1269
S11300E0E914F114F914011509150D158F158F155F
S11300F08F158F158F154F158F158F158F158F151C
S11301008F15611580158F158F158F158F158F1508
S11301108F158F158F158F158F158F158F158F15BB
S1130120E514ED14F514FD1405158F158F158F15B1
S11301308F158F158F158F158F158F158F158F159B
S11301408F158F1587150F2EF7EDEF2EFDE0FF2E7F
S1130150F02DCFEADDE027C00E94950D18810E94A2
S1130160600E112301F10FB6F8940F92E091B40DD3
S1130170F091B50D06811781C80102964ED6809183
S1130180AD0D81508093AD0D8091AE0D8150809363
S1130190AE0D0F900FBEF8018789908D0E94F5086F
S11301A0C8010E94F5088091AE0D8111D5CFF701E9
S11301B080818230C0F30FD7F6CF11241FBECFEF5A
S11301C0D1E2DEBFCDBF00E00CBF12E0A0E0B2E0A0
S11301D0E8EFFCE300E00BBF02C007900D92AC3FD8
S11301E0B107D9F72DE1ACEFB2E001C01D92AB3DF0
S11301F0B207E1F70E9429160C947A1E01CF1092DF
S11302005C03E0915A03F0915B03309709F0199570
S11302100895CF93DF931F921F92CDB7DEB76A8301
S113022080915C03882319F0862FA0D413C0809199
S1130230580390915903009769F0198220E0AE01A8
S11302404F5F5F4FBE016E5F7F4F0E94AE0A898190
S11302508111C1D60F900F90DF91CF910895DF9255
S1130260EF92FF920F931F93CF93DF93CDB7DEB737
S1130270D62EEDB6FEB6262F30E02F5F3F4F4DB79A
S11302805EB7421B530B0FB6F8945EBF0FBE4DBF53
S11302900DB71EB70F5F1F4F98018068EDB7FEB70B
S11302A08183662341F081E0F901E80FF11D10829A
S11302B08F5FD816C8F784E993E03DD341E04D0D34
S11302C0B8018091C1039091C2030E94E9180FB64E
S11302D0F894FEBE0FBEEDBEDF91CF911F910F913A
S11302E0FF90EF90DF900895462FBC018091BF03EB
S11302F09091C0030C94C71608951F93CF93DF9376
S113030000D01F92CDB7DEB78091FF028230C1F1D9
S113031028F4882351F08130C9F0F1C0833009F406
S11303203FC0853009F494C0EAC081E08093FF02A5
S11303308CE18B831C8242E0BE016D5F7F4F809114
S1130340C1039091C2030E94E918D9C084E993E0E3
S1130350EFD2823009F0D3C08093FF0284E993E0A6
S1130360EAD28BE18B8388E08C8342E0BE016D5F2F
S11303707F4F8091C1039091C2030E94E918BFC0CE
S113038084E993E0D5D2823009F0B9C083E0809348
S1130390FF0284E993E0CFD266E08BE360DFAFC075
S11303A084E993E0C5D2873009F0A9C01FB7F89457
S11303B0BE016F5F7F4F84E993E08AD2BE016E5F16
S11303C07F4F84E993E084D2BE016F5F7F4F84E95D
S11303D093E07ED28A8190E0982F88272981822B0E
S11303E09093680380936703BE016E5F7F4F84E937
S11303F093E06ED2BE016F5F7F4F84E993E068D2D1
S11304008A8190E0982F88272981822B9093660314
S113041080936503BE016E5F7F4F84E993E058D2F9
S1130420BE016F5F7F4F84E993E052D21FBF8A8180
S113043090E0982F88272981822B909364038093DE
S1130440630385E08093FF0266E083E408DF57C01E
S113045084E993E06DD2873009F051C01FB7F89456
S1130460BE016F5F7F4F84E993E032D2BE016E5FBD
S11304707F4F84E993E02CD2BE016F5F7F4F84E904
S113048093E026D28A8190E0982F88272981822BB5
S11304909093620380936103BE016E5F7F4F84E992
S11304A093E016D2BE016F5F7F4F84E993E010D2D0
S11304B08A8190E0982F88272981822B909360036A
S11304C080935F03BE016E5F7F4F84E993E000D2A7
S11304D0BE016F5F7F4F84E993E0FAD11FBF8A8129
S11304E090E0982F88272981822B90935E03809334
S11304F05D0383E08093FF0266E08BE3B0DE0F9040
S11305000F900F900F90DF91CF911F910895882342
S113051011F0439A089543980895882311F0429A5C
S1130520089542980895882311F0419A08954198B6
S11305300895853608F084E68823A9F0282F30E052
S1130540AFE7BCE00E94401A24E630E040E050E00F
S11305500E941E1A309399002093980030939B00B8
S113056020939A0008951092990010929800109286
S11305709B0010929A0008958F929F92AF92BF921F
S1130580CF92DF92EF920F931F933B9A3A9A399A44
S1130590389AE0E9F0E0808182608083A1E9B0E0EC
S11305A08C9188618C938FE79CE090939900809361
S11305B098002081206C20836B9A90939B008093F9
S11305C09A002081206320836C9A909397008093F3
S11305D096008C9181608C9380E0ABDFE1E8F0E0E1
S11305E08081866080836A986D9A7598089A1098BD
S11305F0099A11980A9A1298E9E6F0E080818260DB
S11306008083E89A8BE293E05ED180E093E05BD153
S11306100F2EF9E08F2EF1E09F2EF02D0F2EF0E03B
S1130620AF2EF3E0BF2EF02D0F2EFBE2CF2EF3E022
S1130630DF2EF02DE12C00E023E040E855E260E0FD
S113064070E080E00E9450169093C0038093BF0333
S113065084E993E038D189E693E035D18DE791E0E0
S11306609F938F930F2EF9E68F2EF3E09F2EF02D9C
S11306700F2EF4E9AF2EF3E0BF2EF02DC12C05E2CE
S113068010E020E043E063E080E10E945C18909376
S1130690C2038093C10360E080E090E02EDE8BE92A
S11306A08093B300E1EBF0E0808182608083A0E777
S11306B0B0E08C9182608C938081856080830F9000
S11306C00F901F910F91EF90DF90CF90BF90AF905C
S11306D09F908F900895853608F084E68823A9F0CA
S11306E0282F30E0AFE7BCE00E94401A24E630E057
S11306F040E050E00E941E1A309399002093980025
S113070010929B0010929A000895109299001092F2
S1130710980010929B0010929A0008952FB7F894B5
S113072080916703909168032FBF08952FB7F894C1
S113073080916503909166032FBF08952FB7F894B5
S113074080916103909162032FBF08952FB7F894AD
S113075080915F03909160032FBF08952FB7F894A1
S113076080915D0390915E032FBF089520918400D2
S1130770309185008091FD029091FE02281739077F
S113078030F4A901481B590BCA01019704C0A901FF
S1130790481B590BCA013093FE022093FD020895B1
S11307A0882311F010980895109A0895462FBC01DB
S11307B08091BF039091C0030C94C7160895709361
S11307C059036093580390935B0380935A0381E029
S11307D080935C034FEF50E064E771E087E092E0C0
S11307E09DC10895009721F0909357038093560379
S11307F008951F920F920FB60F9211240BB60F9209
S11308002F933F934F935F936F937F938F939F9314
S1130810AF93BF93EF93FF93809156039091570347
S1130820009749F01092FC026CEF72E0C9D68091F7
S1130830FC028111D0D3FF91EF91BF91AF919F91B1
S11308408F917F916F915F914F913F912F910F9075
S11308500BBE0F900FBE0F901F9018951F920F9212
S11308600FB60F9211240BB60F922F933F934F9311
S11308705F936F937F938F939F93AF93BF93EF9304
S1130880FF9380915C03882359F080910602815084
S113089019F08093060204C08AE0809306024FD1C7
S11308A0FF91EF91BF91AF919F918F917F916F9144
S11308B05F914F913F912F910F900BBE0F900FBE00
S11308C00F901F901895FC0110A611A612A608956A
S11308D0FC0182A58823A1F081A5DF01A80FB11D29
S11308E08C91DB018C9381A590E0019668E270E025
S11308F00E94E91981A782A5815082A780E008950A
S113090081E00895FC0122A5283280F480A590E0BE
S1130910DF01A80FB91F6C93019668E270E00E9492
S1130920E91980A72F5F22A780E0089582E0089547
S1130930FC0182A50895FC0110A611A612A6089533
S1130940E091D003F091D1038081853209F085C014
S1130950CF0101969093D1038093D0038181853296
S113096019F41092C70308958A32E1F5CF01029673
S11309709093D1038093D003339620E0DC01019659
S1130980220F322F330F330F230F20533C91230FA9
S11309903191323499F72093D2031296B093D10354
S11309A0A093D0038091D4039091D5030097B1F024
S11309B0E3EDF3E020812F5F2083332727FD30957B
S11309C0F901EE0FFF1FE20FF31FE80FF91F128268
S11309D0808191819093D7038093D60382E08093A2
S11309E0C70308958091D0039091D103DC0111963F
S11309F020E0FC010196220F322F330F330F230F17
S1130A0020533081230F3D91323499F72093D20340
S1130A103296F093D103E093D0038091D403909164
S1130A20D5030097B1F0A3EDB3E0EC91EF5FEC9345
S1130A30FF27E7FDF0959F01220F331FE20FF31FFD
S1130A40E80FF91F1282808191819093D7038093DC
S1130A50D60381E08093C70308951092C7030895D5
S1130A60CF93DF931092CB038093CA0392E0980F45
S1130A70923030F4E091C303F091C40319954BC054
S1130A809BE0899FE0011124A091C803B091C903A0
S1130A90AC0FBD1F12966C911297662339F0E0914A
S1130AA0C503F091C6038D919C9119958091C8035B
S1130AB09091C903C80FD91F2D81222351F18B8135
S1130AC09C819093CD038093CC039093D103809326
S1130AD0D003E985FA85F093D503E093D4033FEF7F
S1130AE03093D303309731F0408151815093D70331
S1130AF04093D60330E021503109820F931F909325
S1130B00CF038093CE031CDF8E818F5F8093CB0352
S1130B1002C08F81A5DFDF91CF9108959093C9031F
S1130B208093C8037093C6036093C5035093C403B2
S1130B304093C3031092CA0380E092CF089580913A
S1130B40CB03882391F081508093CB0381110DC096
S1130B508091CA03E091C803F091C9039BE0899F87
S1130B60E00DF11D112480857BCF08956F927F9253
S1130B708F929F92AF92BF92CF92DF92EF92FF92A9
S1130B800F931F93CF93DF93982E8091C7038130E7
S1130B9009F442C020F0823009F470C0AFC0812C47
S1130BA0C0EDD3E00F2EFCECCF2EF3E0DF2EF02DC2
S1130BB00F2EF3EDEF2EF3E0FF2EF02D04ED13E0F6
S1130BC077247394612C0F2EF6EDAF2EF3E0BF2E35
S1130BD0F02DE881F9819F012F5F3F4F39832883EE
S1130BE080818915A9F0D6018D919C919983888380
S1130BF0F7011082D801ED91FC91309729F08081A2
S1130C009181F50191838083872D8110862D882E13
S1130C1097DE8110DECF72C02091D4033091D503CA
S1130C202115310511F1A6EDB3E0ED91FC91119779
S1130C30CF0101968D939C939082E091D303FF277B
S1130C40E7FDF095CF01880F991FE80FF91FE20F18
S1130C50F31F82818F5F8283E2EDF3E08081815014
S1130C60808381114BC06CDE49C0E2EDF3E08081EA
S1130C7081508083811142C063DE40C0E091D00383
S1130C80F091D1038081891551F18091D403909121
S1130C90D503009709F44EC0A6EDB3E0ED91FC91A5
S1130CA011979F012F5F3F4F2D933C93908220918A
S1130CB0D303332727FD3095F901EE0FFF1FE20F11
S1130CC0F31FE80FF91F82818F5F8283E2EDF3E067
S1130CD0808181508083811111C032DE0FC0A2ED6A
S1130CE0B3E08C9181508C93811102C029DE06C03F
S1130CF03196F093D103E093D00322DE8091C703B1
S1130D00811118C02091D0033091D1038091CE037A
S1130D109091CF038217930768F48091CA03E091FE
S1130D20C803F091C9039BE0899FE00DF11D1124D4
S1130D30878196DEDF91CF911F910F91FF90EF9005
S1130D40DF90CF90BF90AF909F908F907F906F90E7
S1130D500895FC010396928381832FEF3FEF348340
S1130D602383968385839087878310820895FC016B
S1130D70118610860895CF93DF939C01FB01DC015B
S1130D801196CD91DC911297D383C2838C819D817E
S1130D90958384838C819D81DC0113967C936E936F
S1130DA012977D836C8331872087F90180818F5F5F
S1130DB08083DF91CF910895CF93DF93EB01488136
S1130DC059814F3F2FEF520721F4FC01A781B085D1
S1130DD00DC0DC0113961296ED91FC9113972081BE
S1130DE031814217530710F0DF01F5CF1296ED91D0
S1130DF0FC911397FB83EA83D583C483BD83AC83BF
S1130E001396DC93CE93129799878887FC012081EF
S1130E102F5F2083DF91CF910895CF93DF93FC015F
S1130E20A085B185C281D381848195819D838C8382
S1130E30C481D581828193819B838A831196CD91CC
S1130E40DC911297CE17DF0731F48C819D811296C5
S1130E509C938E931197118610868C9181508C935C
S1130E60DF91CF91089531E1FC013083319722E283
S1130E7020833197A3E3A0833197608331977083F4
S1130E803197108231971082319760E860833197EF
S1130E9010823197108231971082319762E060831B
S1130EA0319763E06083319764E06083319765E054
S1130EB06083319766E06083319767E060833197A0
S1130EC068E06083319769E06083319760E1608313
S1130ED031973083319732E13083319733E1308376
S1130EE0319734E13083319735E13083319736E1FE
S1130EF03083319737E13083319738E1308331974C
S1130F0039E13083319730E23083319731E23083F5
S1130F1031972083319723E220833197408331979F
S1130F205083319726E22083319727E2208331973B
S1130F3028E22083319729E22083319720E320831C
S1130F40319721E320838997089588EE93E0909365
S1130F50DB038093DA039093D9038093D80389EF5A
S1130F6087BD82E084BD83E085BDEEE6F0E080814C
S1130F7082608083A091FB0DB091FC0DCD91CDBF1B
S1130F80DD91DEBFFF91EF91DF91CF91BF91AF91E2
S1130F909F918F917F916F915F914F913F912F918D
S1130FA01F910F91FF90EF90DF90CF90BF90AF9083
S1130FB09F908F907F906F905F904F903F902F9075
S1130FC01F900F900CBE0F900BBE0F900FBE0F9092
S1130FD0089581E008950F920FB6F8940F920BB61E
S1130FE00F920CB60F921F9211242F923F924F92A0
S1130FF05F926F927F928F929F92AF92BF92CF92A5
S1131000DF92EF92FF920F931F932F933F934F938F
S11310105F936F937F938F939F93AF93BF93CF937C
S1131020DF93EF93FF93A091FB0DB091FC0D0DB6F0
S11310300D920EB60D92DDD6A091FB0DB091FC0D74
S1131040CD91CDBFDD91DEBFFF91EF91DF91CF91C7
S1131050BF91AF919F918F917F916F915F914F91CC
S11310603F912F911F910F91FF90EF90DF90CF90C0
S1131070BF90AF909F908F907F906F905F904F90B4
S11310803F902F901F900F900CBE0F900BBE0F90AF
S11310900FBE0F9008950F920FB6F8940F920BB6EF
S11310A00F920CB60F921F9211242F923F924F92DF
S11310B05F926F927F928F929F92AF92BF92CF92E4
S11310C0DF92EF92FF920F931F932F933F934F93CF
S11310D05F936F937F938F939F93AF93BF93CF93BC
S11310E0DF93EF93FF93A091FB0DB091FC0D0DB630
S11310F00D920EB60D928091D8039091D903019769
S11311009093D9038093D803892B41F48091DA0317
S11311109091DB039093D9038093D80316D5811162
S113112068D6A091FB0DB091FC0DCD91CDBFDD91A2
S1131130DEBFFF91EF91DF91CF91BF91AF919F916E
S11311408F917F916F915F914F913F912F911F915B
S11311500F91FF90EF90DF90CF90BF90AF909F9052
S11311608F907F906F905F904F903F902F901F9043
S11311700F900CBE0F900BBE0F900FBE0F900895F2
S11311808ADF1895CF93DF93EC01CFD48091DC03F1
S11311909091DD03892B31F481EE93E09093DD038C
S11311A08093DC034091DE035091DF039E01240F02
S11311B0351F233C89E0380770F44217530770F455
S11311C0C091DC03D091DD03C40FD51F3093DF033E
S11311D02093DE0305C0C0E0D0E002C0C0E0D0E050
S11311E06FD5CE01DF91CF91089508951F93CF93CA
S11311F0DF93EC01142F8C8D81110BC088819981B0
S1131200892B09F046C08A819B8198D71B821A8258
S113121047C0411118C0482F50E08C819D810E9425
S1131220A71B2C8D8C819D81820F911D9D838C83A6
S11312302A813B818217930770F1888199819D836C
S11312408C8380E02DC0482F50E08E819F810E94C6
S1131250A71B2C8D30E03195219531098E819F811A
S1131260820F931F9F838E836881798186179707E6
S113127030F48A819B81280F391F3F832E831230DB
S113128061F48A8D882359F08A8D81508A8F80E099
S113129007C080E005C080E003C080E001C080E0BA
S11312A09A8D9F5F9A8FDF91CF911F910895FC01D2
S11312B0CB01448D4423A1F050E026813781240FD3
S11312C0351F37832683628173812617370720F001
S11312D02081318137832683668177810C94A71B13
S11312E008950F931F93CF93DF93EC010FB6F894F7
S11312F00F928E8D1816A4F48989882389F08E01A3
S11313000F5E1F4F03C08989882351F0C80121D67D
S11313108111A4D68E8D81508E8F8E8D18169CF3DC
S11313208FEF8E8F0F900FBE0FB6F8940F928D8DA6
S11313301816A4F48885882389F08E01085F1F4F4E
S113134003C08885882351F0C80103D6811186D64D
S11313508D8D81508D8F8D8D18169CF38FEF8D8F11
S11313600F900FBEDF91CF911F910F910895CF93EE
S1131370DF93EC010FB6F8940F92888199812C8D3C
S113138030E07B8D729FA001739F500D1124FC01EE
S1131390E40FF51FFB83EA831A8E9D838C83421B23
S11313A0530B840F951F9F838E838FEF8D8F8E8FAA
S11313B061110AC08885882369F0CE010896C9D5D1
S11313C0813041F408DE06C0CE010896C2DCCE01AD
S11313D04196BFDC0F900FBE81E0DF91CF9108955D
S11313E00F931F93CF93DF93082F162F6623B9F023
S11313F0869FC00111248096C5DEEC01009721F47C
S113140014C0D983C88305C09C01215E3F4F398332
S113141028830B8F1C8F61E0CE01A9DF06C08FE10A
S113142090E0B0DEEC01009761F7CE01DF91CF913F
S11314301F910F9108959F92AF92BF92CF92DF9226
S1131440EF92FF920F931F93CF93DF9300D01F92DD
S11314501F92CDB7DEB78C016B015D834C83A22E46
S1131460B12C992493947C0188E0E80EF11C0FB60A
S1131470F8940F92F801928D838D981718F0F2E08A
S1131480AF1215C04A2DB601C801B0DEF80191892A
S1131490992339F0C80141965CD5813021F49BDD54
S11314A002C0811198DD0F900FBE81E046C0EC812F
S11314B0FD81EF2B21F40F900FBE80E03EC0B110F0
S11314C004C0CE0101968DD5B92C0F900FBE2DD33B
S11314D00FB6F8940F92F801858D8F3F09F4158E9D
S11314E0F801868D8F3F09F4168E0F900FBEBE0152
S11314F06C5F7F4FCE0101967FD581111AC00FB664
S1131500F8940F92F801928D0F900FBEF801838D1D
S113151098130BC06C817D81C701E3D4C801E1DE5F
S1131520CFD38111A4CF57DDA2CFC801DADEC8D34F
S11315309ECFC801D6DEC4D380E00F900F900F90E9
S11315400F900F90DF91CF911F910F91FF90EF902B
S1131550DF90CF90BF90AF909F9008950F931F930B
S1131560CF93DF93EC018A019A8D8B8D981710F03D
S11315702230D1F4422FCE0139DE8E8D8F3F79F4A3
S11315808989882399F0CE014196E3D4882381F098
S11315900115110579F081E0F80180830CC08E8D6E
S11315A08F5F8E8F81E007C080E005C081E003C0BB
S11315B081E001C081E0DF91CF911F910F910895E7
S11315C0CF93DF93FC01EB01928D838D9817C0F4C8
S11315D0828D8F5F828F868D8F3F69F48189882306
S11315E089F0CF014196B5D4882371F0209771F02A
S11315F081E088830CC0868D8F5F868F81E007C071
S113160080E005C081E003C081E001C081E0DF919A
S1131610CF9108959F92AF92BF92CF92DF92EF92B3
S1131620FF920F931F93CF93DF9300D01F921F92CB
S1131630CDB7DEB78C016B015D834C83B22EA12C38
S1131640992493947C0181E1E80EF11C0FB6F8947F
S11316500F92F801828D882369F1E680F780B60144
S1131660C80125DEB11017C0F801828D8150828F28
S113167080819181892B21F4A0D5F8019383828301
S1131680F8018085882391F0C801089662D48130DE
S113169069F4A1DC0BC0F801F782E6828189882312
S11316A029F0C801419655D4811195DC0F900FBEE5
S11316B081E052C04C815D81452B21F40F900FBE17
S11316C080E04AC0A11004C0CE0101968AD4A92C9E
S11316D00F900FBE2AD20FB6F8940F92F801858DA1
S11316E08F3F09F4158EF801868D8F3F09F4168E0D
S11316F00F900FBEBE016C5F7F4FCE0101967CD46C
S1131700811126C00FB6F8940F92F801828D0F90C4
S11317100FBE811119C0F80180819181892B49F490
S11317200FB6F8940F92F80182819381A9D40F9097
S11317300FBE6C817D81C701D4D3C801D2DDC0D274
S1131740811184CF48DC82CFC801CBDDB9D27ECFF2
S1131750C801C7DDB5D280E00F900F900F900F90B5
S11317600F90DF91CF911F910F91FF90EF90DF9039
S1131770CF90BF90AF909F900895CF93DF93EC01EB
S11317800FB6F8940F928D8D8F3F09F41D8E8E8DB8
S11317908F3F09F41E8E0F900FBE8A8D811103C0F6
S11317A0CE014196BAD3CE019CDDDF91CF9108954D
S11317B0E091C30DF091C40D8081811107C08FEFBA
S11317C09FEF90934A02809349020895E091C30DDC
S11317D0F091C40D0580F681E02D0680F781E02D9F
S11317E08281938190934A02809349020895CF9312
S11317F0DF93EC01E091FB0DF091FC0D9383828368
S11318008091AB0D9091AC0DC817D90760F460912D
S1131810FB0D7091FC0D8091C10D9091C20D6E5F16
S11318207F4FCADA16C06091FB0D7091FC0D809158
S1131830C30D9091C40D6E5F7F4FBEDA8091490253
S113184090914A02C817D90720F4D0934A02C09352
S11318504902DF91CF9108954F925F926F927F92E8
S11318608F929F92AF92BF92CF92DF92EF92FF92AC
S11318700F931F93CF93DF934C015B012A0139012E
S1131880C114D10431F4CA017DDC6C01009709F460
S1131890CCC088E290E076DCEC01009771F0D88E41
S11318A0CF8A81E0481A5108C40CD51CD5018C910B
S11318B0898F8C91811104C014C0C60196DCB5C017
S11318C0AE01465E5F4FF501319627E0CF013191BD
S11318D0DA013D93AD01DC018C91882311F0215094
S11318E0A9F718A2102F043008F013E01E8B19A3D7
S11318F01AA25E01B2E0AB0EB11CC50138DACE010A
S11319000C9635DAD987C88784E090E0811B910969
S11319109D878C87DB8BCA8B1BA21CA21DA21EA2D7
S11319201FA2A301B401C6019EDA99838883E1143E
S1131930F10419F0F701D183C0830FB6F8940F9224
S11319408091AD0D8F5F8093AD0D8091FB0D9091D3
S1131950FC0D892B69F5D093FC0DC093FB0D809190
S1131960AD0D8130A1F587ED9DE0F3D980EE9DE0CA
S1131970F0D989EE9DE0EDD982EF9DE0EAD98EECB5
S11319809DE0E7D985EC9DE0E4D988EB9DE0E1D9C1
S11319908FEA9DE0DED98EEC9DE09093C40D809398
S11319A0C30D85EC9DE09093C20D8093C10D0FC0D3
S11319B08091A90D81110BC0E091FB0DF091FC0DFC
S11319C08689081720F0D093FC0DC093FB0D8091FD
S11319D0A50D8F5F8093A50D8E899091AA0D981700
S11319E010F48093AA0D90E09C01220F331F220F64
S11319F0331F220F331F820F931FB5018952924F59
S1131A00BAD90F900FBE8091A90D882351F0E091AF
S1131A10FB0DF091FC0D8689801728F4DCDA81E057
S1131A2005C081E003C081E001C08FEFDF91CF9159
S1131A301F910F91FF90EF90DF90CF90BF90AF90E8
S1131A409F908F907F906F905F904F9008950F9329
S1131A501F93CF93DF93EC010FB6F8940F92009786
S1131A6021F4C091FB0DD091FC0D8E010E5F1F4F30
S1131A70C801D3D98C899D89892B19F0CE010C9684
S1131A80CCD9B8018FEA9DE076D98091AE0D8F5FF5
S1131A908093AE0D8091A50D8F5F8093A50D0F905F
S1131AA00FBE8091A90D882379F08091FB0D909150
S1131AB0FC0DC817D90711F48EDA06C00FB6F894D6
S1131AC00F9276DE0F900FBEDF91CF911F910F9191
S1131AD00895AF92BF92CF92DF92EF92FF920F934D
S1131AE0A12CB12CC12CD12CE12CF12C00E020E054
S1131AF030E049EB50E066E872E083EA90E0ACDE67
S1131B00813059F4C3D3813041F4F8948093A90D02
S1131B101092AC0D1092AB0D18DA0F91FF90EF906C
S1131B20DF90CF90BF90AF9008958091A40D8F5F08
S1131B308093A40D08950FB6F8940F928091AB0D85
S1131B409091AC0D0F900FBE0895CF92DF92EF925B
S1131B50FF920F931F93CF93DF938091A40D811174
S1131B6096C08091AB0D9091AC0D01969093AC0D05
S1131B708093AB0DE090AB0DF090AC0DE114F1044B
S1131B80B1F48091C30D9091C40D2091C10D309199
S1131B90C20D3093C40D2093C30D9093C20D809356
S1131BA0C10D8091A60D8F5F8093A60D01DE8091FB
S1131BB0490290914A02E816F90608F451C0D12C62
S1131BC0CC24C39401C0DC2CE091C30DF091C40D6E
S1131BD08081811107C08FEF9FEF90934A02809319
S1131BE049023FC0E091C30DF091C40D0580F68118
S1131BF0E02DC681D7812A813B81E216F30628F4C1
S1131C0030934A02209349022CC08E010E5F1F4F6D
S1131C10C80103D98C899D89892B19F0CE010C96B2
S1131C20FCD82E898091AA0D821710F42093AA0D56
S1131C3030E0C901880F991F880F991F880F991FD9
S1131C40820F931FB8018952924F95D8E091FB0DF2
S1131C50F091FC0D9E898689981708F0B4CFB4CF13
S1131C60D12CE091FB0DF091FC0D868990E0FC01F4
S1131C70EE0FFF1FEE0FFF1FEE0FFF1F8E0F9F1FB4
S1131C80FC01E952F24F8081823040F409C0809116
S1131C90A80D8F5F8093A80DD12C02C0DD24D394AE
S1131CA08091A70D882311F0DD24D3948D2DDF912D
S1131CB0CF911F910F91FF90EF90DF90CF900895F7
S1131CC0DF92EF92FF920F931F93CF93DF930FB6A0
S1131CD0F8940F928091A40D81508093A40D80916B
S1131CE0A40D81115CC08091AD0D882309F459C005
S1131CF00F2EF8EBEF2EFDE0FF2EF02DDD24D39414
S1131D002DC0E091BD0DF091BE0DC681D781CE01ED
S1131D100C9683D88E010E5F1F4FC8017ED88E8922
S1131D209091AA0D981710F48093AA0D90E09C014D
S1131D30220F331F220F331F220F331F820F931FD3
S1131D40B8018952924F17D8E091FB0DF091FC0D28
S1131D509E898689981710F0D092A70DF70180818B
S1131D608111CFCF8091A80D882391F08091A80D87
S1131D70882371F0C1E0E9DE8111C093A70D809141
S1131D80A80D81508093A80D8091A80D8111F3CFE7
S1131D908091A70D813039F41ED981E005C080E01F
S1131DA003C080E001C080E00F900FBEDF91CF91AF
S1131DB01F910F91FF90EF90DF900895CF93DF93E1
S1131DC0EC01009791F0B1DE8091AB0D9091AC0DD8
S1131DD0C80FD91F8091FB0D9091FC0D02961DD860
S1131DE0CE0105DD6DDF811101C0F5D8DF91CF9102
S1131DF008958091A40D882321F081E08093A70D9C
S1131E0008951092A70DA091FB0DB091FC0DE091E7
S1131E10FB0DF091FC0D2D913C918789908D8217DB
S1131E20930758F06091FB0D7091FC0D8091FB0DB0
S1131E309091FC0D675E7F4F32D78091AA0D90E0A0
S1131E40FC01EE0FFF1FEE0FFF1FEE0FFF1F8E0FA3
S1131E509F1FFC01E952F24F8081811117C08091CC
S1131E60AA0D81508093AA0D8091AA0D90E0FC01E7
S1131E70EE0FFF1FEE0FFF1FEE0FFF1F8E0F9F1FB2
S1131E80FC01E952F24F8081882349F3E091AA0DC5
S1131E90F0E0CF01880F991F880F991F880F991FB1
S1131EA0E80FF91FE952F24FA181B28112960D9009
S1131EB0BC91A02DB283A183CF010396A817B907C3
S1131EC031F412968D919C911397928381830180B2
S1131ED0F281E02D868197819093FC0D8093FB0D18
S1131EE00895CF93DF93EB016091FB0D7091FC0D8E
S1131EF0645F7F4F0E94DC068091FB0D9091FC0D86
S1131F0002960E940D078091AB0D9091AC0D8C0F41
S1131F109D1F6DDCDF91CF910895CF93DF93EB018B
S1131F206091FB0D7091FC0D645F7F4F0E94BB06B6
S1131F308091FB0D9091FC0D02960E940D078091FB
S1131F40AB0D9091AC0D8C0F9D1F51DCDF91CF91A7
S1131F5008950F931F93CF93DF93DC011596ED91B2
S1131F60FC911697C681D7818E01045F1F4FC8016B
S1131F700E940D078091A40D81111CC00A50110903
S1131F80C8010E940D078E899091AA0D981710F42C
S1131F908093AA0D90E09C01220F331F220F331F60
S1131FA0220F331F820F931FB8018952924F0E9450
S1131FB0BB0605C0B80188EB9DE00E94BB06E0911A
S1131FC0FB0DF091FC0D9E898689891720F481E030
S1131FD08093A70D01C080E0DF91CF911F910F91F5
S1131FE008952091A60DFC0120832091AB0D309122
S1131FF0AC0D3283218308950FB6F8940F9220918B
S1132000AB0D3091AC0D4091A60DDC015C915417E1
S113201039F011964D915C91129724173507C0F44D
S1132020DC011196ED91FC911297DB014D915C91CD
S1132030D901AE1BBF0BA417B50760F4E21BF30B69
S11320404E0F5F1FFB0151834083CBDF80E003C051
S113205081E001C081E00F900FBE089581E080937C
S1132060A70D08958091A90D882331F08091A40DC6
S1132070811104C082E0089581E0089580E008950C
S11320800F931F93CF93DF93EC01009709F451C092
S11320908E89E091FB0DF091FC0D9689891708F06B
S11320A048C02C853D8533235CF0E091FB0DF09115
S11320B0FC0D968924E030E0291B31093D872C87EB
S11320C090E09C01220F331F220F331F220F331F76
S11320D0820F931F8952924F2A853B85281739070F
S11320E011F58E010E5F1F4FC8010E940D07E0918C
S11320F0FB0DF091FC0D86898E8B9091AA0D98179B
S113210010F48093AA0D90E09C01220F331F220F3C
S1132110331F220F331F820F931FB8018952924F2E
S11321200E94BB0606C0E091FB0DF091FC0D868970
S11321308E8BDF91CF911F910F9108950F931F9371
S1132140CF93DF93EC01009771F18AA181508AA3A8
S11321502E8999A1291749F1811129C08E010E5F99
S11321601F4FC8010E940D0789A18E8B24E030E027
S1132170281B31093D872C879091AA0D981710F4DC
S11321808093AA0D90E09C01220F331F220F331F6E
S1132190220F331F820F931FB8018952924F0E945E
S11321A0BB0681E005C080E003C080E001C080E0A0
S11321B0DF91CF911F910F9108958091FB0D909124
S11321C0FC0D892B39F0E091FB0DF091FC0D82A1FF
S11321D08F5F82A38091FB0D9091FC0D0895FC010B
S11321E073836283918780874617570790F0421B59
S11321F0530B8485958548175907E0F4BF016E5F3A
S11322007F4F8091010E9091020E0E94DC0680E0C7
S113221008954217530718F46217730768F4BF014F
S11322206E5F7F4F8091030E9091040E0E94DC0636
S113223080E0089581E0089581E008950FB6F89450
S11322400F928091FF0D9091000E892BE1F48EE0A6
S11322509EE00E94A90685E09EE00E94A9068EE009
S11322609EE09093040E8093030E85E09EE090938D
S1132270020E8093010E40E065E08AE0B1D89093AD
S1132280000E8093FF0D0F900FBE0895AF92BF9282
S1132290CF92DF92EF92FF920F93D0DF8091FF0DE8
S11322A09091000E892B89F0A12CB12CC12CD12C3A
S11322B0E12CF12C05E020E030E049EB50E06BE844
S11322C072E080E292E1C8DA01C080E00F91FF90F1
S11322D0EF90DF90CF90BF90AF9008950F931F932E
S11322E0CF93DF9300D01F921F92CDB7DEB7D901F1
S11322F0E091FF0DF091000E309749F169835B8303
S11323004A839D838C836630D4F4ACDE823059F4E6
S113231020E0A801BE016F5F7F4F8091FF0D909177
S1132320000E89D815C020E040E050E0BE016F5F88
S11323307F4F8091FF0D9091000E7DD809C020E061
S1132340AD01BE016F5F7F4FCF0108D901C080E0AE
S11323500F900F900F900F900F90DF91CF911F91DE
S11323600F910895AF92BF92CF92DF92EF92FF92B6
S11323700F931F93CF93DF936C01DDDB7C0180917E
S1132380FD0D9091FE0DE816F90608F047C02FC028
S11323900580F681E02DA080B180C681D7818E01B1
S11323A00E5F1F4FC8010E940D07E989FA89CE010B
S11323B019958E858130D9F48C859D858A0D9B1D58
S11323C0A816B90660F49B838A83D987C887B801A5
S11323D08091030E9091040E0E94DC0608C000E078
S11323E010E020E030E0A50160E0CE0177DFE0916D
S11323F0030EF091040E80818111CACF8091010EE9
S11324009091020E9093040E8093030EF093020EAB
S1132410E093010E81E0F601808302C0F601108290
S1132420F092FE0DE092FD0DC701DF91CF911F9157
S11324300F91FF90EF90DF90CF90BF90AF900895F1
S1132440CF93DF9300D000D0CDB7DEB7CE01019695
S11324506C01812C912C682E7D2CE091030EF0915F
S1132460040E8081882309F4B6C00580F681E02D2E
S1132470E080F1805ADBC60175DF8C01898181110E
S113248043C00E151F0590F11BDCE091030EF09183
S1132490040E0580F681E02DA680B780C501029662
S11324A00E940D07D5011E968C911E978130A1F4D0
S11324B01C966D917C911D976E0D7F1D9701A8014F
S11324C0C5018DDE813041F4082D192D282D392DBB
S11324D0A70160E0C50102DFD5015196ED91FC91A1
S11324E05297C50119956AC0E82CF92CB701601BF5
S11324F0710B8091FF0D9091000E3FD9E1DB8111AA
S11325005DC00E94EB075AC0DBDB58C08981882379
S11325100CF454C0EC80FD80F70182859385892BEF
S113252021F0C70102960E940D07CE0106961ADF1C
S11325300981112707FD1095212F312F0A3011052C
S113254008F03CC0F801EA59FF4F94C72A813B8147
S1132550D7011C966D917C911D97620F731FAC017E
S1132560C7013DDE813051F5D7015196ED91FC91C3
S11325705297C7011995F70186858130F9F444858E
S113258055858A819B81480F591F082D192D282DA7
S1132590392D60E0C701A2DE11C06A817B81D701B9
S11325A01D967C936E931C97680F791F9C01AC0158
S11325B0C70115DE03C0C7010E94F50820E0482DBD
S11325C0592D662D772D8091FF0D9091000E22D804
S11325D081119CCF42CFA9DAC601C4DE8C01898166
S11325E0882309F481CF90CF8F3F19F481E0809341
S11325F0821708954F925F926F927F928F929F926B
S1132600AF92BF92CF92DF92EF92FF920F931F93FC
S1132610CF93DF93CDB7DEB7A8970FB6F894DEBF9C
S11326200FBECDBF10927B1781E40E949902809166
S11326307B17813009F0C3C01BC080917B178130A8
S1132640B9F00E949603F801918380830E94AE033F
S1132650F801938382830E94B603F80195838483EF
S113266082E390E0ABDB0A5F1F4F0E151F0529F7CD
S113267080E00E94990281E290E09A838983CE01EE
S11326800196FC0101900020E9F73197BF01681B16
S1132690790B0E94D6038CE291E090DB81E00E94EA
S11326A093020091170E1091180E0115110509F0EF
S11326B049C02EC0F801C080D180C114D10441F1B9
S11326C0728063805480458084E690E077DB4F928B
S11326D05F926F927F92DF92CF92BF92AF92FF92FE
S11326E0EF920E94B81BF70101900020E9F731979F
S11326F0BF016E197F09C7010E94D6030A5F1F4FED
S11327000FB6F894DEBF0FBECDBF0815190591F6BC
S113271080E00E9493028CE291E050DB81E290E041
S11327209A838983CE010196FC0101900020E9F788
S11327303197BF01681B790B0E94D60380E090E0BB
S113274086D95BC0E9E1FEE0F080E180EBE1FEE0E8
S1132750D080C18084E690E031DBCF92DF92EF92AB
S1132760FF921F930F9383E992E09F938F938E01BF
S11327700F5F1F4F1F930F93FBD7F80101900020A9
S1132780E9F73197BF01601B710BC8010E94D603A2
S11327900DE11EE00F2EF7E78F2EF7E19F2EF02DAF
S11327A00FB6F894DEBF0FBECDBF0F2EF3E9AF2EE8
S11327B0F2E0BF2EF02DCE0101967C017BCF0E946A
S11327C096039093180E8093170E0E94AE03909375
S11327D01A0E8093190E0E94B60390931C0E8093D8
S11327E01B0E82E390E0EADA0DE11EE00F2EF7E71C
S11327F0EF2EF7E1FF2EF02D20CFA8960FB6F89418
S1132800DEBF0FBECDBFDF91CF911F910F91FF901F
S1132810EF90DF90CF90BF90AF909F908F907F907C
S11328206F905F904F9008950E94B6030E94B60384
S11328302091D31D3091D41D820F931F9093D41DEA
S11328408093D31DE0917917F0917A17EE0FFF1F53
S1132850EB57F84E208131818217930738F320E03B
S113286040E050E060E070E08091C71D9091C81D89
S11328700E941B0ADBCF10927B170E94B60381E0F3
S11328800E948D0210927A171092791746C020E0A8
S113289048EE53E060E070E08091C71D9091C81D40
S11328A00E940A0B8823C9F1E0917917F0917A17F5
S11328B0EE0FFF1FE957F84E80819181853691050F
S11328C078F480E00E949302E0917917F0917A17EE
S11328D0EE0FFF1FE957F84E80810E94990209C04C
S11328E084560E946B0381E00E94930280E00E9460
S11328F099028091791790917A17FC01EE0FFF1FCE
S1132900E957F84E2081318130938417209383173F
S1132910029690937A178093791780917B17882376
S113292009F4B5CF80E00E94930280E00E948D02FA
S113293080E00E94990281E00E94870284EF91E086
S11329403DDA80E00E94870280E090E080C808952C
S113295020E04FEF5FEF60E070E08091C91D90913F
S1132960CA1D0E940A0B882399F381E00E94870202
S113297081E080937B1782E390E020DA80E00E947C
S11329808702E6CFAF92BF92CF92DF92EF92FF928F
S11329900F931F93CF93DF93CDB7DEB7A8970FB6EE
S11329A0F894DEBF0FBECDBF90918217992309F42E
S11329B0E5C0482F50E0FA01E154F109E333F10591
S11329C008F0ADC0E059FF4F55C580E00E948D026C
S11329D0D5C081E00E948D02D1C080E00E949302A4
S11329E0CDC081E00E949302C9C080E00E948702AA
S11329F0C5C081E00E948702C1C080E00E949902A4
S1132A00BDC081E40E949902B9C080E00E946B03BA
S1132A10B5C084E60E946B03B1C00E948E03182FD8
S1132A20092F0E949603F82EE92E85D89093D61D7F
S1132A308093D51D0E949E03D82EC92E0E94A60302
S1132A40B82EA92E0E94B6039F938F93AF92BF9284
S1132A50CF92DF928091D61D8F938091D51D8F9355
S1132A60EF92FF920F931F9380EA92E09F938F93CC
S1132A708E010F5F1F4F1F930F937AD6F8010190B9
S1132A800020E9F73197BF01601B710BC8010E9458
S1132A90D6030FB6F894DEBF0FBECDBF6FC0A12C16
S1132AA0B12CC12CD12CE12CF12C01E020E030E040
S1132AB049EB50E069EB72E08AEF92E10E942C0C42
S1132AC05DC080E00E949302A12CB12CC12CD12CBA
S1132AD0E12CF12C01E020E030E049EB50E064EC23
S1132AE072E084E194E10E942C0C20E030E049EB98
S1132AF050E06FEC72E08BE394E10E942C0C3EC03A
S1132B0081E090E0909378178093771737C081E045
S1132B100E94930210927817109277172FC0209179
S1132B207717309178172130310541F5909181174D
S1132B30E92FF0E0E458F84E80839F5F909381176B
S1132B408132E1F481E00E948702009183171091A1
S1132B5084178CE797E1DED5F801EE0FFF1FEB57E2
S1132B60F84E918380830F5F1F4F10938417009357
S1132B7083171092811780E00E948702A8960FB6EF
S1132B80F894DEBF0FBECDBFDF91CF911F910F919F
S1132B90FF90EF90DF90CF90BF90AF900895CF93C8
S1132BA0DF931F92CDB7DEB743E060E081E00E947F
S1132BB0F0099093CA1D8093C91D43E060E081E051
S1132BC00E94F0099093C81D8093C71D40E061E006
S1132BD08EE10E94F0099093C61D8093C51D8091DB
S1132BE0C91D9091CA1D009711F00E94F20388EE4E
S1132BF093E0E4D880E00E94D00388EE93E0DED82E
S1132C006091C51D7091C61D84EF92E10E94DF039F
S1132C10A12CB12CC12CD12CE12CF12C02E020E010
S1132C2030E049EB50E06BED72E088EA94E10E94F9
S1132C302C0C20E04FEF5FEFBE016F5F7F4F809160
S1132C40C51D9091C61D0E940A0B89819BDE1982C5
S1132C50F0CFAF92BF92CF92DF92EF92FF920F9399
S1132C600E94BC02A12CB12CC12CD12CE12CF12C42
S1132C7001E020E030E049EB50E068EE72E08FECD8
S1132C8095E10E942C0C0E94690D80E090E00F9168
S1132C90FF90EF90DF90CF90BF90AF90089508958C
S1132CA04F925F926F927F928F929F92AF92BF9258
S1132CB0CF92DF92FF920F931F93CF93DF93CDB701
S1132CC0DEB7F82E2A013B0188E090E0FCD38C01AA
S1132CD08F2D90E0880F991FFC01E553F24E11836C
S1132CE00083FC01E55BFD4F80819181D801119641
S1132CF09C938E931396BC92AE9212971596DC9287
S1132D00CE92149717969C928E921697FFB6F894CB
S1132D10D801ED91FC911197369780818260808370
S1132D20CD90DC90440C551C661C771C440C551C3F
S1132D30661C771CA3019201220F331F441F551FE9
S1132D4060E074E284EF90E057D32150F6013297AB
S1132D502083D801ED91FC911197359788E9808300
S1132D60ED91FC91349786E08083FFBEC801DF912A
S1132D70CF911F910F91FF90DF90CF90BF90AF90B4
S1132D809F908F907F906F905F904F900895EF92F7
S1132D90FF920F931F93CF93DF938C01E42EDC01FA
S1132DA01296ED91FC911397309769F0242F30E03F
S1132DB042A588E290E0841B910982179307E4F00E
S1132DC0E11005C010C0B1E0B417C0F0F9CFC62FB0
S1132DD0D72FF12C6991F801828193810E9482049A
S1132DE0F394FE10F7CFD801ED91FC9135978081D3
S1132DF08062808380E003C082E001C082E0DF91D2
S1132E00CF911F910F91FF90EF9008951F920F9211
S1132E100FB60F9211240BB60F922F933F934F933B
S1132E205F936F937F938F939F93AF93BF93CF934E
S1132E30EF93FF93E091CB1DF091CC1D3097A1F05F
S1132E40C091C6006C2F848195810E948204809178
S1132E50CB1D9091CC1DDC011696ED91FC9117973A
S1132E60309711F06C2F1995FF91EF91CF91BF918D
S1132E70AF919F918F917F916F915F914F913F910E
S1132E802F910F900BBE0F900FBE0F901F901895AF
S1132E901F920F920FB60F9211240BB60F922F931D
S1132EA03F934F935F936F937F938F939F93AF93CE
S1132EB0BF93EF93FF93CF93DF931F92CDB7DEB70A
S1132EC0E091CB1DF091CC1D309799F0BE016F5F5E
S1132ED07F4F828193810E946804811104C089819B
S1132EE08093C6000BC0E1ECF0E080818F7D80838D
S1132EF005C0E1ECF0E080818F7D80830F90DF914D
S1132F00CF91FF91EF91BF91AF919F918F917F915D
S1132F106F915F914F913F912F910F900BBE0F9046
S1132F200FBE0F901F9018951F920F920FB60F921D
S1132F3011240BB60F922F933F934F935F936F938C
S1132F407F938F939F93AF93BF93CF93EF93FF930D
S1132F50E091CD1DF091CE1D3097A1F0C091CE002F
S1132F606C2F848195810E9482048091CD1D909163
S1132F70CE1DDC011696ED91FC911797309711F058
S1132F806C2F1995FF91EF91CF91BF91AF919F91C4
S1132F908F917F916F915F914F913F912F910F90FE
S1132FA00BBE0F900FBE0F901F9018951F920F929B
S1132FB00FB60F9211240BB60F922F933F934F939A
S1132FC05F936F937F938F939F93AF93BF93EF938D
S1132FD0FF93CF93DF931F92CDB7DEB7E091CD1D62
S1132FE0F091CE1D309799F0BE016F5F7F4F8281C3
S1132FF093810E946804811104C089818093CE006A
S11330000BC0E9ECF0E080818F7D808305C0E9ECA2
S1133010F0E080818F7D80830F90DF91CF91FF91CD
S1133020EF91BF91AF919F918F917F916F915F913C
S11330304F913F912F910F900BBE0F900FBE0F90A9
S11330401F901895E091D01DF091D11D309701F19A
S11330502381213079F4A081B1814C9121E030E0C9
S1133060028002C0220F331F0A94E2F72095242322
S11330702C930EC0A081B1816C9141E050E09A0183
S1133080028002C0220F331F0A94E2F7262B2C93EE
S11330909093D11D8093D01D009769F01092D21D9A
S11330A02CB52F732CBDFC0124812CBD85818DBDD5
S11330B08CB580648CBD08956F927F928F929F929D
S11330C0AF92BF92CF92DF92EF92FF920F931F9332
S11330D0CF93DF93CDB7DEB7D82EF62E642E722EA3
S11330E08091CF1D811106C084B1876084B981E0CD
S11330F08093CF1D8CE090E0E6D1FC010083118326
S1133100E282A02FB12F4E9121E030E0C90102C02C
S1133110880F991FEA94E2F7842B8C93C382660C80
S1133120660C7628AF2DBB27A7FDB095AC50BD4FDC
S11331306C90D628D728D48283E08F1514F481E0CC
S1133140858397828682B186A0868A899B899387A4
S113315082876FB7F8948091D01D9091D11DF09320
S1133160D11DE093D01D2381213081F4A081B18150
S11331707C9141E050E09A01028002C0220F331F8B
S11331800A94E2F7209527232C930EC0A081B181E5
S11331907C9141E050E09A01028002C0220F331F6B
S11331A00A94E2F7272B2C939093D11D8093D01D82
S11331B06FBFCF01DF91CF911F910F91FF90EF90DF
S11331C0DF90CF90BF90AF909F908F907F906F9043
S11331D00895DF92EF92FF920F931F93CF93DF93A3
S11331E0EC018B01F42E009709F46BC08091D01D83
S11331F09091D11D8C179D0711F0CE0123DFEFB6FE
S1133200F894EE81FF81309761F02F2D30E042A5D4
S113321088E290E0841B9109821793070CF448C05C
S113322004C081E08F1508F445C08091D21D81113E
S113323030C081E08093D21DE091D01DF091D11D6A
S11332408381813079F4A081B1814C9121E030E017
S1133250C901028002C0880F991F0A94E2F7842BE7
S11332608C930EC0A081B1812C9181E090E002800A
S113327002C0880F991F0A94E2F7809582238C93E9
S11332808CB580688CBDF80180818EBDDD24D3941B
S113329001C0D12CDF1480F4F801ED0DF11D608123
S11332A08E819F810E948204D394DF14A8F306C008
S11332B081E005C081E003C080E001C080E0EFBE92
S11332C001C083E0DF91CF911F910F91FF90EF90A8
S11332D0DF9008951F920F920FB60F9211240BB630
S11332E00F922F933F934F935F936F937F938F939B
S11332F09F93AF93BF93EF93FF93CF93DF931F926B
S1133300CDB7DEB7E091D01DF091D11D80859185B8
S1133310009719F06EB50E948204E091D01DF091DF
S1133320D11DBE016F5F7F4F868197810E94680423
S1133330811103C089818EBD29C08CB58F778CBD66
S11333401092D21DE091D01DF091D11D8381813066
S113335079F4A081B1812C9181E090E0028002C0D7
S1133360880F991F0A94E2F7809582238C930EC0EC
S1133370A081B1814C9121E030E0C901028002C0FA
S1133380880F991F0A94E2F7842B8C938091D01DA7
S11333909091D11DDC011A96ED91FC911B97309709
S11333A011F0698119950F90DF91CF91FF91EF9101
S11333B0BF91AF919F918F917F916F915F914F9149
S11333C03F912F910F900BBE0F900FBE0F901F9047
S11333D0189597FB072E16F4009406D077FD08D0B5
S11333E05ED007FC05D03EF4909581959F4F0895DB
S11333F0709561957F4F0895A1E21A2EAA1BBB1BFD
S1133400FD010DC0AA1FBB1FEE1FFF1FA217B307AC
S1133410E407F50720F0A21BB30BE40BF50B661FC2
S1133420771F881F991F1A9469F760957095809586
S113343090959B01AC01BD01CF010895052E97FB2A
S113344016F400940FD057FD05D0D6DF07FC02D048
S113345046F408C050954095309521953F4F4F4F05
S11334605F4F089590958095709561957F4F8F4F2C
S11334709F4F0895EE0FFF1F0590F491E02D1994CE
S1133480A29FB001B39FC001A39F700D811D1124A1
S1133490911DB29F700D811D1124911D0895AA1BC9
S11334A0BB1B51E107C0AA1FBB1FA617B70710F02B
S11334B0A61BB70B881F991F5A95A9F7809590955D
S11334C0BC01CD010895CF93DF938230910510F4B0
S11334D082E090E0E091D91DF091DA1D20E030E027
S11334E0A0E0B0E0309739F1408151814817590785
S11334F0B8F04817590771F482819381109729F025
S113350013969C938E9312972CC09093DA1D8093FC
S1133510D91D27C02115310531F04217530718F082
S1133520A901DB0101C0EF019A01BD01DF010280A5
S1133530F381E02DD7CF21153105F9F0281B390B84
S11335402430310580F48A819B816115710521F055
S1133550FB019383828304C09093DA1D8093D91D69
S1133560FE01329644C0FE01E20FF31F8193919352
S113357022503109398328833AC02091D71D3091D4
S1133580D81D232B41F42091020230910302309381
S1133590D81D2093D71D20910002309101022115DE
S11335A0310541F42DB73EB7409104025091050214
S11335B0241B350BE091D71DF091D81DE217F307BA
S11335C0A0F42E1B3F0B2817390778F0AC014E5F8F
S11335D05F4F2417350748F04E0F5F1F5093D81DD7
S11335E04093D71D8193919302C0E0E0F0E0CF01B6
S11335F0DF91CF910895CF93DF93009709F487C0AB
S1133600FC01329713821282C091D91DD091DA1D28
S1133610209781F420813181280F391F8091D71D93
S11336209091D81D8217930779F5F093D81DE093F4
S1133630D71D6DC0DE0120E030E0AE17BF0750F4A7
S113364012964D915C9113979D014115510509F115
S1133650DA01F3CFB383A28340815181840F951F94
S11336608A179B0771F48D919C911197840F951F74
S113367002969183808312968D919C9113979383E4
S113368082832115310529F4F093DA1DE093D91DC5
S11336903EC0D9011396FC93EE9312974D915D9120
S11336A0A40FB51FEA17FB0779F480819181840F79
S11336B0951F0296D90111969C938E9382819381D2
S11336C013969C938E931297E0E0F0E08A819B819D
S11336D0009719F0FE01EC01F9CFCE010296288182
S11336E03981820F931F2091D71D3091D81D28173F
S11336F0390769F4309729F41092DA1D1092D91D14
S113370002C013821282D093D81DC093D71DDF91BB
S1133710CF910895FC0188279927E89421912032BC
S1133720E9F3293010F02E30C8F32B3239F02D3262
S113373031F4689403C014D0820F911D2191205359
S11337402A30C8F31EF4909581959F4F0895FB018C
S1133750DC0102C001900D9241505040D8F7089509
S11337607AE0979F902D879F802D910D11240895C5
S11337700F931F93CF93DF93CDB7DEB72E970FB67A
S1133780F894DEBF0FBECDBF0E891F8986E08C83FF
S11337901A8309838FEF9FE79E838D83AE01465E74
S11337A05F4F688D798DCE01019610D0EF81F88539
S11337B0E00FF11F10822E960FB6F894DEBF0FBEF5
S11337C0CDBFDF91CF911F910F9108952F923F921A
S11337D04F925F926F927F928F929F92AF92BF921D
S11337E0CF92DF92EF92FF920F931F93CF93DF93C9
S11337F0CDB7DEB72C970FB6F894DEBF0FBECDBFA2
S11338007C016B018A01FC0117821682838181FF8E
S1133810B0C1CE0101964C01F7019381F60193FDED
S1133820859193FF81916F01882309F49EC18532AC
S113383039F493FD859193FF81916F01853221F4D1
S1133840B70190E0C7D1E8CF512C312C20E02032D1
S1133850A0F48B3269F030F4803259F0833269F489
S113386020612CC08D3239F0803339F4216026C0B8
S11338702260246023C0286021C027FD27C030EDCA
S1133880380F3A3078F426FF06C0FAE05F9E300D18
S11338901124532E13C08AE0389E300D1124332E88
S11338A020620CC08E3221F426FD5FC1206406C064
S11338B08C3611F4206802C0883641F4F60193FD79
S11338C0859193FF81916F018111C1CF982F9F7DC5
S11338D09554933028F40C5F1F4FFFE3F9830DC018
S11338E0833631F0833771F0833509F057C021C036
S11338F0F801808189830E5F1F4F44244394512C27
S1133900540114C03801F2E06F0E711CF801A0805C
S1133910B18026FF03C0652D70E002C06FEF7FEF1A
S1133920C5012C874CD12C0183012C852F77222EA5
S113393016C03801F2E06F0E711CF801A080B1804E
S113394026FF03C0652D70E002C06FEF7FEFC50155
S11339502C872AD12C012C852068222E830123FC5C
S113396019C0832D90E048165906A0F4B70180E2EF
S113397090E030D13A94F5CFF50127FC859127FEEC
S113398081915F01B70190E025D131103A94F1E0C3
S11339904F1A51084114510479F7DEC0843611F0EE
S11339A0893631F5F80127FF07C060817181828172
S11339B093810C5F1F4F08C060817181882777FD58
S11339C08095982F0E5F1F4F2F76B22E97FF09C058
S11339D090958095709561957F4F8F4F9F4F20688C
S11339E0B22E2AE030E0A40127D1A82EA81843C0A3
S11339F0853729F42F7EB22E2AE030E025C0F22F3D
S1133A00F97FBF2E8F36C1F018F4883579F0ADC038
S1133A10803719F0883721F0A8C02F2F2061B22EEB
S1133A20B4FE0DC08B2D8460B82E09C024FF0AC0DB
S1133A309F2F9660B92E06C028E030E005C020E133
S1133A4030E002C020E132E0F801B7FE07C0608137
S1133A507181828193810C5F1F4F06C060817181E7
S1133A6080E090E00E5F1F4FA401E6D0A82EA818B6
S1133A70FB2DFF77BF2EB6FE0BC02B2D2E7FA5147A
S1133A8050F4B4FE0AC0B2FC08C02B2D2E7E05C033
S1133A907A2C2B2D03C07A2C01C0752C24FF0DC069
S1133AA0FE01EA0DF11D8081803311F4297E09C0E5
S1133AB022FF06C07394739404C0822F867809F0A1
S1133AC0739423FD12C020FF06C05A2C731418F4FB
S1133AD0530C5718732C731460F4B70180E290E010
S1133AE02C8778D073942C85F6CF731410F4371880
S1133AF001C0312C24FF11C0B70180E390E02C8772
S1133B0069D02C8522FF16C021FF03C088E590E010
S1133B1002C088E790E0B7010CC0822F867851F08C
S1133B2021FD02C080E201C08BE227FD8DE2B701D6
S1133B3090E050D0A51430F4B70180E390E04AD06F
S1133B405A94F8CFAA94F401EA0DF11D8081B701CB
S1133B5090E040D0A110F6CF332009F45DCEB70138
S1133B6080E290E037D03A94F7CFF70186819781CD
S1133B7002C08FEF9FEF2C960FB6F894DEBF0FBEF6
S1133B80CDBFDF91CF911F910F91FF90EF90DF9008
S1133B90CF90BF90AF909F908F907F906F905F90E9
S1133BA04F903F902F900895FC0105906150704014
S1133BB00110D8F7809590958E0F9F1F0895FC01F2
S1133BC06150704001900110D8F7809590958E0F48
S1133BD09F1F08950F931F93CF93DF93182F092FDF
S1133BE0EB018B8181FD03C08FEF9FEF20C082FF2B
S1133BF010C04E815F812C813D81421753077CF4B4
S1133C00E881F9819F012F5F3F4F39832883108317
S1133C1006C0E885F985812F1995892B29F72E810E
S1133C203F812F5F3F4F3F832E83812F902FDF9162
S1133C30CF911F910F910895FA01AA27283051F1CD
S1133C40203181F1E8946F936E7F6E5F7F4F8F4FC9
S1133C509F4FAF4FB1E03ED0B4E03CD0670F781F28
S1133C60891F9A1FA11D680F791F8A1F911DA11D0D
S1133C706A0F711D811D911DA11D20D009F4689446
S1133C803F912AE0269F11243019305D3193DEF6EE
S1133C90CF010895462F4770405D4193B3E00FD0A4
S1133CA0C9F7F6CF462F4F70405D4A3318F0495D8F
S1133CB031FD4052419302D0A9F7EACFB4E0A69572
S1133CC09795879577956795BA95C9F70097610594
S1133CD0710508959B01AC010A2E069457954795EA
S1133CE037952795BA95C9F7620F731F841F951FDF
S10B3CF0A01D0895F894FFCF14
S1133CF80000DB1D20000A0000004F02050101013D
S1133D0800005502035902050A02FE00005F02057D
S1133D186502050A03FE00006B020B6502050A042E
S1133D28FE00007702047C02090A05FE0000000078
S1133D38004F02050AFFFF0000FFFFC600CE004443
S1133D48554D4D590024242400434D440D0A005375
S1133D58412C310D00414F4B0D0A00532D2C56496F
S1133D68422D4361720D00522C310D005265626F71
S1133D786F74210D0A0049444C4500546D72205358
S1133D88766300792534647A2534647425346400B0
S1133D9878253464792534647A2534647225346446
S1133DA87125346474253464004C6561726E5472F0
S1133DB861636B00436F756E74546163686F00418F
S1133DC8646A757374537065656400476F616C4CFD
S1133DD8696E655461736B005374617274757054C1
S10F3DE861736B00000102030001020083
S9030000FC
