:10000000C4C00000A8C30000E1C00000DFC00000C1
:10001000DDC00000DBC00000D9C00000D7C0000078
:10002000D5C00000D3C00000D1C00000CFC0000088
:10003000CDC00000C5C30000C9C00000C7C000009B
:10004000C5C00000C3C00000C1C00000BFC00000A8
:10005000BDC000000C946F08B9C00000B7C000001C
:100060000C9416130C94B2100C94F410AFC0000052
:10007000ADC00000ABC00000A9C00000A7C00000D8
:10008000A5C00000A3C00000A1C000009FC00000E8
:100090000C9440110C94821199C0000097C000008C
:1000A00095C0000093C0000091C000008FC0000008
:1000B0008DC000008BC0000089C0000087C0000018
:1000C00085C0000083C0000081C00000C80ED00EB3
:1000D000D80EE00EE80EEC0E3C0F7B0F7B0F7B0F73
:1000E0007B0F7B0F7B0F7B0F7B0F7B0F7B0F7B0FC0
:1000F0007B0F7B0F7B0F7B0F7B0F7B0F7B0F7B0FB0
:100100007B0F7B0F7B0F7B0F7B0F7B0FC40ECC0E07
:10011000D40EDC0EE40E170F5C0F0F2EF1E4EF2E61
:10012000FDE0FF2EF02DC9E1DDE025C00E94240C8A
:1001300018810E94E50C1123F1F00FB6F8940F928C
:10014000E0911E0DF0911F0D06811781C8010296E6
:1001500013D68091170D81508093170D8091180D43
:1001600081508093180D0F900FBEF8018789908DF4
:10017000EBD7C801E9D78091180D8111D7CFF701CE
:1001800080818230C0F3D6D6F6CF11241FBECFEFC8
:10019000D1E2DEBFCDBF00E00CBF12E0A0E0B2E0D4
:1001A000E8EBFFE200E00BBF02C007900D92A83C15
:1001B000B107D9F72DE0A8ECB2E001C01D92A83735
:1001C000B207E1F70E94D40F0C94DA1719CF1092FE
:1001D000F602E091F402F091F502309709F01995DA
:1001E0000895CF93DF931F921F92CDB7DEB76A8336
:1001F0008091F602882319F0862F67D413C080916E
:10020000F2029091F302009769F0198220E0AE01AA
:100210004F5F5F4FBE016E5F7F4F0E94B6098981BD
:10022000811188D60F900F90DF91CF910895DF92C2
:10023000EF92FF920F931F93CF93DF93CDB7DEB76B
:10024000D62EEDB6FEB6262F30E02F5F3F4F4DB7CE
:100250005EB7421B530B0FB6F8945EBF0FBE4DBF87
:100260000DB71EB70F5F1F4F98018068EDB7FEB73F
:100270008183662341F081E0F901E80FF11D1082CE
:100280008F5FD816C8F786E193E004D341E04D0DA7
:10029000B80180912B0390912C030E9495120FB608
:1002A000F894FEBE0FBEEDBEDF91CF911F910F916E
:1002B000FF90EF90DF900895462FBC0180912903B5
:1002C00090912A030C9473100895CF93DF9300D07C
:1002D0001F92CDB7DEB78091C9028230C1F128F4F8
:1002E000882351F08130C9F0EBC0833009F43FC05E
:1002F000853009F491C0E4C081E08093C9028CE1AB
:100300008B831C8242E0BE016D5F7F4F80912B0387
:1003100090912C030E949512D3C086E193E0B7D24E
:10032000823009F0CDC08093C90286E193E0B2D259
:100330008BE18B8388E08C8342E0BE016D5F7F4F51
:1003400080912B0390912C030E949512B9C086E1F5
:1003500093E09DD2823009F0B3C083E08093C9025C
:1003600086E193E097D266E08BE361DFA9C086E186
:1003700093E08DD2873009F0A3C0BE016F5F7F4F3D
:1003800086E193E057D2BE016E5F7F4F86E193E036
:1003900051D2BE016F5F7F4F86E193E04BD28A81DD
:1003A00090E0982F88272981822B909302038093D5
:1003B0000103BE016E5F7F4F86E193E03BD2BE0139
:1003C0006F5F7F4F86E193E035D28A8190E0982F6E
:1003D00088272981822B909300038093FF02BE011E
:1003E0006E5F7F4F86E193E025D2BE016F5F7F4F46
:1003F00086E193E01FD28A8190E0982F8827298197
:10040000822B9093FE028093FD0285E08093C902C7
:1004100066E083E40CDF54C086E193E038D2873095
:1004200009F04EC0BE016F5F7F4F86E193E002D2BC
:10043000BE016E5F7F4F86E193E0FCD1BE016F5F2E
:100440007F4F86E193E0F6D18A8190E0982F88274C
:100450002981822B9093FC028093FB02BE016E5F88
:100460007F4F86E193E0E6D1BE016F5F7F4F86E16B
:1004700093E0E0D18A8190E0982F88272981822B10
:100480009093FA028093F902BE016E5F7F4F86E17E
:1004900093E0D0D1BE016F5F7F4F86E193E0CAD178
:1004A0008A8190E0982F88272981822B9093F802E7
:1004B0008093F70283E08093C90266E08BE3B7DEA6
:1004C0000F900F900F900F90DF91CF910895882398
:1004D00011F0439A089543980895882311F0429AA1
:1004E000089542980895882311F0419A08954198FB
:1004F0000895853608F084E68823A9F0282F30E097
:10050000AFE7BCE00E94D91324E630E040E050E0C1
:100510000E94B713309399002093980030939B006A
:1005200020939A00089510929900109298001092CA
:100530009B0010929A0008958F929F92AF92BF9263
:10054000CF92DF92EF920F931F933B9A3A9A399A88
:10055000389AE0E9F0E0808182608083A1E9B0E030
:100560008C9188618C938FE79CE0909399008093A5
:1005700098002081206C20836B9A90939B0080933D
:100580009A002081206320836C9A90939700809337
:1005900096008C9181608C9380E0ABDF6A986D9AB5
:1005A0007598089A1098099A11980A9A1298E9E68B
:1005B000F0E0808182608083E89A8DED92E035D111
:1005C0008AEC92E032D10F2EF1EF8F2EF0E09F2EC9
:1005D000F02D0F2EFAECAF2EF2E0BF2EF02D0F2EE5
:1005E000FDEDCF2EF2E0DF2EF02DE12C00E023E038
:1005F00040E855E260E070E080E00E94FC0F9093DC
:100600002A038093290386E193E00FD183E093E0EE
:100610000CD185E691E09F938F930F2EF3E08F2E00
:10062000F3E09F2EF02D0F2EF6E1AF2EF3E0BF2E5C
:10063000F02DC12C05E210E020E043E063E080E112
:100640000E94081290932C0380932B0360E080E0BB
:1006500090E03BDE8BE98093B300E1EBF0E080813A
:1006600082608083A0E7B0E08C9182608C9380816F
:10067000856080830F900F901F910F91EF90DF9016
:10068000CF90BF90AF909F908F900895853608F0DF
:1006900084E68823A9F0282F30E0AFE7BCE00E9471
:1006A000D91324E630E040E050E00E94B7133093C5
:1006B00099002093980010929B0010929A00089540
:1006C000109299001092980010929B0010929A003C
:1006D0000895809101039091020308958091FF0293
:1006E0009091000308958091FD029091FE0208957B
:1006F0008091FB029091FC0208958091F902909103
:10070000FA020895882311F010980895109A089518
:10071000462FBC018091290390912A030C947310F9
:1007200008957093F3026093F2029093F502809320
:10073000F40281E08093F60247EE50E06CE571E050
:1007400087E092E09AC10895009721F09093F1021A
:100750008093F00208951F920F920FB60F9211240A
:100760000BB60F922F933F934F935F936F937F93AB
:100770008F939F93AF93BF93EF93FF938091F0027A
:100780009091F102009749F01092C80268EC72E073
:100790001FD68091C8028111CDD3FF91EF91BF91F7
:1007A000AF919F918F917F916F915F914F913F9109
:1007B0002F910F900BBE0F900FBE0F901F901895AA
:1007C0001F920F920FB60F9211240BB60F922F9318
:1007D0003F934F935F936F937F938F939F93AF93C9
:1007E000BF93EF93FF938091F602882359F0809195
:1007F0000602815019F08093060204C08AE08093BB
:1008000006024CD1FF91EF91BF91AF919F918F91D3
:100810007F916F915F914F913F912F910F900BBE00
:100820000F900FBE0F901F901895FC01108A118A2F
:10083000128A0895FC018289882391F08189DF0161
:10084000A80FB11D8C91DB018C93818990E00196FA
:100850008F709078818B82898150828B80E008959F
:1008600081E00895FC014289403178F4208930E02C
:10087000E20FF31F60832F5F3F4F2F703078FC0132
:10088000208B4F5F428B80E0089582E00895FC0149
:1008900082890895FC01108A118A128A0895E091D4
:1008A0003A03F0913B038081853209F085C0CF0186
:1008B000019690933B0380933A038181853219F42A
:1008C0001092310308958A32E1F5CF010296909398
:1008D0003B0380933A03339620E0DC010196220F1C
:1008E000322F330F330F230F20533C91230F3191BD
:1008F000323499F720933C031296B0933B03A093B4
:100900003A0380913E0390913F030097B1F0EDE3ED
:10091000F3E020812F5F2083332727FD3095F901F5
:10092000EE0FFF1FE20FF31FE80FF91F1282808105
:100930009181909341038093400382E0809331033F
:10094000089580913A0390913B03DC01119620E0D9
:10095000FC010196220F322F330F330F230F205348
:100960003081230F3D91323499F720933C03329626
:10097000F0933B03E0933A0380913E0390913F0351
:100980000097B1F0ADE3B3E0EC91EF5FEC93FF279C
:10099000E7FDF0959F01220F331FE20FF31FE80FD1
:1009A000F91F1282808191819093410380934003CB
:1009B00081E0809331030895109231030895CF931D
:1009C000DF93109235038093340392E0980F9230B6
:1009D00030F4E0912D03F0912E0319954BC09BE06C
:1009E000899FE0011124A0913203B0913303AC0F31
:1009F000BD1F12966C911297662339F0E0912F0378
:100A0000F09130038D919C911995809132039091D2
:100A10003303C80FD91F2D81222351F18B819C8173
:100A2000909337038093360390933B0380933A036C
:100A3000E985FA85F0933F03E0933E033FEF30935F
:100A40003D03309731F040815181509341034093F1
:100A5000400330E021503109820F931F90933903F6
:100A6000809338031CDF8E818F5F8093350302C033
:100A70008F81A5DFDF91CF91089590933303809309
:100A800032037093300360932F0350932E034093EF
:100A90002D031092340380E092CF089580913503A6
:100AA000882391F081508093350381110DC080918E
:100AB0003403E0913203F09133039BE0899FE00D12
:100AC000F11D112480857BCF08956F927F928F92C4
:100AD0009F92AF92BF92CF92DF92EF92FF920F93CD
:100AE0001F93CF93DF93982E80913103813009F4C7
:100AF00042C020F0823009F470C0AFC0812CCAE33C
:100B0000D3E00F2EF6E3CF2EF3E0DF2EF02D0F2EE5
:100B1000FDE3EF2EF3E0FF2EF02D0EE313E077243C
:100B20007394612C0F2EF0E4AF2EF3E0BF2EF02D66
:100B3000E881F9819F012F5F3F4F398328838081AE
:100B40008915A9F0D6018D919C9199838883F7012D
:100B50001082D801ED91FC91309729F0808191812C
:100B6000F50191838083872D8110862D882E97DE55
:100B70008110DECF72C020913E0330913F032115DA
:100B8000310511F1A0E4B3E0ED91FC911197CF0193
:100B900001968D939C939082E0913D03FF27E7FDA2
:100BA000F095CF01880F991FE80FF91FE20FF31F8F
:100BB00082818F5F8283ECE3F3E0808181508083C8
:100BC00081114BC06CDE49C0ECE3F3E080818150C1
:100BD0008083811142C063DE40C0E0913A03F0910E
:100BE0003B038081891551F180913E0390913F0331
:100BF000009709F44EC0A0E4B3E0ED91FC91119789
:100C00009F012F5F3F4F2D933C93908220913D0396
:100C1000332727FD3095F901EE0FFF1FE20FF31F79
:100C2000E80FF91F82818F5F8283ECE3F3E080811C
:100C300081508083811111C032DE0FC0ACE3B3E07C
:100C40008C9181508C93811102C029DE06C03196AF
:100C5000F0933B03E0933A0322DE8091310381114C
:100C600018C020913A0330913B0380913803909152
:100C700039038217930768F480913403E0913203BB
:100C8000F09133039BE0899FE00DF11D11248781D2
:100C900096DEDF91CF911F910F91FF90EF90DF9043
:100CA000CF90BF90AF909F908F907F906F9008955E
:100CB000FC010396928381832FEF3FEF34832383DC
:100CC000968385839087878310820895FC0111861F
:100CD00010860895CF93DF939C01FB01DC011196F0
:100CE000CD91DC911297D383C2838C819D819583B2
:100CF00084838C819D81DC0113967C936E93129783
:100D00007D836C8331872087F90180818F5F8083A9
:100D1000DF91CF910895CF93DF93EB014881598103
:100D20004F3F2FEF520721F4FC01A781B0850DC082
:100D3000DC0113961296ED91FC911397208131817D
:100D40004217530710F0DF01F5CF1296ED91FC9199
:100D50001397FB83EA83D583C483BD83AC83139647
:100D6000DC93CE93129799878887FC0120812F5FAF
:100D70002083DF91CF910895CF93DF93FC01A0856D
:100D8000B185C281D381848195819D838C83C48107
:100D9000D581828193819B838A831196CD91DC9149
:100DA0001297CE17DF0731F48C819D8112969C93A8
:100DB0008E931197118610868C9181508C93DF91C0
:100DC000CF91089531E1FC013083319722E22083F5
:100DD0003197A3E3A0833197608331977083319774
:100DE000108231971082319760E8608331971082CA
:100DF0003197108231971082319762E0608331978A
:100E000063E06083319764E06083319765E06083DD
:100E1000319766E06083319767E06083319768E0DF
:100E20006083319769E06083319760E16083319737
:100E30003083319732E13083319733E1308331971A
:100E400034E13083319735E13083319736E13083B7
:100E5000319737E13083319738E13083319739E189
:100E60003083319730E23083319731E230833197EC
:100E70002083319723E22083319740833197508339
:100E8000319726E22083319727E22083319728E2A9
:100E90002083319729E22083319720E32083319703
:100EA00021E320838997089588EE93E0909345038A
:100EB00080934403909343038093420389EF87BD5B
:100EC00082E084BD83E085BDEEE6F0E08081826053
:100ED0008083A091650DB091660DCD91CDBFDD9160
:100EE000DEBFFF91EF91DF91CF91BF91AF919F91C5
:100EF0008F917F916F915F914F913F912F911F91B2
:100F00000F91FF90EF90DF90CF90BF90AF909F90A8
:100F10008F907F906F905F904F903F902F901F9099
:100F20000F900CBE0F900BBE0F900FBE0F90089548
:100F300081E008950F920FB6F8940F920BB60F92BE
:100F40000CB60F921F9211242F923F924F925F92F4
:100F50006F927F928F929F92AF92BF92CF92DF92C9
:100F6000EF92FF920F931F932F933F934F935F93B3
:100F70006F937F938F939F93AF93BF93CF93DF93A1
:100F8000EF93FF93A091650DB091660D0DB60D9294
:100F90000EB60D92B3D5A091650DB091660DCD91B1
:100FA000CDBFDD91DEBFFF91EF91DF91CF91BF917A
:100FB000AF919F918F917F916F915F914F913F91F1
:100FC0002F911F910F91FF90EF90DF90CF90BF90E6
:100FD000AF909F908F907F906F905F904F903F90D9
:100FE0002F901F900F900CBE0F900BBE0F900FBE56
:100FF0000F9008950F920FB6F8940F920BB60F92C0
:101000000CB60F921F9211242F923F924F925F9233
:101010006F927F928F929F92AF92BF92CF92DF9208
:10102000EF92FF920F931F932F933F934F935F93F2
:101030006F937F938F939F93AF93BF93CF93DF93E0
:10104000EF93FF93A091650DB091660D0DB60D92D3
:101050000EB60D92809142039091430301979093B5
:10106000430380934203892B41F480914403909180
:1010700045039093430380934203ECD381113ED503
:10108000A091650DB091660DCD91CDBFDD91DEBF14
:10109000FF91EF91DF91CF91BF91AF919F918F9190
:1010A0007F916F915F914F913F912F911F910F9180
:1010B000FF90EF90DF90CF90BF90AF909F908F9078
:1010C0007F906F905F904F903F902F901F900F9068
:1010D0000CBE0F900BBE0F900FBE0F9008958ADFCD
:1010E0001895CF93DF93EC01AFD380914603909195
:1010F0004703892B31F48BE493E09093470380936B
:10110000460340914803509149039E01240F351F27
:10111000233C89E0380770F44217530770F4C091FC
:101120004603D0914703C40FD51F30934903209342
:10113000480305C0C0E0D0E002C0C0E0D0E045D424
:10114000CE01DF91CF91089508951F93CF93DF9340
:10115000EC01142F8C8D8823E9F1411117C0482F21
:1011600050E08C819D810E940F152C8D8C819D817A
:10117000820F911D9D838C832A813B818217930767
:1011800048F1888199819D838C8324C0482F50E049
:101190008E819F810E940F152C8D30E03195219515
:1011A00031098E819F81820F931F9F838E83688177
:1011B00079818617970730F48A819B81280F391F20
:1011C0003F832E83123031F48A8D882319F08A8D63
:1011D00081508A8F8A8D8F5F8A8F80E0DF91CF91D7
:1011E0001F910895FC01CB01448D4423A1F050E0F0
:1011F00026813781240F351F3783268362817381CF
:101200002617370720F020813181378326836681B6
:1012100077810C940F1508950F931F93CF93DF934D
:10122000EC010FB6F8940F928E8D1816A4F48989EC
:10123000882389F08E010F5E1F4F03C089898823A0
:1012400051F0C801EDD481116CD58E8D81508E8FF7
:101250008E8D18169CF38FEF8E8F0F900FBE0FB6EA
:10126000F8940F928D8D1816A4F48885882389F040
:101270008E01085F1F4F03C08885882351F0C80185
:10128000CFD481114ED58D8D81508D8F8D8D1816B7
:101290009CF38FEF8D8F0F900FBEDF91CF911F9139
:1012A0000F910895CF93DF93EC010FB6F8940F924E
:1012B000888199812C8D30E07B8D729FA001739F76
:1012C000500D1124FC01E40FF51FFB83EA831A8EF5
:1012D0009D838C83421B530B840F951F9F838E83AA
:1012E0008FEF8D8F8E8F61110AC08885882369F0FA
:1012F000CE01089695D4813041F41CDE06C0CE01A3
:101300000896D6DCCE014196D3DC0F900FBE81E06B
:10131000DF91CF9108950F931F93CF93DF93082F01
:10132000162F6623B9F0869FC00111248096D9DE5E
:10133000EC01009721F414C0D983C88305C09C0137
:10134000215E3F4F398328830B8F1C8F61E0CE01D4
:10135000A9DF06C08FE190E0C4DEEC01009761F7E1
:10136000CE01DF91CF911F910F9108950F931F939D
:10137000CF93DF93EC018A019A8D8B8D981710F033
:101380002230D1F4422FCE01E0DE8E8D8F3F79F4F2
:101390008989882399F0CE01419642D4882381F02F
:1013A0000115110579F081E0F80180830CC08E8D64
:1013B0008F5F8E8F81E007C080E005C081E003C0B1
:1013C00081E001C081E0DF91CF911F910F910895DD
:1013D000CF93DF93FC01EB01928D838D9817C0F4BE
:1013E000828D8F5F828F868D8F3F69F481898823FC
:1013F00089F0CF01419614D4882371F0209771F0C1
:1014000081E088830CC0868D8F5F868F81E007C066
:1014100080E005C081E003C081E001C081E0DF9190
:10142000CF9108959F92AF92BF92CF92DF92EF92A9
:10143000FF920F931F93CF93DF9300D01F921F92C1
:10144000CDB7DEB78C016B015D834C83B22EA12C2E
:10145000992493947C0181E1E80EF11C0FB6F89475
:101460000F92F801828D882321F1E680F780B60182
:10147000C801B8DEB1100EC0F801828D8150828F94
:101480008085882391F0C8010896CAD3813069F419
:1014900051DD0BC0F801F782E6828189882329F0AB
:1014A000C8014196BDD3811145DD0F900FBE81E08B
:1014B00044C04C815D81452B21F40F900FBE80E02C
:1014C0003CC0A11004C0CE010196EED3A92C0F9010
:1014D0000FBEBAD10FB6F8940F92F801858D8F3FE9
:1014E00009F4158EF801868D8F3F09F4168E0F9042
:1014F0000FBEBE016C5F7F4FCE010196E0D381111C
:1015000018C00FB6F8940F92F801828D0F900FBE9D
:1015100081110BC06C817D81C70168D3C8017CDE5D
:1015200054D281119BCF06DD99CFC80175DE4DD213
:1015300095CFC80171DE49D280E00F900F900F90D7
:101540000F900F90DF91CF911F910F91FF90EF902F
:10155000DF90CF90BF90AF909F900895E0912D0DB8
:10156000F0912E0D8081811107C08FEF9FEF909336
:101570004A02809349020895E0912D0DF0912E0DBD
:101580000580F681E02D0680F781E02D8281938130
:1015900090934A02809349020895CF93DF93EC0120
:1015A000E091650DF091660D938382838091150D16
:1015B0009091160DC817D90760F46091650D709170
:1015C000660D80912B0D90912C0D6E5F7F4FA3DBEC
:1015D00016C06091650D7091660D80912D0D9091F2
:1015E0002E0D6E5F7F4F97DB8091490290914A02EA
:1015F000C817D90720F4D0934A02C0934902DF915B
:10160000CF9108954F925F926F927F928F929F92A7
:10161000AF92BF92CF92DF92EF92FF920F931F9300
:10162000CF93DF934C015B012A013901C114D1042E
:1016300031F4CA0156DD6C01009709F4CAC086E294
:1016400090E04FDDEC01009771F0D88ECF8A81E0F9
:10165000481A5108C40CD51CD5018C91898F8C91E6
:10166000811104C014C0C6016FDDB3C0AE01465E77
:101670005F4FF501319627E0CF013191DA013D93BB
:10168000AD01DC018C91882311F02150A9F718A23B
:10169000102F043008F013E01E8B5E01B2E0AB0E99
:1016A000B11CC50113DBCE010C9610DBD987C887AE
:1016B00084E090E0811B91099D878C87DB8BCA8B2E
:1016C00019A21AA21BA21CA21DA2A301B401C60149
:1016D00079DB99838883E114F10419F0F701D18350
:1016E000C0830FB6F8940F928091170D8F5F80938F
:1016F000170D8091650D9091660D892B69F5D0933A
:10170000660DC093650D8091170D8130A1F581E4C0
:101710009DE0CEDA8AE49DE0CBDA83E59DE0C8DA8D
:101720008CE59DE0C5DA88E39DE0C2DA8FE29DE0BA
:10173000BFDA82E29DE0BCDA89E19DE0B9DA88E3B4
:101740009DE090932E0D80932D0D8FE29DE0909360
:101750002C0D80932B0D0FC08091130D81110BC0A8
:10176000E091650DF091660D8689081720F0D09301
:10177000660DC093650D80910F0D8F5F80930F0DE7
:101780008E899091140D981710F48093140D90E0A9
:101790009C01220F331F220F331F220F331F820F92
:1017A000931FB5018F5B924F95DA0F900FBE80911A
:1017B000130D882351F0E091650DF091660D868937
:1017C000801728F4B7DB81E005C081E003C081E029
:1017D00001C08FEFDF91CF911F910F91FF90EF909C
:1017E000DF90CF90BF90AF909F908F907F906F9041
:1017F0005F904F900895AF92BF92CF92DF92EF9299
:10180000FF920F93A12CB12CC12CD12CE12CF12CE7
:1018100000E020E030E049EB50E066E872E08DE85F
:1018200090E0F0DE813041F4F8948093130D109233
:10183000160D1092150D38DB0F91FF90EF90DF9091
:10184000CF90BF90AF90089580910E0D8F5F8093E1
:101850000E0D0895CF92DF92EF92FF920F931F9398
:10186000CF93DF9380910E0D811196C08091150D5D
:101870009091160D01969093160D8093150DE090A2
:10188000150DF090160DE114F104B1F480912D0DB9
:1018900090912E0D20912B0D30912C0D30932E0D0B
:1018A00020932D0D90932C0D80932B0D8091100D76
:1018B0008F5F8093100D52DE8091490290914A0211
:1018C000E816F90608F451C0D12CCC24C39401C009
:1018D000DC2CE0912D0DF0912E0D8081811107C03F
:1018E0008FEF9FEF90934A02809349023FC0E091AF
:1018F0002D0DF0912E0D0580F681E02DC681D7814A
:101900002A813B81E216F30628F430934A022093A1
:1019100049022CC08E010E5F1F4FC8012DDA8C8941
:101920009D89892B19F0CE010C9626DA2E8980919B
:10193000140D821710F42093140D30E0C901880FA4
:10194000991F880F991F880F991F820F931FB80145
:101950008F5B924FBFD9E091650DF091660D9E8926
:101960008689981708F0B4CFB4CFD12CE091650DDB
:10197000F091660D868990E0FC01EE0FFF1FEE0FDF
:10198000FF1FEE0FFF1F8E0F9F1FFC01EF5BF24F3B
:101990008081823040F409C08091120D8F5F809366
:1019A000120DD12C02C0DD24D3948091110D882317
:1019B00011F0DD24D3948D2DDF91CF911F910F91E4
:1019C000FF90EF90DF90CF900895DF92EF92FF921B
:1019D0000F931F93CF93DF930FB6F8940F928091DC
:1019E0000E0D815080930E0D80910E0D81115CC003
:1019F0008091170D882309F459C00F2EF2E2EF2EC3
:101A0000FDE0FF2EF02DDD24D3942DC0E091270DB5
:101A1000F091280DC681D781CE010C96ADD98E01EB
:101A20000E5F1F4FC801A8D98E899091140D981789
:101A300010F48093140D90E09C01220F331F220FAD
:101A4000331F220F331F820F931FB8018F5B924FFA
:101A500041D9E091650DF091660D9E8986899817B0
:101A600010F0D092110DF70180818111CFCF8091BC
:101A7000120D882391F08091120D882371F0C1E03E
:101A8000E9DE8111C093110D8091120D8150809378
:101A9000120D8091120D8111F3CF8091110D8130C3
:101AA00039F448DA81E005C080E003C080E001C07D
:101AB00080E00F900FBEDF91CF911F910F91FF90AB
:101AC000EF90DF900895CF93DF93EC01009791F0B2
:101AD000BBDE8091150D9091160DC80FD91F809116
:101AE000650D9091660D029647D9CE0156DD6DDFEA
:101AF000811101C01FDADF91CF91089580910E0D01
:101B0000882321F081E08093110D08951092110D2A
:101B1000A091650DB091660DE091650DF091660D97
:101B20002D913C918789908D8217930758F0609191
:101B3000650D7091660D8091650D9091660D675EE3
:101B40007F4F56D28091140D90E0FC01EE0FFF1FE5
:101B5000EE0FFF1FEE0FFF1F8E0F9F1FFC01EF5BAD
:101B6000F24F8081811117C08091140D81508093B4
:101B7000140D8091140D90E0FC01EE0FFF1FEE0F8D
:101B8000FF1FEE0FFF1F8E0F9F1FFC01EF5BF24F39
:101B90008081882349F3E091140DF0E0CF01880F94
:101BA000991F880F991F880F991FE80FF91FEF5B86
:101BB000F24FA181B28112960D90BC91A02DB283FB
:101BC000A183CF010396A817B90731F412968D911E
:101BD0009C911397928381830180F281E02D86810D
:101BE00097819093660D8093650D0895CF93DF9351
:101BF000EB016091650D7091660D645F7F4F8BD82E
:101C00008091650D9091660D0296B6D88091150D64
:101C10009091160D8C0F9D1FC0DCDF91CF91089520
:101C20000F931F93CF93DF93DC011596ED91FC91F9
:101C30001697C681D7818E01045F1F4FC8019CD8BB
:101C400080910E0D81111AC00A501109C80194D853
:101C50008E899091140D981710F48093140D90E0D4
:101C60009C01220F331F220F331F220F331F820FBD
:101C7000931FB8018F5B924F2DD804C0B80182E248
:101C80009DE028D8E091650DF091660D9E898689CA
:101C9000891720F481E08093110D01C080E0DF916D
:101CA000CF911F910F9108952091100DFC01208379
:101CB0002091150D3091160D3283218308950FB6B2
:101CC000F8940F922091150D3091160D4091100D42
:101CD000DC015C91541739F011964D915C9112978B
:101CE00024173507C0F4DC011196ED91FC91129791
:101CF000DB014D915C91D901AE1BBF0BA417B50759
:101D000060F4E21BF30B4E0F5F1FFB015183408316
:101D1000CBDF80E003C081E001C081E00F900FBE07
:101D2000089581E08093110D08958F3F19F481E0AB
:101D30008093670D089520E04FEF5FEF60E070E063
:101D400080916A0D90916B0D6DDBF5CFEF92FF9254
:101D50000F931F93CF93DF93CDB7DEB764970FB682
:101D6000F894DEBF0FBECDBF9091670D992309F4A3
:101D7000C2C090E0FC01E154F109E732F10508F03E
:101D8000BAC0EA59FF4F0FC580E00E946D02B3C090
:101D900081E00E946D02AFC080E00E947302ABC080
:101DA00081E00E947302A7C080E00E946702A3C086
:101DB00081E00E9467029FC080E00E9479029BC080
:101DC0008BE40E94790297C080E00E94460393C092
:101DD00084E60E9446038FC00E946903182F092FD2
:101DE0000E946E03F82EE92E0E9473039F938F9337
:101DF000EF92FF920F931F938BE892E09F938F9344
:101E00008E010F5F1F4F1F930F9312D6F8010190A1
:101E10000020E9F73197BF01601B710BC8010E94D8
:101E200088030FB6F894DEBF0FBECDBF64C00E941A
:101E30007803182F092F0E947D039F938F930F9390
:101E40001F938FE892E09F938F938E010F5F1F4F38
:101E50001F930F93EDD5F80101900020E9F731971A
:101E6000BF01601B710BC8010E9488030FB6F89474
:101E7000DEBF0FBECDBF3FC00E9473039F938F9301
:101E800087E992E09F938F938E010F5F1F4F1F93FF
:101E90000F93CED5F80101900020E9F73197BF01EB
:101EA000601B710BC8010E9488030F900F900F9068
:101EB0000F900F900F901FC00E9478039F938F93F5
:101EC00081EA92E09F938F938E010F5F1F4F1F93C4
:101ED0000F93AED5F80101900020E9F73197BF01CB
:101EE000601B710BC8010E9488030F900F900F9028
:101EF0000F900F900F9064960FB6F894DEBF0FBE50
:101F0000CDBFDF91CF911F910F91FF90EF9008957A
:101F1000CF93DF931F92CDB7DEB743E060E081E05F
:101F2000FAD990936B0D80936A0D40E061E08EE1E9
:101F3000F2D99093690D8093680D80916A0D90910C
:101F40006B0D009711F00E94A40388EE93E0BBDDB7
:101F500080E00E94820388EE93E0B5DD6091680D19
:101F60007091690D85E99EE00E949103A12CB12C2E
:101F7000C12CD12CE12CF12C01E020E030E049EB28
:101F800050E06BEA72E08BE99EE03CDB20E04FEF33
:101F90005FEFBE016F5F7F4F8091680D9091690D7B
:101FA00041DA8981D3DEF2CFAF92BF92CF92DF9236
:101FB000EF92FF920F930E949C02A12CB12CC12C96
:101FC000D12CE12CF12C00E020E030E049EB50E096
:101FD00065EB72E088E89FE015DB0DDC80E090E0C7
:101FE0000F91FF90EF90DF90CF90BF90AF9008954A
:101FF00081E00C94670208954F925F926F927F92F6
:102000008F929F92AF92BF92CF92DF92FF920F93E7
:102010001F93CF93DF93CDB7DEB7F82E2A013B0194
:1020200088E090E0D5D38C018F2D90E0880F991F28
:10203000FC01E459F24F11830083FC01E55BFD4F85
:1020400080819181D80111969C938E931396BC92B6
:10205000AE9212971596DC92CE92149717969C9298
:102060008E921697FFB6F894D801ED91FC911197D6
:102070003697808182608083CD90DC90440C551C23
:10208000661C771C440C551C661C771CA30192012E
:10209000220F331F441F551F60E074E284EF90E06D
:1020A00044D32150F60132972083D801ED91FC9161
:1020B0001197359788E98083ED91FC91349786E0FC
:1020C0008083FFBEC801DF91CF911F910F91FF90D8
:1020D000DF90CF90BF90AF909F908F907F906F9048
:1020E0005F904F900895EF92FF920F931F93CF93BD
:1020F000DF938C01E42EDC011296ED91FC91139795
:10210000309769F0242F30E0428980E190E0841B11
:10211000910982179307E4F0E11005C010C0B1E007
:10212000B417C0F0F9CFC62FD72FF12C6991F80161
:10213000828193810E943204F394FE10F7CFD8017C
:10214000ED91FC91359780818062808380E003C0AF
:1021500082E001C082E0DF91CF911F910F91FF904B
:10216000EF9008951F920F920FB60F9211240BB6A5
:102170000F922F933F934F935F936F937F938F9320
:102180009F93AF93BF93CF93EF93FF93E0916C0D29
:10219000F0916D0D3097A1F0C091C6006C2F848135
:1021A00095810E94320480916C0D90916D0DDC013F
:1021B0001696ED91FC911797309711F06C2F1995A9
:1021C000FF91EF91CF91BF91AF919F918F917F91AF
:1021D0006F915F914F913F912F910F900BBE0F9098
:1021E0000FBE0F901F9018951F920F920FB60F926F
:1021F00011240BB60F922F933F934F935F936F93DE
:102200007F938F939F93AF93BF93EF93FF93CF935E
:10221000DF931F92CDB7DEB7E0916C0DF0916D0D9D
:10222000309799F0BE016F5F7F4F828193810E944A
:102230001A04811104C089818093C6000BC0E1ECAF
:10224000F0E080818F7D808305C0E1ECF0E080814B
:102250008F7D80830F90DF91CF91FF91EF91BF91A0
:10226000AF919F918F917F916F915F914F913F912E
:102270002F910F900BBE0F900FBE0F901F901895CF
:102280001F920F920FB60F9211240BB60F922F933D
:102290003F934F935F936F937F938F939F93AF93EE
:1022A000BF93CF93EF93FF93E0916E0DF0916F0D7D
:1022B0003097A1F0C091CE006C2F848195810E944F
:1022C000320480916E0D90916F0DDC011696ED91A8
:1022D000FC911797309711F06C2F1995FF91EF91A2
:1022E000CF91BF91AF919F918F917F916F915F91AE
:1022F0004F913F912F910F900BBE0F900FBE0F90FB
:102300001F9018951F920F920FB60F9211240BB6C3
:102310000F922F933F934F935F936F937F938F937E
:102320009F93AF93BF93EF93FF93CF93DF931F924E
:10233000CDB7DEB7E0916E0DF0916F0D309799F04B
:10234000BE016F5F7F4F828193810E941A048111C9
:1023500004C089818093CE000BC0E9ECF0E080815D
:102360008F7D808305C0E9ECF0E080818F7D8083E4
:102370000F90DF91CF91FF91EF91BF91AF919F911E
:102380008F917F916F915F914F913F912F910F901E
:102390000BBE0F900FBE0F901F901895E091710D1E
:1023A000F091720D309701F12381213079F4A081F1
:1023B000B1814C9121E030E0028002C0220F331F36
:1023C0000A94E2F7209524232C930EC0A081B181BA
:1023D0006C9141E050E09A01028002C0220F331F4D
:1023E0000A94E2F7262B2C939093720D8093710D33
:1023F000009769F01092730D2CB52F732CBDFC0162
:1024000024812CBD85818DBD8CB580648CBD0895E3
:102410006F927F928F929F92AF92BF92CF92DF92F4
:10242000EF92FF920F931F93CF93DF93CDB7DEB759
:10243000D82EF62E642E722E8091700D811106C05A
:1024400084B1876084B981E08093700D8CE090E066
:10245000BFD1FC0100831183E282A02FB12F4E91E6
:1024600021E030E0C90102C0880F991FEA94E2F729
:10247000842B8C93C382660C660C7628AF2DBB2709
:10248000A7FDB095AF53BD4F6C90D628D728D48206
:1024900083E08F1514F481E0858397828682B1866C
:1024A000A0868A899B89938782876FB7F8948091E9
:1024B000710D9091720DF093720DE093710D238167
:1024C000213081F4A081B1817C9141E050E09A01FA
:1024D000028002C0220F331F0A94E2F720952723BF
:1024E0002C930EC0A081B1817C9141E050E09A0113
:1024F000028002C0220F331F0A94E2F7272B2C938D
:102500009093720D8093710D6FBFCF01DF91CF91CA
:102510001F910F91FF90EF90DF90CF90BF90AF9001
:102520009F908F907F906F900895DF92EF92FF922F
:102530000F931F93CF93DF93EC018B01F42E009741
:1025400009F46BC08091710D9091720D8C179D07ED
:1025500011F0CE0123DFEFB6F894EE81FF813097C2
:1025600061F02F2D30E0428980E190E0841B9109D9
:10257000821793070CF448C004C081E08F1508F45B
:1025800045C08091730D811130C081E08093730D3F
:10259000E091710DF091720D8381813079F4A08109
:1025A000B1814C9121E030E0C901028002C0880F66
:1025B000991F0A94E2F7842B8C930EC0A081B181FD
:1025C0002C9181E090E0028002C0880F991F0A944C
:1025D000E2F7809582238C938CB580688CBDF801DE
:1025E00080818EBDDD24D39401C0D12CDF1480F412
:1025F000F801ED0DF11D60818E819F810E943204F2
:10260000D394DF14A8F306C081E005C081E003C0C5
:1026100080E001C080E0EFBE01C083E0DF91CF9198
:102620001F910F91FF90EF90DF9008951F920F92EE
:102630000FB60F9211240BB60F922F933F934F9327
:102640005F936F937F938F939F93AF93BF93EF931A
:10265000FF93CF93DF931F92CDB7DEB7E091710D5B
:10266000F091720D80859185009719F06EB50E94EA
:102670003204E091710DF091720DBE016F5F7F4FDA
:10268000868197810E941A04811103C089818EBDC1
:1026900029C08CB58F778CBD1092730DE091710DB0
:1026A000F091720D8381813079F4A081B1812C91F8
:1026B00081E090E0028002C0880F991F0A94E2F73F
:1026C000809582238C930EC0A081B1814C9121E032
:1026D00030E0C901028002C0880F991F0A94E2F716
:1026E000842B8C938091710D9091720DDC011A9660
:1026F000ED91FC911B97309711F0698119950F901E
:10270000DF91CF91FF91EF91BF91AF919F918F9109
:102710007F916F915F914F913F912F910F900BBEE1
:102720000F900FBE0F901F901895A1E21A2EAA1BB2
:10273000BB1BFD010DC0AA1FBB1FEE1FFF1FA21771
:10274000B307E407F50720F0A21BB30BE40BF50B6E
:10275000661F771F881F991F1A9469F760957095F7
:10276000809590959B01AC01BD01CF010895052E88
:1027700097FB16F400940FD057FD05D0D6DF07FC69
:1027800002D046F408C050954095309521953F4FB2
:102790004F4F5F4F089590958095709561957F4F4D
:1027A0008F4F9F4F0895EE0FFF1F0590F491E02D7E
:1027B0001994A29FB001B39FC001A39F700D811D0A
:1027C0001124911DB29F700D811D1124911D08953A
:1027D000CF93DF938230910510F482E090E0E09196
:1027E000760DF091770D20E030E0A0E0B0E030977A
:1027F00039F14081518148175907B8F048175907F6
:1028000071F482819381109729F013969C938E9393
:1028100012972CC09093770D8093760D27C02115C9
:10282000310531F04217530718F0A901DB0101C04F
:10283000EF019A01BD01DF010280F381E02DD7CFC6
:1028400021153105F9F0281B390B2430310580F4AE
:102850008A819B816115710521F0FB01938382833D
:1028600004C09093770D8093760DFE01329644C09C
:10287000FE01E20FF31F81939193225031093983B6
:1028800028833AC02091740D3091750D232B41F4AB
:1028900020910202309103023093750D2093740D44
:1028A00020910002309101022115310541F42DB72C
:1028B0003EB74091040250910502241B350BE09174
:1028C000740DF091750DE217F307A0F42E1B3F0B6A
:1028D0002817390778F0AC014E5F5F4F2417350792
:1028E00048F04E0F5F1F5093750D4093740D819308
:1028F000919302C0E0E0F0E0CF01DF91CF91089525
:10290000CF93DF93009709F487C0FC0132971382BD
:102910001282C091760DD091770D209781F420819D
:102920003181280F391F8091740D9091750D821798
:10293000930779F5F093750DE093740D6DC0DE018A
:1029400020E030E0AE17BF0750F412964D915C9135
:1029500013979D014115510509F1DA01F3CFB383B6
:10296000A28340815181840F951F8A179B0771F4C0
:102970008D919C911197840F951F0296918380836E
:1029800012968D919C911397938382832115310523
:1029900029F4F093770DE093760D3EC0D90113969C
:1029A000FC93EE9312974D915D91A40FB51FEA171A
:1029B000FB0779F480819181840F951F0296D901DC
:1029C00011969C938E938281938113969C938E9300
:1029D0001297E0E0F0E08A819B81009719F0FE01F8
:1029E000EC01F9CFCE01029628813981820F931F25
:1029F0002091740D3091750D2817390769F43097BF
:102A000029F41092770D1092760D02C01382128273
:102A1000D093750DC093740DDF91CF910895FB0194
:102A2000DC0102C001900D9241505040D8F708954A
:102A30000F931F93CF93DF93CDB7DEB72E970FB6CB
:102A4000F894DEBF0FBECDBF0E891F8986E08C8350
:102A50001A8309838FEF9FE79E838D83AE01465EC5
:102A60005F4F688D798DCE01019610D0EF81F8858A
:102A7000E00FF11F10822E960FB6F894DEBF0FBE46
:102A8000CDBFDF91CF911F910F9108952F923F926B
:102A90004F925F926F927F928F929F92AF92BF926E
:102AA000CF92DF92EF92FF920F931F93CF93DF931A
:102AB000CDB7DEB72C970FB6F894DEBF0FBECDBFF3
:102AC0007C016B018A01FC0117821682838181FFE0
:102AD000B0C1CE0101964C01F7019381F60193FD3F
:102AE000859193FF81916F01882309F49EC18532FE
:102AF00039F493FD859193FF81916F01853221F423
:102B0000B70190E0C7D1E8CF512C312C20E0203222
:102B1000A0F48B3269F030F4803259F0833269F4DA
:102B200020612CC08D3239F0803339F4216026C009
:102B30002260246023C0286021C027FD27C030ED1B
:102B4000380F3A3078F426FF06C0FAE05F9E300D69
:102B50001124532E13C08AE0389E300D1124332ED9
:102B600020620CC08E3221F426FD5FC1206406C0B5
:102B70008C3611F4206802C0883641F4F60193FDCA
:102B8000859193FF81916F018111C1CF982F9F7D16
:102B90009554933028F40C5F1F4FFFE3F9830DC069
:102BA000833631F0833771F0833509F057C021C087
:102BB000F801808189830E5F1F4F44244394512C78
:102BC000540114C03801F2E06F0E711CF801A080AE
:102BD000B18026FF03C0652D70E002C06FEF7FEF6C
:102BE000C5012C874CD12C0183012C852F77222EF7
:102BF00016C03801F2E06F0E711CF801A080B180A0
:102C000026FF03C0652D70E002C06FEF7FEFC501A6
:102C10002C872AD12C012C852068222E830123FCAD
:102C200019C0832D90E048165906A0F4B70180E240
:102C300090E030D13A94F5CFF50127FC859127FE3D
:102C400081915F01B70190E025D131103A94F1E014
:102C50004F1A51084114510479F7DEC0843611F03F
:102C6000893631F5F80127FF07C0608171818281C3
:102C700093810C5F1F4F08C060817181882777FDA9
:102C80008095982F0E5F1F4F2F76B22E97FF09C0A9
:102C900090958095709561957F4F8F4F9F4F2068DD
:102CA000B22E2AE030E0A40127D1A82EA81843C0F4
:102CB000853729F42F7EB22E2AE030E025C0F22F8E
:102CC000F97FBF2E8F36C1F018F4883579F0ADC08A
:102CD000803719F0883721F0A8C02F2F2061B22E3D
:102CE000B4FE0DC08B2D8460B82E09C024FF0AC02D
:102CF0009F2F9660B92E06C028E030E005C020E185
:102D000030E002C020E132E0F801B7FE07C0608188
:102D10007181828193810C5F1F4F06C06081718138
:102D200080E090E00E5F1F4FA401E6D0A82EA81807
:102D3000FB2DFF77BF2EB6FE0BC02B2D2E7FA514CB
:102D400050F4B4FE0AC0B2FC08C02B2D2E7E05C084
:102D50007A2C2B2D03C07A2C01C0752C24FF0DC0BA
:102D6000FE01EA0DF11D8081803311F4297E09C036
:102D700022FF06C07394739404C0822F867809F0F2
:102D8000739423FD12C020FF06C05A2C731418F44C
:102D9000530C5718732C731460F4B70180E290E061
:102DA0002C8778D073942C85F6CF731410F43718D1
:102DB00001C0312C24FF11C0B70180E390E02C87C3
:102DC00069D02C8522FF16C021FF03C088E590E062
:102DD00002C088E790E0B7010CC0822F867851F0DE
:102DE00021FD02C080E201C08BE227FD8DE2B70128
:102DF00090E050D0A51430F4B70180E390E04AD0C1
:102E00005A94F8CFAA94F401EA0DF11D8081B7011C
:102E100090E040D0A110F6CF332009F45DCEB70189
:102E200080E290E037D03A94F7CFF701868197811E
:102E300002C08FEF9FEF2C960FB6F894DEBF0FBE47
:102E4000CDBFDF91CF911F910F91FF90EF90DF9059
:102E5000CF90BF90AF909F908F907F906F905F903A
:102E60004F903F902F900895FC0105906150704065
:102E70000110D8F7809590958E0F9F1F0895FC0143
:102E80006150704001900110D8F7809590958E0F99
:102E90009F1F08950F931F93CF93DF93182F092F30
:102EA000EB018B8181FD03C08FEF9FEF20C082FF7C
:102EB00010C04E815F812C813D81421753077CF405
:102EC000E881F9819F012F5F3F4F39832883108369
:102ED00006C0E885F985812F1995892B29F72E8160
:102EE0003F812F5F3F4F3F832E83812F902FDF91B4
:102EF000CF911F910F910895FA01AA27283051F11F
:102F0000203181F1E8946F936E7F6E5F7F4F8F4F1A
:102F10009F4FAF4FB1E03ED0B4E03CD0670F781F79
:102F2000891F9A1FA11D680F791F8A1F911DA11D5E
:102F30006A0F711D811D911DA11D20D009F4689497
:102F40003F912AE0269F11243019305D3193DEF63F
:102F5000CF010895462F4770405D4193B3E00FD0F5
:102F6000C9F7F6CF462F4F70405D4A3318F0495DE0
:102F700031FD4052419302D0A9F7EACFB4E0A695C3
:102F80009795879577956795BA95C9F700976105E5
:102F9000710508959B01AC010A2E0694579547953B
:102FA00037952795BA95C9F7620F731F841F951F30
:082FB000A01D0895F894FFCF65
:102FB8000000780D20000A0000004F020501010101
:102FC80000005502035902050A02FE00005F0205CF
:102FD8006502050A03FE00006B020B6502050A0480
:102FE800FE00007702047C02090A05FE00000000CA
:102FF800004F02050AFFFF0000FFFFC600CE004495
:10300800554D4D590024242400434D440D0A0053C6
:10301800412C310D00414F4B0D0A00532D2C5649C0
:10302800422D4361720D00522C310D005265626FC2
:103038006F74210D0A0049444C450025346420254D
:10304800346420253464007261772D7A3A2534641B
:10305800007261772D783A253464004A757374419B
:103068005461736B00537461727475705461736B3F
:08307800000001020300010247
:00000001FF
