:10000000C5C00000DFC30000E2C00000E0C0000087
:10001000DEC00000DCC00000DAC00000D8C0000074
:10002000D6C00000D4C00000D2C00000D0C0000084
:10003000CEC00000FCC30000CAC00000C8C0000061
:10004000C6C00000C4C00000C2C00000C0C00000A4
:10005000BEC000000C94A908BAC00000B8C00000DF
:100060000C9436140C94D2110C941412B0C00000ED
:10007000AEC00000ACC00000AAC00000A8C00000D4
:10008000A6C00000A4C00000A2C00000A0C00000E4
:100090000C9460120C94A2129AC0000098C0000048
:1000A00096C0000094C0000092C0000090C0000004
:1000B0008EC000008CC000008AC0000088C0000014
:1000C00086C0000084C0000082C00000C20FCA0FBA
:1000D000D20FDA0FE20FE60F2A107A107A107A1098
:1000E0007A107A107A1055107A1078107A107A10E7
:1000F0007A107A107A107A107A107A107A107A10B0
:100100007A107A107A107A107A107A10BE0FC60F11
:10011000CE0FD60FDE0F28100F2EFBE4EF2EFFE0E0
:10012000FF2EF02DC3E2DFE027C00E945E0C188195
:100130000E94290D112301F10FB6F8940F92E0915E
:10014000280FF091290F06811781C80102964ED61B
:100150008091210F81508093210F8091220F815037
:100160008093220F0F900FBEF8018789908D0E9417
:10017000DE08C8010E94DE088091220F8111D5CFD0
:10018000F70180818230C0F30FD7F6CF11241FBE54
:10019000CFEFD1E2DEBFCDBF00E00CBF14E0A0E0A6
:1001A000B2E0E0E9F2E300E00BBF02C007900D927D
:1001B000A037B107D9F72FE0A0E7B4E001C01D9246
:1001C000AB38B207E1F70E94F7100C94461918CF2C
:1001D0001092D004E091CE04F091CF04309709F052
:1001E00019950895CF93DF931F921F92CDB7DEB775
:1001F0006A838091D004882319F0862FA0D413C07D
:100200008091CC049091CD04009769F0198220E090
:10021000AE014F5F5F4FBE016E5F7F4F0E94F009DE
:1002200089818111C1D60F900F90DF91CF910895F0
:10023000DF92EF92FF920F931F93CF93DF93CDB78F
:10024000DEB7D62EEDB6FEB6262F30E02F5F3F4F3D
:100250004DB75EB7421B530B0FB6F8945EBF0FBE8F
:100260004DBF0DB71EB70F5F1F4F98018068EDB7E8
:10027000FEB78183662341F081E0F901E80FF11DAB
:1002800010828F5FD816C8F788E095E03DD341E033
:100290004D0DB80180913505909136050E94B5133A
:1002A0000FB6F894FEBE0FBEEDBEDF91CF911F9149
:1002B0000F91FF90EF90DF900895462FBC01809141
:1002C0003305909134050C94931108951F93CF93A7
:1002D000DF9300D01F92CDB7DEB7809173048230D8
:1002E000C1F128F4882351F08130C9F0F1C0833086
:1002F00009F43FC0853009F494C0EAC081E08093DE
:1003000073048CE18B831C8242E0BE016D5F7F4FE2
:1003100080913505909136050E94B513D9C088E0CB
:1003200095E0EFD2823009F0D3C08093730488E067
:1003300095E0EAD28BE18B8388E08C8342E0BE01BA
:100340006D5F7F4F80913505909136050E94B51302
:10035000BFC088E095E0D5D2823009F0B9C083E013
:100360008093730488E095E0CFD266E08BE360DF92
:10037000AFC088E095E0C5D2873009F0A9C01FB7AB
:10038000F894BE016F5F7F4F88E095E08AD2BE018E
:100390006E5F7F4F88E095E084D2BE016F5F7F4F34
:1003A00088E095E07ED28A8190E0982F8827298185
:1003B000822B9093DC048093DB04BE016E5F7F4F41
:1003C00088E095E06ED2BE016F5F7F4F88E095E0D8
:1003D00068D28A8190E0982F88272981822B909378
:1003E000DA048093D904BE016E5F7F4F88E095E008
:1003F00058D2BE016F5F7F4F88E095E052D21FBF99
:100400008A8190E0982F88272981822B9093D804A5
:100410008093D70485E08093730466E083E408DF6B
:1004200057C088E095E06DD2873009F051C01FB702
:10043000F894BE016F5F7F4F88E095E032D2BE0135
:100440006E5F7F4F88E095E02CD2BE016F5F7F4FDB
:1004500088E095E026D28A8190E0982F882729812C
:10046000822B9093D6048093D504BE016E5F7F4F9C
:1004700088E095E016D2BE016F5F7F4F88E095E07F
:1004800010D28A8190E0982F88272981822B90931F
:10049000D4048093D304BE016E5F7F4F88E095E063
:1004A00000D2BE016F5F7F4F88E095E0FAD11FBF99
:1004B0008A8190E0982F88272981822B9093D204FB
:1004C0008093D10483E08093730466E08BE3B0DE15
:1004D0000F900F900F900F90DF91CF911F91089583
:1004E000882311F0439A089543980895882311F0C2
:1004F000429A089542980895882311F0419A0895E8
:1005000041980895853608F084E68823A9F0282FBD
:1005100030E0AFE7BCE00E940C1524E630E040E09C
:1005200050E00E94EA143093990020939800309391
:100530009B0020939A0008951092990010929800C1
:1005400010929B0010929A0008958F929F92AF9202
:10055000BF92CF92DF92EF920F931F933B9A3A9AFA
:10056000399A389AE0E9F0E0808182608083A1E9DD
:10057000B0E08C9188618C938FE79CE09093990018
:10058000809398002081206C20836B9A90939B002D
:1005900080939A002081206320836C9A9093970027
:1005A000809396008C9181608C9380E0ABDFE1E8D2
:1005B000F0E08081866080836A986D9A7598089AC9
:1005C0001098099A11980A9A1298E9E6F0E0808149
:1005D00082608083E89A8FE994E05ED184E794E0BA
:1005E0005BD10F2EF2EF8F2EF0E09F2EF02D0F2E0D
:1005F000F4E7AF2EF4E0BF2EF02D0F2EFFE9CF2E43
:10060000F4E0DF2EF02DE12C00E023E040E855E29D
:1006100060E070E080E00E941C11909334058093AC
:10062000330588E095E038D18DED94E035D186E64C
:1006300091E09F938F930F2EFDED8F2EF4E09F2E70
:10064000F02D0F2EF8E0AF2EF5E0BF2EF02DC12CCF
:1006500005E210E020E043E063E080E10E9428131F
:10066000909336058093350560E080E090E02EDEC3
:100670008BE98093B300E1EBF0E0808182608083BE
:10068000A0E7B0E08C9182608C938081856080834C
:100690000F900F901F910F91EF90DF90CF90BF9030
:1006A000AF909F908F900895853608F084E6882358
:1006B000A9F0282F30E0AFE7BCE00E940C1524E63B
:1006C00030E040E050E00E94EA143093990020931B
:1006D000980010929B0010929A0008951092990031
:1006E0001092980010929B0010929A0008952FB7D4
:1006F000F8948091DB049091DC042FBF08952FB70C
:10070000F8948091D9049091DA042FBF08952FB7FF
:10071000F8948091D7049091D8042FBF08952FB7F3
:10072000F8948091D5049091D6042FBF08952FB7E7
:10073000F8948091D3049091D4042FBF0895209110
:100740008400309185008091710490917204281783
:10075000390730F4A901481B590BCA01019704C09D
:10076000A901481B590BCA013093720420937104EC
:100770000895882311F010980895109A0895462F2F
:10078000BC0180913305909134050C949311089528
:100790007093CD046093CC049093CF048093CE04E7
:1007A00081E08093D00448EE50E06DE571E087E091
:1007B00092E09DC10895009721F09093CB0480931F
:1007C000CA0408951F920F920FB60F9211240BB610
:1007D0000F922F933F934F935F936F937F938F93DA
:1007E0009F93AF93BF93EF93FF938091CA0490912F
:1007F000CB04009749F01092700460E774E022D6B1
:10080000809170048111D0D3FF91EF91BF91AF918E
:100810009F918F917F916F915F914F913F912F9118
:100820000F900BBE0F900FBE0F901F9018951F9248
:100830000F920FB60F9211240BB60F922F933F9386
:100840004F935F936F937F938F939F93AF93BF93D8
:10085000EF93FF938091D004882359F08091060292
:10086000815019F08093060204C08AE0809306024A
:100870004FD1FF91EF91BF91AF919F918F917F9158
:100880006F915F914F913F912F910F900BBE0F9001
:100890000FBE0F901F901895FC0110A611A612A66E
:1008A0000895FC0182A58823A1F081A5DF01A80F8E
:1008B000B11D8C91DB018C9381A590E0019668E2DB
:1008C00070E00E94B51481A782A5815082A780E0C4
:1008D000089581E00895FC0122A5283280F480A5C6
:1008E00090E0DF01A80FB91F6C93019668E270E0F9
:1008F0000E94B51480A72F5F22A780E0089582E0B0
:100900000895FC0182A50895FC0110A611A612A667
:100910000895E0914405F09145058081853209F004
:1009200085C0CF0101969093450580934405818150
:10093000853219F410923B0508958A32E1F5CF0112
:1009400002969093450580934405339620E0DC01A0
:100950000196220F322F330F330F230F20533C9178
:10096000230F3191323499F7209346051296B093B4
:100970004505A0934405809148059091490500974D
:10098000B1F0E7E4F5E020812F5F2083332727FDD6
:100990003095F901EE0FFF1FE20FF31FE80FF91F6B
:1009A00012828081918190934B0580934A0582E069
:1009B00080933B0508958091440590914505DC01A5
:1009C000119620E0FC010196220F322F330F330FD6
:1009D000230F20533081230F3D91323499F7209318
:1009E00046053296F0934505E0934405809148050D
:1009F000909149050097B1F0A7E4B5E0EC91EF5F65
:100A0000EC93FF27E7FDF0959F01220F331FE20FC4
:100A1000F31FE80FF91F12828081918190934B059B
:100A200080934A0581E080933B05089510923B0531
:100A30000895CF93DF9310923F0580933E0592E097
:100A4000980F923030F4E0913705F0913805199500
:100A50004BC09BE0899FE0011124A0913C05B0911F
:100A60003D05AC0FBD1F12966C911297662339F0AD
:100A7000E0913905F0913A058D919C9119958091FD
:100A80003C0590913D05C80FD91F2D81222351F1BE
:100A90008B819C81909341058093400590934505FF
:100AA00080934405E985FA85F0934905E09348056C
:100AB0003FEF30934705309731F04081518150939B
:100AC0004B0540934A0530E021503109820F931FB6
:100AD00090934305809342051CDF8E818F5F809346
:100AE0003F0502C08F81A5DFDF91CF9108959093DC
:100AF0003D0580933C0570933A056093390550930A
:100B000038054093370510923E0580E092CF089556
:100B100080913F05882391F0815080933F0581119A
:100B20000DC080913E05E0913C05F0913D059BE0B4
:100B3000899FE00DF11D112480857BCF08956F9270
:100B40007F928F929F92AF92BF92CF92DF92EF925D
:100B5000FF920F931F93CF93DF93982E80913B05C5
:100B6000813009F442C020F0823009F470C0AFC077
:100B7000812CC4E4D5E00F2EF0E4CF2EF5E0DF2E7B
:100B8000F02D0F2EF7E4EF2EF5E0FF2EF02D08E408
:100B900015E077247394612C0F2EFAE4AF2EF5E064
:100BA000BF2EF02DE881F9819F012F5F3F4F3983E0
:100BB000288380818915A9F0D6018D919C91998314
:100BC0008883F7011082D801ED91FC91309729F0CC
:100BD00080819181F50191838083872D8110862DFD
:100BE000882E97DE8110DECF72C0209148053091AB
:100BF00049052115310511F1AAE4B5E0ED91FC910B
:100C00001197CF0101968D939C939082E0914705B7
:100C1000FF27E7FDF095CF01880F991FE80FF91F17
:100C2000E20FF31F82818F5F8283E6E4F5E080812B
:100C30008150808381114BC06CDE49C0E6E4F5E051
:100C4000808181508083811142C063DE40C0E09189
:100C50004405F09145058081891551F18091480541
:100C600090914905009709F44EC0AAE4B5E0ED91D2
:100C7000FC9111979F012F5F3F4F2D933C939082E2
:100C800020914705332727FD3095F901EE0FFF1F0F
:100C9000E20FF31FE80FF91F82818F5F8283E6E482
:100CA000F5E0808181508083811111C032DE0FC058
:100CB000A6E4B5E08C9181508C93811102C029DEAD
:100CC00006C03196F0934505E093440522DE8091FD
:100CD0003B05811118C02091440530914505809154
:100CE0004205909143058217930768F480913E0571
:100CF000E0913C05F0913D059BE0899FE00DF11DE1
:100D00001124878196DEDF91CF911F910F91FF9083
:100D1000EF90DF90CF90BF90AF909F908F907F909B
:100D20006F900895FC010396928381832FEF3FEF2C
:100D300034832383968385839087878310820895E5
:100D4000FC01118610860895CF93DF939C01FB016F
:100D5000DC011196CD91DC911297D383C2838C81F3
:100D60009D81958384838C819D81DC0113967C9386
:100D70006E9312977D836C8331872087F901808180
:100D80008F5F8083DF91CF910895CF93DF93EB0145
:100D9000488159814F3F2FEF520721F4FC01A78171
:100DA000B0850DC0DC0113961296ED91FC9113975E
:100DB000208131814217530710F0DF01F5CF1296E1
:100DC000ED91FC911397FB83EA83D583C483BD83A4
:100DD000AC831396DC93CE93129799878887FC0196
:100DE00020812F5F2083DF91CF910895CF93DF93F0
:100DF000FC01A085B185C281D381848195819D83C9
:100E00008C83C481D581828193819B838A8311964F
:100E1000CD91DC911297CE17DF0731F48C819D8143
:100E200012969C938E931197118610868C91815007
:100E30008C93DF91CF91089531E1FC01308331979C
:100E400022E220833197A3E3A08331976083319717
:100E500070833197108231971082319760E86083F8
:100E6000319710823197108231971082319762E06A
:100E70006083319763E06083319764E060833197EA
:100E800065E06083319766E06083319767E0608357
:100E9000319768E06083319769E06083319760E162
:100EA000608331973083319732E13083319733E17A
:100EB0003083319734E13083319735E13083319796
:100EC00036E13083319737E13083319738E1308331
:100ED000319739E13083319730E23083319731E215
:100EE000308331972083319723E2208331974083E9
:100EF00031975083319726E22083319727E2208370
:100F0000319728E22083319729E22083319720E32B
:100F10002083319721E320838997089588EE93E019
:100F200090934F0580934E0590934D0580934C050B
:100F300089EF87BD82E084BD83E085BDEEE6F0E009
:100F4000808182608083A0916F0FB091700FCD91EE
:100F5000CDBFDD91DEBFFF91EF91DF91CF91BF91CA
:100F6000AF919F918F917F916F915F914F913F9141
:100F70002F911F910F91FF90EF90DF90CF90BF9036
:100F8000AF909F908F907F906F905F904F903F9029
:100F90002F901F900F900CBE0F900BBE0F900FBEA6
:100FA0000F90089581E008950F920FB6F8940F9274
:100FB0000BB60F920CB60F921F9211242F923F92F4
:100FC0004F925F926F927F928F929F92AF92BF9259
:100FD000CF92DF92EF92FF920F931F932F933F9345
:100FE0004F935F936F937F938F939F93AF93BF9331
:100FF000CF93DF93EF93FF93A0916F0FB091700F9A
:101000000DB60D920EB60D92BDD5A0916F0FB09199
:10101000700FCD91CDBFDD91DEBFFF91EF91DF91DC
:10102000CF91BF91AF919F918F917F916F915F9180
:101030004F913F912F911F910F91FF90EF90DF9073
:10104000CF90BF90AF909F908F907F906F905F9068
:101050004F903F902F901F900F900CBE0F900BBEA3
:101060000F900FBE0F9008950F920FB6F8940F9245
:101070000BB60F920CB60F921F9211242F923F9233
:101080004F925F926F927F928F929F92AF92BF9298
:10109000CF92DF92EF92FF920F931F932F933F9384
:1010A0004F935F936F937F938F939F93AF93BF9370
:1010B000CF93DF93EF93FF93A0916F0FB091700FD9
:1010C0000DB60D920EB60D9280914C0590914D0586
:1010D000019790934D0580934C05892B41F48091A5
:1010E0004E0590914F0590934D0580934C05F6D396
:1010F000811148D5A0916F0FB091700FCD91CDBFE8
:10110000DD91DEBFFF91EF91DF91CF91BF91AF9164
:101110009F918F917F916F915F914F913F912F910F
:101120001F910F91FF90EF90DF90CF90BF90AF9005
:101130009F908F907F906F905F904F903F902F90F7
:101140001F900F900CBE0F900BBE0F900FBE0F9014
:1011500008958ADF1895CF93DF93EC01AFD3809188
:10116000500590915105892B31F485E595E09093D8
:1011700051058093500540915205509153059E01B1
:10118000240F351F233C89E0380770F442175307BA
:1011900070F4C0915005D0915105C40FD51F309304
:1011A00053052093520505C0C0E0D0E002C0C0E066
:1011B000D0E04FD4CE01DF91CF91089508951F93D1
:1011C000CF93DF93EC01142F8C8D8823E9F141112B
:1011D00017C0482F50E08C819D810E9473162C8D82
:1011E0008C819D81820F911D9D838C832A813B81FF
:1011F0008217930748F1888199819D838C8324C04D
:10120000482F50E08E819F810E9473162C8D30E014
:101210003195219531098E819F81820F931F9F8384
:101220008E83688179818617970730F48A819B8144
:10123000280F391F3F832E83123031F48A8D882383
:1012400019F08A8D81508A8F8A8D8F5F8A8F80E016
:10125000DF91CF911F910895FC01CB01448D442370
:10126000A1F050E026813781240F351F3783268374
:10127000628173812617370720F0208131813783FF
:101280002683668177810C94731608950F931F93BC
:10129000CF93DF93EC010FB6F8940F928E8D181652
:1012A000A4F48989882389F08E010F5E1F4F03C043
:1012B0008989882351F0C801F7D4811176D58E8DA4
:1012C00081508E8F8E8D18169CF38FEF8E8F0F901E
:1012D0000FBE0FB6F8940F928D8D1816A4F4888562
:1012E000882389F08E01085F1F4F03C088858823FB
:1012F00051F0C801D9D4811158D58D8D81508D8F71
:101300008D8D18169CF38FEF8D8F0F900FBEDF9190
:10131000CF911F910F910895CF93DF93EC010FB6FA
:10132000F8940F92888199812C8D30E07B8D729F8B
:10133000A001739F500D1124FC01E40FF51FFB83E6
:10134000EA831A8E9D838C83421B530B840F951F57
:101350009F838E838FEF8D8F8E8F61110AC088855A
:10136000882369F0CE0108969FD4813041F41CDEB9
:1013700006C0CE010896D6DCCE014196D3DC0F9094
:101380000FBE81E0DF91CF9108950F931F93CF930C
:10139000DF93082F162F6623B9F0869FC001112412
:1013A0008096D9DEEC01009721F414C0D983C8835C
:1013B00005C09C01215E3F4F398328830B8F1C8F12
:1013C00061E0CE01A9DF06C08FE190E0C4DEEC0150
:1013D000009761F7CE01DF91CF911F910F91089592
:1013E0000F931F93CF93DF93EC018A019A8D8B8D1E
:1013F000981710F02230D1F4422FCE01E0DE8E8D0E
:101400008F3F79F48989882399F0CE0141964CD495
:10141000882381F00115110579F081E0F8018083BE
:101420000CC08E8D8F5F8E8F81E007C080E005C07D
:1014300081E003C081E001C081E0DF91CF911F9185
:101440000F910895CF93DF93FC01EB01928D838D73
:101450009817C0F4828D8F5F828F868D8F3F69F4DD
:101460008189882389F0CF0141961ED4882371F0A9
:10147000209771F081E088830CC0868D8F5F868F06
:1014800081E007C080E005C081E003C081E001C0C9
:1014900081E0DF91CF9108959F92AF92BF92CF925A
:1014A000DF92EF92FF920F931F93CF93DF9300D0C1
:1014B0001F921F92CDB7DEB78C016B015D834C8309
:1014C000B22EA12C992493947C0181E1E80EF11CA9
:1014D0000FB6F8940F92F801828D882321F1E680EF
:1014E000F780B601C801B8DEB1100EC0F801828DD8
:1014F0008150828F8085882391F0C8010896D4D3CB
:10150000813069F451DD0BC0F801F782E6828189F0
:10151000882329F0C8014196C7D3811145DD0F907A
:101520000FBE81E044C04C815D81452B21F40F90BA
:101530000FBE80E03CC0A11004C0CE010196F8D3DC
:10154000A92C0F900FBEBAD10FB6F8940F92F801E4
:10155000858D8F3F09F4158EF801868D8F3F09F434
:10156000168E0F900FBEBE016C5F7F4FCE010196AD
:10157000EAD3811118C00FB6F8940F92F801828D4A
:101580000F900FBE81110BC06C817D81C70172D39A
:10159000C8017CDE5ED281119BCF06DD99CFC801E8
:1015A00075DE57D295CFC80171DE53D280E00F901F
:1015B0000F900F900F900F90DF91CF911F910F918F
:1015C000FF90EF90DF90CF90BF90AF909F900895E5
:1015D000E091370FF091380F8081811107C08FEFB4
:1015E0009FEF90934A02809349020895E091370F4C
:1015F000F091380F0580F681E02D0680F781E02D0F
:101600008281938190934A02809349020895CF93F7
:10161000DF93EC01E0916F0FF091700F9383828361
:1016200080911F0F9091200FC817D90760F4609127
:101630006F0F7091700F8091350F9091360F6E5F24
:101640007F4FA3DB16C060916F0F7091700F809178
:10165000370F9091380F6E5F7F4F97DB8091490273
:1016600090914A02C817D90720F4D0934A02C09338
:101670004902DF91CF9108954F925F926F927F92CE
:101680008F929F92AF92BF92CF92DF92EF92FF9292
:101690000F931F93CF93DF934C015B012A01390114
:1016A000C114D10431F4CA0156DD6C01009709F46C
:1016B000CAC086E290E04FDDEC01009771F0D88E51
:1016C000CF8A81E0481A5108C40CD51CD5018C91F1
:1016D000898F8C91811104C014C0C6016FDDB3C025
:1016E000AE01465E5F4FF501319627E0CF013191A3
:1016F000DA013D93AD01DC018C91882311F021507A
:10170000A9F718A2102F043008F013E01E8B5E0119
:10171000B2E0AB0EB11CC50113DBCE010C9610DBA1
:10172000D987C88784E090E0811B91099D878C87C9
:10173000DB8BCA8B19A21AA21BA21CA21DA2A30199
:10174000B401C60179DB99838883E114F10419F0AF
:10175000F701D183C0830FB6F8940F928091210FC7
:101760008F5F8093210F80916F0F9091700F892B65
:1017700069F5D093700FC0936F0F8091210F813066
:10178000A1F58BE49FE0CEDA84E59FE0CBDA8DE52E
:101790009FE0C8DA86E69FE0C5DA82E49FE0C2DA1D
:1017A00089E39FE0BFDA8CE29FE0BCDA83E29FE04E
:1017B000B9DA82E49FE09093380F8093370F89E382
:1017C0009FE09093360F8093350F0FC080911D0FCF
:1017D00081110BC0E0916F0FF091700F868908178F
:1017E00020F0D093700FC0936F0F8091190F8F5F0F
:1017F0008093190F8E8990911E0F981710F4809383
:101800001E0F90E09C01220F331F220F331F220F67
:10181000331F820F931FB501855B904F95DA0F90B0
:101820000FBE80911D0F882351F0E0916F0FF09152
:10183000700F8689801728F4B7DB81E005C081E04E
:1018400003C081E001C08FEFDF91CF911F910F9115
:10185000FF90EF90DF90CF90BF90AF909F908F90D0
:101860007F906F905F904F900895AF92BF92CF920C
:10187000DF92EF92FF920F93A12CB12CC12CD12CAF
:10188000E12CF12C00E020E030E049EB50E066E193
:1018900074E08CE890E0F0DE813041F4F8948093BD
:1018A0001D0F1092200F10921F0F38DB0F91FF9029
:1018B000EF90DF90CF90BF90AF9008958091180F78
:1018C0008F5F8093180F08950FB6F8940F92809150
:1018D0001F0F9091200F0F900FBE0895CF92DF92AF
:1018E000EF92FF920F931F93CF93DF938091180F86
:1018F000811196C080911F0F9091200F01969093B7
:10190000200F80931F0FE0901F0FF090200FE11425
:10191000F104B1F48091370F9091380F2091350F79
:101920003091360F3093380F2093370F9093360F46
:101930008093350F80911A0F8F5F80931A0F48DEC6
:101940008091490290914A02E816F90608F451C0C4
:10195000D12CCC24C39401C0DC2CE091370FF09142
:10196000380F8081811107C08FEF9FEF90934A025B
:10197000809349023FC0E091370FF091380F058006
:10198000F681E02DC681D7812A813B81E216F306DC
:1019900028F430934A02209349022CC08E010E5F36
:1019A0001F4FC80123DA8C899D89892B19F0CE013C
:1019B0000C961CDA2E8980911E0F821710F420934A
:1019C0001E0F30E0C901880F991F880F991F880FDB
:1019D000991F820F931FB801855B904FB5D9E09195
:1019E0006F0FF091700F9E898689981708F0B4CF19
:1019F000B4CFD12CE0916F0FF091700F868990E0F9
:101A0000FC01EE0FFF1FEE0FFF1FEE0FFF1F8E0FEB
:101A10009F1FFC01E55BF04F8081823040F409C0DC
:101A200080911C0F8F5F80931C0FD12C02C0DD248E
:101A3000D39480911B0F882311F0DD24D3948D2D36
:101A4000DF91CF911F910F91FF90EF90DF90CF909A
:101A50000895DF92EF92FF920F931F93CF93DF933E
:101A60000FB6F8940F928091180F81508093180F41
:101A70008091180F81115CC08091210F882309F497
:101A800059C00F2EFCE2EF2EFFE0FF2EF02DDD24DB
:101A9000D3942DC0E091310FF091320FC681D781E0
:101AA000CE010C96A3D98E010E5F1F4FC8019ED99F
:101AB0008E8990911E0F981710F480931E0F90E05E
:101AC0009C01220F331F220F331F220F331F820F5F
:101AD000931FB801855B904F37D9E0916F0FF0915C
:101AE000700F9E898689981710F0D0921B0FF7010E
:101AF00080818111CFCF80911C0F882391F080913C
:101B00001C0F882371F0C1E0E9DE8111C0931B0F27
:101B100080911C0F815080931C0F80911C0F8111AC
:101B2000F3CF80911B0F813039F43EDA81E005C09C
:101B300080E003C080E001C080E00F900FBEDF9125
:101B4000CF911F910F91FF90EF90DF900895CF9369
:101B5000DF93EC01009791F0B1DE80911F0F90911F
:101B6000200FC80FD91F80916F0F9091700F0296B0
:101B70003DD9CE014CDD6DDF811101C015DADF9159
:101B8000CF9108958091180F882321F081E08093F0
:101B90001B0F089510921B0FA0916F0FB091700F43
:101BA000E0916F0FF091700F2D913C918789908D8E
:101BB0008217930758F060916F0F7091700F8091AA
:101BC0006F0F9091700F675E7F4F35D380911E0F1E
:101BD00090E0FC01EE0FFF1FEE0FFF1FEE0FFF1F47
:101BE0008E0F9F1FFC01E55BF04F8081811117C0B4
:101BF00080911E0F815080931E0F80911E0F90E0E8
:101C0000FC01EE0FFF1FEE0FFF1FEE0FFF1F8E0FE9
:101C10009F1FFC01E55BF04F8081882349F3E09131
:101C20001E0FF0E0CF01880F991F880F991F880FB2
:101C3000991FE80FF91FE55BF04FA181B281129661
:101C40000D90BC91A02DB283A183CF010396A8175C
:101C5000B90731F412968D919C91139792838183E9
:101C60000180F281E02D868197819093700F80939F
:101C70006F0F0895CF93DF93EB0160916F0F709119
:101C8000700F645F7F4F81D880916F0F9091700FBC
:101C90000296ACD880911F0F9091200F8C0F9D1F42
:101CA000B6DCDF91CF9108950F931F93CF93DF930D
:101CB000DC011596ED91FC911697C681D7818E01B6
:101CC000045F1F4FC80192D88091180F81111AC06C
:101CD0000A501109C8018AD88E8990911E0F981751
:101CE00010F480931E0F90E09C01220F331F220FEF
:101CF000331F220F331F820F931FB801855B904F54
:101D000023D804C0B8018CE29FE01ED8E0916F0F89
:101D1000F091700F9E898689891720F481E0809365
:101D20001B0F01C080E0DF91CF911F910F910895AB
:101D300020911A0FFC01208320911F0F3091200F5A
:101D40003283218308950FB6F8940F9220911F0FCC
:101D50003091200F40911A0FDC015C91541739F03B
:101D600011964D915C91129724173507C0F4DC0150
:101D70001196ED91FC911297DB014D915C91D90187
:101D8000AE1BBF0BA417B50760F4E21BF30B4E0F9D
:101D90005F1FFB0151834083CBDF80E003C081E004
:101DA00001C081E00F900FBE089581E080931B0F6A
:101DB00008958F3F19F481E08093770F089520E014
:101DC0004FEF5FEF60E070E080917B0F90917C0FB0
:101DD00063DBF5CF8F929F92AF92BF92CF92DF924B
:101DE000EF92FF920F931F93CF93DF93CDB7DEB7A0
:101DF00064970FB6F894DEBF0FBECDBF0F2EF4E68A
:101E0000EF2EF12CF02D0F2EFBE1CF2EF4E0DF2E84
:101E1000F02D8E010F5F1F4F0E947703B82EA92E61
:101E20000E947F03982E892E0E9487039F938F9391
:101E30008F929F92AF92BF92DF92CF921F930F9398
:101E400063D7F80101900020E9F73197BF01601BCB
:101E5000710BC8010E94BF0384E690E078DE81E048
:101E6000E81AF1080FB6F894DEBF0FBECDBFE1143B
:101E7000F10491F664960FB6F894DEBF0FBECDBFA5
:101E8000DF91CF911F910F91FF90EF90DF90CF9056
:101E9000BF90AF909F908F900895EF92FF920F9315
:101EA0001F93CF93DF930E949F03EC018CE30E946A
:101EB0008202C83E83E0D80788F500E010E0F80110
:101EC000EE0FFF1FE55BFD4F80819181C817D90799
:101ED000E8F078018FEFE81AF80AF701EE0FFF1F1C
:101EE000E55BFD4F80819181009719F00E9482028D
:101EF00003C080E00E945403F701EE0FFF1FE55B73
:101F0000FD4F80818093780F0E5F1F4F0E949F03CB
:101F1000C80FD91FC83E83E0D80788F280E00E942E
:101F2000820280E00E948202DF91CF911F910F9187
:101F3000FF90EF900895AF92BF92CF92DF92EF9211
:101F4000FF920F931F93CF93DF93CDB7DEB7A89780
:101F50000FB6F894DEBF0FBECDBF9091770F9923D7
:101F600009F4E8C0482F50E0FA01E154F109E632E3
:101F7000F10508F0BFC0EA59FF4F48C580E00E9454
:101F80007602D8C081E00E947602D4C080E00E9430
:101F90007C02D0C081E00E947C02CCC080E00E9424
:101FA0007002C8C081E00E947002C4C080E00E943C
:101FB0008202C0C081E40E948202BCC080E00E9414
:101FC0005403B8C084E60E945403B4C00E9477034F
:101FD000182F092F0E947F03F82EE92E75DC9093AD
:101FE000860F8093850F0E948F03D82EC92E0E94E2
:101FF0009703B82EA92E0E949F039F938F93AF92B1
:10200000BF92CF92DF928091860F8F938091850F40
:102010008F93EF92FF920F931F9387E294E09F9329
:102020008F938E010F5F1F4F1F930F936DD6F80193
:1020300001900020E9F73197BF01601B710BC801C7
:102040000E94BF030FB6F894DEBF0FBECDBF72C0B3
:10205000C1DE70C00E948F03182F092F0E949703C2
:10206000F82EE92E0E9477039F938F93EF92FF92B1
:102070000F931F9380E494E09F938F938E010F5FE3
:102080001F4F1F930F9340D6F80101900020E9F7EE
:102090003197BF01601B710BC8010E94BF030FB6CF
:1020A000F894DEBF0FBECDBF45C00EDC8093850F18
:1020B0009093860F9F938F938FE494E09F938F93D9
:1020C0008E010F5F1F4F1F930F931ED6F8010190D3
:1020D0000020E9F73197BF01601B710BC8010E9416
:1020E000BF030F900F900F900F900F900F9022C092
:1020F000D4DE20C09091760FE92FF0E0EF58F04F3A
:1021000080839F5F9093760F8132A1F40091780FC6
:1021100010E081E79FE0CAD5F801EE0FFF1FE55BF5
:10212000FD4F918380838091780F8F5F8093780F2C
:102130001092760FA8960FB6F894DEBF0FBECDBFF3
:10214000DF91CF911F910F91FF90EF90DF90CF9093
:10215000BF90AF900895CF93DF931F92CDB7DEB7B6
:1021600043E060E081E011D990937C0F80937B0F76
:1021700040E061E08EE109D990937A0F8093790F66
:1021800080917B0F90917C0F009711F00E94DB03F0
:1021900088EE93E0DCDC80E00E94B90388EE93E0F7
:1021A000D6DC6091790F70917A0F89ED9EE00E94E4
:1021B000C803A12CB12CC12CD12CE12CF12C01E0B5
:1021C00020E030E049EB50E062E574E08FED9EE006
:1021D00053DA20E04FEF5FEFBE016F5F7F4F8091DA
:1021E000790F90917A0F58D98981A5DEF2CFAF92FD
:1021F000BF92CF92DF92EF92FF920F930E94A502BF
:10220000A12CB12CC12CD12CE12CF12C00E020E030
:1022100030E049EB50E06CE574E08BEA90E12CDAB9
:1022200024DB80E090E00F91FF90EF90DF90CF9063
:10223000BF90AF90089508954F925F926F927F92F2
:102240008F929F92AF92BF92CF92DF92FF920F93A5
:102250001F93CF93DF93CDB7DEB7F82E2A013B0152
:1022600088E090E0FCD38C018F2D90E0880F991FBF
:10227000FC01E358F04F11830083FC01E552FC4F51
:1022800080819181D80111969C938E931396BC9274
:10229000AE9212971596DC92CE92149717969C9256
:1022A0008E921697FFB6F894D801ED91FC91119794
:1022B0003697808182608083CD90DC90440C551CE1
:1022C000661C771C440C551C661C771CA3019201EC
:1022D000220F331F441F551F60E074E284EF90E02B
:1022E00057D32150F60132972083D801ED91FC910C
:1022F0001197359788E98083ED91FC91349786E0BA
:102300008083FFBEC801DF91CF911F910F91FF9095
:10231000DF90CF90BF90AF909F908F907F906F9005
:102320005F904F900895EF92FF920F931F93CF937A
:10233000DF938C01E42EDC011296ED91FC91139752
:10234000309769F0242F30E042A588E290E0841BAA
:10235000910982179307E4F0E11005C010C0B1E0C5
:10236000B417C0F0F9CFC62FD72FF12C6991F8011F
:10237000828193810E946B04F394FE10F7CFD80101
:10238000ED91FC91359780818062808380E003C06D
:1023900082E001C082E0DF91CF911F910F91FF9009
:1023A000EF9008951F920F920FB60F9211240BB663
:1023B0000F922F933F934F935F936F937F938F93DE
:1023C0009F93AF93BF93CF93EF93FF93E0917D0FD4
:1023D000F0917E0F3097A1F0C091C6006C2F8481E0
:1023E00095810E946B0480917D0F90917E0FDC019E
:1023F0001696ED91FC911797309711F06C2F199567
:10240000FF91EF91CF91BF91AF919F918F917F916C
:102410006F915F914F913F912F910F900BBE0F9055
:102420000FBE0F901F9018951F920F920FB60F922C
:1024300011240BB60F922F933F934F935F936F939B
:102440007F938F939F93AF93BF93EF93FF93CF931C
:10245000DF931F92CDB7DEB7E0917D0FF0917E0F35
:10246000309799F0BE016F5F7F4F828193810E9408
:102470005104811104C089818093C6000BC0E1EC36
:10248000F0E080818F7D808305C0E1ECF0E0808109
:102490008F7D80830F90DF91CF91FF91EF91BF915E
:1024A000AF919F918F917F916F915F914F913F91EC
:1024B0002F910F900BBE0F900FBE0F901F9018958D
:1024C0001F920F920FB60F9211240BB60F922F93FB
:1024D0003F934F935F936F937F938F939F93AF93AC
:1024E000BF93CF93EF93FF93E0917F0FF091800F15
:1024F0003097A1F0C091CE006C2F848195810E940D
:102500006B0480917F0F9091800FDC011696ED9106
:10251000FC911797309711F06C2F1995FF91EF915F
:10252000CF91BF91AF919F918F917F916F915F916B
:102530004F913F912F910F900BBE0F900FBE0F90B8
:102540001F9018951F920F920FB60F9211240BB681
:102550000F922F933F934F935F936F937F938F933C
:102560009F93AF93BF93EF93FF93CF93DF931F920C
:10257000CDB7DEB7E0917F0FF091800F309799F0E3
:10258000BE016F5F7F4F828193810E945104811150
:1025900004C089818093CE000BC0E9ECF0E080811B
:1025A0008F7D808305C0E9ECF0E080818F7D8083A2
:1025B0000F90DF91CF91FF91EF91BF91AF919F91DC
:1025C0008F917F916F915F914F913F912F910F90DC
:1025D0000BBE0F900FBE0F901F901895E091820FC9
:1025E000F091830F309701F12381213079F4A0819C
:1025F000B1814C9121E030E0028002C0220F331FF4
:102600000A94E2F7209524232C930EC0A081B18177
:102610006C9141E050E09A01028002C0220F331F0A
:102620000A94E2F7262B2C939093830F8093820FCA
:10263000009769F01092840F2CB52F732CBDFC010C
:1026400024812CBD85818DBD8CB580648CBD0895A1
:102650006F927F928F929F92AF92BF92CF92DF92B2
:10266000EF92FF920F931F93CF93DF93CDB7DEB717
:10267000D82EF62E642E722E8091810F811106C005
:1026800084B1876084B981E08093810F8CE090E011
:10269000E6D1FC0100831183E282A02FB12F4E917D
:1026A00021E030E0C90102C0880F991FEA94E2F7E7
:1026B000842B8C93C382660C660C7628AF2DBB27C7
:1026C000A7FDB095A859BB4F6C90D628D728D482C7
:1026D00083E08F1514F481E0858397828682B1862A
:1026E000A0868A899B89938782876FB7F8948091A7
:1026F000820F9091830FF093830FE093820F2381D9
:10270000213081F4A081B1817C9141E050E09A01B7
:10271000028002C0220F331F0A94E2F7209527237C
:102720002C930EC0A081B1817C9141E050E09A01D0
:10273000028002C0220F331F0A94E2F7272B2C934A
:102740009093830F8093820F6FBFCF01DF91CF9162
:102750001F910F91FF90EF90DF90CF90BF90AF90BF
:102760009F908F907F906F900895DF92EF92FF92ED
:102770000F931F93CF93DF93EC018B01F42E0097FF
:1027800009F46BC08091820F9091830F8C179D0785
:1027900011F0CE0123DFEFB6F894EE81FF81309780
:1027A00061F02F2D30E042A588E290E0841B910972
:1027B000821793070CF448C004C081E08F1508F419
:1027C00045C08091840F811130C081E08093840FD7
:1027D000E091820FF091830F8381813079F4A081A1
:1027E000B1814C9121E030E0C901028002C0880F24
:1027F000991F0A94E2F7842B8C930EC0A081B181BB
:102800002C9181E090E0028002C0880F991F0A9409
:10281000E2F7809582238C938CB580688CBDF8019B
:1028200080818EBDDD24D39401C0D12CDF1480F4CF
:10283000F801ED0DF11D60818E819F810E946B0476
:10284000D394DF14A8F306C081E005C081E003C083
:1028500080E001C080E0EFBE01C083E0DF91CF9156
:102860001F910F91FF90EF90DF9008951F920F92AC
:102870000FB60F9211240BB60F922F933F934F93E5
:102880005F936F937F938F939F93AF93BF93EF93D8
:10289000FF93CF93DF931F92CDB7DEB7E091820F06
:1028A000F091830F80859185009719F06EB50E9495
:1028B0006B04E091820FF091830FBE016F5F7F4F39
:1028C000868197810E945104811103C089818EBD48
:1028D00029C08CB58F778CBD1092840FE091820F48
:1028E000F091830F8381813079F4A081B1812C91A3
:1028F00081E090E0028002C0880F991F0A94E2F7FD
:10290000809582238C930EC0A081B1814C9121E0EF
:1029100030E0C901028002C0880F991F0A94E2F7D3
:10292000842B8C938091820F9091830FDC011A96F7
:10293000ED91FC911B97309711F0698119950F90DB
:10294000DF91CF91FF91EF91BF91AF919F918F91C7
:102950007F916F915F914F913F912F910F900BBE9F
:102960000F900FBE0F901F90189597FB072E16F42F
:10297000009406D077FD08D05ED007FC05D03EF469
:10298000909581959F4F0895709561957F4F08951B
:10299000A1E21A2EAA1BBB1BFD010DC0AA1FBB1F63
:1029A000EE1FFF1FA217B307E407F50720F0A21BD5
:1029B000B30BE40BF50B661F771F881F991F1A9442
:1029C00069F760957095809590959B01AC01BD016C
:1029D000CF010895052E97FB16F400940FD057FDF4
:1029E00005D0D6DF07FC02D046F408C050954095CC
:1029F000309521953F4F4F4F5F4F089590958095AB
:102A0000709561957F4F8F4F9F4F0895EE0FFF1F79
:102A10000590F491E02D1994A29FB001B39FC001DD
:102A2000A39F700D811D1124911DB29F700D811DFA
:102A30001124911D0895AA1BBB1B51E107C0AA1FB9
:102A4000BB1FA617B70710F0A61BB70B881F991F4F
:102A50005A95A9F780959095BC01CD010895CF9323
:102A6000DF938230910510F482E090E0E091890FCD
:102A7000F0918A0F20E030E0A0E0B0E0309739F12B
:102A80004081518148175907B8F04817590771F428
:102A900082819381109729F013969C938E931297BD
:102AA0002CC090938A0F8093890F27C02115310580
:102AB00031F04217530718F0A901DB0101C0EF0103
:102AC0009A01BD01DF010280F381E02DD7CF2115EE
:102AD0003105F9F0281B390B2430310580F48A8147
:102AE0009B816115710521F0FB019383828304C0F2
:102AF00090938A0F8093890FFE01329644C0FE01A5
:102B0000E20FF31F81939193225031093983288377
:102B10003AC02091870F3091880F232B41F42091E8
:102B20000202309103023093880F2093870F209187
:102B30000002309101022115310541F42DB73EB755
:102B40004091040250910502241B350BE091870F40
:102B5000F091880FE217F307A0F42E1B3F0B281704
:102B6000390778F0AC014E5F5F4F2417350748F006
:102B70004E0F5F1F5093880F4093870F819391935F
:102B800002C0E0E0F0E0CF01DF91CF910895CF9354
:102B9000DF93009709F487C0FC01329713821282F9
:102BA000C091890FD0918A0F209781F420813181C3
:102BB000280F391F8091870F9091880F82179307F4
:102BC00079F5F093880FE093870F6DC0DE0120E068
:102BD00030E0AE17BF0750F412964D915C911397F9
:102BE0009D014115510509F1DA01F3CFB383A283A9
:102BF00040815181840F951F8A179B0771F48D9135
:102C00009C911197840F951F029691838083129651
:102C10008D919C911397938382832115310529F41B
:102C2000F0938A0FE093890F3EC0D9011396FC936D
:102C3000EE9312974D915D91A40FB51FEA17FB0714
:102C400079F480819181840F951F0296D9011196A4
:102C50009C938E938281938113969C938E9312976B
:102C6000E0E0F0E08A819B81009719F0FE01EC0121
:102C7000F9CFCE01029628813981820F931F2091CE
:102C8000870F3091880F2817390769F4309729F496
:102C900010928A0F1092890F02C013821282D09371
:102CA000880FC093870FDF91CF910895FC0188278B
:102CB0009927E89421912032E9F3293010F02E3041
:102CC000C8F32B3239F02D3231F4689403C014D09C
:102CD000820F911D219120532A30C8F31EF4909544
:102CE00081959F4F0895FB01DC0102C001900D9278
:102CF00041505040D8F708957AE0979F902D879FD4
:102D0000802D910D112408950F931F93CF93DF937E
:102D1000CDB7DEB72E970FB6F894DEBF0FBECDBF8E
:102D20000E891F8986E08C831A8309838FEF9FE7C2
:102D30009E838D83AE01465E5F4F688D798DCE0197
:102D4000019610D0EF81F885E00FF11F10822E96CA
:102D50000FB6F894DEBF0FBECDBFDF91CF911F91AC
:102D60000F9108952F923F924F925F926F927F92B0
:102D70008F929F92AF92BF92CF92DF92EF92FF928B
:102D80000F931F93CF93DF93CDB7DEB72C970FB67A
:102D9000F894DEBF0FBECDBF7C016B018A01FC0140
:102DA00017821682838181FFB0C1CE0101964C014A
:102DB000F7019381F60193FD859193FF81916F0156
:102DC000882309F49EC1853239F493FD859193FFE0
:102DD00081916F01853221F4B70190E0C7D1E8CF2E
:102DE000512C312C20E02032A0F48B3269F030F4E9
:102DF000803259F0833269F420612CC08D3239F071
:102E0000803339F4216026C02260246023C028600A
:102E100021C027FD27C030ED380F3A3078F426FF67
:102E200006C0FAE05F9E300D1124532E13C08AE0D5
:102E3000389E300D1124332E20620CC08E3221F4C6
:102E400026FD5FC1206406C08C3611F4206802C0E4
:102E5000883641F4F60193FD859193FF81916F01CE
:102E60008111C1CF982F9F7D9554933028F40C5F2A
:102E70001F4FFFE3F9830DC0833631F0833771F0C4
:102E8000833509F057C021C0F801808189830E5F26
:102E90001F4F44244394512C540114C03801F2E0D4
:102EA0006F0E711CF801A080B18026FF03C0652D54
:102EB00070E002C06FEF7FEFC5012C874CD12C0171
:102EC00083012C852F77222E16C03801F2E06F0E79
:102ED000711CF801A080B18026FF03C0652D70E051
:102EE00002C06FEF7FEFC5012C872AD12C012C8502
:102EF0002068222E830123FC19C0832D90E0481600
:102F00005906A0F4B70180E290E030D13A94F5CFB1
:102F1000F50127FC859127FE81915F01B70190E0C3
:102F200025D131103A94F1E04F1A5108411451045F
:102F300079F7DEC0843611F0893631F5F80127FFC4
:102F400007C060817181828193810C5F1F4F08C02F
:102F500060817181882777FD8095982F0E5F1F4FC4
:102F60002F76B22E97FF09C0909580957095619548
:102F70007F4F8F4F9F4F2068B22E2AE030E0A40190
:102F800027D1A82EA81843C0853729F42F7EB22E4A
:102F90002AE030E025C0F22FF97FBF2E8F36C1F036
:102FA00018F4883579F0ADC0803719F0883721F0F2
:102FB000A8C02F2F2061B22EB4FE0DC08B2D8460CF
:102FC000B82E09C024FF0AC09F2F9660B92E06C0F4
:102FD00028E030E005C020E130E002C020E132E02E
:102FE000F801B7FE07C060817181828193810C5F17
:102FF0001F4F06C06081718180E090E00E5F1F4F1F
:10300000A401E6D0A82EA818FB2DFF77BF2EB6FE90
:103010000BC02B2D2E7FA51450F4B4FE0AC0B2FCB9
:1030200008C02B2D2E7E05C07A2C2B2D03C07A2CA8
:1030300001C0752C24FF0DC0FE01EA0DF11D808139
:10304000803311F4297E09C022FF06C07394739463
:1030500004C0822F867809F0739423FD12C020FFEC
:1030600006C05A2C731418F4530C5718732C73148D
:1030700060F4B70180E290E02C8778D073942C85BF
:10308000F6CF731410F4371801C0312C24FF11C08F
:10309000B70180E390E02C8769D02C8522FF16C011
:1030A00021FF03C088E590E002C088E790E0B70107
:1030B0000CC0822F867851F021FD02C080E201C051
:1030C0008BE227FD8DE2B70190E050D0A51430F4DB
:1030D000B70180E390E04AD05A94F8CFAA94F40163
:1030E000EA0DF11D8081B70190E040D0A110F6CF2C
:1030F000332009F45DCEB70180E290E037D03A94F6
:10310000F7CFF7018681978102C08FEF9FEF2C9652
:103110000FB6F894DEBF0FBECDBFDF91CF911F91E8
:103120000F91FF90EF90DF90CF90BF90AF909F9066
:103130008F907F906F905F904F903F902F90089569
:10314000FC010590615070400110D8F78095909572
:103150008E0F9F1F0895FC01615070400190011077
:10316000D8F7809590958E0F9F1F08950F931F930A
:10317000CF93DF93182F092FEB018B8181FD03C0C3
:103180008FEF9FEF20C082FF10C04E815F812C81A6
:103190003D81421753077CF4E881F9819F012F5F3D
:1031A0003F4F39832883108306C0E885F985812F36
:1031B0001995892B29F72E813F812F5F3F4F3F8340
:1031C0002E83812F902FDF91CF911F910F91089522
:1031D000FA01AA27283051F1203181F1E8946F9348
:1031E0006E7F6E5F7F4F8F4F9F4FAF4FB1E03ED0EE
:1031F000B4E03CD0670F781F891F9A1FA11D680F8C
:10320000791F8A1F911DA11D6A0F711D811D911DBE
:10321000A11D20D009F468943F912AE0269F112433
:103220003019305D3193DEF6CF010895462F477097
:10323000405D4193B3E00FD0C9F7F6CF462F4F70F2
:10324000405D4A3318F0495D31FD4052419302D050
:10325000A9F7EACFB4E0A6959795879577956795F6
:10326000BA95C9F700976105710508959B01AC01F6
:103270000A2E06945795479537952795BA95C9F71D
:10328000620F731F841F951FA01D0895F894FFCF30
:1032900000008B0F20000A000000DF030501010180
:1032A0000000E50303E903050A02FE0000EF030541
:1032B000F503050A03FE0000FB030BF503050A04F2
:1032C000FE00000704040C04090A05FE00000000CB
:1032D00000DF03050AFFFF0000FFFF140041007834
:1032E000003700DC004B002C013C009001E2FF089D
:1032F0000241006C023700D00232003403460098CD
:1033000003000000000000000000000000000000BA
:1033100000000000000000000000000000000000AD
:10332000000000000000000000000000000000009D
:10333000000000000000000000000000000000008D
:10334000000000000000000000000000000000007D
:10335000000000000000000000000000000000006D
:10336000000000000000000000000000000000005D
:10337000000000000000000000000000000000004D
:10338000000000000000000000000000000000003D
:10339000000000000000000000000000000000002D
:1033A000000000000000000000000000000000001D
:1033B000000000000000000000000000000000000D
:1033C00000000000000000000000000000000000FD
:1033D00000000000000000000000000000000000ED
:1033E00000000000000000000000000000000000DD
:1033F00000000000000000000000000000000000CD
:1034000000000000000000000000000000000000BC
:1034100000000000000000000000000000000000AC
:10342000000000000000000000000000000000009C
:10343000000000000000000000000000000000008C
:10344000000000000000000000000000000000007C
:10345000000000000000000000000000000000006C
:103460000000000000000000000000C600CE004484
:10347000554D4D590024242400434D440D0A00535A
:10348000412C310D00414F4B0D0A00532D2C564954
:10349000422D4361720D00522C310D005265626F56
:1034A0006F74210D0A0049444C45002534642025E1
:1034B0003464202534640078253464792534647AB2
:1034C00025346472253464712534647425346400B1
:1034D00078253464207925346420782534640025E7
:1034E00064004A757374415461736B005374617264
:1034F0007475705461736B000001020300010200D7
:00000001FF
